:02000002D0002C
:1040000000400D003CD30D00000006000C0005012F
:084010000401BD0B00000000DB
:04401800D0C10D0006
:1040200009480A49884208B505D0094A824202D0A7
:10403000121A06F08FF90748074A0021121A06F0F3
:10404000B1F9014808BD00BF88E203202CD10D0062
:1040500070E4032070E40320F0E7032070B5074EFE
:10406000074C05F049F8A41BA4080025A54200D17F
:1040700070BD56F8043B98470135F7E7DCD00D00DA
:1040800014D10D0000F03EB808B500F0F3F9BDE81A
:10409000084004F0F3BF02F06BBF02F069BF02F00A
:1040A0006FBF02F06DBF0078B0FA80F04009704732
:1040B000012303707047000013B5054B1B788DF882
:1040C00000303C23044603F0FFF8204602B010BD48
:1040D00074E403200EB410B58DB00FAA016852F835
:1040E000044B039200232020CDE90403CDE90042D4
:1040F0001E2004AA02F070FE0DB0BDE8104003B00F
:104100007047000010B58AB004F0F2FE4FF416516B
:1041100004F0E2FE04F0ECFE2749284C03F0CBFE4D
:10412000274800F0CBFB274800F0ACFE05F096F8DE
:1041300003F0BCFA204600F0DBFE204600F03AFF18
:10414000204600F09CFF204600F0E4FE00222046BE
:10415000022100F0EAFE20461B4900F04CFF00223D
:104160002046032100F0E1FE2046184900F043FFFD
:1041700000222046042100F0D8FE1549204600F018
:104180003AFF02A802F074FE02A906A803F092FF0B
:10419000104906A803F0F0FF0023CDE900330E49D3
:1041A00000681A4602F074FE06A803F029FF02A870
:1041B00003F026FF0AB010BDE4C10D00A8E40320FF
:1041C00078E403208CE40320EFC10D00F8C10D005A
:1041D00000C20D0008C20D0091460D002DE9F0410E
:1041E000284C804620461D460F46164600F0E2FE4B
:1041F00000222046012100F098FE2046224900F0CE
:10420000FAFE4146DFF89480204600F001FF414667
:10421000204600F0F0FE00222046022100F085FE3C
:1042200020461A4900F0E7FE3946194F204600F0B3
:10423000EFFE3946204600F0DEFE00222046042133
:1042400000F073FE2046134900F0D5FE31462046AB
:1042500000F0DEFE4146204600F0CDFE0022204662
:10426000052100F062FE20460B4900F0C4FE2946FD
:10427000204600F0CDFE39462046BDE8F04100F072
:10428000BABE00BFA8E403201DC20D002BC20D0062
:1042900039C20D003BC20D0049C20D00C7C20D005E
:1042A0002DE9F84F10EE100A2DED028BB0EE608A6A
:1042B000F0EE408A05F038FB064618EE100A0F466D
:1042C00005F032FB68EEA87A824617EE900A8B461C
:1042D00005F02AFB68EE087A044617EE900A0D46B0
:1042E00005F022FB46A3D3E9002341EC180B30462E
:1042F000394605F071FB44A3D3E9002305F0B4F976
:1043000043A3D3E90023804689465046594605F029
:1043100063FB02460B464046494605F0A7F93EA31B
:10432000D3E90023804689463046394605F054FBE0
:1043300052465B4605F050FB02460B464046494656
:1043400005F094F936A3D3E9002380468946204638
:10435000294605F041FB02460B464046494605F01A
:1043600085F931A3D3E900238046894651EC180B27
:1043700005F032FB02460B464046494605F076F909
:104380002BA3D3E90023804689462046294605F021
:1043900023FB52465B4605F01FFB02460B46404698
:1043A000494605F063F924A3D3E9002380468946F2
:1043B0003046394605F010FB53EC182B05F00CFB8A
:1043C00002460B464046494605F050F91CA3D3E986
:1043D000002306460F462046294605F0FDFA53EC19
:1043E000182B05F0F9FA02460B463046394605F01F
:1043F0003DF9BDEC028B41EC100BBDE8F88F00BF1E
:10440000ECD8CE18626400408D976E128330454020
:10441000CD495AB762492440F847C607C9C4CCBF42
:10442000CC169C03FC017CBF248CD100FF10ACBFD8
:10443000E5DC6087B521543FDA303301F9F14B3FB9
:1044400001BDD3117EB1C0BE38B5046805467CB14C
:104450006368013B63605BB9236820469B689847AB
:10446000A368013BA3601BB923682046DB6898471B
:10447000284638BD30B52DED028B4CF2503089B056
:1044800002F0B6FD6A486B4C00F048FC6848F0EE5C
:10449000408A00F005FCB0EE408A02F0EDFA236895
:1044A000C01A654B98420FD902F0E6FA634B2060C0
:1044B0001B788DF8003004A861493C23002202F0EB
:1044C00003FF05A8FFF7C0FFF4EE688AF1EE10FACB
:1044D00004D6B4EE488AF1EE10FA08D704F008FDCD
:1044E000584903F0E8FC09B0BDEC028B30BD564CD6
:1044F000D4ED007AF4EEC87AF1EE10FA06D5002376
:1045000052480093FF22194600F074FCD4ED007A63
:10451000F4EEC87AF1EE10FA07DDFF2300930023D2
:104520004A481A46194600F065FCD4ED007A484D19
:10453000FDEEE77A95ED007A17EE902AFDEEE87A27
:10454000BDEEC77A17EE901AFDEEC87A17EE103A54
:1045500017EE900AFFF742FEB0EE480A3D493E488A
:1045600002F05DFAB0EE680A3C493B4802F057FAA7
:1045700094ED000A3A49384802F051FA95ED000AE4
:104580003849354802F04BFA374B33481A78374BE5
:10459000196802F04DFAB0EE480A062104A803F0AB
:1045A000A6FD049A324902A8FFF786FD03A8FFF78B
:1045B0004BFF04A803F024FDB0EE680A062104A80E
:1045C00003F095FD049A2B4902A8FFF775FD03A897
:1045D000FFF73AFF04A803F013FDF0EE680AB0EE0F
:1045E000480AFFF75DFE062104A803F09AFD049A2D
:1045F000214902A8FFF760FD03A8FFF725FF04A8E3
:1046000003F0FEFCD5ED000A94ED000AFFF748FE2A
:10461000062104A803F085FD049A184902A8FFF7B3
:104620004BFD03A8FFF710FF04A803F0E9FC5AE7CD
:1046300078E403208CE203209FBB0D0075E4032087
:1046400057C20D006AC20D0094E203208CE40320DF
:1046500090E2032089C20D0094E4032095C20D006E
:10466000A5C20D00B2C20D0074E4032088E203204D
:10467000C3C20D00C9C20D00CFC20D00E1C20D00C2
:104680000B68036013B15A6801325A60704700002A
:10469000F0B50A4691B00C4648484949494D4A4E42
:1046A000FFF718FD204605F0F6FE2146024603A856
:1046B00003F0B2FA059C039B069304A907A8FFF731
:1046C000DFFF06AA21460AA803F066FA07A8FFF74B
:1046D000BBFE3E4F0AA803F077FA002866D00D9C77
:1046E0000A9B01930BA902A8FFF7CAFF214601AA62
:1046F00006A803F02DFA02A8FFF7A6FE089829469F
:1047000005F099FE044607A8FFF79EFECCB90E9C63
:104710000A9B01930BA902A8FFF7B2FF01AA214649
:1047200006A803F0D3F802A8FFF78EFE06A803F050
:1047300003F951EC100B05F009FC306007A8FFF7F6
:1047400083FE0D9C0A9B01930BA902A8FFF798FF1B
:10475000214601AA06A803F0FBF902A8FFF774FEA0
:104760000898394605F067FE044607A8FFF76CFE77
:10477000002CAFD10E9C0A9B01930BA902A8FFF756
:104780007FFF01AA214606A803F0A0F802A8FFF7C0
:104790005BFE06A803F0D0F851EC100B05F0D6FB39
:1047A0000B4B186007A8FFF74FFE92E70BA8FFF727
:1047B0004BFE04A8FFF748FE11B0F0BD50E6032001
:1047C000F4C20D000BC30D0094E2032010C30D00D2
:1047D00090E20320134B1449002270B51A70134C59
:1047E000134B144D01261E700322204602F0F6F8EA
:1047F0002A4611492046114C04F058FD06230B228D
:1048000013210F4800F053F8334609220A212046AD
:1048100000F086FA2A4620460A49BDE8704004F0B6
:1048200045BD00BF74E4032014C30D0094E40320CD
:1048300075E4032070E40320F9690D008CE4032083
:1048400078E403203B4D0D0010B503682F2B044680
:1048500004D9074A00210A2002F09EFA23681F2B80
:1048600083BF03F01F03034823604FF0A04010BD37
:10487000696A0D000003005007B5019001A8FFF719
:10488000E3FF019A01239340C0F8083503B05DF8B7
:1048900004FB07B5019001A8FFF7D6FF019BD0F8F4
:1048A0001005D84000F0010003B05DF804FB10B51E
:1048B000037201238171C271037410BD2DE9F041AF
:1048C00005461E4C8079DFF87880002104F084FCD6
:1048D000AE792378BFF35B8F13F0010F0AD1204626
:1048E000FFF7E1FB30B102F0CFF8C8F80000204636
:1048F000FFF7DEFBD8F8003036019F5D2378BFF369
:104900005B8FDB074FEA47170AD40C48FFF7CBFB56
:1049100030B102F0B9F8C8F800000848FFF7C8FB4A
:10492000D8F8003033445B7803F01F0343EA0700F4
:10493000FFF7A2FF0023EB60BDE8F081A0E40320B5
:10494000A4E403202DE9F04F044685B002F094F86A
:10495000E368834284BF0023E360237C2BB9E368D0
:10496000C01AB0F5FA6FC0F060810025257402F01E
:1049700083F8B04E25602571E060A7793378AE4D9D
:10498000BFF35B8F13F0010F09D13046FFF78BFBAC
:1049900028B102F079F828603046FFF789FB2B68D0
:1049A0003F0113F807803378BFF35B8FD9074FEAD5
:1049B000481809D49F48FFF776FB28B102F064F845
:1049C00028609C48FFF774FB2B681F44787800F040
:1049D0001F0040EA0800FFF74FFFFA2002F008FB33
:1049E000A079012104F0F8FBA7793378BFF35B8F3E
:1049F000DA0709D48F48FFF756FB28B102F044F8D4
:104A000028608C48FFF754FB2B683F01DB5D4FEAC1
:104A100043183378BFF35B8FDB0709D48548FFF772
:104A200042FB28B102F030F828608248FFF740FBD3
:104A30002B681F4403A87B7803F01F0343EA080395
:104A40000393FFF701FF039A01239340C0F80C354D
:104A5000142002F0CDFA02F03DFEA7793378BFF3BF
:104A60005B8FD80709D47348FFF71DFB28B102F00C
:104A70000BF828606F48FFF71BFB2B683F0113F80A
:104A800007803378BFF35B8FD9074FEA481809D402
:104A90006848FFF708FB28B101F0F6FF2860654879
:104AA000FFF706FB2B681F44787800F01F0040EAF0
:104AB0000800FFF7E1FE282001F0D6FFA079DFF81B
:104AC0007481002104F088FB00270123BA4600937B
:104AD0004FF0000994F806B03378BFF35B8FDA0724
:104AE00009D44046FFF7DFFA28B101F0CDFF286076
:104AF0004046FFF7DDFA2B684FEA0B1B13F80B302B
:104B00005B0101933378BFF35B8FDB0709D4404629
:104B1000FFF7C9FA28B101F0B7FF28604046FFF758
:104B2000C7FA2B685B4493F801B0019B0BF01F0B95
:104B30004BEA030B5846FFF7ACFE5846FFF7A9FEB9
:104B4000009B834209D109F101095FFA89F901202B
:104B500001F08AFFB9F1FF0FBCD194F806B03378A9
:104B6000BFF35B8FD80709D44046FFF79CFA28B102
:104B700001F08AFF28604046FFF79AFA2B684FEA57
:104B80000B1B13F80B305B0100933378BFF35B8F83
:104B9000D90709D44046FFF786FA28B101F074FF1F
:104BA00028604046FFF784FA2B685B4493F801B015
:104BB000009B0BF01F0B4BEA030B5846FFF769FEF7
:104BC0005846FFF766FEB9F1FF0FC3B2009318D045
:104BD000032F11D9FA070FD44FEADA020AF1010ABA
:104BE000A35C5B00DBB2A354217A49453CBF43F090
:104BF0000103A3545FFA8AFA0137FFB2552F7FF4FD
:104C000067AF02F069FDBAF1270F10D963782078F9
:104C10001844A3781844E37818442379C0B2C31A1F
:104C20005842584105B0BDE8F08F0120FAE7002056
:104C3000F8E700BFA0E40320A4E4032010B5044675
:104C4000FFF780FE20B3E3790B2B1BD0153B012B24
:104C50001ED8A378DFED106A03F07F0207EE102A5A
:104C6000E27807EE902AB8EEC77AF8EEE77A1B06EC
:104C7000E7EE267AB2EE047A87EE870A07D5B1EE20
:104C8000400A04E0A37800EE103AB8EE400A10BDE6
:104C90009FED020AFBE700BF000080430000C07FD9
:104CA00008B5FFF7CBFFF2EE027A20EE270AF1EE0D
:104CB000047A80EE277A9FED020A37EE000A08BDDB
:104CC0000000004210B50446FFF73CFEF0B1E37966
:104CD0000B2B15D0153B012B18D82378DFED0D6A6F
:104CE00007EE103A637807EE903AB8EE477AF8EE9E
:104CF000E77AE7EE267AB2EE047A87EE870A10BDED
:104D0000237800EE103AB8EE400AF8E79FED020A69
:104D1000F5E700BF000080430000C07FFFF7D2BF6F
:104D200010B50446017042708370012103EB43000B
:104D300005F0FAFA6060204610BD10B504464068E0
:104D400002F01EF9204610BD10B50021044600787F
:104D500004F053FA142001F087FE2078012104F0BA
:104D60004CFABDE81040142001F07EBE70B5064636
:104D70000C46082523064CBF01210021707804F061
:104D80003CFA013D3046FFF7DFFF640015F0FF05F8
:104D9000E4B2EFD170BD73B513F0800F1E460C4620
:104DA000154614BFC021E021730658BF41F0100121
:104DB0002A0658BF41F008016B0658BF41F00401B4
:104DC000220658BF41F00201630658BF41F00101BD
:104DD0000190FFF7CBFF01983146FFF7C7FF01981D
:104DE0002946FFF7C3FF0198214602B0BDE8704095
:104DF000FFF7BCBF2DE9F04704460F46002190465F
:104E000099469DF820A0FFF7B1FF00212046FFF74B
:104E1000ADFF00212046FFF7A9FF00212046FFF744
:104E2000A5FF0026A378F5B2AB4219D905EB4500E2
:104E3000AF4200F1010200F1020308D1616801F8FC
:104E40000080616801F80290616801F803A0616860
:104E5000CB5C8A5C095C2046FFF79DFF0136E1E7E9
:104E600020460021FFF782FF20460021FFF77EFF4A
:104E700020460021FFF77AFF20460021BDE8F047D9
:104E8000FFF774BF73B504460121007804F0A4F95C
:104E90006078012104F0A0F900252E46A378E9B23C
:104EA0008B4207D9002300961A462046FFF7A2FF3F
:104EB0000135F3E702B070BD0368C9B29B681847BB
:104EC00010B5044604F0CAF93C2102F0F9FB04F0E5
:104ED000C5F98021FFF7F0FF04F0C0F9036821460F
:104EE0009B68984704F0BAF9BDE8104002F0EFBBA8
:104EF00008B5AE20FFF7E4FF052002F079F8AF20F7
:104F0000FFF7DEFF052002F073F8BDE80840A62099
:104F1000FFF7D6BF08B5012303702020FFF7D0FFAD
:104F2000BDE808400220FFF7CBBF10B5503914464A
:104F3000C8B2FFF7C5FFE00000F00800FFF7C0FFB0
:104F4000C4F343001030BDE81040FFF7B9BF10B5FF
:104F50000C4604F083F93C2102F0B2FB04F07EF928
:104F60004021FFF7A9FF04F079F9036821469B6807
:104F7000984704F073F9BDE8104002F0A8BB0000A8
:104F8000A1F120035F2B88BF202170B501F10051F2
:104F9000074D2039064605EBC105082415F8011B0D
:104FA0003046013CFFF7D3FF14F0FF04F6D170BD8B
:104FB00024C30D0070B50546AE20FFF781FF002623
:104FC0000022F1B22846FFF7B0FF10242021284626
:104FD000013CFFF7D5FF14F0FF04F7D10136082E8E
:104FE000EED1AF20FFF76CFF224621462846BDE8F0
:104FF0007040FFF79ABF70B506460D460024E3B235
:105000000134E95C19B13046FFF7BAFFF7E770BD2C
:10501000F0B585B000230C1ECDE901330646ADF88E
:105020000C3024DA2D21FFF7ABFF64420123002569
:105030000A202A4604A90A440135B4FBF0F100FB1A
:10504000114402F80C4CEDB20C460029F1D12B446E
:10505000DCB204AB5F190D3F75B117F8011930319F
:10506000C9B23046013DFFF78BFFEDB2F4E7DED168
:105070003021FFF785FF0124204605B0F0BDA620B2
:10508000FFF71EBF03681847012A03D0022A03D086
:10509000002070470160FBE70B680360F8E7000041
:1050A00013B51C20FEF7F7FF044648B1064B07492D
:1050B0001B6800930968064B42F2343201F078F81D
:1050C000204602B010BD00BF34E5032030E50320C8
:1050D00024C60D0013B52020FEF7DDFF044640B1C5
:1050E000054B06491B6800930968054B502200F0E8
:1050F0005FFA204602B010BD34E5032030E50320FE
:1051000024C60D0013B51C20FEF7C5FF044648B1A8
:10511000064B07491B6800930968064B42F234327C
:1051200001F0B0FB204602B010BD00BF34E5032003
:1051300030E5032024C60D0013B51420FEF7ABFFA5
:10514000044640B1054B06491B68009300230968DB
:105150001A4600F059FD204602B010BD34E5032088
:1051600030E5032010B5064B036064330446036149
:1051700003F0B6FB204603F0ADFC204610BD00BF97
:105180006CCC0D0038B584690A4B036005467CB1D0
:105190006368013B63605BB9236820469B6898475E
:1051A000A368013BA3601BB923682046DB689847CE
:1051B000284638BD04CC0D0010B58368044613B1F1
:1051C000032201469847204610BD000010B586B066
:1051D00002AB0291044693E803006A4682E80300AA
:1051E00094E8030083E8030092E80300A2680492B5
:1051F000064AA260E2680592054AE26084E803007C
:105200001846FFF7D9FF204606B010BD89500D00A3
:1052100085500D0010B50446FFF7B4FF20461C2151
:1052200004F049F8204610BD10B50446FFF79AFF78
:1052300020464C2104F03FF8204610BD70B500F127
:105240000801C2680B463AB1157C0478A5422ABF12
:105250001346D2689268F6E7994204D000781A7C27
:10526000904238BF0B46DA690AB904F0DCF8BDE8B1
:1052700070401A6A03F1140010478B6870B5164627
:1052800004460D1D01225BB130781A7C904234BF78
:105290009868D8681D4634BF012200220346F2E711
:1052A00092B1CA68AA4203D1C4E90035204670BD54
:1052B000284604F05AF83378027C9A424FF00003F3
:1052C000F2D3C4E90003F1E72846F4E72DE9F043FF
:1052D00000F10408856885B006468946444655B104
:1052E00099F800302A7C9A4236BFEB68AB682546B5
:1052F0002C461D46F3E7A04504D099F80020237CF6
:105300009A422ED22420FEF7C6FE99F8009080F82B
:1053100010900023A045074600F11002C36125D17B
:1053200073691BB131690B7C4B4509D3314602A827
:10533000FFF7A3FFDDE90241002951D0002C4DD138
:1053400088454BD0387C0B7C98422CBF0020012034
:1053500043460A46394604F00AF87369013373611B
:105360003C4604F1140005B0BDE8F083237C0192B3
:105370004B4518D9F3689C4209D0204603F0F5FF4D
:10538000037C019A4B4505D2C36853B904462146B4
:105390001C46D1E7314602A8FFF76FFFDDE9023472
:1053A000F5E72346F3E71BD231698C420BD0204648
:1053B00003F0C8FF037C019A4B45054605D9E36815
:1053C00053B921461D462C46B6E7314602A8FFF7E1
:1053D00054FFDDE90251F6E70146F4E70120B7E7A3
:1053E00007F11400FFF7E8FE3846FEF758FE27469F
:1053F000B6E700002DE9F341051D0026174600F130
:105400000802C0E90362C0E9052604468846067220
:1054100003700DF10701012328468DF80730FFF7CF
:1054200055FF1649FFF7D2FE0DF1070128468DF80A
:105430000760FFF74BFF1249FFF7C8FE02230DF18B
:10544000070128468DF80730FFF740FF0D49FFF7A9
:10545000BDFE03230DF1070128468DF80730FFF745
:1054600035FF0949FFF7B2FE084BC3F80080084B2F
:1054700020461F6002B0BDE8F08100BFA1500D00C2
:10548000D5500D0005510D0039510D0030E50320B8
:1054900034E5032010B50E4C204603F0DFF820461B
:1054A0000C4C0D4A0D4903F001FF204603F0D6F8DD
:1054B00020460B4C084A094903F0F8FE204603F049
:1054C000E9FA2046044A0749BDE8104003F0EEBE61
:1054D00014E50320ACE4032070E4032085510D00A3
:1054E000C8E4032065510D00017570470022011DBD
:1054F000C0E90221C0E904120271704770B5064686
:105500002DED028B142001F033FD0546142001F02F
:105510002FFD0446304604F0BEFF32460023023819
:10552000984214DD12F8011B0D293AD111780A298D
:1055300037D151780D2934D191780A2931D10433EA
:10554000F1181422284604F0C0FF00232B750A210D
:10555000284604F063FF064628B30A21013004F010
:105560005DFF00B33146204604F06FFF204604F093
:1055700092FF2044002300F8013C204604F0D0FEB6
:1055800051EC100B04F0E2FC08EE100A204601F08A
:10559000F7FC284601F0F4FCB0EE480ABDEC028BA3
:1055A00070BD0133BCE79FED018AF5E75F42A2CDF4
:1055B00030B5074D05600025C0E901130575039B53
:1055C00041F2883585610525C0E90332057730BD94
:1055D00040C80D002DE9F74FDFF88C80DFF88CA074
:1055E000DFF88CB004460D461746002640465FFAA9
:1055F00086F902F026FE88BB237F4B452ED9237DFA
:10560000CBB103F075FC514602F042FC03F070FC94
:10561000294602F03DFC03F06BFC594602F038FCD1
:1056200003F066FC0A224946019002F04EFC019B01
:10563000184602F034FC0023BAB22946404603F073
:1056400031F8237D23B103F053FC064902F033FC0B
:105650004FF47A7001F0CCFC0136C7E703B0BDE827
:10566000F08F00BF62C60D0038E5032038C60D007C
:105670004EC60D002DE9F0414B1E0C4601F52F7270
:105680000546002103F8011F9342FBD12B7D4BB14E
:1056900003F02EFC144902F00EFC03F029FC134920
:1056A00002F009FC124F002640F2BB28384602F0F7
:1056B0002BFF70B1384602F060FEA0552B7D2BB158
:1056C00003F016FC0368A15D9B68984701364645C8
:1056D000ECD12B7D33B103F00BFCBDE8F041054963
:1056E00002F0E9BBBDE8F08187C60D0073C60D006E
:1056F00038E5032086C60D00F8B50E4F0446002697
:10570000384602F001FF054690B9A369B3420FDDA8
:10571000012001F06DFCA3690136B342F0DC207D6D
:1057200028B103F0E5FB044902F0C5FB2846F8BDAB
:105730000120FCE738E5032092C60D00F8B50F46BE
:105740000269416804461D46FFF744FF784802F0AD
:1057500078FD0646002800F0E1807649744802F0A2
:1057600097FB3946724802F093FB7349704802F088
:105770008FFB72496E4802F08BFB61686C4802F047
:1057800087FB6F496A4802F083FB6E49684802F064
:105790007FFBA168664802F07BFB6949644802F020
:1057A00077FB6949624802F073FBE168604802F0E8
:1057B0006FFB63495E4802F06BFB64495C4802F092
:1057C00067FB63495A4802F063FB284604F063FE16
:1057D00060490646564802F05BFB0A2231465448AF
:1057E00002F073FB5C49524802F052FB29465048D4
:1057F00002F04EFB52494E4802F04AFB4C4802F080
:105800001FFD237D002B69D003F072FB534902F08A
:1058100052FB03F06DFB474902F03AFB03F068FBD3
:10582000394602F035FB03F063FB434902F030FBDD
:1058300003F05EFB414902F02BFB03F059FB61686A
:1058400002F026FB03F054FB3D4902F021FB03F07C
:105850004FFB3C4902F01CFB03F04AFBA16802F03D
:1058600017FB03F045FB364902F012FB03F040FB47
:10587000354902F00DFB03F03BFBE16802F008FB49
:1058800003F036FB2E4902F003FB03F031FB2F49F6
:1058900002F0FEFA03F02CFB2D4902F0F9FA03F0B6
:1058A00027FB2C4902F0F4FA03F022FB0A223146CE
:1058B00002F00BFB03F01CFB274902F0E9FA03F0AE
:1058C00017FB294602F0E4FA03F012FB1C4902F030
:1058D000DFFA03F00DFB224902F0EDFA2046FFF754
:1058E0000BFF237D2BB90124114802F067FE2046EF
:1058F000F8BD03F0FDFA1B490D4D02F0DCFA284615
:1059000002F002FE0028EED0284602F036FD0446E2
:1059100003F0EEFAE1B202F0BFFAF0E7247D002CCA
:10592000E2D003F0E5FA104902F0C5FA3446DBE7AD
:1059300038E50320C5C60D00DDC60D00E9C60D0023
:105940000DC80D00F0C60D00FDC60D000CC70D0002
:1059500020C70D0041C70D000BC80D0052C70D0038
:105960006EC70D008CC70D00A8C70D0070B52DEDDA
:10597000028B044600230E461546416866485022B5
:1059800002F090FE204661685022FFF723FE624835
:1059900002F057FC002800F0B68060495E4802F033
:1059A00077FA31465C4802F073FA5D495A4802F0D2
:1059B0006FFA2946584802F06BFA5A49564802F0E5
:1059C00067FA5949544802F063FA5849524802F0BC
:1059D0005FFA6168504802F05BFA55494E4802F0A0
:1059E00057FA54494C4802F053FAA1684A4802F069
:1059F0004FFA4F49484802F04BFA4F49464802F0E7
:105A000047FAE168444802F043FA4949424802F043
:105A10003FFA4A49404802F03BFA237D002B4FD021
:105A200003F066FA3D4902F033FA03F061FA3146B9
:105A300002F02EFA03F05CFA394902F029FA03F079
:105A400057FA294602F024FA03F052FA354902F0D7
:105A50001FFA03F04DFA344902F01AFA03F048FA3B
:105A6000324902F015FA03F043FA616802F010FAC5
:105A700003F03EFA2E4902F00BFA03F039FA2D49F1
:105A800002F006FA03F034FAA16802F001FA03F01A
:105A90002FFA274902F0FCF903F02AFA264902F00E
:105AA000F7F903F025FAE16802F0F2F903F020FAC1
:105AB0001F4902F0EDF903F01BFA204902F0E8F962
:105AC0002046FFF719FE48B913489FED1D8A02F0E2
:105AD00075FDB0EE480ABDEC028B70BD4FF42F701F
:105AE00001F046FA014605462046FFF7C3FD284669
:105AF000FFF704FD0848B0EE408A02F05FFD28463B
:105B000001F03EFAE5E7237D002BDDD003F0F0F94C
:105B10000C4902F0D0F9D7E738E50320D2C70D00D1
:105B2000E7C70D00E9C70D00DDC60D00E9C60D0091
:105B30000DC80D00F0C60D00FDC60D00EDC70D002F
:105B40005F42A2CD10C80D0010B5054C204602F0F2
:105B500085FD2046034A0449BDE8104003F0A6BB7A
:105B600038E5032070E4032085510D009FED010A04
:105B7000704700BF5F42A2CD017470470022011D33
:105B8000C0E90221C0E904120271704730B585B046
:105B90001A46089B1B788DF8003002A83C2301F0C0
:105BA00093FB0020029C01F02FF920B1637813B918
:105BB00001F04EF9FAE76378BFF35B8F651CABB970
:105BC0000025039C7CB16368013B63605BB923687B
:105BD00020469B689847A368013BA3601BB92368D4
:105BE0002046DB689847284605B030BD002001F00C
:105BF0000BF920B12B7813B901F02AF9FAE72378D1
:105C0000012BDDD1257BDCE710B5044C0460C0E935
:105C100001130024029B0474C36010BD58C80D001A
:105C200010B50446006808B1FEF73BFAE06801F0E1
:105C3000A7F9606810B1042103F03DFB204610BDB8
:105C400038B504460120607494F91000E56800EB53
:105C5000800045F8201094F91010E06801EB8101F4
:105C600000EB810181ED020A94F91010E06801EB6C
:105C7000810100EB81014A6094F91020E16802EB98
:105C8000820201EB8202D36094F91030E26803EBE8
:105C9000830302EB8303049A1A61237C01335BB212
:105CA0000A2B237408DDA37C23B103F021F90349F7
:105CB00002F001F90A23237438BD00BF68C80D0043
:105CC00010B510EE100A86B00C4603F02DFE024609
:105CD0000B4601A80A4901F063F901A81422002328
:105CE00010F8011B202906D0E1540133DBB211B9B1
:105CF000E15406B010BD013A12F0FF02F0D1F8E70E
:105D0000A7C80D002DE9F04F0C4689B04C49DFF8CB
:105D10005481DFF85491DFF854A10546204604F081
:105D200094FB002695F910309E426ADAEB6806EB88
:105D3000860B03EB8B0393ED020A03A92846FFF7BA
:105D4000BFFFEB6803A9009153F82B302246414670
:105D5000204601F025F9EB684FEA8B073B44DB68EE
:105D600043B322464946204601F01AF9EB683B440A
:105D70001B69002B38D00A2093FBF0F191FBF0FC5B
:105D800000FB1C1C00FB1131C9B2642293FBF2F230
:105D900092FBF0FE00FB1E2200915FFA8CF3294972
:105DA000D2B202A801F0FCF8274902AB22462046F5
:105DB00001F0F6F8EB681F447B6823B123492246C3
:105DC000204601F0EDF822462149204601F0E8F88E
:105DD000013695F91030F6B29E4222460ADA1D4984
:105DE000204601F0DDF89DE722465146204601F0AD
:105DF000D7F8DFE71649204601F0D2F800232B74CC
:105E000090E7AB7CC3B103F073F8134902F053F889
:105E100003F06EF8114902F04EF803F069F82146DC
:105E200002F049F803F064F80B4902F044F803F07B
:105E30005FF80B4902F03FF809B0BDE8F08F00BFF2
:105E4000ACC80D00D4C80D00DBC80D00E6C80D00BD
:105E5000F5C80D00F9C80D0087C60D00FDC80D007E
:105E60000FC80D00AEC80D00C1C80D00E0C80D0080
:105E70002DE9F04F0C46054689B05249DFF8748190
:105E8000DFF87491204616461F4604F0DEFAAB6830
:105E90004D4A4E49204601F083F833464C4900975D
:105EA0002246204601F07CF84A49494F22462046C6
:105EB00001F076F8002695F910309E4264DAEB681E
:105EC00006EB860B03EB8B0393ED020A03A928462E
:105ED000FFF7F6FEEB6803A9009153F82B3022463A
:105EE0003946204601F05CF8EB684FEA8B0A5344D0
:105EF0005B6823B122464146204601F051F8EB6829
:105F00005344DB683BB322464946204601F048F83B
:105F1000EB6853441B6953B30A2093FBF0F191FBE8
:105F2000F0FC00FB1C1C00FB1131C9B2642293FB86
:105F3000F2F292FBF0FE00FB1E2200915FFA8CF35E
:105F40002549D2B202A801F02BF8244902AB22461F
:105F5000204601F025F895F910300136F6B29E4240
:105F600022460ADA1E49204601F01AF8A3E71D4925
:105F70002246204601F014F8EDE71B49204601F0C7
:105F80000FF800232B7496E7AB7CC3B102F0B0FF8F
:105F9000164901F090FF02F0ABFF154901F08BFFAD
:105FA00002F0A6FF214601F086FF02F0A1FF0F4993
:105FB00001F081FF02F09CFF024901F07CFF09B073
:105FC000BDE8F08F0FC80D0024C60D0006C90D00F6
:105FD00012C90D001AC90D00D4C80D00DBC80D0090
:105FE000F9C80D00E0C80D002CC90D0087C60D00D2
:105FF000FDC80D001FC90D0025C90D002DE9F7438F
:1060000004464FF42F701E460F46904600F0B0FF36
:10601000E37C013B012B054626D8014643463A4620
:106020002046FFF725FFA37C23B102F061FF114951
:1060300001F041FF606803680096D3F8009039468C
:106040002B464246C8470746284600F099FF1EB136
:106050000121304603F02FF9002307B1637438465D
:10606000237403B0BDE8F08301462046FFF74AFEE3
:10607000D9E700BF33C90D0070B5044601200D46B5
:106080001646FEF708F8067003462A4629462046BB
:10609000BDE87040FFF7B2BF70B505460C4684B14D
:1060A000E1682846FFF7F8FFE369A66823B104F129
:1060B00014010322084698472046FDF7F0FF3446B6
:1060C000EDE770BDF0B58DB0044601A80D4617464A
:1060D0001E4600F0CDFE03980130FDF7DEFF01996A
:1060E000206004F0B2F92A4633463946E67405A822
:1060F000FFF780F9C82000F03BFFE06005A8FFF73C
:106100009DF80023C4E901050899237406A8FFF748
:10611000C3FF01A801F074FF0DB0F0BD38B5002534
:1061200004460582FFF7CEFF204638BD70B5054610
:106130000C464CB1E1682846FFF7F8FFA6682046F8
:10614000FDF7ADFF3446F4E770BD000010B5104B0D
:10615000104C00221A70204602F080FA20460E4CA5
:106160000E4A0F4903F0A2F8204602F077FA2046C3
:106170000C4C0A4A0A4903F099F8204602F08AFCBE
:106180002046064A0849BDE8104003F08FB800BF1A
:10619000D8E50320BCE5032054E5032070E4032088
:1061A00085510D0070E5032065510D0001757047A4
:1061B00030B5064D0560C0E901130025039B057548
:1061C00041F28835C0E90332856130BDE0C90D0078
:1061D0002DE9F84F0D461746804602F089FE1E490C
:1061E0001E4EDFF87CA0DFF87CB001F064FE0024D6
:1061F000304602F0FAF960BB052C2AD098F814302A
:10620000C3B102F075FE514601F042FE02F070FE8D
:10621000294601F03DFE02F06BFE594601F038FEC2
:1062200002F066FE0A228146214601F04EFE4846F3
:1062300001F035FE304602F0C1F90023BAB229461A
:10624000304602F02FFA4FF47A7000F0D1FE01349C
:10625000CEE7BDE8F88F00BF43C90D00DCE50320A1
:1062600038C60D004EC60D0070B504460E46816856
:106270002E48154601F00CFE2D492C4801F008FE71
:10628000E1682A4801F004FE2A49284801F000FE8E
:106290003146264801F0FCFD2749244801F0F8FD6D
:1062A0002946224801F0F4FD2449204801F0F0FD80
:1062B000237D002B38D002F01BFE214901F0FBFDAD
:1062C00002F016FE1F4901F0F6FD02F011FEA16872
:1062D00001F0DEFD02F00CFE154901F0D9FD02F0DF
:1062E00007FEE16801F0D4FD02F002FE114901F061
:1062F000CFFD02F0FDFD314601F0CAFD02F0F8FDD0
:106300000D4901F0C5FD02F0F3FD294601F0C0FD85
:1063100002F0EEFD094901F0BBFD02F0E9FDBDE828
:106320007040094901F0C7BD70BD00BFDCE5032026
:106330005BC90D005EC90D0004C90D002EC90D001A
:1063400076C90D0060C90D0075C90D00F8B50E4F76
:1063500004460026384602F0D7F8054690B9A369EE
:10636000B3420FDD012000F043FEA3690136B342C2
:10637000F0DC207D28B102F0BBFD044901F09BFD5B
:106380002846F8BD0120FCE7DCE5032092C60D009D
:106390002DE9F047037D0646884614464BB102F0CE
:1063A000A7FD274901F087FD02F0A2FD254901F074
:1063B00082FDDFF8A490002540F2BB2A484602F097
:1063C000A3F878B1484601F0D8FF337DC7B22BB1AE
:1063D00002F08EFD036839469B6898476755013582
:1063E0005545EBD1337D23B102F082FD164901F012
:1063F00062FD002363551549404604F01CF868B956
:106400001349204604F074F89FED120A0028F7EEB5
:10641000007A18BFB0EE670ABDE8F0877C212046FD
:1064200003F0FCFF48B1013003F07AFF51EC100B90
:1064300003F08CFD00EE100AEEE79FED060AEBE795
:1064400087C60D0073C60D0086C60D007BC90D0002
:1064500080C90D005F42A2CDDCE5032070B52DEDB3
:10646000028B04464168224842F234321D46002322
:1064700002F018F92046616842F23432FFF7A8FEB4
:106480001B4801F0DEFE48B32946194801F000FD23
:106490002046FFF75BFF054638B9154802F08EF835
:1064A0000025BDEC028B284670BD642000F060FD25
:1064B0001049024606462046FFF76AFF3046B0EE16
:1064C000408A00F05DFDDFED0C7AB4EE678AF1EEF4
:1064D00010FAE2D0064802F071F8E2E7237D002BC3
:1064E000DBD002F005FD054901F0E5FCD5E700BF72
:1064F000DCE503207BC90D005F42A2CD83C90D00FE
:1065000070B52DED028B044600230D4616464168FA
:106510001E4842F2343202F0C5F82046616842F269
:106520003432FFF755FE194801F08BFE28B32046A0
:1065300032462946FFF798FE2046FFF707FF48B985
:1065400012489FED138A02F039F8B0EE480ABDEC0C
:10655000028B70BD4FF42F7000F00AFD0D4902460A
:1065600005462046FFF714FF0848B0EE408A02F0C7
:1065700025F8284600F004FDE7E7237D002BDFD057
:1065800002F0B6FC044901F096FCD9E7DCE50320F3
:106590005F42A2CDA1C90D00A4C90D002DE9F047AD
:1065A0000446182015460F46FDF775FD07F1040A4D
:1065B0006B68D5F80090BA6843610646C0F8109041
:1065C0005546012352B113694B45CCBF9168D16840
:1065D0001546CCBF012300230A46F3E7A3B1FB68AD
:1065E000AB4223D0284602F0C0FE8046D8F81030D7
:1065F0004B451BDB3046FDF752FDC4F800800023FD
:1066000023712046BDE8F087A846EFE72869814559
:10661000ACBF0020012053462A46314602F0A7FEB7
:106620007B69266001337B610123E9E7AA45EDD14F
:106630000120F0E72DE9FF470D4604464FF42F7087
:1066400000F096FC2B7D07464BB102F051FC3A4915
:1066500001F031FC02F04CFC384901F02CFCDFF871
:10666000F090002640F2BB2A484601F04DFF88B169
:10667000484601F082FE2B7D5FFA80F82BB102F0D4
:1066800037FC036841469B68984707F80680013647
:106690005645E9D12B7D23B102F02AFC284901F0AF
:1066A0000AFC0025231DC4E90253C4E90435254929
:1066B00025713846BD5504F065FDDFF89890DFF888
:1066C00098A0DFF8808006467EB34946304603F046
:1066D000B2FE00BB414604F055FD1B49064603F0DF
:1066E000AAFE18B9194B0095019308E0304603F053
:1066F00017FE51EC100B009503F028FC01906A4640
:10670000214602A8FFF74AFF4146002004F03AFD67
:1067100001350646D8E75146304603F08CFE002886
:10672000F2D1414604F02EFDDCE7384600F028FCAB
:10673000204604B0BDE8F08787C60D0073C60D0083
:1067400086C60D005EC90D00CAC90D005F42A2CD0C
:10675000DCE5032080C90D00CFC90D002DE9F04113
:10676000071D98460023C0E90237C0E9047303718E
:106770000D4688B04968044616462E4842F2343227
:1067800001F090FF2846696842F23432FFF720FD9D
:10679000284801F056FD10B3314642462846FFF71F
:1067A00063FD2846FFF7D2FD0646C0B92148224FB7
:1067B00001F004FF2149404604F0E4FC35461F4E39
:1067C000002832D0214602A86A4600950197FFF7BB
:1067D000E5FE31460020013504F0D4FCF0E72946FF
:1067E00002A8FFF727FFA1682046FFF79FFC049A45
:1067F0000023C4E90237C4E904737AB19DF80C1090
:1068000021710599E1600699A26021615760079A9C
:10681000626103AACDE905220493079302A80499B3
:10682000FFF784FC034801F0C9FE204608B0BDE82C
:10683000F08100BFDCE503205F42A2CDFBC80D0064
:1068400010B5054C204601F009FF2046034A0449D3
:10685000BDE8104002F02ABDDCE5032070E403200F
:1068600085510D009FED010A704700BF5F42A2CD28
:10687000017570470022011DC0E90221C0E9041220
:106880000271704730B5064D0560C0E9011300255F
:10689000039B057541F28835C0E90332856130BD3F
:1068A000A4CA0D0010B5054C204602F0F3F82046AE
:1068B000034A0449BDE8104002F0F8BCF8E50320A3
:1068C00070E4032065510D0010B504464A68024982
:1068D00001F03CFA204610BDB8E70320F0B58FB0B8
:1068E0000146064602A81F46FFF7EEFF02A800F089
:1068F0004FFFA0B9337D23B102F0FAFA274901F026
:10690000DAFAF323009337223D23A92108A809AD21
:1069100000F062FF0FCD03AC0FC42B682370002280
:1069200040F2BD211E4802F0E7F8002242F2343165
:106930001B4801F089FF03AD1A4B08930FCD09AC3A
:106940000FC42B681648237042F2343208A902F0B3
:10695000EFF858B9337D23B102F0CAFA124901F0B9
:10696000AAFA0F4801F0BCFF002014E0002FF1D07C
:10697000384603F090FD39460246094801F0BEFF53
:106980000028E7D0064802F019F80028E2D00448B1
:1069900001F0A6FF01200FB0F0BD00BFF0C90D004F
:1069A000F8E5032060CB0D007CCA0D0073B50372BF
:1069B00004465020CDE900211E4600F0D9FA60605F
:1069C0001420FDF768FB054620B1DDE900213346C0
:1069D000FFF7A4FB256002B070BD000038B50025AC
:1069E0000446134645728572024AFFF7DFFF2046D0
:1069F00038BD00BFB4CA0D0038B50446406800F089
:106A0000BFFA256835B12846FFF70AF91421284650
:106A100002F051FC204638BD0068FFF711B907B5F8
:106A2000002300931A46FFF7F7FF03B05DF804FB5D
:106A30000068FFF721BB000008B5024B1B685B6CC8
:106A4000019308BD4802030008B5024B1B689B6C0C
:106A5000019308BD4802030008B5024B1B685B6840
:106A6000019308BD1802030008B5024B1B68DB68E0
:106A7000019308BD1802030008B5024B1B685B694F
:106A8000019308BD1802030008B5024B1B681B6880
:106A9000019308BD2C02030008B5024B1B689B68DC
:106AA000019308BD2C02030008B5024B1B68DB688C
:106AB000019308BD2C02030008B5024B1B681B693B
:106AC000019308BD2C02030008B5024B1B681B6A2A
:106AD000019308BD2C02030008B5024B1B685B6ADA
:106AE000019308BD2C02030008B5024B1B68DB684C
:106AF000019308BD2802030008B5024B1B689B697F
:106B0000019308BD2802030008B5024B1B68DB692E
:106B1000019308BD2802030008B5024B1B681B6ADD
:106B2000019308BD2802030008B5024B1B685B6A8D
:106B3000019308BD2802030008B5024B1B689B6A3D
:106B4000019308BD2802030008B5024B1B68DB6AED
:106B5000019308BD2802030008B5024B1B681B6B9C
:106B6000019308BD2802030008B5024B1B685B6B4C
:106B7000019308BD2802030008B5024B1B681B6C7B
:106B8000019308BD2802030008B5024B1B685B692E
:106B9000019308BD6C02030008B5024B1B685B69DA
:106BA000019308BD6402030008B5024B1B681B6A11
:106BB000019308BD6402030008B5024B1B685B6AC1
:106BC000019308BD6402030008B5024B1B689B6A71
:106BD000019308BD6402030008B5024B1B689B6863
:106BE000019308BD6802030008B5024B1B68DB680F
:106BF000019308BD6802030008B5024B1B685B687F
:106C0000019308BD3802030008B5024B1B689B695D
:106C1000019308BD3802030008B5024B1B68DB690D
:106C2000019308BD3802030008B5024B1B681B6ABC
:106C3000019308BD3802030008B5024B1B689B6A2C
:106C4000019308BD3802030008B5024B1B68DB6ADC
:106C5000019308BD3802030008B5024B1B681B6B8B
:106C6000019308BD3802030008B5024B1B685B6B3B
:106C7000019308BD3802030008B5024B1B689B6BEB
:106C8000019308BD3802030008B5024B1B68DB699D
:106C9000019308BD3002030008B5024B1B681B6A54
:106CA000019308BD3002030008B5024B1B681B6846
:106CB000019308BD3C02030008B5024B1B68DB686A
:106CC000019308BD3C02030008B5024B1B681B6919
:106CD000019308BD3C02030008B5024B1B685B69C9
:106CE000019308BD3C02030008B5024B1B689B6979
:106CF000019308BD3C02030008B5024B1B68DB6929
:106D0000019308BD3C02030008B5024B1B681B6AD7
:106D1000019308BD3C02030008B5024B1B689B6A47
:106D2000019308BD3C02030008B5024B1B681B68B9
:106D3000019308BD4C02030008B5024B1B685B6859
:106D4000019308BD4C02030008B5024B1B681B6988
:106D5000019308BD4C02030008B5024B1B685B6938
:106D6000019308BD4C02030008B5024B1B689B69E8
:106D7000019308BD4C02030008B5024B1B68DB6998
:106D8000019308BD4C02030008B5024B1B681B6A47
:106D9000019308BD4C02030008B5024B1B685B6BF6
:106DA000019308BD6002030008B5024B1B689B6B92
:106DB000019308BD6002030008B5024B1B68DB6B42
:106DC000019308BD6002030008B5024B1B681B6DF0
:106DD000019308BD6002030008B5024B1B685B6DA0
:106DE000019308BD6002030008B5024B1B685B6895
:106DF000019308BD2002030008B5024B1B685B69C4
:106E0000019308BD2002030008B5024B1B68DB6C30
:106E1000019308BD2002030008B5024B1B685B6D9F
:106E2000019308BD2002030008B5034B1B68D3F88B
:106E30008830019308BD00002002030008B5034B11
:106E40001B68D3F89430019308BD000020020300B2
:106E500008B5024B1B689B68019308BD4402030000
:106E600008B5024B1B685B69019308BD440203002F
:106E700008B5024B1B68DB69019308BD440203009F
:106E800008B5024B1B681B6A019308BD440203004E
:106E900008B5024B1B685B6A019308BD44020300FE
:106EA00008B5024B1B68DB6B019308BD440203006D
:106EB00008B5024B1B685B68019308BD40020300E4
:106EC00008B5024B1B689B68019308BD4002030094
:106ED00008B5024B1B68DB68019308BD4002030044
:106EE00008B5024B1B681B69019308BD40020300F3
:106EF00008B5024B1B685B69019308BD40020300A3
:106F000008B5024B1B689B69019308BD4002030052
:106F100008B5024B1B68DB69019308BD4002030002
:106F200008B5024B1B681B6A019308BD40020300B1
:106F300008B5024B1B681B6B019308BD40020300A0
:106F400008B5024B1B685B6B019308BD4002030050
:106F500008B5024B1B681B6C019308BD400203007F
:106F600008B5024B1B685B6C019308BD400203002F
:106F700008B5024B1B681B68019308BD1C02030087
:106F800008B5024B1B685B68019308BD1C02030037
:106F900008B5024B1B689B68019308BD1C020300E7
:106FA00008B5024B1B68DB68019308BD1C02030097
:106FB00008B5024B1B68DB6A019308BD1C02030085
:106FC00008B5024B1B681B6B019308BD1C02030034
:106FD00008B5024B1B68DB6B019308BD1C02030064
:106FE00008B5024B1B685B6C019308BD1C020300D3
:106FF0000021FFF701BF10B5836804460BB902F00A
:1070000012FAC3689847A3681BB1032221462046A1
:10701000984720461021BDE8104002F04CB910B549
:107020000446006808B1FFF70FFD204610BD13B5F8
:107030000B460246D0E900016C4684E8030093E861
:10704000030082E8030094E8030083E8030002B031
:1070500010BD000010B5064C002320462360FFF74A
:10706000EBFC2046034A0449BDE8104002F01EB97B
:1070700044E6032070E403201F700D0070470020D9
:10708000704710B51021044602F015F9204610BDD6
:1070900008B5FFF7F6FF08BD30B500224FF69C7427
:1070A000026084808D888C800C68858004600A6012
:1070B00030BD10B504460068FFF762FF204610BDE2
:1070C00038B5C468F4B12378022B03D104F10C0065
:1070D000FFF7EFFF656835B12846FEF76DF8102120
:1070E000284602F0E8F8A56835B12846FEF764F8AE
:1070F0001021284602F0DFF820461421BDE8384070
:1071000002F0D9B838BD73B50E46044656F8043BB4
:1071100000930D4601A83146FDF7B2FA019A009B93
:107120006260236001A8002301930093FDF78CF9AE
:107130003046FDF789F92846082102F0BCF82046C0
:1071400002B070BD826810B50AB902F06CF9BDE8F2
:107150001040C368184708B5006800F11001FFF738
:10716000F1FF08BD826810B50AB902F05CF9BDE80C
:107170001040C368184708B5006800F11001FFF718
:10718000F1FF08BD38B500230446036010200D460A
:10719000FCF781FF28B10123C0E90133024B0360F2
:1071A000C5602060204638BDE0CA0D0038B5002318
:1071B00083608B6804460D462BB102229847EB682A
:1071C000E360AB68A360204638BD0000F0B589B02D
:1071D00004686846FFF760FF4FF00203D4E84F2FC2
:1071E000002A03D1C4E8413F0029F7D125D104F199
:1071F0000C0569462846FFF74FFFBFF35B8F01235D
:107200006370002004F10803BFF35B8F53E8006F45
:1072100043E80002002AF9D1BFF35B8F6EB1FFF79C
:10722000F3FD78B129463046FFF78CFF3046FDF775
:10723000C3FF1021304602F03EF86846FFF739FFE1
:1072400009B0F0BD314602A8FFF7B0FFE068B4F91D
:10725000105008B103F002F906901020ADF81C5050
:10726000FCF719FF0546E8B1002787601820FCF7F6
:1072700012FF044688B10146876002A8FFF7D7FED7
:10728000049BA268A360059B049206A9E268E360E0
:1072900004F110000592FFF7FFFE084BEB60084B6E
:1072A0002C60AB6006A8FFF704FF02A8FDF784FF7F
:1072B000002229460348FFF7AFFDB7E757710D00DD
:1072C000ED730D00F76F0D002DE9F0478AB005460C
:1072D0009DF848900C4617469846FFF7C1FD07AE4B
:1072E000824638BB4FF62E73059005A93046ADF89F
:1072F0001830FFF7D1FE1420FCF7CDFE044648B14C
:10730000022303700123C0E901AA437031460C3007
:10731000FFF7C2FE2846214640F8044BFFF732FF34
:107320003046FFF7C6FE05A8FFF7C3FE28460AB0A1
:10733000BDE8F0870C234FF0000A1420CDE908AA1D
:107340000793FCF7A8FE014628B1C0E901AA80F81E
:1073500000A080F801A004A80391FFF713FF224BBF
:1073600008930820FCF797FE824628B1039B40F85B
:10737000043B04A9FDF784F900965FFA89F34246BD
:1073800039462046CDF824A0FFF77AFDB8B9039B13
:107390005B7803F0FF0293B94FF69C7305A903A82D
:1073A0000592ADF81830FFF711FF05A8FFF781FE31
:1073B00005A80999FFF7A7FE06A8FDF745F8039B66
:1073C000059304A906A8FDF75BF9059B069A2B60B7
:1073D0006A60002306A806930593FDF735F804A814
:1073E000FDF732F8A2E700BFB1740D00022AF8B52C
:1073F000054607D0032A18D0012A01D10B68036083
:107400000020F8BD18200E68FCF745FE044650B178
:107410003146FFF7CBFE3069B6F9147008B103F0BE
:107420001DF82061A7822C60EAE70468002CE7D0F1
:1074300004F11000FFF73DFE2046FDF7BDFE1821C8
:10744000204601F038FFDBE738B5002383608B6806
:1074500004460D462BB102229847EB68E360AB6807
:10746000A360204638BD022A70B5044607D0032A1F
:1074700012D0012A01D10B680360002070BD1420D6
:107480000E68FCF708FE054620B13146FFF7DCFF29
:10749000337C2B742560F0E70468002CEDD0204687
:1074A000FDF78AFE1421204601F005FFE5E7000004
:1074B000F0B589B004460D4601A81146FFF723FE3A
:1074C000A4B124B21DB1284602F0C8FF054601A8A8
:1074D00003A90395ADF81040FFF778FE03A8FFF766
:1074E000E8FD02A8FCF7B0FF09B0F0BD019D012343
:1074F000D5E84F2F002A03D1C5E8413F0029F7D135
:10750000EFD12B73BFF35B8F6B702B1DBFF35B8FC2
:1075100053E8006F43E80042002AF9D1BFF35B8FC4
:10752000002EDED02046FFF76FFC074660B105F164
:107530000C013046FFF716FE3046FDF73DFE1021E8
:10754000304601F0B8FECCE7314603A8FFF77CFFD8
:107550002B7B8DF81C301020FCF79DFD0546D0B12B
:1075600087601420FCF797FD044678B187600146D8
:1075700003A8FFF75CFD059BA268A360069B05922C
:10758000E268E3609DF81C3006922374064BEB60C2
:10759000064B2C60AB6003A8FDF70EFE00222946C7
:1075A0000348FFF739FCC7E777710D0067740D00DA
:1075B000F76F0D00002240681146FFF7B1BC0022B2
:1075C00040681146FFF7BCBC40680022FFF7B0BC22
:1075D0004068002281F00101FFF79ABC0023406857
:1075E0001A461946FFF78CBC002340681A46194614
:1075F000FFF77EBC002240681146FFF771BC0022F5
:1076000040681146FFF75CBC406800220221FFF78A
:107610005FBC002340681A46FFF74ABC024B0322B6
:107620005A60024A1A60704748E60320FCCA0D00FF
:107630007047F8B5064615460C468F18BC4206D072
:10764000336814F8011B9B6830469847F6E72846D4
:10765000F8BD007C0022FFF75FBA007C0021FFF735
:1076600063BA007C0021FFF767BA007C0021FFF7B6
:107670006BBA007C0021FFF76FBA10B514210446E5
:1076800001F019FE204610BD10B54FF47A73044680
:1076900008460021C4E90113034B236020741146FE
:1076A000FFF76AFA204610BD38CB0D000023007C9E
:1076B0001A461946FFF718BA007C0022FFF71CBAD9
:1076C000C9B2FFF7F9BF007C0022FFF71DBA012104
:1076D000FFF7F9BFFFF700BAFFF7F6B9704710B52B
:1076E0001821044601F0E7FD204610BDF0B5037DEA
:1076F000062B8DB00E4600F104074FF0000412D0A7
:1077000000F1080515F8011D0A22304600F0DDFBE6
:10771000AF42044419D0002CF4D02E21304600F0A2
:10772000BBFB0444EEE72F236A4639460A208DF856
:107730000040FFF731FA684602F0ADFE33680246BA
:10774000DB68694630469847044620460DB0F0BDD8
:1077500010B5054B0446112240F8043B002102F00D
:1077600021FE204610BD00BF60CB0D000346074A36
:1077700010B543F8042B01F1100251F8044B43F803
:10778000044B9142F9D10A781A7010BD60CB0D00FC
:10779000037D042B04D14068003818BF01207047D6
:1077A000062B07D143683BB983682BB9C3681BB963
:1077B0000069F1E7002070470120704710B59DF87F
:1077C000084044EA032343EA024242EA01610423F7
:1077D0004160037510BD000037B5044D05609DF88C
:1077E00018500095FFF7EAFF03B030BD60CB0D00E5
:1077F00013B5054B0360CB7800938B784A780978F2
:10780000FFF7DCFF02B010BD60CB0D0000F11003EC
:10781000012213F8101C0129184608D153F8041C42
:1078200002EB4102013A03F11003F2D17047022941
:1078300004BF53F8041C5218F4E770470020704747
:1078400010B51021044601F036FD204610BD08B5E4
:10785000FFF7F6FF08BD10B5C4687CB1206808B119
:10786000FCF71FFC237A1BB1606808B1FCF719FC18
:1078700020460C21BDE8104001F01DBD10BD10B523
:10788000036804469B689847A368013BA3602BB933
:1078900023682046DB68BDE81040184710BD38B5A6
:1078A0000B6803604D6843689D4204460CD015B1D7
:1078B0006B6801336B60606828B14368013B4360CB
:1078C0000BB9FFF7DCFF6560204638BD0B4611465B
:1078D000002210B5C0E90022044683600BB920469F
:1078E00010BDFFF7DCFFFAE78368EBB11A78032AD3
:1078F0001AD8DFE802F00417021B0520704702685F
:107900005B685268D05C2D2812D0A0F13003092B9F
:107910000ED974280ED066280CD0A0F16E03584200
:107920005841704706207047002070470420704778
:10793000032070470220704710B50446FFF7D4FFBC
:1079400002280DD0C31EDBB2012B10D82268A36819
:1079500050685B68BDE810400021184403F006BC85
:107960002268A36852685B68D35C742B02D09FEDD9
:10797000040B10BD9FED040BFBE700BFAFF30080CD
:107980000000000000000000000000000000F03FC8
:107990002DE9F04786B00746884602A8002100245A
:1079A0009946102392460293FFF7FEF9CDE9004471
:1079B00023464246394602A8FFF7FEF9061E1EDDA1
:1079C0001049300101F07BFC054690B1214602A828
:1079D000FFF7EAF9CDE900642B464246394602A892
:1079E000FFF7EAF9A04207DDCAF800500120C9F804
:1079F000006006B0BDE8F0872846FCF752FB204641
:107A0000F7E700BF70CD0D002DE9F84F4368866899
:107A10000B4488460E4407461C4619464FF00D0994
:107A20004FF0090AB44263D0254615F8012B5C2AB1
:107A30002BD1A14207D0A4EB010B18465A4602F005
:107A400097FC03465B44B54239D06278752A2AD147
:107A5000A21CB21A032A32DDA01D04F1050E4FF05C
:107A6000000CAE4553D015F8011FA1F130025FFAAA
:107A700082FBBBF1090F05D9A1F16102052A07D8E4
:107A8000A1F1570242EA0C1CEBE728460446C9E77D
:107A9000A1F14102052A12D8A1F13702F2E703F859
:107AA00001CB0146F2E76E2A1CD00ED8622A13D011
:107AB00007D82F2A11D05C2A0FD0222A0DD00020FF
:107AC00023E0662AFBD10C2207E0722A0DD0742A2B
:107AD000F5D183F800A001E008221A70A11C01333F
:107AE0000846D3E74FF00A02F7E783F80090F5E77E
:107AF000A14206D0641A1846224602F039FC034619
:107B00002344A3EB0803BB600120BDE8F88FBCF160
:107B10007F0FC4D92146B9E7F8B50446154600EBF6
:107B200001160027B44210D02378032B08D1294630
:107B30002046FFF769FF48B1A368EF541034F1E71E
:107B4000002BFBD1A268AB54F8E70120F8BD000080
:107B500038B50023C0E9003304460E48C4E90203E7
:107B6000A9B10B78032B06D08BB9136858684B6802
:107B7000C35C6E2B07D013684D6858688B68284427
:107B80005B1BA060E36011462046FFF788FE20469D
:107B900038BD00BF0FC80D0038B500250B46C0E941
:107BA0000055C0E90255C0E90455044611464BB1E1
:107BB0001A78012A06D103F11002DB688260436162
:107BC000FFF76DFE204638BD10B54369044663B12A
:107BD0008068E060013B1030A0602061636113B1F8
:107BE000FFF714FEA060012000E0184610BD000061
:107BF00038B500230446036010200D46FCF74BFA0D
:107C000028B10123C0E90133024B0360C560206045
:107C1000204638BD74CB0D00F0B5044687B00E4643
:107C20000C202749154601F048FB014618B10023F6
:107C3000C0E90033037203A80291FFF7D9FF029A4B
:107C400042B9C4E90022A26003A8FCF7FDFB20466C
:107C500007B0F0BD00230193294601AB3046FFF782
:107C600097FE18B9C4E90000A060EDE71449029F2F
:107C7000681C01F024FB029B786058680028F1D052
:107C80002A46314602F066FB029B019918680122E0
:107C90001A725A68FFF740FF0028E3D0029B196868
:107CA0000493039B059313B15A6801325A6004AAE6
:107CB0002046FFF70BFE05A8FCF7C6FBC4E700BF94
:107CC00070CD0D00014B024A1A60704750E6032048
:107CD00088CB0D00002340681A46FFF7E9B84068DA
:107CE00000220221FFF7F4B8002240681146FFF796
:107CF000E7B8002240681146FFF7F2B80023406859
:107D00001A461946FFF7F4B8002340681A46194688
:107D1000FFF7F6B840680021FFF71AB94068002164
:107D2000FFF71EB94068002281F00101FFF7F0B8AB
:107D300040680022FFF7FCB8002240681146FFF7B8
:107D4000FFB8002240681146FFF7EAB82DE9F0437A
:107D5000002495B016460D460746FFF7F9FC21466C
:107D600018220EA8009402F01DFB4023CDE90C342C
:107D700021466B460CAA3046FEF736FF0446002823
:107D80004CD1024601216868FFF7AAF8022180461B
:107D900022466868FFF7A4F8009E81462146002E1F
:107DA0003CD000293AD17368022B03D00A2B11D0A2
:107DB000F669F4E7B8F1000F0AD0716906A804313A
:107DC00007ADFFF715FD0FCD3C1D0FC42B682370C9
:107DD0004146EDE7B9F1000F01D14946E8E7746982
:107DE000102201A802F0DEFA06238DF8143001AD4E
:107DF00004F108031834186859682A4603C2083386
:107E0000A3421546F7D101A906A807ADFFF7AEFCBE
:107E10000FCD3C1D0FC42B682370DEE70098FEF7E2
:107E2000DBFE384615B0BDE8F0830000024B034A84
:107E30001A6000225A60704754E6032094CB0D006C
:107E4000F8B506460D468F180024BD420CD03368A5
:107E500015F8011B9B6830469847031E01DB1C4444
:107E6000F3E7002C08BF1C462046F8BD13B50446B6
:107E7000084659B1019102F00EFB23680199DB68B5
:107E80000246204602B0BDE81040184702B010BDBF
:107E900008B5FFF7EBFF08BD03689B68184738B5C6
:107EA0000D210546FFF7F8FF0A2104462846FFF793
:107EB000F3FF204438BD38B50546FFF7D7FF044629
:107EC0002846FFF7ECFF204438BD30B58BB00023C7
:107ED0008DF82430012A98BF0A2209AC0D46B1FB67
:107EE000F2F101FB125303F0FF03092B94BF30336F
:107EF0003733DBB2AA4204F8013DEFD92146FFF740
:107F0000B5FF0BB030BD10B50446FDF755F920465E
:107F100010BD00000348044A04490023836001F0B7
:107F2000C5B900BF5CE6032070E40320077F0D00A5
:107F300010B5044608462170FEF7A6FE00236360D4
:107F4000204610BD2DE9F04757EC106B80460C46DB
:107F500010EE100A00220023394601F0AFFF28B1CD
:107F600007F100431F462D2304F8013B00234FF087
:107F700001090A22D9B2884503D902FB09F9013364
:107F8000F8E7484601F0BEFC32463B4601F024FDCE
:107F900006460F4602F042F805468A4601F0E6FC26
:107FA00002460B463046394601F05EFB134B002279
:107FB00001F098FF10B101354AF1000A4A462846FF
:107FC000D317514602F012F80123154621460A2222
:107FD00001F007F8B8F1000F0DD0204602F05BFA6F
:107FE0002E23211823540A22434628460131BDE896
:107FF000F04700F0F6BFBDE8F08700BF0000E03FAB
:1080000010B504460068FEF7BBFF204610BD10B552
:108010000446006808B1FEF7B3FF0023C4E901334A
:10802000236010BD38B504460D4600680131FEF7E7
:10803000AFFF10B1C4E90005012038BD10B50368D9
:10804000044623B143688B4201D3012010BD204672
:10805000FFF7E8FF0028F9D0A368002BF5D12268CC
:108060001370F2E737B50D46114601920446FFF74B
:10807000E5FF019A28B92046FFF7C9FF204603B063
:1080800030BDA2602946206802F064F92268A36826
:108090000021D154F2E7884210B5044605D00B68A0
:1080A0002BB18A681946FFF7DDFF204610BDFFF7A8
:1080B000AEFFFAE710B500230446C0E90033836041
:1080C0000373FFF7E8FF204610BD13B5044659B10E
:1080D0000846019102F0DFF9019902462046FFF7B8
:1080E000C1FF204602B010BDFFF791FFF9E730B5A0
:1080F000044600238BB0C4E90033A360237310EE61
:10810000100ACDB201F010FC41EC100B01A9284679
:10811000FFF718FF01A92046FFF7D7FF20460BB055
:1081200030BD10B504468AB000230846C4E90033C8
:10813000A360237301A9C0B2FFF704FF01A9204681
:10814000FFF7C3FF20460AB010BD70B505460E46C6
:1081500009B9002070BD6AB1846814442146FFF754
:108160006DFF0028F5D02868AB683146184402F04E
:108170006CF9AC600120EDE713B5044629B920463F
:10818000FFF745FF204602B010BD0846019102F0FE
:1081900082F9019902462046FFF7D7FF0028EED06A
:1081A000F0E710B50446006818B1FEF7E9FE0023B9
:1081B000236010BD10B50446FFF7F3FF204610BD45
:1081C00010B5094B094C022200201A60084B2060B0
:1081D000A080A071A360FEF707FE2046054A06496D
:1081E000BDE8104001F062B878E603206CE6032099
:1081F0000000FFFF70E40320B5810D0013B5036894
:108200008DF80710DC6B01224FF0FF330DF10701F1
:10821000A04702B010BD10B40368DC6B4FF0FF3311
:10822000A4465DF8044B604713B5134602688DF809
:108230000710D46B0DF107010122A04702B010BD59
:10824000704738B543691A68002A054610DAB3F852
:108250008620B3F884309A420AD103681B69984794
:10826000044628B92B682846DB6A9847204638BD63
:108270000120FCE743691868C043C00F704770478E
:10828000064B994210B500F10C0405D0084601F0E8
:10829000CDF8002808BF0024204610BDD0CA0D002C
:1082A00010B5AC21044601F006F8204610BDFBF7DE
:1082B000F6BE2DE9F0414FF0000886B01D46C0F82B
:1082C000048004460E4617464146102202A802F0DA
:1082D00069F86B1C09D04FF47A70B5FBF0F3CDE967
:1082E000023800FB13535843049060691023009335
:1082F000006802AB41F2050240F6FF71FEF784FC14
:10830000002807DAFEF764FE03686360002006B009
:10831000BDE8F0816069002300683A463146FEF707
:108320009BFC031EEEDB1846F1E7000070B54D69BB
:10833000054B04468C3544F8043B06460FCD0FC46C
:108340002B682370304670BD60CB0D0010B54369BB
:10835000B3F88620B3F884309A42044605D06369A6
:10836000B3F884201344187910BD03681B6998473B
:108370000028F4D14FF0FF30F6E710B54369B3F8A9
:108380008620B3F884309A42044608D06369B3F873
:108390008420511CA3F884101344187910BD03687D
:1083A0001B6998470028F1D14FF0FF30F6E7F8B588
:1083B00043691746B3F88620B3F884309A420546DD
:1083C0000E4616D06969B1F88430B1F88640E41AD7
:1083D000BC4228BF3C46043322461944304601F0D3
:1083E000B9FF6A69B2F884302344A2F88430204689
:1083F000F8BD03681B6998470028E3D14FF0FF34AC
:10840000F5E742690023A2F884304269A2F8863079
:1084100070472DE9F0411F4603680C46DB6A8AB0BD
:10842000054616469847237DD5F81480042B0CBFCB
:1084300002200A2006220121FEF71EFCC8F80000D7
:108440006B691B68002B08DA2B682846DB6A00245E
:10845000984720460AB0BDE8F0812846FFF7D1FFD3
:10846000B7B1002303A9F8B20393ADF81030FEF7BB
:108470008BFB0028E8D1686906230093006803ABF2
:1084800041F20B0240F6FF71FEF7BEFB0028DBD184
:108490001C22002103A801F085FF237D042B1DD1A0
:1084A0004FF407733046ADF80C30FEF78DFBADF896
:1084B0000E006068FEF778FB04906B691C22186858
:1084C00003A9FEF7B1FB0028BED104340FCC6D69BF
:1084D0008C350FC523682B700124BAE740F61C23A6
:1084E0003046ADF80C30FEF76FFB05AEADF80E0070
:1084F000231D04F1140718685968324603C2083373
:10850000BB421646F7D1D8E730B54269B2F886309B
:108510008BB004462BB1B2F884209A4201D1FFF708
:1085200070FF61690868002818DBB1F886507F2D5C
:1085300014D804310823C5F180022944FEF77CFBDE
:10854000002813DD6369B3F886200AB9A3F88420F4
:108550006369B3F886201044A3F886006369B3F812
:108560008600B3F88430C01A0BB030BDFEF730FD82
:1085700003680B2BF2D0FEF72BFD03680B2BEDD01D
:1085800020230025CDE90235FEF722FD0368019383
:10859000084B0949009302AA2B463220FEF714FC2F
:1085A00063691868FEF738FB63694FF0FF321A60A1
:1085B000D4E700BFCFCB0D00C8CB0D0010B5436989
:1085C00004461868002801DBFEF726FB63694FF0BC
:1085D000FF321A606069112200218C3001F0E2FE46
:1085E0002046BDE81040FFF70CBF43691868C04340
:1085F000C00F704710B5002304460160C0F88430F6
:108600008830FFF7A5F8204610BD000073B50023A1
:108610004FF47A72C0E901320E4A0361026043618D
:108620000446AC200191FBF736FD051E05F10C0652
:1086300008D00123C5E90133074B01992B6030466F
:10864000FFF7D8FF2046C4E90565FFF7DAFE02B060
:1086500070BD00BF04CC0D00E8CB0D0010B54FF08D
:10866000FF310446FFF7D2FF204610BD10B5044687
:108670000068002801DBFEF7CFFA204610BD0C3061
:10868000FFF7F4BF70B586B0064601AD6846FFF748
:10869000AFF80FCD341D0FC42B682370304606B0E1
:1086A00070BD00002DE9F0439846036893B00D4675
:1086B0000024DB6A06461746984728466B46224642
:1086C00021460094FEF790FA0546002863D1009BEE
:1086D000002B4BD05B69002B48D006A8FFF738F879
:1086E000009B5C696378022B04D1211D06A8FFF76B
:1086F000C9FF26E00A2B24D11122294601A801F046
:1087000051FEA368002B38D004F108030DF1040CCE
:10871000183418685968624603C20833A342944665
:10872000F7D1062301A90CA88DF81430FFF71EF825
:108730000DF1340CBCE80F0007AC0FC4DCF80030BE
:10874000237006A8FFF724F880B1336807ADD3F88B
:108750002090124B0C930FCD0DAC0FC42B682370DF
:108760003A4643460CA93046C84705460098FEF7EE
:1087700033FA284613B0BDE8F083E368002BC3D179
:108780004FF6FF70D4F81090FEF70EFA8145BBD17A
:1087900004F11401AAE72546E8E700BF60CB0D000D
:1087A000024B1A68024B1A60704700BF98E2032020
:1087B0007CE6032010B40468246BA4465DF8044BE7
:1087C000604703689B6C1847808E7047028FC08E8D
:1087D000101A704707B503688DF80710DB6801228F
:1087E0000DF10701984703B05DF804FB10B503686D
:1087F0001B690446984728B1E38EE26B591CE18659
:10880000D05C10BD4FF0FF30FBE710B503681B696B
:108810000446984718B1E38EE26BD05C10BD4FF070
:10882000FF30FBE7704710B403460846DC6BD98E77
:108830001A8F0368521ADB6821445DF8044B18470D
:10884000A0F11000FFF7EFBF70B503688CB05B6A52
:1088500004460E461546984701231C22002105A810
:10886000029301F09FFD40F61C233046ADF8143012
:10887000FEF7AAF91122ADF8160002210A20FEF730
:10888000FBF90028606125DB0422009202AB40F670
:10889000FF71FEF7B9F9E8B995B10390ADF8100092
:1088A00003A9E8B2FEF770F9A0B906230093606946
:1088B00003AB41F20B0240F6FF71FEF7A5F948B990
:1088C00060691C2205A9FEF797F918B965640120B3
:1088D0000CB070BD236820465B6A98470020F7E71C
:1088E00010B504464069002801DBFEF795F94FF00A
:1088F000FF3363610023E386238710BD70B505460F
:10890000C06BEE8E68B12B6C9C1B944228BF144642
:108910002246304401F01EFDEB8E2344EB862046B8
:1089200070BD0446F1E7D0B503681B6904460F46E5
:108930001646984790B1236820461B699847E38EF6
:10894000E16B8642A8BF064619443246384601F01C
:1089500001FDE38E3344E3863046D0BD4FF0FF3651
:10896000FAE7000070B50446054B44F8043B01F1FA
:10897000200506460FCD0FC42B682370304670BD0E
:1089800060CB0D00F0B59646026889B0976A0A4A36
:1089900002921C1D8C4606460FCC03AD0FC5236802
:1089A0002B70BDF838300093724602AB61463046FA
:1089B000B84709B0F0BD00BF60CB0D00F0B503684B
:1089C00089B09F6A0C4B029300F1200604460FCE3B
:1089D00003AD0FC533682B70A38EE28EE16B00935D
:1089E000204602ABB84723680546DB692046984716
:1089F000284609B0F0BD00BF60CB0D0038B5054674
:108A000014462B7D062B084610D140F61C231380FC
:108A1000FEF7DAF808342B1D24F8060C143553F849
:108A2000042B44F8042BAB42F9D138BD042BFCD104
:108A30004FF404731380FEF7C7F860806868FEF790
:108A4000B3F86060F1E72DE9F0438BB003AF4FF06E
:108A50001C09984604460D46164600214A463846EB
:108A600001F0A0FCBDF848103A464046FFF7C6FFAB
:108A70009DF80D3053B1CDE900796069002332468D
:108A80002946FEF7F1F80BB0BDE8F0834FF0FF3058
:108A9000F9E7000038B500254FF47A73C0E90153B7
:108AA0000B4B03F108026C3303614FF0FF330446B4
:108AB000026043611C30FEF74BFE4FF40073C4E9C3
:108AC0001035E5862587E56384F84850204638BD93
:108AD00064CC0D0010B590F84830044623B1C06B4B
:108AE00010B1012100F0E7FB0023E36384F8483074
:108AF0002364E386238710BD70B5044616460D46F1
:108B0000FFF7E8FF0023E66323642EB12564206CA1
:108B1000003818BF012070BD002DF8D02846FBF7A3
:108B2000BCFA0123E06384F848300028EFD0EDE779
:108B3000F8B51746C26B05460C461AB9016C09B167
:108B4000FFF7DAFF04340FCC05F120060FC62368C7
:108B500033700023286CAF86EB862B87F8BD37B5C2
:108B6000C26B04460B462AB9016C19B10193FFF799
:108B7000C3FF019BE16B0022E286228741B1226C98
:108B800032B12068056B2046A8470028C8BF20875F
:108B900023681B69204603B0BDE830401847F0B594
:108BA0004378022B8DB005460C46174604D1011DB3
:108BB0002046FFF767FD22E00A2B25D11122002174
:108BC00001A801F0EFFBAB6803B305F1080301AEA8
:108BD00005F1180C18685968324603C2083363451A
:108BE0001646F7D1062301A906A807AE8DF8143062
:108BF000FEF7BCFD0FCE04340FC4336823701FB1E1
:108C00006888FDF7D9FF38800DB0F0BDEB68002B08
:108C1000DBD14FF6FF702E69FDF7C6FF8642D4D137
:108C200005F11401C4E700002DE9F04117468EB0AC
:108C30000022064601AB084611460192FDF7D4FF1B
:108C4000041E20DB019B2BB35B691BB302A8FEF75C
:108C50007FFD019B0022586902A9FFF7A0FF02A82F
:108C6000FEF796FDB0B1336803ADD3F838800B4BF7
:108C700008930FCD09AC0FC42B6823703A4608A99E
:108C80003046C04704460198FDF7A6FF20460EB0C7
:108C9000BDE8F0814FF0FF34F5E700BF60CB0D0079
:108CA0002DE9F047D0F81490B9F1000F90B00546C7
:108CB0000E4690461C463CDB00293AD04FF01C0A79
:108CC00009AF52460021384601F06CFBCDF80CA0EC
:108CD000DCB100224FF47A70B4FBF0F3CDE904323A
:108CE00000FB13435843102307920690009341F270
:108CF00006026B4440F6FF714846FDF785FF0446C7
:108D000020B1204610B0BDE8F087082403ABCDE9C0
:108D100000736869234642463146FDF795FF041EFD
:108D2000EFDB05F1340205F11C013846FFF737FF90
:108D3000E7E74FF0FF34E4E770474174704708B548
:108D4000007CFDF7E9FF20EAE07008BD08B5007C73
:108D5000FDF7BAFF20EAE07008BD08B5007CFDF71A
:108D6000C3FF40EAE07008BD08B5007CFDF7B4FF22
:108D700040EAE07008BD007CFDF7BEBF37B5457C1A
:108D800004462DB1207C03B0BDE83040FDF794BF10
:108D9000007C0191FDF7C0FF00280199F2DC284614
:108DA00003B030BD10B51421044600F084FA20460B
:108DB00010BD000010B54FF0000C044608461146E7
:108DC0004FF47A72C4E901C2044A2260012220747D
:108DD00062741A46FDF768FF204610BDDCCC0D001A
:108DE00013B50E4C2178BFF35B8F11F0010112D146
:108DF00020460191FBF757F9019960B1084A094BE8
:108E00000948FFF7D7FF2046FBF752F9074A084900
:108E1000054800F04BFA044802B010BD80E603207C
:108E200084E6032008E703208CE7032070E4032096
:108E3000398D0D0041747047704708B50021007CE2
:108E4000FDF792FF40EAE07008BD08B50121007C03
:108E5000FDF78AFF40EAE07008BD08B5007CFDF729
:108E60007BFF20EAE07008BD08B5007CFDF76CFFD1
:108E700020EAE07008BD13B50446007C0191FDF7BF
:108E80006BFF0028019901DC607C20B1207CFDF79C
:108E900073FF20EAE07002B010BD007CFDF774BFE4
:108EA00010B51421044600F006FA204610BD00005B
:108EB00010B54FF47A73044608460021C4E9011343
:108EC000044B23600123207463741146FDF72CFFCB
:108ED000204610BD0CCD0D00007C0022FDF72CBFFC
:108EE00010B514220446002101F05CFA204610BDA2
:108EF00010B5104C88B003A8FFF7F2FF2178BFF33C
:108F00005B8F11F0010111D120460191FBF7CBF8E5
:108F1000019958B103AA0848FFF7CAFF2046FBF79A
:108F2000C7F8064A0649044800F0C0F9024808B0EC
:108F300010BD00BFA0E70320A4E7032070E40320D6
:108F4000398E0D00002240681146FDF7C9BF00228E
:108F500040681146FDF7E4BF002240681146FDF766
:108F6000EFBF40680022FDF7E3BF4068002281F0B8
:108F70000101FDF7CDBF002340681A461946FDF7F1
:108F8000BFBF002340681A461946FDF7B1BF002253
:108F900040681146FDF794BF406800220221FDF7AA
:108FA00097BF002340681A46FDF782BF024B042298
:108FB0005A60024A1A607047B8E703203CCD0D00A2
:108FC00010B5044601F067FA0138231820468342A1
:108FD00006D90278197800F8011B03F80129F6E791
:108FE00010BD70B50C46911E2229054622D8204698
:108FF0006DB1B5FBF2F602FB1655E9B2092D94BF2F
:1090000030315731C9B200F8011B3546F0E702464E
:1090100023443021934202D902F8011BFAE71A1ABD
:10902000834238BF0022002383542046FFF7C8FF45
:10903000204670BD0020FCE7014B1860704700BF60
:109040009CE2032008B50B4B43B1FFF751FF0368C7
:109050001B699847002801DDAFF30080064B43B140
:10906000FFF7BEFE03681B699847002801DDAFF3D8
:10907000008008BD000000000000000008B5FFF7F8
:10908000E1FFFDF7F9FC014B186008BDD4E70320B0
:109090000248034A0349121A01F05CB900F40320A4
:1090A00004F4032028D10D0007B5002300931A46CD
:1090B0006FF07701FDF7C2FE03B05DF804FB00001E
:1090C00007B543880A2B08D0502B0BD1094B1B68DE
:1090D0004BB103B05DF804EB1847FFF7E5FF03B0B1
:1090E0005DF804FB002300931A466FF07701FDF74B
:1090F000A5FEF4E7C4E7032038B5124C1248134D1F
:109100000021FDF76DFF2368AB42114B0CBF01221C
:1091100000221A7002D0FFF7BBFF2560FDF79CFC10
:10912000044601F057F90B4B13B12046AFF3008012
:1091300000210848FDF7B4FEBDE83840064800218C
:10914000FDF772BE00F4032039900D001E1C279A13
:10915000C0E7032000000000C1900D00232813B5D4
:1091600002D9002002B010BDA0F10B03022B1AD8C7
:10917000174C2178BFF35B8F11F001010BD1204612
:109180000191FAF790FF019928B11248FEF7D0FE3D
:109190002046FAF78DFF0F4B1878FDF77DFD00286C
:1091A000DFD10120DEE7012809D800F057F80021BF
:1091B000007CFDF7D9FC80F00100C0B2D2E709388D
:1091C0000128EED8FFF70CFE007CFDF79DFDF2E7CD
:1091D000C8E70320CCE70320232838B504460D4612
:1091E0000AD8FF2908D0FFF7B9FF28B12946204641
:1091F000BDE83840FDF750BC38BD38B504460D46D3
:10920000FDF752FCFF2810D0062804D84D2323FA7E
:1092100000F0C30709D42046FFF7A0FF28B1294674
:109220002046BDE83840FDF747BC38BD38B50023BF
:109230002025438014230446038085600561064988
:10924000284600F03CF804496060284600F037F8F2
:10925000E060204638BD00BF70CD0D0030B50F4D29
:109260002978BFF35B8F11F0010487B013D1284632
:10927000FAF719FF78B101A8FFF7D8FF01AA214634
:109280000748FEF701FA2846FAF712FF054A064991
:10929000034800F00BF8024807B030BDD8E70320C0
:1092A000DCE7032070E4032031760D000B46014615
:1092B000184601F041B8FAF7F2BEFAF7ECBEFAF739
:1092C000ECBEC3689A68C26010B502B150604268D3
:1092D0005A600C68844203D10B609860436010BDF3
:1092E000916881420CBF9360D360F6E78368DA68C7
:1092F000826010B502B1506042685A600C688442C6
:1093000003D10B60D860436010BDD16881420CBFAF
:10931000D3609360F6E7037833B943685B688342B0
:1093200002D1DB6818467047826822B11346D268C2
:10933000002AFBD1F6E743689A688242F2D11846C8
:109340005B68F9E7C36823B118469B68002BFBD123
:1093500070474368DA68824202D118465B68F9E7D1
:10936000C268934218BF18467047FFF7D4BF2DE973
:10937000F8431E4603F104080023C1E902330C46FA
:109380004A600B7000B39642916018D17160F4602E
:1093900001274FF000097368A3423FD0606802784C
:1093A000002A3CD14568AB68984223D1EB6883B171
:1093B0001A7872B907701F702A702C46EBE7B368F1
:1093C0009342E5D1B160E3E7D160F3689342DFD126
:1093D000DDE7C368A34203D14146FFF772FF0446AD
:1093E000636841461F70284685F80090FFF77EFFAE
:1093F0002546E2E713B11A78002ADBD08368A3423E
:1094000003D14146FFF772FF0446636841461F706F
:10941000284685F80090FFF754FFE9E7234601222C
:109420001A70BDE8F88308B5FDF7C2FD014900F0E8
:10943000F9B800BF8CCD0D007FB500241023CDE915
:109440000234036800949E698DF8044015466B460B
:109450001268B0479DF8043003F00603062B03BFE3
:10946000009B2B600120204604B070BD0098904204
:1094700014BF01200620704710B5034B036004465B
:1094800000F0CDF8204610BDCCCD0D0010B504463F
:10949000FFF7F2FF20460821FFF70DFF204610BD21
:1094A0002DE9F0411F46DDE90834DDF818809845C4
:1094B0000646154607D1079900F0B4F818B1657152
:1094C0000020BDE8F0813946304600F0ABF80028B6
:1094D000F6D00123C4F800802571A371F0E738B5F8
:1094E00015461C4600F09EF820B10823E3600623D1
:1094F0002560237138BD73B505460C4601921E46A2
:1095000000F090F850B9032E08D82368019A5B69DF
:109510002946204602B0BDE87040184702B070BD31
:1095200010B5034B03600446FFF7A6FF204610BDAD
:109530002CCE0D0010B50446FFF7F2FF20460C219B
:10954000FFF7B9FE204610BDF7B5089F97420546C4
:109550000E4614460AD0A86802680897156A314674
:109560002246AC4603B0BDE8F0406047194601937F
:1095700000F058F8019B0028EDD0062003B0F0BDA4
:109580002DE9F14F0D461946DDE90A4BDDE90CA640
:1095900081461746984600F045F890B1002D34609A
:1095A000377109DB61198A450CBF06210121B171B0
:1095B000002001B0BDE8F08F0235F9D10123B3716D
:1095C000F6E7544506D15946484600F02BF808B155
:1095D0007771EDE7D9F808000368CDE90CA6CDE96D
:1095E0000A4BDC693A4643462946A44601B0BDE829
:1095F000F04F60472DE9F04107460C4615461E46E0
:10960000FFF76DFF48B9B86803689F692A4633467B
:109610002146BC46BDE8F0416047BDE8F081704797
:1096200000207047814208B50ED0406803782A2B8D
:109630000CD049680B782A2B08BF013100F0FBFEE3
:10964000B0FA80F0400908BD0120FCE70020FAE7ED
:109650009FED010B704700BF000000000000F87F85
:1096600081F0004102E000BF83F0004330B54FEAD3
:1096700041044FEA430594EA050F08BF90EA020F40
:109680001FBF54EA000C55EA020C7FEA645C7FEAD3
:10969000655C00F0E2804FEA5454D4EB5555B8BFF6
:1096A0006D420CDD2C4480EA020281EA030382EA67
:1096B000000083EA010180EA020281EA0303362DF9
:1096C00088BF30BD11F0004F4FEA01314FF4801CCC
:1096D0004CEA113102D0404261EB410113F0004FDE
:1096E0004FEA03334CEA133302D0524263EB430395
:1096F00094EA050F00F0A780A4F10104D5F1200E33
:109700000DDB02FA0EFC22FA05F2801841F100018D
:1097100003FA0EF2801843FA05F359410EE0A5F161
:1097200020050EF1200E012A03FA0EFC28BF4CF092
:10973000020C43FA05F3C01851EBE37101F0004548
:1097400007D54FF0000EDCF1000C7EEB00006EEB55
:109750000101B1F5801F1BD3B1F5001F0CD34908DF
:109760005FEA30004FEA3C0C04F101044FEA445236
:1097700012F5800F80F09A80BCF1004F08BF5FEABD
:10978000500C50F1000041EB045141EA050130BD9D
:109790005FEA4C0C404141EB0101013C28BFB1F5AF
:1097A000801FE9D291F0000F04BF01460020B1FAFA
:1097B00081F308BF2033A3F10B03B3F120020CDACD
:1097C0000C3208DD02F1140CC2F10C0201FA0CF0AB
:1097D00021FA02F10CE002F11402D8BFC2F1200C10
:1097E00001FA02F120FA0CFCDCBF41EA0C019040C6
:1097F000E41AA2BF01EB0451294330BD6FEA04040F
:109800001F3C1CDA0C340EDC04F11404C4F12002F9
:1098100020FA04F001FA02F340EA030021FA04F30B
:1098200045EA030130BDC4F10C04C4F1200220FA62
:1098300002F001FA04F340EA0300294630BD21FAA0
:1098400004F0294630BD94F0000F83F4801306BF66
:1098500081F480110134013D4EE77FEA645C18BF5A
:109860007FEA655C29D094EA050F08BF90EA020FF1
:1098700005D054EA000C04BF1946104630BD91EAE9
:10988000030F1EBF0021002030BD5FEA545C05D1EC
:109890004000494128BF41F0004130BD14F580042B
:1098A0003CBF01F5801130BD01F0004545F0FE419F
:1098B00041F470014FF0000030BD7FEA645C1ABFD4
:1098C000194610467FEA655C1CBF0B46024650EA0B
:1098D000013406BF52EA033591EA030F41F4002137
:1098E00030BD00BF90F0000F04BF0021704730B5BD
:1098F0004FF4806404F132044FF000054FF0000192
:1099000050E700BF90F0000F04BF0021704730B552
:109910004FF4806404F1320410F0004548BF404227
:109920004FF000013EE700BF42004FEAE2014FEA7C
:1099300031014FEA02701FBF12F07F4393F07F4F57
:1099400081F06051704732F07F4208BF704793F05A
:109950007F4F04BF41F40021704730B54FF460746D
:1099600001F0004521F000411CE700BF50EA010270
:1099700008BF704730B54FF000050AE050EA010219
:1099800008BF704730B511F0004502D5404261EB89
:1099900041014FF4806404F132045FEA915C3FF4CA
:1099A000D8AE4FF003025FEADC0C18BF03325FEA67
:1099B000DC0C18BF033202EBDC02C2F1200300FA18
:1099C00003FC20FA02F001FA03FE40EA0E0021FA3D
:1099D00002F11444BDE600BF70B54FF0FF0C4CF42B
:1099E000E06C1CEA11541DBF1CEA135594EA0C0FDD
:1099F00095EA0C0F00F0DEF82C4481EA030621EA18
:109A00004C5123EA4C5350EA013518BF52EA033552
:109A100041F4801143F4801338D0A0FB02CE4FF004
:109A20000005E1FB02E506F00042E0FB03E54FF034
:109A30000006E1FB03569CF0000F18BF4EF0010E2C
:109A4000A4F1FF04B6F5007F64F5407404D25FEA28
:109A50004E0E6D4146EB060642EAC62141EA5551DB
:109A60004FEAC52040EA5E504FEACE2EB4F1FD0C1D
:109A700088BFBCF5E06F1ED8BEF1004F08BF5FEA9B
:109A8000500E50F1000041EB045170BD06F000464D
:109A900046EA010140EA020081EA0301B4EB5C04FA
:109AA000C2BFD4EB0C0541EA045170BD41F48011F2
:109AB0004FF0000E013C00F3AB8014F1360FDEBF17
:109AC000002001F0004170BDC4F10004203C35DAF3
:109AD0000C341BDC04F11404C4F1200500FA05F376
