:02000002D0002C
:1040000000400D00F8A00D00000006000C000501A6
:084010000401BD0B00000000DB
:044018008C960D0075
:1040200009480A49884208B505D0094A824202D0A7
:10403000121A03F077FC0748074A0021121A03F00E
:1040400099FC014808BD00BF30E40320EC9E0D0040
:1040500014E6032014E60320F0E7032070B5074EB2
:10406000074C02F0F9FCA41BA4080025A54200D1CE
:1040700070BD56F8043B98470135F7E7B49E0D0034
:10408000D89E0D0000F03EB808B500F0F3F9BDE889
:10409000084002F0A3BC01F0DBB901F0D9B901F08E
:1040A000DFB901F0DDB90078B0FA80F0400970475F
:1040B000012303707047000013B5054B1B788DF882
:1040C00000303C23044601F067FB204602B010BDDF
:1040D00018E603200EB410B58DB00FAA016852F88F
:1040E000044B039200232020CDE90403CDE90042D4
:1040F0001E2004AA01F0E8F80DB0BDE8104003B09E
:104100007047000010B58AB002F0A2FB4FF41651C0
:1041100002F092FB02F09CFB2749284C02F00FF9B9
:10412000274800F08DFB274800F06EFE02F046FDA8
:1041300001F024FD204600F09DFE204600F0FCFE2C
:10414000204600F05EFF204600F0A6FE002220463A
:10415000022100F0ACFE20461B4900F00EFF0022B9
:104160002046032100F0A3FE2046184900F005FF79
:1041700000222046042100F09AFE1549204600F056
:10418000FCFE02A801F0E4F802A906A802F0D6F9A4
:10419000104906A802F034FA0023CDE900330E4995
:1041A00000681A4601F0E4F806A802F06DF902A8CA
:1041B00002F06AF90AB010BDA0960D0040E6032097
:1041C0001CE6032030E60320AB960D00B4960D00EC
:1041D000BC960D00C4960D0039460D002DE9F04146
:1041E000284C804620461D460F46164600F0A4FE89
:1041F00000222046012100F05AFE2046224900F00C
:10420000BCFE4146DFF89480204600F0C3FE4146E4
:10421000204600F0B2FE00222046022100F047FEB8
:1042200020461A4900F0A9FE3946194F204600F0F1
:10423000B1FE3946204600F0A0FE002220460421AF
:1042400000F035FE2046134900F097FE3146204627
:1042500000F0A0FE4146204600F08FFE00222046DE
:10426000052100F024FE20460B4900F086FE294679
:10427000204600F08FFE39462046BDE8F04100F0B0
:104280007CBE00BF40E60320D9960D00E7960D00E6
:10429000F5960D00F7960D0005970D0049970D0056
:1042A0002DE9F84F10EE100A2DED028BB0EE608A6A
:1042B000F0EE408A02F024FE064618EE100A0F4681
:1042C00002F01EFE68EEA87A824617EE900A8B4630
:1042D00002F016FE68EE087A044617EE900A0D46C4
:1042E00002F00EFE46A3D3E9002341EC180B304642
:1042F000394602F05DFE44A3D3E9002302F0A0FC9E
:1043000043A3D3E90023804689465046594602F02C
:104310004FFE02460B464046494602F093FC3EA340
:10432000D3E90023804689463046394602F040FEF4
:1043300052465B4602F03CFE02460B46404649466A
:1043400002F080FC36A3D3E900238046894620464C
:10435000294602F02DFE02460B464046494602F031
:1043600071FC31A3D3E900238046894651EC180B38
:1043700002F01EFE02460B464046494602F062FC31
:104380002BA3D3E90023804689462046294602F024
:104390000FFE52465B4602F00BFE02460B464046BD
:1043A000494602F04FFC24A3D3E900238046894606
:1043B0003046394602F0FCFD53EC182B02F0F8FDB4
:1043C00002460B464046494602F03CFC1CA3D3E99A
:1043D000002306460F462046294602F0E9FD53EC2D
:1043E000182B02F0E5FD02460B463046394602F036
:1043F00029FCBDEC028B41EC100BBDE8F88F00BF2F
:10440000ECD8CE18626400408D976E128330454020
:10441000CD495AB762492440F847C607C9C4CCBF42
:10442000CC169C03FC017CBF248CD100FF10ACBFD8
:10443000E5DC6087B521543FDA303301F9F14B3FB9
:1044400001BDD3117EB1C0BE38B5046805467CB14C
:104450006368013B63605BB9236820469B689847AB
:10446000A368013BA3601BB923682046DB6898471B
:10447000284638BD30B52DED028B4CF2503089B056
:1044800001F016F85B485C4C00F00AFC5948F0EE6D
:10449000408A00F0C7FBB0EE408A00F0D5FD2368EB
:1044A000C01A564B98420FD900F0CEFD544B2060F5
:1044B0001B788DF8003004A852493C23002201F0FB
:1044C0006BF905A8FFF7C0FFF4EE688AF1EE10FA69
:1044D00004D6B4EE488AF1EE10FA08D702F0B8F923
:1044E000494901F02CFF09B0BDEC028B30BD474CAF
:1044F000D4ED007AF4EEC87AF1EE10FA06D5002376
:1045000043480093FF22194600F036FCD4ED007AB0
:10451000F4EEC87AF1EE10FA07DDFF2300930023D2
:104520003B481A46194600F027FCD4ED007A394D75
:10453000FDEEE77A95ED007A17EE902AFDEEE87A27
:10454000BDEEC77A17EE901AFDEEC87A17EE103A54
:1045500017EE900AFFF742FEB0EE480A062104A8C3
:1045600002F009F8049A2C4902A8FFF7A5FD03A858
:10457000FFF76AFF04A801F087FFB0EE680A062182
:1045800004A801F0F8FF049A244902A8FFF794FD5B
:1045900003A8FFF759FF04A801F076FFF0EE680AC0
:1045A000B0EE480AFFF77CFE062104A801F0FDFFEB
:1045B000049A1B4902A8FFF77FFD03A8FFF744FFF9
:1045C00004A801F061FFD5ED000A94ED000AFFF7A1
:1045D00067FE062104A801F0E8FF049A114902A829
:1045E000FFF76AFD03A8FFF72FFF04A801F04CFFB7
:1045F00079E700BF1CE6032030E403209FBB0D00D9
:1046000019E6032013970D0026970D0038E40320C8
:1046100030E6032034E4032045970D004B970D004E
:1046200051970D0063970D000B68036013B15A6832
:1046300001325A6070470000F0B50A4691B00C464E
:1046400048484949494D4A4EFFF744FD204603F08A
:10465000FCF92146024603A801F026FD059C039BB8
:10466000069304A907A8FFF7DFFF06AA21460AA8B8
:1046700001F0DAFC07A8FFF7E7FE3E4F0AA801F0B9
:10468000EBFC002866D00D9C0A9B01930BA902A8A5
:10469000FFF7CAFF214601AA06A801F0A1FC02A863
:1046A000FFF7D2FE0898294603F0A0F9044607A8B0
:1046B000FFF7CAFECCB90E9C0A9B01930BA902A876
:1046C000FFF7B2FF01AA214606A801F045FB02A8A8
:1046D000FFF7BAFE06A801F077FB51EC100B02F0D1
:1046E00021FF306007A8FFF7AFFE0D9C0A9B0193E6
:1046F0000BA902A8FFF798FF214601AA06A801F01E
:104700006FFC02A8FFF7A0FE0898394603F06EF987
:10471000044607A8FFF798FE002CAFD10E9C0A9B19
:1047200001930BA902A8FFF77FFF01AA214606A863
:1047300001F012FB02A8FFF787FE06A801F044FB78
:1047400051EC100B02F0EEFE0B4B186007A8FFF7C0
:104750007BFE92E70BA8FFF777FE04A8FFF774FE35
:1047600011B0F0BD50E6032076970D008D970D0037
:1047700038E4032092970D0034E4032038B50D4B44
:104780000D4C0E4800221A700D4B01251D700B2296
:104790000623132100F04DF82B4609220A2120465A
:1047A00000F080FA2046074A0749BDE8384002F089
:1047B0002DBA00BF18E6032030E603201CE60320D4
:1047C00019E6032014E60320BF4C0D0010B5036862
:1047D0002F2B044604D9074A00210A2000F05CFD73
:1047E00023681F2B83BF03F01F03034823604FF090
:1047F000A04010BD39500D000003005007B50190D6
:1048000001A8FFF7E3FF019A01239340C0F80835A0
:1048100003B05DF804FB07B5019001A8FFF7D6FFD0
:10482000019BD0F81005D84000F0010003B05DF8FE
:1048300004FB10B5037201238171C271037410BDB2
:104840002DE9F04105461E4C8079DFF87880002183
:1048500002F072F9AE792378BFF35B8F13F0010F8A
:104860000AD12046FFF71FFC30B100F0F5FBC8F875
:1048700000002046FFF71CFCD8F8003036019F5D91
:104880002378BFF35B8FDB074FEA47170AD40C4846
:10489000FFF709FC30B100F0DFFBC8F80000084862
:1048A000FFF706FCD8F8003033445B7803F01F03B1
:1048B00043EA0700FFF7A2FF0023EB60BDE8F081A9
:1048C00038E603203CE603202DE9F04F044685B08E
:1048D00000F0BAFBE368834284BF0023E360237CDB
:1048E0002BB9E368C01AB0F5FA6FC0F060810025FB
:1048F000257400F0A9FBB04E25602571E060A77912
:104900003378AE4DBFF35B8F13F0010F09D1304602
:10491000FFF7C9FB28B100F09FFB28603046FFF786
:10492000C7FB2B683F0113F807803378BFF35B8F19
:10493000D9074FEA481809D49F48FFF7B4FB28B1BC
:1049400000F08AFB28609C48FFF7B2FB2B681F44ED
:10495000787800F01F0040EA0800FFF74FFFFA20C8
:1049600000F0A6FDA079012102F0E6F8A7793378DE
:10497000BFF35B8FDA0709D48F48FFF794FB28B1A8
:1049800000F06AFB28608C48FFF792FB2B683F0120
:10499000DB5D4FEA43183378BFF35B8FDB0709D445
:1049A0008548FFF780FB28B100F056FB286082485D
:1049B000FFF77EFB2B681F4403A87B7803F01F03DF
:1049C00043EA08030393FFF701FF039A012393408F
:1049D000C0F80C35142000F06BFD01F0E3F8A77966
:1049E0003378BFF35B8FD80709D47348FFF75BFBBD
:1049F00028B100F031FB28606F48FFF759FB2B68A6
:104A00003F0113F807803378BFF35B8FD9074FEA74
:104A1000481809D46848FFF746FB28B100F01CFB92
:104A200028606548FFF744FB2B681F44787800F046
:104A30001F0040EA0800FFF7E1FE282000F0FCFA22
:104A4000A079DFF87481002102F076F800270123B5
:104A5000BA4600934FF0000994F806B03378BFF3DC
:104A60005B8FDA0709D44046FFF71DFB28B100F041
:104A7000F3FA28604046FFF71BFB2B684FEA0B1B3D
:104A800013F80B305B0101933378BFF35B8FDB07C7
:104A900009D44046FFF707FB28B100F0DDFA286093
:104AA0004046FFF705FB2B685B4493F801B0019B80
:104AB0000BF01F0B4BEA030B5846FFF7ACFE5846B2
:104AC000FFF7A9FE009B834209D109F101095FFAB2
:104AD00089F9012000F0B0FAB9F1FF0FBCD194F8C8
:104AE00006B03378BFF35B8FD80709D44046FFF791
:104AF000DAFA28B100F0B0FA28604046FFF7D8FA99
:104B00002B684FEA0B1B13F80B305B0100933378D3
:104B1000BFF35B8FD90709D44046FFF7C4FA28B129
:104B200000F09AFA28604046FFF7C2FA2B685B440F
:104B300093F801B0009B0BF01F0B4BEA030B584698
:104B4000FFF769FE5846FFF766FEB9F1FF0FC3B2E3
:104B5000009318D0032F11D9FA070FD44FEADA02C5
:104B60000AF1010AA35C5B00DBB2A354217A494538
:104B70003CBF43F00103A3545FFA8AFA0137FFB246
:104B8000552F7FF467AF01F00FF8BAF1270F10D956
:104B9000637820781844A3781844E378184423797C
:104BA000C0B2C31A5842584105B0BDE8F08F012089
:104BB000FAE70020F8E700BF38E603203CE60320D0
:104BC00010B50446FFF780FE20B3E3790B2B1BD012
:104BD000153B012B1ED8A378DFED106A03F07F028E
:104BE00007EE102AE27807EE902AB8EEC77AF8EEC0
:104BF000E77A1B06E7EE267AB2EE047A87EE870A9A
:104C000007D5B1EE400A04E0A37800EE103AB8EE02
:104C1000400A10BD9FED020AFBE700BF0000804381
:104C20000000C07F08B5FFF7CBFFF2EE027A20EE5E
:104C3000270AF1EE047A80EE277A9FED020A37EE1A
:104C4000000A08BD0000004210B50446FFF73CFE14
:104C5000F0B1E3790B2B15D0153B012B18D8237835
:104C6000DFED0D6A07EE103A637807EE903AB8EE82
:104C7000477AF8EEE77AE7EE267AB2EE047A87EE24
:104C8000870A10BD237800EE103AB8EE400AF8E724
:104C90009FED020AF5E700BF000080430000C07FDF
:104CA000FFF7D2BF10B50446017042708370012136
:104CB00003EB430002F020FE6060204610BD10B5FB
:104CC0000446406800F0CCFB204610BD10B5002122
:104CD0000446007801F041FF142000F0ADF920787F
:104CE000012101F03AFFBDE81040142000F0A4B902
:104CF00070B506460C46082523064CBF012100214D
:104D0000707801F02AFF013D3046FFF7DFFF6400B5
:104D100015F0FF05E4B2EFD170BD73B513F0800F4D
:104D20001E460C46154614BFC021E021730658BF2D
:104D300041F010012A0658BF41F008016B0658BF28
:104D400041F00401220658BF41F00201630658BF3A
:104D500041F001010190FFF7CBFF01983146FFF7C9
:104D6000C7FF01982946FFF7C3FF0198214602B00B
:104D7000BDE87040FFF7BCBF2DE9F04704460F4681
:104D80000021904699469DF820A0FFF7B1FF002131
:104D90002046FFF7ADFF00212046FFF7A9FF0021C5
:104DA0002046FFF7A5FF0026A378F5B2AB4219D93C
:104DB00005EB4500AF4200F1010200F1020308D10A
:104DC000616801F80080616801F80290616801F88B
:104DD00003A06168CB5C8A5C095C2046FFF79DFFFD
:104DE0000136E1E720460021FFF782FF204600213F
:104DF000FFF77EFF20460021FFF77AFF20460021C3
:104E0000BDE8F047FFF774BF73B504460121007891
:104E100001F092FE6078012101F08EFE00252E4601
:104E2000A378E9B28B4207D9002300961A462046A0
:104E3000FFF7A2FF0135F3E702B070BD0368C9B206
:104E40009B68184710B5044601F0B8FE3C2100F0FD
:104E50009FFE01F0B3FE8021FFF7F0FF01F0AEFEF0
:104E6000036821469B68984701F0A8FEBDE8104002
:104E700000F095BE08B5AE20FFF7E4FF052000F076
:104E800017FBAF20FFF7DEFF052000F011FBBDE8A8
:104E90000840A620FFF7D6BF08B5012303702020E5
:104EA000FFF7D0FFBDE808400220FFF7CBBF10B5E9
:104EB00050391446C8B2FFF7C5FFE00000F0080003
:104EC000FFF7C0FFC4F343001030BDE81040FFF708
:104ED000B9BF10B50C4601F071FE3C2100F058FE40
:104EE00001F06CFE4021FFF7A9FF01F067FE0368A7
:104EF00021469B68984701F061FEBDE8104000F034
:104F00004EBE0000A1F120035F2B88BF202170B5A9
:104F100001F10051074D2039064605EBC105082473
:104F200015F8011B3046013CFFF7D3FF14F0FF04D6
:104F3000F6D170BD96970D0070B50546AE20FFF70F
:104F400081FF00260022F1B22846FFF7B0FF1024AF
:104F500020212846013CFFF7D5FF14F0FF04F7D1CC
:104F60000136082EEED1AF20FFF76CFF2246214616
:104F70002846BDE87040FFF79ABF70B506460D465B
:104F80000024E3B20134E95C19B13046FFF7BAFFFF
:104F9000F7E770BDF0B585B000230C1ECDE90133F5
:104FA0000646ADF80C3024DA2D21FFF7ABFF644242
:104FB000012300250A202A4604A90A440135B4FB2E
:104FC000F0F100FB114402F80C4CEDB20C46002944
:104FD000F1D12B44DCB204AB5F190D3F75B117F86A
:104FE00001193031C9B23046013DFFF78BFFEDB2F8
:104FF000F4E7DED13021FFF785FF0124204605B01C
:10500000F0BDA620FFF71EBF08B5024B1B685B6C06
:10501000019308BD4802030008B5024B1B689B6C56
:10502000019308BD4802030008B5024B1B685B688A
:10503000019308BD1802030008B5024B1B68DB682A
:10504000019308BD1802030008B5024B1B685B6999
:10505000019308BD1802030008B5024B1B681B68CA
:10506000019308BD2C02030008B5024B1B689B6826
:10507000019308BD2C02030008B5024B1B68DB68D6
:10508000019308BD2C02030008B5024B1B681B6985
:10509000019308BD2C02030008B5024B1B681B6A74
:1050A000019308BD2C02030008B5024B1B685B6A24
:1050B000019308BD2C02030008B5024B1B68DB6896
:1050C000019308BD2802030008B5024B1B689B69C9
:1050D000019308BD2802030008B5024B1B68DB6979
:1050E000019308BD2802030008B5024B1B681B6A28
:1050F000019308BD2802030008B5024B1B685B6AD8
:10510000019308BD2802030008B5024B1B689B6A87
:10511000019308BD2802030008B5024B1B68DB6A37
:10512000019308BD2802030008B5024B1B681B6BE6
:10513000019308BD2802030008B5024B1B685B6B96
:10514000019308BD2802030008B5024B1B681B6CC5
:10515000019308BD2802030008B5024B1B685B6978
:10516000019308BD6402030008B5024B1B689B68ED
:10517000019308BD6802030008B5024B1B68DB6899
:10518000019308BD6802030008B5024B1B68DB6988
:10519000019308BD3002030008B5024B1B681B6A6F
:1051A000019308BD3002030008B5024B1B681B6861
:1051B000019308BD3C02030008B5024B1B68DB6885
:1051C000019308BD3C02030008B5024B1B681B6934
:1051D000019308BD3C02030008B5024B1B685B69E4
:1051E000019308BD3C02030008B5024B1B689B6994
:1051F000019308BD3C02030008B5024B1B68DB6944
:10520000019308BD3C02030008B5024B1B681B6AF2
:10521000019308BD3C02030008B5024B1B689B6A62
:10522000019308BD3C02030008B5024B1B681B68D4
:10523000019308BD4C02030008B5024B1B685B6874
:10524000019308BD4C02030008B5024B1B681B69A3
:10525000019308BD4C02030008B5024B1B685B6953
:10526000019308BD4C02030008B5024B1B689B6903
:10527000019308BD4C02030008B5024B1B68DB69B3
:10528000019308BD4C02030008B5024B1B681B6A62
:10529000019308BD4C02030008B5024B1B685B6B11
:1052A000019308BD6002030008B5024B1B689B6BAD
:1052B000019308BD6002030008B5024B1B68DB6B5D
:1052C000019308BD6002030008B5024B1B685B6DCB
:1052D000019308BD6002030008B5024B1B685B68C0
:1052E000019308BD2002030008B5024B1B685B69EF
:1052F000019308BD2002030008B5024B1B68DB6C5C
:10530000019308BD2002030008B5024B1B685B6DCA
:10531000019308BD2002030008B5034B1B68D3F8B6
:105320008830019308BD00002002030008B5034B3C
:105330001B68D3F89430019308BD000020020300DD
:1053400008B5024B1B685B69019308BD440203006A
:1053500008B5024B1B68DB69019308BD44020300DA
:1053600008B5024B1B681B6A019308BD4402030089
:1053700008B5024B1B685B6A019308BD4402030039
:1053800008B5024B1B68DB6B019308BD44020300A8
:1053900008B5024B1B685B68019308BD400203001F
:1053A00008B5024B1B689B68019308BD40020300CF
:1053B00008B5024B1B68DB68019308BD400203007F
:1053C00008B5024B1B681B69019308BD400203002E
:1053D00008B5024B1B685B69019308BD40020300DE
:1053E00008B5024B1B689B69019308BD400203008E
:1053F00008B5024B1B68DB69019308BD400203003E
:1054000008B5024B1B681B6A019308BD40020300EC
:1054100008B5024B1B681B6B019308BD40020300DB
:1054200008B5024B1B685B6B019308BD400203008B
:1054300008B5024B1B681B6C019308BD40020300BA
:1054400008B5024B1B685B6C019308BD400203006A
:1054500008B5024B1B681B68019308BD1C020300C2
:1054600008B5024B1B685B68019308BD1C02030072
:1054700008B5024B1B689B68019308BD1C02030022
:1054800008B5024B1B68DB6A019308BD1C020300D0
:1054900008B5024B1B681B6B019308BD1C0203007F
:1054A00008B5024B1B685B6C019308BD1C0203002E
:1054B0000021FFF719BF10B5836804460BB901F04E
:1054C000B0FBC3689847A3681BB10322214620465E
:1054D000984720461021BDE8104001F09CBB10B554
:1054E0000446006808B1FFF797FD204610BD10B5CF
:1054F0008368044613B1032201469847204610BD35
:1055000013B50B460246D0E900016C4684E803005F
:1055100093E8030082E8030094E8030083E80300B3
:1055200002B010BD10B5064C002320462360FFF7E3
:105530006BFD2046034A0449BDE8104001F066BBFC
:1055400044E6032014E60320DF540D0070470020DA
:10555000704710B51021044601F05DFB204610BDD8
:1055600008B5FFF7F6FF08BD30B500224FF69C7472
:10557000026084808D888C800C68858004600A605D
:1055800030BD10B504460068FFF76AFF204610BD25
:1055900038B5C468F4B12378022B03D104F10C00B0
:1055A000FFF7EFFF656835B12846FFF7A0FF102130
:1055B000284601F030FBA56835B12846FFF797FF74
:1055C0001021284601F027FB20461421BDE8384071
:1055D00001F021BB38BD73B50E46044656F8043BB6
:1055E00000930D4601A83146FFF71EF8019A009B73
:1055F0006260236001A8002301930093FEF724FF5B
:105600003046FEF721FF2846082101F004FB204622
:1056100002B070BD826810B50AB901F002FBBDE8A6
:105620001040C368184708B5006800F11001FFF783
:10563000F1FF08BD826810B50AB901F0F2FABDE8C1
:105640001040C368184708B5006800F11001FFF763
:10565000F1FF08BD38B500230446036010200D4655
:10566000FEF719FD28B10123C0E90133024B0360A5
:10567000C5602060204638BDA09A0D0038B50023D3
:1056800083608B6804460D462BB102229847EB6875
:10569000E360AB68A360204638BD0000F0B589B078
:1056A00004686846FFF760FF4FF00203D4E84F2F0D
:1056B000002A03D1C4E8413F0029F7D125D104F1E4
:1056C0000C0569462846FFF74FFFBFF35B8F0123A8
:1056D0006370002004F10803BFF35B8F53E8006F91
:1056E00043E80002002AF9D1BFF35B8F6EB1FFF7E8
:1056F00003FE78B129463046FFF78CFF3046FFF7AE
:10570000F6FE1021304601F086FA6846FFF739FFB1
:1057100009B0F0BD314602A8FFF7B0FFE068B4F968
:10572000105008B102F074F906901020ADF81C502A
:10573000FEF7B1FC0546E8B1002787601820FEF7A8
:10574000AAFC044688B10146876002A8FFF7D8FE8C
:10575000049BA268A360059B049206A9E268E3602B
:1057600004F110000592FFF7FFFE084BEB60084BB9
:105770002C60AB6006A8FFF704FF02A8FFF7B7FE96
:10578000002229460348FFF7BFFDB7E727560D0063
:10579000BD580D00B7540D002DE9F0478AB00546FD
:1057A0009DF848900C4617469846FFF7C9FD07AE8E
:1057B000824638BB4FF62E73059005A93046ADF8EA
:1057C0001830FFF7D1FE1420FEF765FC044648B1FF
:1057D000022303700123C0E901AA437031460C3053
:1057E000FFF7C2FE2846214640F8044BFFF732FF80
:1057F0003046FFF7C6FE05A8FFF7C3FE28460AB0ED
:10580000BDE8F0870C234FF0000A1420CDE908AA68
:105810000793FEF740FC014628B1C0E901AA80F8D1
:1058200000A080F801A004A80391FFF713FF224B0A
:1058300008930820FEF72FFC824628B1039B40F80E
:10584000043B04A9FEF7F0FE00965FFA89F3424696
:1058500039462046CDF824A0FFF782FDB8B9039B56
:105860005B7803F0FF0293B94FF69C7305A903A878
:105870000592ADF81830FFF711FF05A8FFF781FE7C
:1058800005A80999FFF7A7FE06A8FEF7DDFD039B13
:10589000059304A906A8FEF7C7FE059B069A2B6090
:1058A0006A60002306A806930593FEF7CDFD04A8C1
:1058B000FEF7CAFDA2E700BF81590D00022AF8B524
:1058C000054607D0032A18D0012A01D10B680360CE
:1058D0000020F8BD18200E68FEF7DDFB044650B12D
:1058E0003146FFF7CBFE3069B6F9147008B102F00B
:1058F0008FF82061A7822C60EAE70468002CE7D0CB
:1059000004F11000FFF73DFE2046FFF7F0FD1821DF
:10591000204601F080F9DBE738B5002383608B680F
:1059200004460D462BB102229847EB68E360AB6852
:10593000A360204638BD022A70B5044607D0032A6A
:1059400012D0012A01D10B680360002070BD142021
:105950000E68FEF7A0FB054620B13146FFF7DCFFDD
:10596000337C2B742560F0E70468002CEDD02046D2
:10597000FFF7BDFD1421204601F04DF9E5E70000D9
:10598000F0B589B004460D4601A81146FFF723FE85
:10599000A4B124B21DB1284602F03AF8054601A888
:1059A00003A90395ADF81040FFF778FE03A8FFF7B1
:1059B000E8FD02A8FEF748FD09B0F0BD019D0123F6
:1059C000D5E84F2F002A03D1C5E8413F0029F7D180
:1059D000EFD12B73BFF35B8F6B702B1DBFF35B8F0E
:1059E00053E8006F43E80042002AF9D1BFF35B8F10
:1059F000002EDED02046FFF77FFC074660B105F1A0
:105A00000C013046FFF716FE3046FFF770FD1021FF
:105A1000304601F000F9CCE7314603A8FFF77CFFE0
:105A20002B7B8DF81C301020FEF735FB0546D0B1DE
:105A300087601420FEF72FFB044678B1876001468B
:105A400003A8FFF75DFD059BA268A360069B059276
:105A5000E268E3609DF81C3006922374064BEB600D
:105A6000064B2C60AB6003A8FFF741FD00222946DE
:105A70000348FFF749FCC7E747560D0037590D00AB
:105A8000B7540D00002240681146FFF7B9BC002250
:105A900040681146FFF7C4BC40680022FFF7B8BC5D
:105AA0004068002281F00101FFF7A2BC002340689A
:105AB0001A461946FFF794BC002340681A46194657
:105AC000FFF786BC002240681146FFF779BC002230
:105AD00040681146FFF764BC406800220221FFF7CE
:105AE00067BC002340681A46FFF752BC024B0322F2
:105AF0005A60024A1A60704748E60320BC9A0D00BB
:105B00007047F8B5064615460C468F18BC4206D0BD
:105B1000336814F8011B9B6830469847F6E728461F
:105B2000F8BD007C0022FFF7DFBA007C0021FFF700
:105B3000E3BA007C0021FFF7E7BA007C0021FFF701
:105B4000EBBA007C0021FFF7EFBA10B51421044630
:105B500001F061F8204610BD10B54FF47A73044689
:105B600008460021C4E90113034B23602074114649
:105B7000FFF7EAFA204610BDF89A0D000023007CDA
:105B80001A461946FFF798BA007C0022FFF79CBA24
:105B9000C9B2FFF7F9BF007C0022FFF79DBA0121CF
:105BA000FFF7F9BFFFF780BAFFF776BA704710B575
:105BB0001821044601F02FF8204610BDF0B5037DF2
:105BC000062B8DB00E4600F104074FF0000412D0F2
:105BD00000F1080515F8011D0A22304600F0B9FB56
:105BE000AF42044419D0002CF4D02E21304600F0EE
:105BF00097FB0444EEE72F236A4639460A208DF8C6
:105C00000040FFF7A9FA684601F01FFF336802461B
:105C1000DB68694630469847044620460DB0F0BD23
:105C200010B5054B0446112240F8043B002101F059
:105C3000A1FE204610BD00BF209B0D000346074A71
:105C400010B543F8042B01F1100251F8044B43F84E
:105C5000044B9142F9D10A781A7010BD209B0D00B7
:105C600010B59DF8084044EA032343EA024242EAA1
:105C7000016104234160037510BD000013B5054B9D
:105C80000360CB7800938B784A780978FFF7E8FFB8
:105C900002B010BD209B0D0000F11003012213F88B
:105CA000101C0129184608D153F8041C02EB4102CC
:105CB000013A03F11003F2D17047022904BF53F8EF
:105CC000041C5218F4E770470020704710B51021EB
:105CD000044600F0A0FF204610BD08B5FFF7F6FF10
:105CE00008BD10B5C4687CB1206808B1FEF7D9F9C9
:105CF000237A1BB1606808B1FEF7D3F920460C2166
:105D0000BDE8104000F087BF10BD10B50368044621
:105D10009B689847A368013BA3602BB92368204682
:105D2000DB68BDE81040184710BD38B50B6803604C
:105D30004D6843689D4204460CD015B16B68013331
:105D40006B60606828B14368013B43600BB9FFF7A3
:105D5000DCFF6560204638BD0B461146002210B5B9
:105D6000C0E90022044683600BB9204610BDFFF74E
:105D7000DCFFFAE78368EBB11A78032A1AD8DFE868
:105D800002F00417021B0520704702685B68526826
:105D9000D05C2D2812D0A0F13003092B0ED9742825
:105DA0000ED066280CD0A0F16E03584258417047BF
:105DB000062070470020704704207047032070477A
:105DC000022070470000000010B50446FFF7D2FF24
:105DD00002280DD0C31EDBB2012B10D82268A368A5
:105DE00050685B68BDE810400021184402F06EBCAA
:105DF0002268A36852685B68D35C742B02D09FED65
:105E0000040B10BD9FED040BFBE700BFAFF3008058
:105E10000000000000000000000000000000F03F53
:105E20002DE9F04786B00746884602A800210024E5
:105E30009946102392460293FFF736FACDE90044C3
:105E400023464246394602A8FFF736FA061E1EDDF3
:105E50001049300100F0E3FE054690B1214602A84A
:105E6000FFF722FACDE900642B464246394602A8E4
:105E7000FFF722FAA04207DDCAF800500120C9F856
:105E8000006006B0BDE8F0872846FEF70AF9204614
:105E9000F7E700BF409C0D002DE9F84F4368866886
:105EA0000B4488460E4407461C4619464FF00D0920
:105EB0004FF0090AB44263D0254615F8012B5C2A3D
:105EC0002BD1A14207D0A4EB010B18465A4601F092
:105ED00037FD03465B44B54239D06278752A2AD132
:105EE000A21CB21A032A32DDA01D04F1050E4FF0E8
:105EF000000CAE4553D015F8011FA1F130025FFA36
:105F000082FBBBF1090F05D9A1F16102052A07D86F
:105F1000A1F1570242EA0C1CEBE728460446C9E708
:105F2000A1F14102052A12D8A1F13702F2E703F8E4
:105F300001CB0146F2E76E2A1CD00ED8622A13D09C
:105F400007D82F2A11D05C2A0FD0222A0DD000208A
:105F500023E0662AFBD10C2207E0722A0DD0742AB6
:105F6000F5D183F800A001E008221A70A11C0133CA
:105F70000846D3E74FF00A02F7E783F80090F5E709
:105F8000A14206D0641A1846224601F0D9FC034605
:105F90002344A3EB0803BB600120BDE8F88FBCF1EC
:105FA0007F0FC4D92146B9E7F8B50446154600EB82
:105FB00001160027B44210D02378032B08D12946BC
:105FC0002046FFF769FF48B1A368EF541034F1E7AA
:105FD000002BFBD1A268AB54F8E70120F8BD00000C
:105FE00038B50023C0E9003304460E48C4E9020373
:105FF000A9B10B78032B06D08BB9136858684B688E
:10600000C35C6E2B07D013684D6858688B682844B2
:106010005B1BA060E36011462046FFF786FE20462A
:1060200038BD00BFF4960D0038B500250B46C0E919
:106030000055C0E90255C0E90455044611464BB16C
:106040001A78012A06D103F11002DB6882604361ED
:10605000FFF76BFE204638BD10B54369044663B1B7
:106060008068E060013B1030A0602061636113B183
:10607000FFF712FEA060012000E0184610BD0000EE
:1060800038B500230446036010200D46FEF703F8E0
:1060900028B10123C0E90133024B0360C5602060D1
:1060A000204638BD349B0D00F0B5044687B00E463F
:1060B0000C202749154600F0B0FD014618B1002319
:1060C000C0E90033037203A80291FFF7D9FF029AD7
:1060D00042B9C4E90022A26003A8FEF7B5F9204640
:1060E00007B0F0BD00230193294601AB3046FFF70E
:1060F00097FE18B9C4E90000A060EDE71449029FBB
:10610000681C00F08CFD029B786058680028F1D074
:106110002A46314601F006FC029B019918680122CB
:106120001A725A68FFF740FF0028E3D0029B1968F3
:106130000493039B059313B15A6801325A6004AA71
:106140002046FFF709FE05A8FEF77EF9C4E700BF69
:10615000409C0D00014B024A1A60704750E6032034
:10616000489B0D00002340681A46FFF711B94068AC
:1061700000220221FFF71CB9002240681146FFF7F8
:106180000FB9002240681146FFF71AB90023406892
:106190001A461946FFF71CB9002340681A461946EB
:1061A000FFF71EB940680021FFF742B9406800219F
:1061B000FFF746B94068002281F00101FFF718B9E6
:1061C00040680022FFF724B9002240681146FFF71B
:1061D00027B9002240681146FFF712B92DE9F043B4
:1061E000002495B016460D460746FFF719FD2146D7
:1061F00018220EA8009401F0BDFB4023CDE90C3419
:1062000021466B460CAA3046FEF7B6FF044600282E
:106210004CD1024601216868FFF7D2F8022180467E
:1062200022466868FFF7CCF8009E81462146002E82
:106230003CD000293AD17368022B03D00A2B11D02D
:10624000F669F4E7B8F1000F0AD0716906A80431C5
:1062500007ADFFF713FD0FCD3C1D0FC42B68237056
:106260004146EDE7B9F1000F01D14946E8E774690D
:10627000102201A801F07EFB06238DF8143001AD39
:1062800004F108031834186859682A4603C2083311
:10629000A3421546F7D101A906A807ADFFF7CEFC2A
:1062A0000FCD3C1D0FC42B682370DEE70098FEF76E
:1062B0005BFF384615B0BDE8F0830000024B034A8F
:1062C0001A6000225A60704754E60320549B0D0068
:1062D000F8B506460D468F180024BD420CD0336831
:1062E00015F8011B9B6830469847031E01DB1C44D0
:1062F000F3E7002C08BF1C462046F8BD13B5044642
:10630000084659B1019101F0A0FB23680199DB68AF
:106310000246204602B0BDE81040184702B010BD4A
:1063200003689B68184738B50D210546FFF7F8FF4D
:106330000A2104462846FFF7F3FF204438BD38B54C
:106340000546FFF7DBFF04462846FFF7ECFF204435
:1063500038BD30B58BB000238DF82430012A98BFAA
:106360000A2209AC0D46B1FBF2F101FB125303F016
:10637000FF03092B94BF30333733DBB2AA4204F852
:10638000013DEFD92146FFF7B9FF0BB030BD10B585
:106390000446FFF7ACF8204610BD00000348044A4D
:1063A00004490023836000F031BC00BF5CE6032099
:1063B00014E603208F630D0010B5044608462170D3
:1063C000FEF7E2FE00236360204610BD2DE9F04792
:1063D00057EC106B80460C4610EE100A002200238A
:1063E000394601F057F828B107F100431F462D2325
:1063F00004F8013B00234FF001090A22D9B2884575
:1064000003D902FB09F90133F8E7484600F066FDBD
:1064100032463B4600F0CCFD06460F4601F0EAF856
:1064200005468A4600F08EFD02460B463046394648
:1064300000F006FC134B002201F040F810B10135CA
:106440004AF1000A4A462846D317514601F0BAF8E5
:106450000123154621460A2200F073FAB8F1000F15
:106460000DD0204601F0F1FA2E23211823540A22E0
:10647000434628460131BDE8F04700F062BABDE866
:10648000F08700BF0000E03F10B504460068FEF74B
:10649000E7FF204610BD10B50446006808B1FEF7BE
:1064A000DFFF0023C4E90133236010BD38B5044683
:1064B0000D4600680131FEF7DBFF10B1C4E90005AD
:1064C000012038BD10B50368044623B143688B42F0
:1064D00001D3012010BD2046FFF7E8FF0028F9D0C6
:1064E000A368002BF5D122681370F2E737B50D468B
:1064F000114601920446FFF7E5FF019A28B92046AC
:10650000FFF7C9FF204603B030BDA26029462068CE
:1065100001F008FA2268A3680021D154F2E788420A
:1065200010B5044605D00B682BB18A681946FFF7F1
:10653000DDFF204610BDFFF7AEFFFAE710B50023E0
:106540000446C0E9003383600373FFF7E8FF204689
:1065500010BD13B5044659B10846019101F075FA12
:10656000019902462046FFF7C1FF204602B010BD48
:10657000FFF791FFF9E730B5044600238BB0C4E97B
:106580000033A360237310EE100ACDB200F0B8FC04
:1065900041EC100B01A92846FFF718FF01A920467E
:1065A000FFF7D7FF20460BB030BD10B504468AB0C8
:1065B00000230846C4E90033A360237301A9C0B2D5
:1065C000FFF704FF01A92046FFF7C3FF20460AB0EA
:1065D00010BD70B505460E4609B9002070BD6AB100
:1065E000846814442146FFF76DFF0028F5D0286821
:1065F000AB683146184401F003FAAC600120EDE7C6
:1066000013B5044629B92046FFF745FF204602B0DE
:1066100010BD0846019101F018FA01990246204682
:10662000FFF7D7FF0028EED0F0E710B5044600686A
:1066300018B1FEF715FF0023236010BD10B5044606
:10664000FFF7F3FF204610BD10B5094B094C02229D
:1066500000201A60084B2060A080A071A360FEF7A4
:106660003BFE2046054A0649BDE8104000F0CEBA80
:1066700078E603206CE603200000FFFF14E6032009
:106680003D660D00024B1A68024B1A60704700BF4E
:106690003CE403207CE6032070474174704708B552
:1066A000007CFEF7B9FD20EAE07008BD08B5007C6B
:1066B000FEF78AFD20EAE07008BD08B5007CFEF711
:1066C00093FD40EAE07008BD08B5007CFEF784FD4C
:1066D00040EAE07008BD007CFEF78EBD37B5457C12
:1066E00004462DB1207C03B0BDE83040FEF764BD08
:1066F000007C0191FEF790FD00280199F2DC28460C
:1067000003B030BD10B51421044600F084FA2046D1
:1067100010BD000010B54FF0000C044608461146AD
:106720004FF47A72C4E901C2044A22600122207443
:1067300062741A46FEF738FD204610BDAC9B0D0072
:1067400013B50E4C2178BFF35B8F11F0010112D10C
:1067500020460191FDF7A7FC019960B1084A094B59
:106760000948FFF7D7FF2046FDF7A2FC074A084972
:10677000054800F04BFA044802B010BD80E6032043
:1067800084E6032008E703208CE7032014E60320B7
:1067900099660D0041747047704708B50021007C70
:1067A000FEF762FD40EAE07008BD08B50121007CFB
:1067B000FEF75AFD40EAE07008BD08B5007CFEF720
:1067C0004BFD20EAE07008BD08B5007CFEF73CFDFB
:1067D00020EAE07008BD13B50446007C0191FEF785
:1067E0003BFD0028019901DC607C20B1207CFEF794
:1067F00043FD20EAE07002B010BD007CFEF744BD0E
:1068000010B51421044600F006FA204610BD000021
:1068100010B54FF47A73044608460021C4E9011309
:10682000044B23600123207463741146FEF7FCFCC3
:10683000204610BDDC9B0D00007C0022FEF7FCBC56
:1068400010B514220446002101F094F8204610BD32
:1068500010B5104C88B003A8FFF7F2FF2178BFF302
:106860005B8F11F0010111D120460191FDF71BFC56
:10687000019958B103AA0848FFF7CAFF2046FDF75F
:1068800017FC064A0649044800F0C0F9024808B05F
:1068900010BD00BFA0E70320A4E7032014E60320F7
:1068A00099670D00002240681146FEF789BD00225D
:1068B00040681146FEF7A4BD002240681146FEF76D
:1068C000AFBD40680022FEF7A3BD4068002281F002
:1068D0000101FEF78DBD002340681A461946FEF7F8
:1068E0007FBD002340681A461946FEF771BD00229D
:1068F00040681146FEF754BD406800220221FEF7B1
:1069000057BD002340681A46FEF742BD024B0422E1
:106910005A60024A1A607047B8E703200C9C0D00C9
:1069200010B5044601F091F801382318204683423F
:1069300006D90278197800F8011B03F80129F6E757
:1069400010BD70B50C46911E2229054622D820465E
:106950006DB1B5FBF2F602FB1655E9B2092D94BFF5
:1069600030315731C9B200F8011B3546F0E7024615
:1069700023443021934202D902F8011BFAE71A1A84
:10698000834238BF0022002383542046FFF7C8FF0C
:10699000204670BD0020FCE7014B1860704700BF27
:1069A00040E4032008B50B4B43B1FFF751FF0368E8
:1069B0001B699847002801DDAFF30080064B43B107
:1069C000FFF7BEFE03681B699847002801DDAFF39F
:1069D000008008BD000000000000000008B5FFF7BF
:1069E000E1FFFEF731FB014B186008BDD4E703203F
:1069F0000248034A0349121A00F094BF00F403202E
:106A000004F40320E89E0D0007B5002300931A4606
:106A10006FF07701FEF78AFC03B05DF804FB00001D
:106A200007B543880A2B08D0502B0BD1094B1B68A4
:106A30004BB103B05DF804EB1847FFF7E5FF03B077
:106A40005DF804FB002300931A466FF07701FEF710
:106A50006DFCF4E7C4E7032038B5124C1248134D1F
:106A60000021FEF71DFD2368AB42114B0CBF012234
:106A700000221A7002D0FFF7BBFF2560FEF7D4FAA0
:106A8000044600F08FFF0B4B13B12046AFF300809C
:106A900000210848FEF774FCBDE838400648002194
:106AA000FEF73ABC00F4032099690D001E1C279ADA
:106AB000C0E7032000000000216A0D00232813B561
:106AC00002D9002002B010BDA0F10B03022B1AD88E
:106AD000174C2178BFF35B8F11F001010BD12046D9
:106AE0000191FDF7E0FA019928B11248FFF764FC23
:106AF0002046FDF7DDFA0F4B1878FEF74DFB002816
:106B0000DFD10120DEE7012809D800F057F8002185
:106B1000007CFEF711FB80F00100C0B2D2E709381B
:106B20000128EED8FFF70CFE007CFEF76DFBF2E7C4
:106B3000C8E70320CCE70320232838B504460D46D8
:106B40000AD8FF2908D0FFF7B9FF28B12946204607
:106B5000BDE83840FEF788BA38BD38B504460D4662
:106B6000FEF78AFAFF2810D0062804D84D2323FA0E
:106B700000F0C30709D42046FFF7A0FF28B129463B
:106B80002046BDE83840FEF77FBA38BD38B500234F
:106B9000202543801423044603808560056106494F
:106BA000284600F03CF804496060284600F037F8B9
:106BB000E060204638BD00BF409C0D0030B50F4D51
:106BC0002978BFF35B8F11F0010487B013D12846F9
:106BD000FDF769FA78B101A8FFF7D8FF01AA2146AD
:106BE0000748FEF7B9FF2846FDF762FA054A06494D
:106BF000034800F00BF8024807B030BDD8E7032087
:106C0000DCE7032014E60320015B0D000B46014680
:106C1000184600F079BEFDF742BAFDF73CBAFDF721
:106C20003CBA08B5FEF72CFC9FED010B704700BF86
:106C3000000000000000F87F81F0004102E000BF8A
:106C400083F0004330B54FEA41044FEA430594EA2C
:106C5000050F08BF90EA020F1FBF54EA000C55EA67
:106C6000020C7FEA645C7FEA655C00F0E2804FEA38
:106C70005454D4EB5555B8BF6D420CDD2C4480EA1A
:106C8000020281EA030382EA000083EA010180EA4A
:106C9000020281EA0303362D88BF30BD11F0004F98
:106CA0004FEA01314FF4801C4CEA113102D04042CE
:106CB00061EB410113F0004F4FEA03334CEA133309
:106CC00002D0524263EB430394EA050F00F0A78021
:106CD000A4F10104D5F1200E0DDB02FA0EFC22FA1C
:106CE00005F2801841F1000103FA0EF2801843FA10
:106CF00005F359410EE0A5F120050EF1200E012A01
:106D000003FA0EFC28BF4CF0020C43FA05F3C0183E
:106D100051EBE37101F0004507D54FF0000EDCF1B7
:106D2000000C7EEB00006EEB0101B1F5801F1BD360
:106D3000B1F5001F0CD349085FEA30004FEA3C0C64
:106D400004F101044FEA445212F5800F80F09A805A
:106D5000BCF1004F08BF5FEA500C50F1000041EB5E
:106D6000045141EA050130BD5FEA4C0C404141EB62
:106D70000101013C28BFB1F5801FE9D291F0000F5D
:106D800004BF01460020B1FA81F308BF2033A3F10C
:106D90000B03B3F120020CDA0C3208DD02F1140C03
:106DA000C2F10C0201FA0CF021FA02F10CE002F13E
:106DB0001402D8BFC2F1200C01FA02F120FA0CFC37
:106DC000DCBF41EA0C019040E41AA2BF01EB045180
:106DD000294330BD6FEA04041F3C1CDA0C340EDC7E
:106DE00004F11404C4F1200220FA04F001FA02F3C1
:106DF00040EA030021FA04F345EA030130BDC4F17F
:106E00000C04C4F1200220FA02F001FA04F340EA73
:106E10000300294630BD21FA04F0294630BD94F024
:106E2000000F83F4801306BF81F480110134013D0B
:106E30004EE77FEA645C18BF7FEA655C29D094EA7C
:106E4000050F08BF90EA020F05D054EA000C04BFFA
:106E50001946104630BD91EA030F1EBF00210020E5
:106E600030BD5FEA545C05D14000494128BF41F084
:106E7000004130BD14F580043CBF01F5801130BDE8
:106E800001F0004545F0FE4141F470014FF0000073
:106E900030BD7FEA645C1ABF194610467FEA655C24
:106EA0001CBF0B46024650EA013406BF52EA0335C6
:106EB00091EA030F41F4002130BD00BF90F0000FB4
:106EC00004BF0021704730B54FF4806404F13204F0
:106ED0004FF000054FF0000150E700BF90F0000FA9
:106EE00004BF0021704730B54FF4806404F13204D0
:106EF00010F0004548BF40424FF000013EE700BFA0
:106F000042004FEAE2014FEA31014FEA02701FBF2F
:106F100012F07F4393F07F4F81F06051704732F061
:106F20007F4208BF704793F07F4F04BF41F40021B8
:106F3000704730B54FF4607401F0004521F0004116
:106F40001CE700BF50EA010208BF704730B54FF0A0
:106F500000050AE050EA010208BF704730B511F0A1
:106F6000004502D5404261EB41014FF4806404F1D9
:106F700032045FEA915C3FF4D8AE4FF003025FEA5F
:106F8000DC0C18BF03325FEADC0C18BF033202EBE3
:106F9000DC02C2F1200300FA03FC20FA02F001FA3D
:106FA00003FE40EA0E0021FA02F11444BDE600BFE0
:106FB00070B54FF0FF0C4CF4E06C1CEA11541DBF8F
:106FC0001CEA135594EA0C0F95EA0C0F00F0DEF85A
:106FD0002C4481EA030621EA4C5123EA4C5350EA3F
:106FE000013518BF52EA033541F4801143F4801390
:106FF00038D0A0FB02CE4FF00005E1FB02E506F021
:107000000042E0FB03E54FF00006E1FB03569CF075
:10701000000F18BF4EF0010EA4F1FF04B6F5007F7B
:1070200064F5407404D25FEA4E0E6D4146EB0606ED
:1070300042EAC62141EA55514FEAC52040EA5E5076
:107040004FEACE2EB4F1FD0C88BFBCF5E06F1ED820
:10705000BEF1004F08BF5FEA500E50F1000041EB57
:10706000045170BD06F0004646EA010140EA020004
:1070700081EA0301B4EB5C04C2BFD4EB0C0541EA26
:10708000045170BD41F480114FF0000E013C00F33B
:10709000AB8014F1360FDEBF002001F0004170BD5F
:1070A000C4F10004203C35DA0C341BDC04F1140478
:1070B000C4F1200500FA05F320FA04F001FA05F204
:1070C00040EA020001F0004221F0004110EBD370D1
:1070D00021FA04F642EB06015EEA430E08BF20EAFD
:1070E000D37070BDC4F10C04C4F1200500FA04F3A0
:1070F00020FA05F001FA04F240EA020001F0004132
:1071000010EBD37041F100015EEA430E08BF20EAA4
:10711000D37070BDC4F1200500FA05F24EEA020EEC
:1071200020FA04F301FA05F243EA020321FA04F01B
:1071300001F0004121FA04F220EA020000EBD370D2
:107140005EEA430E08BF20EAD37070BD94F0000FD2
:107150000FD101F00046400041EB010111F4801F06
:1071600008BF013CF7D041EA060195F0000F18BFB7
:10717000704703F00046520043EB030313F4801FF3
:1071800008BF013DF7D043EA0603704794EA0C0FAD
:107190000CEA135518BF95EA0C0F0CD050EA4106C3
:1071A00018BF52EA4306D1D181EA030101F0004140
:1071B0004FF0000070BD50EA410606BF1046194668
:1071C00052EA430619D094EA0C0F02D150EA013674
:1071D00013D195EA0C0F05D152EA03361CBF1046B5
:1071E00019460AD181EA030101F0004141F0FE4154
:1071F00041F470014FF0000070BD41F0FE4141F4D8
:10720000780170BD70B54FF0FF0C4CF4E06C1CEAD7
:1072100011541DBF1CEA135594EA0C0F95EA0C0F8C
:1072200000F0A7F8A4EB050481EA030E52EA033547
:107230004FEA013100F088804FEA03334FF0805568
:1072400045EA131343EA12634FEA022245EA111595
:1072500045EA10654FEA00260EF000419D4208BF46
:10726000964244F1FD0404F5407402D25B084FEAF3
:107270003202B61A65EB03055B084FEA32024FF49F
:1072800080104FF4002CB6EB020E75EB030E22BFFC
:10729000B61A754640EA0C005B084FEA3202B6EBBC
:1072A000020E75EB030E22BFB61A754640EA5C006B
:1072B0005B084FEA3202B6EB020E75EB030E22BFFB
:1072C000B61A754640EA9C005B084FEA3202B6EBFC
:1072D000020E75EB030E22BFB61A754640EADC00BB
:1072E00055EA060E18D04FEA051545EA16754FEA1D
:1072F00006164FEAC30343EA52734FEAC2025FEA3B
:107300001C1CC0D111F4801F0BD141EA00014FF0C9
:1073100000004FF0004CB6E711F4801F04BF01439A
:107320000020B4F1FD0C88BFBCF5E06F3FF6AFAEB6
:10733000B5EB030C04BFB6EB020C5FEA500C50F146
:10734000000041EB045170BD0EF0004E4EEA1131C9
:1073500014EB5C04C2BFD4EB0C0541EA045170BDD0
:1073600041F480114FF0000E013C90E645EA060E14
:107370008DE60CEA135594EA0C0F08BF95EA0C0F42
:107380003FF43BAF94EA0C0F0AD150EA01347FF48A
:1073900034AF95EA0C0F7FF425AF104619462CE761
:1073A00095EA0C0F06D152EA03353FF4FDAE1046C4
:1073B000194622E750EA410618BF52EA43067FF415
:1073C000C5AE50EA41047FF40DAF52EA43057FF4A5
:1073D000EBAE12E74FF0FF3C06E000BF4FF0010CB0
:1073E00002E000BF4FF0010C4DF804CD4FEA410C14
:1073F0007FEA6C5C4FEA430C18BF7FEA6C5C1BD0E1
:1074000001B050EA410C0CBF52EA430C91EA030F61
:1074100002BF90EA020F0020704710F1000F91EABE
:10742000030F58BF994208BF90422CBFD8176FEA8C
:10743000E37040F0010070474FEA410C7FEA6C5C5A
:1074400002D150EA013C07D14FEA430C7FEA6C5C61
:10745000D6D152EA033CD3D05DF8040B704700BF8D
:107460008446104662468C461946634600E000BFDB
:1074700001B5FFF7B7FF002848BF10F1000F01BDAD
:107480004DF808EDFFF7F4FF0CBF012000205DF878
:1074900008FB00BF4DF808EDFFF7EAFF34BF0120FD
:1074A00000205DF808FB00BF4DF808EDFFF7E0FF96
:1074B00094BF012000205DF808FB00BF4DF808EDE7
:1074C000FFF7CEFF94BF012000205DF808FB00BF4E
:1074D0004DF808EDFFF7C4FF34BF012000205DF830
:1074E00008FB00BF4A0011D212F5001211D20DD5CF
:1074F0006FF47873B3EB62520ED44FEAC12343F0BA
:10750000004343EA505323FA02F070474FF0000063
:10751000704750EA013002D14FF0FF3070474FF012
:10752000000070474FEA4102B2F1E04324BFB3F5D7
:10753000001CDCF1FE5C0DD901F0004C4FEAC002EA
:107540004CEA5070B2F1004F40EB830008BF20F0CE
:107550000100704711F0804F21D113F13872BCBF88
:1075600001F00040704741F480114FEA5252C2F1DD
:107570001802C2F1200C10FA0CF320FA02F018BF26
:1075800040F001004FEAC1234FEAD32303FA0CFC79
:1075900040EA0C0023FA02F34FEA4303CCE77FEA08
:1075A000625307D150EA01331EBF4FF0FE4040F452
:1075B0004000704701F0004040F0FE4040F4000001
:1075C000704700BF53B94AB9002908BF00281CBF43
:1075D0004FF0FF314FF0FF3000F08CB9ADF1080CE7
:1075E0006DE904CE00F024F8DDF804E0DDE90223C3
:1075F00004B07047D0B50C4B002206460F46FFF78B
:10760000D7FCFFF76FFF0446FFF758FC074B00223B
:10761000FFF7CEFC02460B4630463946FFF710FB1B
:10762000FFF760FF2146D0BD0000F03D0000F041B3
:107630002DE9F047089D04468C46002B40F08380DE
:107640008A42174647D9B2FA82F242B1C2F120000B
:1076500024FA00F09140974040EA010C94404FEA30
:107660001748230CBCFBF8F61FFA87FE08FB16C16F
:1076700043EA014306FB0EF1994209D9FB1806F1D2
:10768000FF3080F01981994240F21681023E3B445E
:107690005B1AA4B2B3FBF8F008FB103344EA0344CE
:1076A00000FB0EFEA64509D93C1900F1FF3380F01E
:1076B0000581A64540F2028102383C4440EA06407A
:1076C000A4EB0E0400261DB1D4400023C5E90043FD
:1076D0003146BDE8F08702B9FFDEB2FA82F2002A35
:1076E00050D1CB1B4FEA174E1FFA87F80126B3FB88
:1076F000FEFC210C0EFB1C3341EA034108FB0CF39A
:107700008B4207D979180CF1FF3002D28B4200F27C
:10771000E9808446C91AA3B2B1FBFEF00EFB10113A
:1077200043EA014408FB00F8A04507D93C1900F1E1
:10773000FF3302D2A04500F2D9801846A4EB08041A
:1077400040EA0C40BFE78B4209D9002D00F0B18020
:107750000026C5E9000130463146BDE8F087B3FA9E
:1077600083F6002E4AD18B4202D3824200F2B880C7
:10777000841A61EB030101208C46002DA8D0C5E9D5
:10778000004CA5E7C2F1200320FA03F6974001FA66
:1077900002F04FEA174ED9403043030CB1FBFEF61E
:1077A0001FFA87F80EFB161143EA014306FB08F1A6
:1077B000994204FA02F409D9FB1806F1FF3C80F063
:1077C0008D80994240F28A80023E3B445B1A81B22E
:1077D000B3FBFEF00EFB103341EA034100FB08F35C
:1077E0008B4207D9791800F1FF3C73D28B4271D9D3
:1077F00002383944CB1A40EA064678E7C6F1200C35
:1078000003FA06F422FA0CF31C4320FA0CF701FAEF
:1078100006F34FEA144E21FA0CF11F433B0CB1FB67
:10782000FEF91FFA84F80EFB191143EA014109FB26
:1078300008FA8A4502FA06F200FA06F308D9611836
:1078400009F1FF3048D28A4546D9A9F102092144FD
:10785000A1EB0A01BFB2B1FBFEF00EFB101147EA2B
:10786000014700FB08F8B84507D9E71900F1FF31D7
:107870002ED2B8452CD90238274440EA0940A7EB5C
:107880000807A0FB02894F45C64649461AD317D0C0
:107890005DB1B3EB0E0267EB010707FA0CFCF24097
:1078A0004CEA0202F740C5E9002700263146BDE850
:1078B000F0872E4628460BE70646E9E61846FDE621
:1078C0004345E5D2B8EB020E69EB04010138DFE76E
:1078D0000846D2E760468DE78146B9E7664675E718
:1078E00030464AE7ACF1020C394413E702383C4415
:1078F00024E700BF704700BF024B0A4601461868E4
:1079000000F040B840E4032010B5054C13462CB1FC
:107910000A4601460220AFF3008010BD2046FCE776
:10792000000000000A44914200F1FF3300D170478B
:1079300010B511F8014B03F8014F9142F9D110BD78
:10794000884210B501EB020402D98442234607D8CD
:10795000431EA14208D011F8012B03F8012FF8E7CC
:10796000024401468A4200D110BD13F8014D02F8CD
:10797000014DF7E702440346934200D1704703F8F4
:10798000011BF9E713B54A4311460192FDF780FD4B
:10799000044618B1019A0021FFF7ECFF204602B01F
:1079A00010BD000038B50D4B1D68AB6B04467BB9AC
:1079B0001820FDF74DFD0A4A0A4BA863C0E90023D1
:1079C000094B83600B23838101220023C0E9042338
:1079D000AB6B00221C615A6138BD00BF40E403203C
:1079E0000E33CDAB34126DE6ECDE050010F8012B42
:1079F00011F8013B012A28BF9A42F7D0D01A7047EC
:107A0000034611F8012B03F8012B002AF9D1704726
:107A1000024B0146186800F003B800BF40E40320A1
:107A200037B5044608460D4600F00FF8421C1146D3
:107A300020460192FDF72CFD044618B1019A294613
:107A4000FFF770FF204603B030BD034613F8012B4B
:107A5000002AFBD1181A0138704710B56AB10139F4
:107A6000841810F8013B11F8012F934203D1A04272
:107A700001D0002BF5D1981A10BD1046FCE770B567
:107A800004460D4645EC104B164601F097FC51ECB0
:107A9000100B7EB1C5F30A53C3F16B03002B09DD54
:107AA0001B0503F17F55002405F5401522462B46A2
:107AB000FFF77EFA70BD00002DE9F04FA3B01F461E
:107AC00000231E93A44B19921B6807930446184683
:107AD0008846FFF7BAFF4FF0000A05464FF0000B4B
:107AE000CDF874801D9B1A782B2A4CD039D80D2ADA
:107AF00032D8082A32D8002A3CD000230E931D9E8B
:107B00003378302B40F0B480737803F0DF03582BC8
:107B10006CD10E9B01931EAB029700938F4A1FAB53
:107B20001DA9204600F046FE10F00707054605D0C7
:107B3000062F2AD1013600231D960E93199B002B88
:107B400040F096850E9BDBB152460BF1004343ECAF
:107B5000102B23B0BDE8F08F202ACED101331D9326
:107B6000C0E72D2AC9D101220E925A1C1D925B78C2
:107B7000002BC4D1199BCDF87480002B40F0768582
:107B800052465B46E3E70022EEE71E9A3AB1352102
:107B900020A801F012FD1E99204601F047F9013F8F
:107BA000052F07D8DFE807F00E0B181D0E034FF066
:107BB000000BDA462807C1D54BF0004BBEE7DDE9E4
:107BC00020ABF7E7DDE920A31F9A23F4801302F22C
:107BD000334243EA025BEDE7DFF884B14FF0000A7D
:107BE000E8E76FF0004B4FF0FF3AE3E71D9B5A1CAC
:107BF0001D925B78302BF9D0002B9FD001234FF0E2
:107C0000000904931D9B0A93CDF824904F460A2245
:107C10001D980678A6F13003D9B209292AD9079907
:107C20002A46FFF71AFF98B3002033463D460790D7
:107C30000246652B01D0452B18D11DB9049B034387
:107C400098D00025DDF8748008F101031D9398F8A1
:107C500001302B2B75D02D2B7BD04FF0000CA3F1D6
:107C60003001092940F28280CDF8748000269DE021
:107C70000023C4E7082FD8BF099900F10100DABF3B
:107C800002FB0133099302FB093901371D90BFE75D
:107C90001D9B5A191D925B5D002F37D007903D4602
:107CA000A3F13002092A12D90122C2E71D9B5A1CF6
:107CB0001D925B780130302BF8D0A3F13102082AF5
:107CC00000F2DB841D9A079000200A920546303BA3
:107CD00000F1010214D00799114407912A4600EBE4
:107CE000050E0A21724513D12A18082A05F101054B
:107CF00005441CDC09990A2202FB01330993002286
:107D00001D9B591C1D915B781046C9E73846D2E788
:107D1000082A04DC099E4E4309960132E2E702F18B
:107D2000010CBCF1100FD8BF01FB09F9F5E7102DCC
:107D3000DCBF0A2202FB0939E1E700230793012295
:107D40007CE74FF0000C08F102031D9398F8023015
:107D500085E74FF0010CF6E7A49D0D00509C0D0047
:107D60000000F07F1D9B591C1D915B78302BF9D0D2
:107D7000A3F1310108293FF679AFA3F1300E1D9B25
:107D800008931D9B591C1D915B78A3F13006092EA9
:107D900037D9089E891B082944F61F6602DC764500
:107DA000A8BF7646BCF1000F00D07642002D4FD11F
:107DB000049901437FF4C2AE002A7FF4DBAE692B45
:107DC00027D024DC492B24D04E2B7FF4D3AE9E4900
:107DD0001DA800F035FF00283FF4CCAE1D9B1B789A
:107DE000282B2DD1994920AA1DA800F03DFF052878
:107DF00026D1219BDDF880A043F0FF4B4BF4E00B34
:107E00009CE60A2101FB0E3EAEF1300EB9E76E2B67
:107E1000DBE78F491DA800F013FF00283FF4AAAE4E
:107E20001D9B8C49013B1DA81D9300F009FF10B953
:107E30001D9B01331D93DFF82CB24FF0000A7DE645
:107E40008548FEF7F1FE8DED040BDDE904AB75E628
:107E5000079B0998F31A002F08BF2F46102D08938F
:107E6000A846A8BF4FF01008FFF728F8092D824652
:107E70008B4613DD794B03EBC80353E91223FFF75D
:107E800097F8824648468B46FFF718F802460B469D
:107E900050465946FEF7D6FE82468B460F2D38DCFB
:107EA000089B002B3FF44AAE24DD162B0BDC6B4DF8
:107EB00005EBC305D5E9000152465B46FFF778F8AC
:107EC00082468B463AE6089AC5F12503934220DBA9
:107ED000624CC5F10F0504EBC50152465B46D1E982
:107EE0000001FFF765F8089B5D1B04EBC504D4E9AE
:107EF0000023E3E7089B16330BDB079B574A9E1BC7
:107F000002EBC606D6E9002350465946FFF77AF938
:107F1000D6E7089BA5EB08089844B8F1000F71DD7F
:107F200018F00F030AD04D4901EBC30152465B46DE
:107F3000D1E90001FFF73CF882468B4638F00F0884
:107F40004DD0B8F59A7F22DD00252E46099507957C
:107F50002223DFF810B123604FF0000A099B002BA9
:107F60003FF4ECAD1E99204600F060FF07992046D3
:107F700000F05CFF3146204600F058FF099920468A
:107F800000F054FF2946204600F050FFD6E50023BC
:107F90004FEA2818504659469946B8F1010F21DC9E
:107FA0000BB182468B462E4BABF1547B03EBC909D8
:107FB00052465B46D9E90001FEF7FAFF294B0A4613
:107FC0000B4029498B428246BED8A1F580118B42D5
:107FD00086BFDFF898B04FF0FF3A02F1547B0023E0
:107FE000049381E018F0010F07D01D4B03EBC90388
:107FF000D3E90023FEF7DCFF012309F101094FEA71
:108000006808CAE7EBD0C8F1000818F00F020AD0E0
:10801000124B03EBC20350465946D3E90023FFF746
:10802000F1F882468B465FEA2818D8D0B8F11F0FC6
:108030001EDD00252E460995079522234FF0000AE4
:108040004FF0000B236089E74A9C0D00649C0D00F3
:10805000419C0D00449C0D00F4960D00E09D0D0028
:10806000B89D0D000000F07F0000A07CFFFFEF7FB7
:1080700018F0100318BF6A23DFF8B4930493504636
:108080005946002318F0010F04D0D9E90023FEF768
:108090008FFF01235FEA680809F10809F2D10BB1EB
:1080A00082468B46049BBBB1CBF30A53C3F16B03EF
:1080B000002B594610DD1F2B40F32881342BDEBFE7
:1080C000203B4FF0FF3202FA03F34FF0000ACCBF1F
:1080D0004FF05C7B03EA010B002200235046594617
:1080E000FFF7CEF90028A4D1099B00930A992B46EB
:1080F0003A46204600F0EFFE099000283FF424AFF6
:10810000079B9E1B089B002BB4BF33460023109394
:10811000089B002523EAE37318932E46099B20460B
:10812000596800F04FFE079000283FF411AF099BFB
:108130001A69023203F10C0192000C30FFF7F2FBD6
:108140004BEC10AB20AA1FA92046CDE90AAB01F0E9
:10815000B1F91E9000283FF4FBAE0121204600F04B
:1081600048FF064600283FF4F3AE1F9B0499002BFE
:10817000ABBF109A189A189FDDF84090ACBF03EB84
:108180000209D71A209AA3EB01089044A34B08F1E7
:10819000FF389845C2F1360280F2CC80A3EB080389
:1081A0001F2BA2EB03024FF0010100F3B68001FA8E
:1081B00003F3119300230C9309EB0208049BC145C0
:1081C00017441F444B46A8BF4346BB42A8BF3B468B
:1081D000002BC2BFA8EB0308FF1AA9EB0309109BF1
:1081E000002B17DD31461A46204600F0A7FF064651
:1081F00000283FF4ADAE01461E9A204600F002FF73
:108200000F9000283FF4A4AE1E99204600F00EFE09
:108210000F9B1E93B8F1000F00F39180089B002B79
:1082200008DD189A0799204600F088FF079000287B
:108230003FF48EAE002F08DD07993A46204600F045
:10824000CBFF079000283FF483AEB9F1000F08DDA3
:1082500031464A46204600F0BFFF064600283FF45C
:1082600077AE079A1E99204601F031F8054600289E
:108270003FF46EAEC3680F930023C360314601F034
:108280000AF8002865DA0F9B53EA0A0340F087805A
:10829000CBF31303002B40F082802BF000431B0D27
:1082A0001B05B3F1D66F7AD96B6913B92B69012B12
:1082B00075DD29460122204600F08EFF3146054635
:1082C00000F0E9FF00286ADD0499554A5B46002961
:1082D00000F0858002EA0B01B1F1D66F7FDCB1F1CD
:1082E0005C7F7FF7AAAE4F4A0023CDE91632504695
:1082F000DDE916235946FEF75BFE0B46034308BF34
:10830000222382468B4608BF23602BE64FF0FF32C4
:1083100002FA03F303EA0A0ADEE6C8F17F4808F529
:108320007F0808F57B4808F1E20801FA08F30C938E
:10833000119141E700230C93012311933CE71E990F
:108340004246204600F048FF1E9000287FF466AFAA
:10835000FEE55F466ED10F9ACBF3130342B3324A68
:10836000934228D1049B5046EBB12D4A3A40B2F1DA
:10837000D46F4FF0FF3119D8120DC2F16B0301FA1F
:1083800003F3984217D1294B9F4202D101303FF4A9
:10839000DFAD234B3B4003F5801B4FF0000A049BED
:1083A000002BA0D1DEE54FF0FF33EAE70B46E8E70C
:1083B00053EA0A0388D00C9BDBB13B42EFD00F9B02
:1083C000049A50465946C3B1FFF759FB02460B4683
:1083D000DDE90A01FEF736FC82468B46DFE71340F3
:1083E000A3F580136FEA135B6FEA0B5B4FF0FF3A64
:1083F000D5E7119B13EA0A0FE0E7FFF740FB0246BF
:108400000B46DDE90A01FEF71BFC00220023824631
:108410008B46FFF735F80028C1D00EE602FCFFFFBF
:108420000000F07F00005039FFFF0F00FFFFEF7FDB
:10843000789C0D003146284601F08CF859EC108BE1
:1084400010EE100A00224FF080434946FFF72CF847
:1084500000287CD00F9B002B4CD0954B0022CDE9FF
:108460000C23DFF84C924FF00008924B3B401193E5
:10847000119A914B9A4240F0B280DDE90A23DDE97E
:108480000C01A7F1547B4BEC10ABCDE91623CDE9E1
:108490000C0100F093FFDDE90C0153EC102BFEF70B
:1084A00087FD52465B46FEF7CDFB0B468149834A6A
:1084B0001940914282465ED90B9B02F1547293425D
:1084C00003D10A9B01333FF443ADDFF8FCB14FF019
:1084D000FF3A1E99204600F0A9FC0799204600F0BB
:1084E000A5FC3146204600F0A1FC2946204600F0BC
:1084F0009DFC13E6BAF1000F1BD1CBF31303F3B9C4
:108500006B4B002240464946FEF7C4FFD0B94046B7
:1085100049466B4B0022FEF74BFD8046894609F128
:108520000043CDF868801B93DDE91A23CDE90C23C5
:108530009BE7BAF1010F02D1002F3FF47EAD614BF2
:1085400000228CE7DFF878914FF00008E7E75C4BFA
:10855000404649460022FEF72BFD0F9B8046894688
:1085600033B901F1004312901393DDE91223DDE7E3
:10857000CDE91289F9E703F1547B049B002BA8D1C4
:108580002BF00043119A1B0D1B059A42A1D14046C6
:10859000494601F063F8FEF7DDFC02460B46404613
:1085A0004946FEF74DFB0F9ACBF3130343EA0A0348
:1085B00013438046894653D035A3D3E90023FEF701
:1085C00069FF00287FF4CEAC33A3D3E900234046F3
:1085D0004946FEF77DFF00283FF47BAFC2E4049BD1
:1085E00033B3119BB3F1D46F22D82DA3D3E9002369
:1085F00040464946FEF758FFA0B149464046FEF7BF
:1086000071FF012838BF0120FEF758FC0F9B804600
:10861000894613BB01F1004314901593DDE914233F
:10862000CDE90C230D9B119A03F1D6639B1A0D9390
:10863000DDE90C019DED0A0BCDE90C0100F0BEFE59
:10864000DDE90C0153EC102BFEF7B2FCDDE90A2347
:10865000FEF7F8FA82468B468FE7CDE91489DDE70D
:1086600011A3D3E90023FEF715FFB4E700230E930F
:10867000199A1D9B1360FFF765BA652B3FF45DAB3C
:10868000452B3FF45AAB0122FFF792BBAFF30080BA
:108690009535A094FFFFDF3F35E5AF350000E03FA3
:1086A0000000C0FFFFFFDF419535A094FFFFCF3FE3
:1086B0000000F03F0000F07F0000E07FFFFF9F7CA4
:1086C0000000E03F0000F0BFFFFFEF7F0A460146D9
:1086D0000248034B0068FFF7EFB900BF40E40320F6
:1086E000A8E403200369B3EB611F2DE9F0434FEACF
:1086F000611200F1140445DD11F01F0104EB830643
:1087000004EB82050CD100F110072946B14234D3A5
:108710009B1A9B00EA1E964238BF0023234415E0B3
:1087200054F82270C1F12008CF4005F1040EA14693
:108730007645F44615D89B1A9A00043A0135AE42A4
:1087400038BF0022A318A75007B104331A1BA34255
:108750004FEAA20208BF0023026108BF4361BDE8DF
:10876000F083DCF800C00CFA08FC4CEA070749F873
:10877000047B5EF8047BCF40DAE751F804CB47F87E
:1087800004CFC3E72346E1E7A0F13003092B02D869
:108790002038C0B27047A0F16103052B01D84738DB
:1087A000F7E7A0F14103052B01D82738F1E70020B6
:1087B000704700002DE9F04F2DED028B89B008EED7
:1087C000100A0493BC4B1B68019318468B469046D5
:1087D000FFF73BF9019BDBF800200344824613F8C6
:1087E000013C0593931CC2F1FF2202F57F02FE3289
:1087F000D1181F4613F8010B00913028F8D0FFF76D
:10880000C3FF044600283AD1019952463846FFF783
:1088100024F90546002868D117F80A0007EB0A0674
:10882000FFF7B2FF002862D03346187830281F4681
:1088300003F10103F9D0FFF7A7FF0123B0FA80F499
:108840006409354600933A46164601323078FFF700
:108850009BFF0028F8D1019952463046FFF7FDF8FA
:1088600080B94DB906EB0A052A4616460132307822
:10887000FFF78AFF0028F8D1AD1BAD0004E000240B
:108880002546E0E7002DF7D1337803F0DF03502BC6
:108890003BD173782B2B2CD02D2B2ED0711C4FF06D
:1088A00000090878FFF770FF431EDBB2182B2CD8A5
:1088B000A0F1100211F8010FFFF766FF431EDBB2B3
:1088C000182B1DD9B9F1000F00D052421544CBF836
:1088D0000010E4B1009B002B14BF00270627384688
:1088E00009B0BDEC028BBDE8F08F3E462546012461
:1088F000CAE74FF00009B11CD3E74FF00109FAE7CE
:108900000A2303FB0202103AD4E73146DFE7F31BE8
:10891000013B2146072B52DC18EE100A00F052FAF8
:108920004FF0000B00F11409CAF101030446CDF821
:108930000890CDF800B00693B74243D30298009B4D
:1089400040F8043BA0EB0900801046012061184666
:1089500000F0FFFA301AD8F80060B04266DD871BDD
:108960003946204600F04CFE8246A8B17B1E5911C4
:1089700003F01F0259F821104FF0010A0AFA02F21F
:108980000A4209D0534505DDB91E204600F038FEE5
:10899000002848D14FF0020A39462046FFF7A2FED0
:1089A0003D44D8F80830AB424FDA18EE100A2146A1
:1089B00000F03CFA149A00231360A3278FE70131DB
:1089C0005B10A7E7731E059A039316F8013C9342C8
:1089D00019D0BBF1200F07D1029B009A43F8042B5A
:1089E0000293002300939B4616F8010CFFF7CCFE80
:1089F000009B00F00F0000FA0BF0034300930BF113
:108A0000040B039B0DE0039B069A1344BB42E0D387
:108A10001846019907935246FFF71FF8079B002855
:108A2000D7D11E4688E74FF0030AB5E70ADA371AAE
:108A3000214618EE100A3A4600F0CEFBED1B044624
:108A400000F114094FF0000AABE7D8F80400A8427F
:108A50006DDD451BAE4231DCD8F80C30022B23D043
:108A6000032B25D0012B15D1AE4213D1012E0BD1F2
:108A7000049AD8F80430136001232361C9F8003048
:108A8000149B62271C602AE7711E204600F0B8FD87
:108A90000028EDD118EE100A214600F0C7F9149A0B
:108AA0000023136050271AE7159B002BF2D1DFE754
:108AB000159B002BDCD1EDE7A49D0D006F1EBAF1D4
:108AC000000F31D127B13946204600F099FD82468A
:108AD0007B11012159F8233007F01F0701FA07F72E
:108AE0001F422946204618BF4AF0020A761BFFF7AC
:108AF000F9FDD8F804500227BAF1000F48D0D8F891
:108B00000C30022B15D0032B17D0012B09D11AF0F2
:108B1000020F06D0D9F800004AEA000A1AF0010F45
:108B20000ED147F0100733E04FF0010AD0E70127DC
:108B3000E2E7159BC3F101031593159B002BF0D0C1
:108B4000D4F8109004F114034FEA890B03EB890168
:108B50004FF0000C184653F8042BB2F1FF3F1CD025
:108B600001320260022F04F114033AD1D8F8002038
:108B7000013AB2420AD17111012253F8213006F0B4
:108B80001F0602FA06F61E4218BF174647F02007D6
:108B9000149B1C60049B1D60A1E6994243F804CC21
:108BA000D8D8A368994514DB616818EE100A013122
:108BB00000F008F92269023204F10C0182469200A9
:108BC0000C30FEF7AFFE214618EE100A00F02EF929
:108BD000544623695A1C04EB8303226101225A6123
:108BE000C0E722694A450BDD01212046FFF77AFDE7
:108BF000D8F808300135AB42FFF6D7AE0127C5E7FC
:108C000016F01F06FAD09B44C6F120065BF8040C50
:108C100000F09FF9B042E7DBF0E700BFC2F10802C5
:108C2000920070B5C2F120064368046803FA06F5A5
:108C30002C43D340046040F8043F8842F4D370BD15
:108C400030B50368013311F8014B14B903600120FA
:108C500030BD13F8012BA2F14105192D98BF203228
:108C6000A242F0D00020F3E72DE9F04F0B68016835
:108C70005E1102EB860613F01F0387B018BF04369F
:108C80000025371F82469046019346F8045CB9469A
:108C90003C460295AB464A784B1C039342B31046C0
:108CA00005910492FFF770FD00284FD1049A0599B1
:108CB000202A18D8029B9B4513DD4C4506D2072D70
:108CC00004DC2A4649462046FFF7A8FF444550D910
:108CD0000023A4F1040944F8043CCDF808B04C4644
:108CE0001D460399D7E7292A56D10231CAF8001048
:108CF000BBF1000F50D04C4506D2072D04DC2A46AC
:108D000049462046FFF78AFF444534D9A8F10402BA
:108D1000234653F8041B42F8041F9F42F9D23B1B21
:108D200023F0030304330134033EB44288BF042319
:108D30004344002243F8042B9F42FBD23B681BB9FB
:108D4000474527D101233B60052026E00135082D4A
:108D50000BF1010B06DD4445C3D9002344F8043C64
:108D60000125043C226800F00F0040EA0212226054
:108D7000B7E70825B5E7019B002BDFD04FF0FF32A6
:108D8000C3F1200322FA03F356F8042C1A4046F8E4
:108D9000042CD3E7043FD1E7042007B0BDE8F08FEF
:108DA00082B001B901A942B14BB113780B601278BE
:108DB000101E18BF012002B070471046FBE76FF08D
:108DC0000100F8E770B5466A04460D463EB910202A
:108DD000FCF73EFBC0E9016660620660C660666A39
:108DE000F36883B1636ADB6853F82500B8B90121E1
:108DF00001FA05F6721D92002046FEF7C3FD60B130
:108E0000C0E901560EE0212204212046FEF7BAFDFA
:108E1000636AF060DB68002BE4D1002070BD02685B
:108E200043F825200023C0E90333F7E770B5466A0D
:108E300005460C463EB91020FCF70AFBC0E9016666
:108E400068620660C6603CB16B6A6268DB6853F8B2
:108E50002210216043F8224070BD2DE9F0410E69D7
:108E6000074698460C4601F1140000230568A9B294
:108E700002FB01814FEA114C2D0C02FB05C589B2A2
:108E8000013301EB05419E4240F8041B4FEA1548AF
:108E9000ECDCB8F1000F1BD0A368B34212DC6168B0
:108EA00038460131FFF78EFF2269023204F10C01CE
:108EB000054692000C30FEF735FD21463846FFF797
:108EC000B5FF2C4604EB86030136C3F814802661F7
:108ED0002046BDE8F0812DE9F8430C4615461F46B3
:108EE00009220833064693FBF2F3002101229A423D
:108EF00020DB3046FFF766FF089B4361092D4FF0EA
:108F00000103036119DD04F10909C8462C4418F86E
:108F1000013B0146303B0A223046FFF79EFFA04549
:108F2000F5D1A5F108044C442D1B6319BB4207DBA6
:108F3000BDE8F88352000131D9E70A340925F3E787
:108F400014F8013B0146303B0A223046FFF785FF0B
:108F5000EBE7030C1B04D3B90004102310F07F4F80
:108F600004BF0002083310F0704F04BF0001043347
:108F700010F0404F04BF80000233002805DB10F0E2
:108F8000804F03F1010308BF2023184670470023D8
:108F9000E4E7036813F0070201460BD0DA0724D494
:108FA000980749BF5B089B0801200B605CBF0B6002
:108FB0000220704798B2B0B91B0C102013F0FF0FBD
:108FC00004BF1B0A08301A0704BF1B0904309A07A4
:108FD00004BF9B080230DA0703D45B0800F10100EC
:108FE00005D00B6070471046E8E70020704720204E
:108FF000704710B50C460121FFF7E4FE01224461E1
:10900000026110BD2DE9F04F15460A692B699A429D
:10901000B8BF0B460C46BCBF2C461D462769D5F889
:109020001090A368616807EB0906B342B8BF01312D
:1090300085B0FFF7C7FE00F1140101EB86080B466F
:10904000002243451DD304F1140305F1140203EB80
:10905000870702EB890302933B1B153B23F00303B5
:10906000043304F11505AF4238BF04230193029B7A
:109070000392934208D8002E5ADC066105B0BDE881
:10908000F08F43F8042BDCE7B2F800A0BAF1000F30
:1090900024D004F1140E89464FF0000C5EF8045BF6
:1090A000D9F800B0ABB21FFA8BFB0AFB03B34FEA4F
:1090B000154BD9F8005063444FEA154C0AFB0BC519
:1090C00005EB13459BB243EA0543774549F8043B5A
:1090D0004FEA154CE2D8019B41F803C0039BB3F85B
:1090E00002900432B9F1000F20D00B6804F1140C87
:1090F0008E464FF0000ABCF80050BEF802B009FBE3
:1091000005B5AA449BB243EA0A434EF8043B5CF817
:10911000043BBEF800501B0C09FB035303EB1A433E
:1091200067454FEA134AE6D8019D4B5104319EE74B
:1091300058F8043D002BA0D1013E9CE72DE9F843EF
:10914000154612F0030206460F4607D0214C013A9D
:10915000002354F82220FFF780FE0746AD1035D0DB
:10916000746A3CB91020FCF773F9C0E901447062DD
:109170000460C460D6F82480D8F808404CB940F2A6
:1091800071213046FFF735FF0023C8F80800044678
:1091900003604FF00009EB070AD5394622463046F6
:1091A000FFF730FF394680463046FFF73FFE47461F
:1091B0006D100BD0206838B9224621463046FFF7A3
:1091C00021FF2060C0F800900446E4E73846BDE87F
:1091D000F88300BFA89E0D002DE9F0470C464968B2
:1091E000236903EB6218A368074691464FEA621AA7
:1091F00008F10106B3423FDB3846FFF7E3FD0023E9
:10920000054600F1140100F110021846534536DB03
:1092100020692AEAEA7A04F1140319F01F0901EB24
:109220008A0103EB800C2ED0C9F1200E8A46002261
:10923000186800FA09F002434AF8042B53F8042B8B
:109240009C4522FA0EF2F3D8ACEB0403153B23F055
:109250000303043304F11500604588BF0423CA509A
:109260000AB108F10206013E38462E612146FFF799
:10927000DDFD2846BDE8F08701315B00BAE742F822
:10928000040F0133C2E7043953F8042B41F8042FCB
:109290009C45F9D8E7E730B502690C69121B0ED17D
:1092A00000F11403143103EB840001EB840150F846
:1092B000045D51F8044DA54203D005D301221046A8
:1092C00030BD8342F3D3FAE74FF0FF32F7E72DE9E1
:1092D000F84F0C460646114620461746FFF7DBFFBF
:1092E000051E08D129463046FFF76CFD0123C0E971
:1092F0000435BDE8F88FA4BF3B4627463046796861
:10930000A6BF1C4600250125FFF75CFD3E69C56030
:10931000256907F1140104F1140900F1140E07F195
:10932000100201EB860C09EB8505F246002759F87F
:10933000043B52F804BF1FFA83F817FA8BF71B0C93
:10934000A7EB0808C3EB1B4303EB28431FFA88F87D
:109350001F144D4548EA03434AF8043BE7D82B1B4A
:10936000153B23F0030304331534A54238BF04230F
:10937000194473449E460D4665450ED30CF1030215
:10938000521A22F0030203398C4538BF00221A44D6
:1093900052F8043D7BB10661ABE755F8048B17FA30
:1093A00088F4221402EB1842A4B244EA02444EF8B4
:1093B000044B1714E0E7013EEAE7000082B08DEDB0
:1093C000000B019B12491940A1F15071002905DDE4
:1093D00000220B4643EC102B02B070474942B1F11A
:1093E000A07F4FEA21504FF000024FF0000304DA53
:1093F0004FF4002141FA00F3ECE7A0F114011E291B
:10940000DABF4FF0004020FA01F101210A46E1E7FE
:109410000000F07FF8B5056900F1140707EB85053A
:109420002E1F55F8044C2046FFF793FDC0F1200392
:109430000A28DFF87CC00B6014DCC0F10B0E24FAA4
:109440000EF1B74241EA0C0334BF55F8081C002165
:10945000153004FA00F021FA0EF140EA010243EC63
:10946000102BF8BDB7423ABF55F8081CA5F1080605
:1094700000210B3817D0C0F1200C04FA00F5BE42D1
:1094800021FA0CF445EA04058CBF56F8044C00247C
:1094900045F07F5301FA00F024FA0CF443F4401332
:1094A00040EA0402DBE744EA0C030A46D7E700BFC0
:1094B0000000F03F2DE9F7438946012157EC106B7E
:1094C0009046FFF77FFCC7F30A550446C7F3130322
:1094D00035BB002E019328D068460096FFF759FD52
:1094E000009900B3019AC0F1200302FA03F30B4381
:1094F000C24063610192019BA361002B14BF022251
:1095000001222261D5B1A5F233450544C9F80050C6
:10951000C0F13500C8F80000204603B0BDE8F08374
:1095200043F48013D5E76161E5E701A8FFF731FD5A
:10953000019B6361012222612030E3E704EB820397
:10954000A0F23240C9F800001869FFF702FDC0EB35
:109550004210DFE72DE9F74F884669468146FFF75D
:1095600059FF01A9404655EC104BFFF753FFD9F8BE
:109570001030D8F81020A3EB020CDDE900329B1A62
:1095800003EB4C1351EC100B002BD6BF0A462A46B6
:10959000C3EB03338B462F46D4BF02EB035B02EBD6
:1095A0000357204610EE102A5B463946FDF72AFE87
:1095B00041EC100B03B0BDE8F08F013970B54911D3
:1095C0001469013102F1140300EB810103EB8404FF
:1095D000051FA3420CD3A31A113B23F0030311323E
:1095E000A24288BF002318440023884205D370BDDF
:1095F00053F8046B45F8046FEBE740F8043BF4E7DD
:1096000000F1140200694B11984210B511DB0ADD1C
:1096100011F01F0107D052F8234024FA01F000FA9C
:1096200001F18C420BD102EB8303934203D800205B
:1096300010BD0346F7E753F8041D0029F5D00120BB
:10964000F6E749B1FF2A85BF8A2303600A704FF00D
:10965000FF3098BF012070470846704738B5002298
:10966000002304460D46FDF715FF28B9204629467C
:10967000BDE83840FDF7BEBF204605F10041FDF7CB
:10968000B9FF404261EB410138BD00BF21400D00F0
:109690005D400D0085400D0089400D000000000078
:1096A0004448543131207465737400506172746998
:1096B000636C65005765617468657200537461740A
:1096C000696F6E002F4765745765617468657246EF
:1096D0006F7265636173742F00496E646F6F7220DF
:1096E00054656D703A2000496E646F6F7220487542
:1096F0006D643A200025004F74646F6F72205465CA
:109700006D703A20004F74646F6F722048756D64FD
:109710003A200047657457656174686572466F72D8
:109720006563617374004661696C656420746F20C1
:10973000726561642066726F6D20444854207365C1
:109740006E736F720054656D70460048756D696484
:1097500000496E646F6F72204865617420496E64C1
:109760006578004F7574646F6F722048656174206E
:10977000496E6465780073756273637269707469A9
:109780006F6E48616E646C65722025730074656D40
:10979000700068756D00000000000000000000000F
:1097A0005F00000000000000070007000000001438
:1097B0007F147F14000000242A7F2A120000002357
:1097C0001308646200000036495522500000000072
:1097D000050300000000001C2241000000000041C1
:1097E000221C0000000000082A1C2A0800000008B3
:1097F000083E0808000000A060000000000000080B
:109800000808080800000060600000000000002058
:10981000100804020000003E5149453E00000000CF
:10982000427F40000000006251494946000000228A
:10983000414949360000001814127F10000000272B
:10984000454545390000003C4A49493000000001C7
:109850007109050300000036494949360000000639
:109860004949291E000000003636000000000000B3
:10987000AC6C00000000000814224100000000143D
:109880001414141400000041221408000000000207
:1098900001510906000000324979413E0000007E76
:1098A0000909097E0000007F494949360000003E51
:1098B000414141220000007F4141221C0000007F05
:1098C000494949410000007F090909010000003EA3
:1098D000414151720000007F0808087F00000041EC
:1098E0007F4100000000002040413F010000007F58
:1098F000081422410000007F404040400000007FEB
:10990000020C027F0000007F0408107F0000003E70
:109910004141413E0000007F090909060000003E68
:109920004151215E0000007F0919294600000026F0
:109930004949493200000001017F01010000003F58
:109940004040403F0000001F2040201F0000003F1B
:109950004038403F00000063140814630000000317
:109960000478040300000061514945430000007F72
:1099700041410000000000020408102000000041E6
:10998000417F00000000000402010204000000808A
:1099900080808080000000010204000000000020A0
:1099A000545454780000007F484444380000003884
:1099B00044442800000000384444487F0000003838
:1099C00054545418000000087E09020000000018DA
:1099D000A4A4A47C0000007F080404780000000018
:1099E0007D00000000000080847D00000000007FFA
:1099F00010284400000000417F4000000000007C6F
:109A0000041804780000007C08047C000000003882
:109A100044443800000000FC242418000000001812
:109A20002424FC00000000007C0804000000004822
:109A300054542400000000047F4400000000003C57
:109A400040407C000000001C2040201C0000003C26
:109A50004030403C00000044281028440000001C16
:109A6000A0A07C000000004464544C4400000008A6
:109A700036410000000000007F00000000000041AF
:109A8000360800000000000201010201000000028F
:109A900005050200000000000000000000000000BA
:109AA0004D550D0053550D0091550D0061550D009C
:109AB0004F550D000000000000000000E35A0D00AB
:109AC000D95A0D00CF5A0D00C55A0D00B95A0D00D4
:109AD000AD5A0D00A5610D00AD610D00A15A0D003C
