:02000002D0002C
:1040000000400D00DCD30D00000006000C0005018F
:084010000401BD0B00000000DB
:0440180078C20D005D
:1040200009480A49884208B505D0094A824202D0A7
:10403000121A06F0E3F90748074A0021121A06F09F
:1040400005FA014808BD00BF88E20320CCD10D006D
:1040500070E4032070E40320F0E7032070B5074EFE
:10406000074C05F075F8A41BA4080025A54200D153
:1040700070BD56F8043B98470135F7E77CD10D0039
:10408000B4D10D0000F014B908B500F0FDF9BDE899
:10409000084005F01FB802F095BF02F093BF02F090
:1040A00099BF02F097BF0078B0FA80F040097047DE
:1040B00001230370704700002DE9F84F10EE100A3D
:1040C0002DED028BB0EE608AF0EE408A05F058FCD0
:1040D000064618EE100A0F4605F052FC68EEA87A64
:1040E000824617EE900A8B4605F04AFC68EE087A85
:1040F000044617EE900A0D4605F042FC46A3D3E9AC
:10410000002341EC180B3046394605F091FC44A3DE
:10411000D3E9002305F0D4FA43A3D3E90023804672
:1041200089465046594605F083FC02460B464046F8
:10413000494605F0C7FA3EA3D3E9002380468946E5
:104140003046394605F074FC52465B4605F070FC7B
:1041500002460B464046494605F0B4FA36A3D3E979
:104160000023804689462046294605F061FC024628
:104170000B464046494605F0A5FA31A3D3E9002392
:104180008046894651EC180B05F052FC02460B465E
:104190004046494605F096FA2BA3D3E90023804612
:1041A00089462046294605F043FC52465B4605F009
:1041B0003FFC02460B464046494605F083FA24A3DD
:1041C000D3E90023804689463046394605F030FC65
:1041D00053EC182B05F02CFC02460B464046494692
:1041E00005F070FA1CA3D3E9002306460F462046CB
:1041F000294605F01DFC53EC182B05F019FC02466E
:104200000B463046394605F05DFABDEC028B41ECB9
:10421000100BBDE8F88F00BFECD8CE1862640040E8
:104220008D976E1283304540CD495AB7624924407C
:10423000F847C607C9C4CCBFCC169C03FC017CBFA1
:10424000248CD100FF10ACBFE5DC6087B521543F62
:10425000DA303301F9F14B3F01BDD3117EB1C0BE5D
:10426000FFF72ABF13B5054B1B788DF800303C23B0
:10427000044603F053F8204602B010BD74E4032056
:104280000EB410B58DB00FAA016852F8044B03921A
:1042900000232020CDE90403CDE900421E2004AA1A
:1042A00002F0C4FD0DB0BDE8104003B0704700003F
:1042B00010B58AB004F048FE4FF4165104F038FEF1
:1042C00004F042FE2749284C03F021FE274800F065
:1042D0001FFB274800F000FE04F0ECFF03F010FA8B
:1042E000204600F02FFE204600F08EFE204600F013
:1042F000F0FE204600F038FE00222046022100F0A9
:104300003EFE20461B4900F0A0FE0022204603216D
:1043100000F035FE2046184900F097FE00222046A6
:10432000042100F02CFE1549204600F08EFE02A864
:1043300002F0C8FD02A906A803F0E8FE104906A88D
:1043400003F046FF0023CDE900330E4900681A460A
:1043500002F0C8FD06A803F07FFE02A803F07CFE71
:104360000AB010BD8CC20D00A8E4032078E403203D
:104370008CE40320A0C20D00A7C20D0098C20D005E
:10438000ACC20D00E5460D002DE9F0472C4C05466A
:10439000204659EC108B57EC116B8A4600F034FE26
:1043A00000222046012100F0EAFD2046254900F0C8
:1043B0004CFE2946244D204600F054FE2946204656
:1043C00000F043FE00222046022100F0D8FD2046E6
:1043D0001E4900F03AFE5146204600F043FE2046BA
:1043E0001B4900F032FE00222046042100F0C7FDE8
:1043F0002046184900F029FE4946404605F0B2FD26
:104400000146204600F02EFE2946204600F01DFE03
:1044100000222046052100F0B2FD20460E4900F0A2
:1044200014FE3946304605F09DFD0146204600F059
:1044300019FE29462046BDE8F04700F006BE00BF41
:10444000A8E40320C1C20D008BC30D00CFC20D0034
:10445000DDC20D00DFC20D00EAC20D0038B50468F0
:1044600005467CB16368013B63605BB92368204605
:104470009B689847A368013BA3601BB9236820464B
:10448000DB689847284638BD30B52DED048B4CF2DB
:10449000503089B002F0D6FD7848794C00F068FCC5
:1044A0007648B0EE408A00F025FCF0EE408A02F03B
:1044B0000DFB2368C01A734B98420FD902F006FB1C
:1044C000714B20601B788DF8003004A86F493C23A5
:1044D000002202F023FF05A8FFF7C0FFB4EE488AD0
:1044E000F1EE10FA04D6F4EE688AF1EE10FA08D76D
:1044F00004F02AFD664903F00AFD09B0BDEC048B07
:1045000030BD644D644CA54206D900236348009336
:10451000FF22194600F098FCA54207D2FF23009322
:1045200000235E481A46194600F08EFC5C4D5D4C37
:10453000286805F025FA41EC190B206805F020FAEF
:10454000B0EE491AF0EE691AFDEEC87A41EC100B94
:1045500017EE901AFDEEE87A17EE900AFFF714FFB7
:10456000B0EE680A5049514802F083FAB0EE480AAA
:104570004F494E4802F07DFA94ED000A4D494B48F0
:1045800002F077FA95ED000A4B49484802F071FABB
:10459000F0EE480AB0EE680AFFF78EFD51EC100B02
:1045A000B0EE409AF0EE609A05F024FD434900EE2B
:1045B000100A3E4802F05DFAD5ED000A94ED000ABB
:1045C000FFF77AFD51EC100B05F014FD3C4900EEAD
:1045D000100A364802F04DFA3A4B34481A783A4BF2
:1045E000196802F04FFAB0EE680A062104A803F039
:1045F000AAFD049A354902A8FFF734FE03A8FFF785
:104600002DFF04A803F028FDB0EE480A062104A8F7
:1046100003F099FD049A2E4902A8FFF723FE03A890
:10462000FFF71CFF04A803F017FDB0EE490AF0EEF7
:10463000690A062104A803F0A0FD049A1F4902A8F4
:10464000FFF710FE03A8FFF709FF04A803F004FD1D
:10465000D5ED000A94ED000AFFF72EFD062104A80F
:1046600003F08BFD049A164902A8FFF7FBFD03A88F
:10467000FFF7F4FE04A803F0EFFC3EE778E4032024
:104680008CE203209FBB0D0075E40320F6C20D00F1
:1046900009C30D0061420D00B9400D008CE40320F8
:1046A00090E2032094E2032028C30D0094E4032049
:1046B00034C30D0044C30D0051C30D0062C30D008F
:1046C00074C30D0074E4032088E2032087C30D0047
:1046D0008DC30D000B68036013B15A6801325A6034
:1046E00070470000F0B50A4691B00C464848494969
:1046F000494D4A4EFFF7C4FD204605F020FF2146F4
:10470000024603A803F0B4FA059C039B069304A990
:1047100007A8FFF7DFFF06AA21460AA803F068FAF8
:1047200007A8FFF79BFE3E4F0AA803F079FA00287E
:1047300066D00D9C0A9B01930BA902A8FFF7CAFF44
:10474000214601AA06A803F02FFA02A8FFF786FE69
:104750000898294605F0C3FE044607A8FFF77EFE29
:10476000CCB90E9C0A9B01930BA902A8FFF7B2FFDC
:1047700001AA214606A803F0D3F802A8FFF76EFEAF
:1047800006A803F005F951EC100B05F033FC30607E
:1047900007A8FFF763FE0D9C0A9B01930BA902A8D3
:1047A000FFF798FF214601AA06A803F0FDF902A829
:1047B000FFF754FE0898394605F091FE044607A815
:1047C000FFF74CFE002CAFD10E9C0A9B01930BA966
:1047D00002A8FFF77FFF01AA214606A803F0A0F870
:1047E00002A8FFF73BFE06A803F0D2F851EC100B2D
:1047F00005F000FC0B4B186007A8FFF72FFE92E7AF
:104800000BA8FFF72BFE04A8FFF728FE11B0F0BDA0
:1048100050E6032093C30D00AAC30D0094E20320C9
:10482000AFC30D0090E20320134B1449002270B572
:104830001A70134C134B144D01261E700322204690
:1048400002F0F6F82A4611492046114C04F05AFDB0
:1048500006230B2213210F4800F053F83346092298
:104860000A21204600F086FA2A4620460A49BDE879
:10487000704004F047BD00BF74E40320B3C30D00D3
:1048800094E4032075E4032070E403204D6A0D00D6
:104890008CE4032078E403208F4D0D0010B50368ED
:1048A0002F2B044604D9074A00210A2002F09EFA61
:1048B00023681F2B83BF03F01F03034823604FF0BF
:1048C000A04010BDBD6A0D000003005007B5019067
:1048D00001A8FFF7E3FF019A01239340C0F80835D0
:1048E00003B05DF804FB07B5019001A8FFF7D6FF00
:1048F000019BD0F81005D84000F0010003B05DF82E
:1049000004FB10B5037201238171C271037410BDE1
:104910002DE9F04105461E4C8079DFF878800021B2
:1049200004F086FCAE792378BFF35B8F13F0010FA0
:104930000AD12046FFF7B7FB30B102F0CFF8C8F834
:1049400000002046FFF7B4FBD8F8003036019F5D29
:104950002378BFF35B8FDB074FEA47170AD40C4875
:10496000FFF7A1FB30B102F0B9F8C8F80000084821
:10497000FFF79EFBD8F8003033445B7803F01F0349
:1049800043EA0700FFF7A2FF0023EB60BDE8F081D8
:10499000A0E40320A4E403202DE9F04F044685B0F1
:1049A00002F094F8E368834284BF0023E360237C31
:1049B0002BB9E368C01AB0F5FA6FC0F0608100252A
:1049C000257402F083F8B04E25602571E060A77968
:1049D0003378AE4DBFF35B8F13F0010F09D1304632
:1049E000FFF761FB28B102F079F828603046FFF745
:1049F0005FFB2B683F0113F807803378BFF35B8FB1
:104A0000D9074FEA481809D49F48FFF74CFB28B153
:104A100002F064F828609C48FFF74AFB2B681F44AB
:104A2000787800F01F0040EA0800FFF74FFFFA20F7
:104A300002F008FBA079012104F0FAFBA779337892
:104A4000BFF35B8FDA0709D48F48FFF72CFB28B13F
:104A500002F044F828608C48FFF72AFB2B683F01DE
:104A6000DB5D4FEA43183378BFF35B8FDB0709D474
:104A70008548FFF718FB28B102F030F8286082481B
:104A8000FFF716FB2B681F4403A87B7803F01F0376
:104A900043EA08030393FFF701FF039A01239340BE
:104AA000C0F80C35142002F0CDFA02F03DFEA779D3
:104AB0003378BFF35B8FD80709D47348FFF7F3FA55
:104AC00028B102F00BF828606F48FFF7F1FA2B6865
:104AD0003F0113F807803378BFF35B8FD9074FEAA4
:104AE000481809D46848FFF7DEFA28B101F0F6FF4C
:104AF00028606548FFF7DCFA2B681F44787800F0DF
:104B00001F0040EA0800FFF7E1FE282001F0D6FF71
:104B1000A079DFF87481002104F08AFB00270123CB
:104B2000BA4600934FF0000994F806B03378BFF30B
:104B30005B8FDA0709D44046FFF7B5FA28B101F0D8
:104B4000CDFF28604046FFF7B3FA2B684FEA0B1BF6
:104B500013F80B305B0101933378BFF35B8FDB07F6
:104B600009D44046FFF79FFA28B101F0B7FF28604B
:104B70004046FFF79DFA2B685B4493F801B0019B18
:104B80000BF01F0B4BEA030B5846FFF7ACFE5846E1
:104B9000FFF7A9FE009B834209D109F101095FFAE1
:104BA00089F9012001F08AFFB9F1FF0FBCD194F817
:104BB00006B03378BFF35B8FD80709D44046FFF7C0
:104BC00072FA28B101F08AFF28604046FFF770FAB8
:104BD0002B684FEA0B1B13F80B305B010093337803
:104BE000BFF35B8FD90709D44046FFF75CFA28B1C1
:104BF00001F074FF28604046FFF75AFA2B685B44C7
:104C000093F801B0009B0BF01F0B4BEA030B5846C7
:104C1000FFF769FE5846FFF766FEB9F1FF0FC3B212
:104C2000009318D0032F11D9FA070FD44FEADA02F4
:104C30000AF1010AA35C5B00DBB2A354217A494567
:104C40003CBF43F00103A3545FFA8AFA0137FFB275
:104C5000552F7FF467AF02F069FDBAF1270F10D925
:104C6000637820781844A3781844E37818442379AB
:104C7000C0B2C31A5842584105B0BDE8F08F0120B8
:104C8000FAE70020F8E700BFA0E40320A4E4032033
:104C900010B50446FFF780FE20B3E3790B2B1BD041
:104CA000153B012B1ED8A378DFED106A03F07F02BD
:104CB00007EE102AE27807EE902AB8EEC77AF8EEEF
:104CC000E77A1B06E7EE267AB2EE047A87EE870AC9
:104CD00007D5B1EE400A04E0A37800EE103AB8EE32
:104CE000400A10BD9FED020AFBE700BF00008043B1
:104CF0000000C07F08B5FFF7CBFFF2EE027A20EE8E
:104D0000270AF1EE047A80EE277A9FED020A37EE49
:104D1000000A08BD0000004210B50446FFF73CFE43
:104D2000F0B1E3790B2B15D0153B012B18D8237864
:104D3000DFED0D6A07EE103A637807EE903AB8EEB1
:104D4000477AF8EEE77AE7EE267AB2EE047A87EE53
:104D5000870A10BD237800EE103AB8EE400AF8E753
:104D60009FED020AF5E700BF000080430000C07F0E
:104D7000FFF7D2BF10B50446017042708370012165
:104D800003EB430005F024FB6060204610BD10B526
:104D90000446406802F01EF9204610BD10B50021FF
:104DA0000446007804F055FA142001F087FE2078BC
:104DB000012104F04EFABDE81040142001F07EBE3F
:104DC00070B506460C46082523064CBF012100217C
:104DD000707804F03EFA013D3046FFF7DFFF6400D3
:104DE00015F0FF05E4B2EFD170BD73B513F0800F7D
:104DF0001E460C46154614BFC021E021730658BF5D
:104E000041F010012A0658BF41F008016B0658BF57
:104E100041F00401220658BF41F00201630658BF69
:104E200041F001010190FFF7CBFF01983146FFF7F8
:104E3000C7FF01982946FFF7C3FF0198214602B03A
:104E4000BDE87040FFF7BCBF2DE9F04704460F46B0
:104E50000021904699469DF820A0FFF7B1FF002160
:104E60002046FFF7ADFF00212046FFF7A9FF0021F4
:104E70002046FFF7A5FF0026A378F5B2AB4219D96B
:104E800005EB4500AF4200F1010200F1020308D139
:104E9000616801F80080616801F80290616801F8BA
:104EA00003A06168CB5C8A5C095C2046FFF79DFF2C
:104EB0000136E1E720460021FFF782FF204600216E
:104EC000FFF77EFF20460021FFF77AFF20460021F2
:104ED000BDE8F047FFF774BF73B5044601210078C1
:104EE00004F0A6F96078012104F0A2F900252E460D
:104EF000A378E9B28B4207D9002300961A462046D0
:104F0000FFF7A2FF0135F3E702B070BD0368C9B235
:104F10009B68184710B5044604F0CCF93C2102F018
:104F2000F9FB04F0C7F98021FFF7F0FF04F0C2F9A4
:104F3000036821469B68984704F0BCF9BDE810401F
:104F400002F0EFBB08B5AE20FFF7E4FF052002F04A
:104F500079F8AF20FFF7DEFF052002F073F8BDE817
:104F60000840A620FFF7D6BF08B501230370202014
:104F7000FFF7D0FFBDE808400220FFF7CBBF10B518
:104F800050391446C8B2FFF7C5FFE00000F0080032
:104F9000FFF7C0FFC4F343001030BDE81040FFF737
:104FA000B9BF10B50C4604F085F93C2102F0B2FB04
:104FB00004F080F94021FFF7A9FF04F07BF90368B2
:104FC00021469B68984704F075F9BDE8104002F04F
:104FD000A8BB0000A1F120035F2B88BF202170B582
:104FE00001F10051074D2039064605EBC1050824A3
:104FF00015F8011B3046013CFFF7D3FF14F0FF0406
:10500000F6D170BDC3C30D0070B50546AE20FFF7E5
:1050100081FF00260022F1B22846FFF7B0FF1024DE
:1050200020212846013CFFF7D5FF14F0FF04F7D1FB
:105030000136082EEED1AF20FFF76CFF2246214645
:105040002846BDE87040FFF79ABF70B506460D468A
:105050000024E3B20134E95C19B13046FFF7BAFF2E
:10506000F7E770BDF0B585B000230C1ECDE9013324
:105070000646ADF80C3024DA2D21FFF7ABFF644271
:10508000012300250A202A4604A90A440135B4FB5D
:10509000F0F100FB114402F80C4CEDB20C46002973
:1050A000F1D12B44DCB204AB5F190D3F75B117F899
:1050B00001193031C9B23046013DFFF78BFFEDB227
:1050C000F4E7DED13021FFF785FF0124204605B04B
:1050D000F0BDA620FFF71EBF03681847012A03D0C2
:1050E000022A03D0002070470160FBE70B680360D1
:1050F000F8E7000013B51C20FEF7CDFF044648B1C9
:10510000064B07491B6800930968064B42F234328C
:1051100001F078F8204602B010BD00BF34E503204E
:1051200030E50320C3C60D0013B52020FEF7B3FF02
:10513000044640B1054B06491B6800930968054BBE
:10514000502200F05FFA204602B010BD34E5032083
:1051500030E50320C3C60D0013B51C20FEF79BFFEE
:10516000044648B1064B07491B6800930968064B83
:1051700042F2343201F0B0FB204602B010BD00BF55
:1051800034E5032030E50320C3C60D0013B5142019
:10519000FEF781FF044640B1054B06491B680093AA
:1051A000002309681A4600F059FD204602B010BDE0
:1051B00034E5032030E5032010B5064B036064336B
:1051C0000446036103F0B8FB204603F0AFFC204621
:1051D00010BD00BF0CCD0D0038B584690A4B0360CB
:1051E00005467CB16368013B63605BB92368204678
:1051F0009B689847A368013BA3601BB923682046BE
:10520000DB689847284638BDA4CC0D0010B58368EC
:10521000044613B1032201469847204610BD000002
:1052200010B586B002AB0291044693E803006A46CB
:1052300082E8030094E8030083E8030092E8030097
:10524000A2680492064AA260E2680592054AE260FA
:1052500084E803001846FFF7D9FF204606B010BDCA
:10526000DD500D00D9500D0010B50446FFF7B4FF16
:1052700020461C2104F04BF8204610BD10B5044612
:10528000FFF79AFF20464C2104F041F8204610BD5C
:1052900070B500F10801C2680B463AB1157C04787C
:1052A000A5422ABF1346D2689268F6E7994204D015
:1052B00000781A7C904238BF0B46DA690AB904F0CC
:1052C000DEF8BDE870401A6A03F1140010478B68DD
:1052D00070B5164604460D1D01225BB130781A7C6C
:1052E000904234BF9868D8681D4634BF012200221E
:1052F0000346F2E792B1CA68AA4203D1C4E9003575
:10530000204670BD284604F05CF83378027C9A424F
:105310004FF00003F2D3C4E90003F1E72846F4E7B5
:105320002DE9F04300F10408856885B006468946FA
:10533000444655B199F800302A7C9A4236BFEB6852
:10534000AB6825462C461D46F3E7A04504D099F8E6
:105350000020237C9A422ED22420FEF79CFE99F84E
:10536000009080F810900023A045074600F110023D
:10537000C36125D173691BB131690B7C4B4509D3DE
:10538000314602A8FFF7A3FFDDE90241002951D011
:10539000002C4DD188454BD0387C0B7C98422CBFDB
:1053A0000020012043460A46394604F00CF8736990
:1053B000013373613C4604F1140005B0BDE8F0838D
:1053C000237C01924B4518D9F3689C4209D02046B2
:1053D00003F0F7FF037C019A4B4505D2C36853B92C
:1053E000044621461C46D1E7314602A8FFF76FFF6D
:1053F000DDE90234F5E72346F3E71BD231698C423D
:105400000BD0204603F0CAFF037C019A4B450546AA
:1054100005D9E36853B921461D462C46B6E7314607
:1054200002A8FFF754FFDDE90251F6E70146F4E771
:105430000120B7E707F11400FFF7E8FE3846FEF752
:105440002EFE2746B6E700002DE9F341051D002694
:10545000174600F10802C0E90362C0E905260446C8
:105460008846067203700DF10701012328468DF866
:105470000730FFF755FF1649FFF7D2FE0DF1070180
:1054800028468DF80760FFF74BFF1249FFF7C8FE6B
:1054900002230DF1070128468DF80730FFF740FF82
:1054A0000D49FFF7BDFE03230DF1070128468DF8D6
:1054B0000730FFF735FF0949FFF7B2FE084BC3F885
:1054C0000080084B20461F6002B0BDE8F08100BF9D
:1054D000F5500D0029510D0059510D008D510D0051
:1054E00030E5032034E5032010B50E4C204603F0D0
:1054F000E1F820460C4C0D4A0D4903F003FF20460D
:1055000003F0D8F820460B4C084A094903F0FAFE8C
:10551000204603F0EBFA2046044A0749BDE8104054
:1055200003F0F0BE14E50320ACE4032070E4032094
:10553000D9510D00C8E40320B9510D000175704721
:105540000022011DC0E90221C0E904120271704766
:1055500070B506462DED028B142001F033FD054693
:10556000142001F02FFD0446304604F0E8FF3246D7
:1055700000230238984214DD12F8011B0D293AD19C
:1055800011780A2937D151780D2934D191780A2917
:1055900031D10433F1181422284604F0EAFF002325
:1055A0002B750A21284604F08DFF064628B30A21F0
:1055B000013004F087FF00B33146204604F099FF24
:1055C000204604F0BCFF2044002300F8013C2046A4
:1055D00004F0FAFE51EC100B04F00CFD08EE100A7A
:1055E000204601F0F7FC284601F0F4FCB0EE480A32
:1055F000BDEC028B70BD0133BCE79FED018AF5E77E
:105600005F42A2CD30B5074D05600025C0E901130A
:105610000575039B41F2883585610525C0E9033294
:10562000057730BDE0C80D002DE9F74FDFF88C801D
:10563000DFF88CA0DFF88CB004460D461746002634
:1056400040465FFA86F902F028FE88BB237F4B456F
:105650002ED9237DCBB103F077FC514602F044FCF8
:1056600003F072FC294602F03FFC03F06DFC594642
:1056700002F03AFC03F068FC0A224946019002F06D
:1056800050FC019B184602F036FC0023BAB22946B2
:10569000404603F033F8237D23B103F055FC06495F
:1056A00002F035FC4FF47A7001F0CCFC0136C7E70C
:1056B00003B0BDE8F08F00BF01C70D0038E503203F
:1056C000D7C60D00EDC60D002DE9F0414B1E0C466E
:1056D00001F52F720546002103F8011F9342FBD10B
:1056E0002B7D4BB103F030FC144902F010FC03F0A9
:1056F0002BFC134902F00BFC124F002640F2BB2892
:10570000384602F02DFF70B1384602F062FEA05517
:105710002B7D2BB103F018FC0368A15D9B689847B3
:1057200001364645ECD12B7D33B103F00DFCBDE8CD
:10573000F041054902F0EBBBBDE8F08126C70D0042
:1057400012C70D0038E5032025C70D00F8B50E4F30
:1057500004460026384602F003FF054690B9A369C7
:10576000B3420FDD012001F06DFCA3690136B342A5
:10577000F0DC207D28B103F0E7FB044902F0C7FB11
:105780002846F8BD0120FCE738E5032031C70D00AD
:10579000F8B50F460269416804461D46FFF744FF0D
:1057A000784802F07AFD0646002800F0E18076494C
:1057B000744802F099FB3946724802F095FB734930
:1057C000704802F091FB72496E4802F08DFB6168EF
:1057D0006C4802F089FB6F496A4802F085FB6E490C
:1057E000684802F081FBA168664802F07DFB6949C8
:1057F000644802F079FB6949624802F075FBE16890
:10580000604802F071FB63495E4802F06DFB644939
:105810005C4802F069FB63495A4802F065FB284680
:1058200004F08DFE60490646564802F05DFB0A22F0
:105830003146544802F075FB5C49524802F054FB73
:105840002946504802F050FB52494E4802F04CFBAA
:105850004C4802F021FD237D002B69D003F074FB3E
:10586000534902F054FB03F06FFB474902F03CFB45
:1058700003F06AFB394602F037FB03F065FB43494E
:1058800002F032FB03F060FB414902F02DFB03F014
:105890005BFB616802F028FB03F056FB3D4902F018
:1058A00023FB03F051FB3C4902F01EFB03F04CFBD1
:1058B000A16802F019FB03F047FB364902F014FB24
:1058C00003F042FB354902F00FFB03F03DFBE168BA
:1058D00002F00AFB03F038FB2E4902F005FB03F04F
:1058E00033FB2F4902F000FB03F02EFB2D4902F0A1
:1058F000FBFA03F029FB2C4902F0F6FA03F024FB33
:105900000A22314602F00DFB03F01EFB274902F08C
:10591000EBFA03F019FB294602F0E6FA03F014FB58
:105920001C4902F0E1FA03F00FFB224902F0EFFA02
:105930002046FFF70BFF237D2BB90124114802F00D
:1059400069FE2046F8BD03F0FFFA1B490D4D02F039
:10595000DEFA284602F004FE0028EED0284602F0C7
:1059600038FD044603F0F0FAE1B202F0C1FAF0E7C4
:10597000247D002CE2D003F0E7FA104902F0C7FAC8
:105980003446DBE738E5032064C70D007CC70D0013
:1059900088C70D00ACC80D008FC70D009CC70D0057
:1059A000ABC70D00BFC70D00E0C70D00AAC80D00B2
:1059B000F1C70D000DC80D002BC80D0047C80D0024
:1059C00070B52DED028B044600230E461546416846
:1059D0006648502202F092FE204661685022FFF78E
:1059E00023FE624802F059FC002800F0B6806049AE
:1059F0005E4802F079FA31465C4802F075FA5D497A
:105A00005A4802F071FA2946584802F06DFA5A498C
:105A1000564802F069FA5949544802F065FA584963
:105A2000524802F061FA6168504802F05DFA554947
:105A30004E4802F059FA54494C4802F055FAA16810
:105A40004A4802F051FA4F49484802F04DFA4F498E
:105A5000464802F049FAE168444802F045FA4949EB
:105A6000424802F041FA4A49404802F03DFA237D9B
:105A7000002B4FD003F068FA3D4902F035FA03F0ED
:105A800063FA314602F030FA03F05EFA394902F067
:105A90002BFA03F059FA294602F026FA03F054FAD9
:105AA000354902F021FA03F04FFA344902F01CFAAA
:105AB00003F04AFA324902F017FA03F045FA616836
:105AC00002F012FA03F040FA2E4902F00DFA03F048
:105AD0003BFA2D4902F008FA03F036FAA16802F009
:105AE00003FA03F031FA274902F0FEF903F02CFA29
:105AF000264902F0F9F903F027FAE16802F0F4F917
:105B000003F022FA1F4902F0EFF903F01DFA2049D1
:105B100002F0EAF92046FFF719FE48B913489FED55
:105B20001D8A02F077FDB0EE480ABDEC028B70BD15
:105B30004FF42F7001F046FA014605462046FFF764
:105B4000C3FD2846FFF704FD0848B0EE408A02F086
:105B500061FD284601F03EFAE5E7237D002BDDD00C
:105B600003F0F2F90C4902F0D2F9D7E738E5032047
:105B700071C80D0086C80D0088C80D007CC70D00D7
:105B800088C70D00ACC80D008FC70D009CC70D0065
:105B90008CC80D005F42A2CDAFC80D0010B5054CFA
:105BA000204602F087FD2046034A0449BDE8104024
:105BB00003F0A8BB38E5032070E40320D9510D00A1
:105BC0009FED010A704700BF5F42A2CD017470478C
:105BD0000022011DC0E90221C0E9041202717047D0
:105BE00030B585B01A46089B1B788DF8003002A8A6
:105BF0003C2301F093FB0020029C01F02FF920B11F
:105C0000637813B901F04EF9FAE76378BFF35B8F5D
:105C1000651CABB90025039C7CB16368013B6360E4
:105C20005BB9236820469B689847A368013BA36043
:105C30001BB923682046DB689847284605B030BD6D
:105C4000002001F00BF920B12B7813B901F02AF9EB
:105C5000FAE72378012BDDD1257BDCE710B5044C76
:105C60000460C0E901130024029B0474C36010BDEA
:105C7000F8C80D0010B50446006808B1FEF711FA27
:105C8000E06801F0A7F9606810B1042103F03FFB60
:105C9000204610BD38B504460120607494F9100008
:105CA000E56800EB800045F8201094F91010E068DA
:105CB00001EB810100EB810181ED020A94F91010E2
:105CC000E06801EB810100EB81014A6094F910204A
:105CD000E16802EB820201EB8202D36094F910309A
:105CE000E26803EB830302EB8303049A1A61237CCB
:105CF00001335BB20A2B237408DDA37C23B103F0CC
:105D000023F9034902F003F90A23237438BD00BFC5
:105D100008C90D0010B510EE100A86B00C4603F04D
:105D20002FFE02460B4601A80A4901F063F901A8BB
:105D30001422002310F8011B202906D0E15401335E
:105D4000DBB211B9E15406B010BD013A12F0FF0206
:105D5000F0D1F8E747C90D002DE9F04F0C4689B0A6
:105D60004C49DFF85481DFF85491DFF854A105461F
:105D7000204604F0BEFB002695F910309E426ADAF8
:105D8000EB6806EB860B03EB8B0393ED020A03A98A
:105D90002846FFF7BFFFEB6803A9009153F82B30AB
:105DA00022464146204601F025F9EB684FEA8B0771
:105DB0003B44DB6843B322464946204601F01AF9CA
:105DC000EB683B441B69002B38D00A2093FBF0F1B1
:105DD00091FBF0FC00FB1C1C00FB1131C9B26422DA
:105DE00093FBF2F292FBF0FE00FB1E2200915FFAA1
:105DF0008CF32949D2B202A801F0FCF8274902AB82
:105E00002246204601F0F6F8EB681F447B6823B178
:105E100023492246204601F0EDF82246214920463A
:105E200001F0E8F8013695F91030F6B29E422246AC
:105E30000ADA1D49204601F0DDF89DE72246514669
:105E4000204601F0D7F8DFE71649204601F0D2F8E6
:105E500000232B7490E7AB7CC3B103F075F81349B2
:105E600002F055F803F070F8114902F050F803F011
:105E70006BF8214602F04BF803F066F80B4902F08C
:105E800046F803F061F80B4902F041F809B0BDE8AB
:105E9000F08F00BF4CC90D0074C90D007BC90D0007
:105EA00086C90D0095C90D0099C90D0026C70D00C2
:105EB0009DC90D00AEC80D004EC90D0061C90D0091
:105EC00080C90D002DE9F04F0C46054689B05249B6
:105ED000DFF87481DFF87491204616461F4604F0FF
:105EE00008FBAB684D4A4E49204601F083F8334623
:105EF0004C4900972246204601F07CF84A49494F18
:105F00002246204601F076F8002695F910309E4290
:105F100064DAEB6806EB860B03EB8B0393ED020A66
:105F200003A92846FFF7F6FEEB6803A9009153F892
:105F30002B3022463946204601F05CF8EB684FEAE8
:105F40008B0A53445B6823B122464146204601F048
:105F500051F8EB685344DB683BB322464946204680
:105F600001F048F8EB6853441B6953B30A2093FBD4
:105F7000F0F191FBF0FC00FB1C1C00FB1131C9B2DD
:105F8000642293FBF2F292FBF0FE00FB1E220091D2
:105F90005FFA8CF32549D2B202A801F02BF824490C
:105FA00002AB2246204601F025F895F91030013663
:105FB000F6B29E4222460ADA1E49204601F01AF83D
:105FC000A3E71D492246204601F014F8EDE71B49DE
:105FD000204601F00FF800232B7496E7AB7CC3B189
:105FE00002F0B2FF164901F092FF02F0ADFF154931
:105FF00001F08DFF02F0A8FF214601F088FF02F0BA
:10600000A3FF0F4901F083FF02F09EFF024901F058
:106010007EFF09B0BDE8F08FAEC80D00C3C60D000D
:10602000A6C90D00B2C90D00BAC90D0074C90D0092
:106030007BC90D0099C90D0080C90D00CCC90D00A8
:1060400026C70D009DC90D00BFC90D00C5C90D00B3
:106050002DE9F74304464FF42F701E460F46904635
:1060600000F0B0FFE37C013B012B054626D801463A
:1060700043463A462046FFF725FFA37C23B102F0B2
:1060800063FF114901F043FF606803680096D3F88D
:10609000009039462B464246C8470746284600F03E
:1060A00099FF1EB10121304603F031F9002307B1F9
:1060B00063743846237403B0BDE8F083014620467C
:1060C000FFF74AFED9E700BFD3C90D0070B50446FB
:1060D00001200D461646FDF7DEFF067003462A46F0
:1060E00029462046BDE87040FFF7B2BF70B50546AF
:1060F0000C4684B1E1682846FFF7F8FFE369A6681B
:1061000023B104F114010322084698472046FDF705
:10611000C6FF3446EDE770BDF0B58DB0044601A86A
:106120000D4617461E4600F0CDFE03980130FDF7E0
:10613000B4FF0199206004F0DCF92A463346394661
:10614000E67405A8FFF780F9C82000F03BFFE06087
:1061500005A8FFF79DF80023C4E9010508992374F9
:1061600006A8FFF7C3FF01A801F076FF0DB0F0BD50
:1061700038B5002504460582FFF7CEFF204638BD1E
:1061800070B505460C464CB1E1682846FFF7F8FFAC
:10619000A6682046FDF783FF3446F4E770BD000093
:1061A00010B5104B104C00221A70204602F082FAF3
:1061B00020460E4C0E4A0F4903F0A4F8204602F088
:1061C00079FA20460C4C0A4A0A4903F09BF820460B
:1061D00002F08CFC2046064A0849BDE8104003F056
:1061E00091B800BFD8E50320BCE5032054E50320A7
:1061F00070E40320D9510D0070E50320B9510D0062
:106200000175704730B5064D0560C0E901130025E2
:10621000039B057541F28835C0E90332856130BDC5
:1062200080CA0D002DE9F84F0D461746804602F052
:106230008BFE1E491E4EDFF87CA0DFF87CB001F01B
:1062400066FE0024304602F0FCF960BB052C2AD023
:1062500098F81430C3B102F077FE514601F044FEC5
:1062600002F072FE294601F03FFE02F06DFE594633
:1062700001F03AFE02F068FE0A228146214601F052
:1062800050FE484601F037FE304602F0C3F90023C5
:10629000BAB22946304602F031FA4FF47A7000F073
:1062A000D1FE0134CEE7BDE8F88F00BFE3C90D0091
:1062B000DCE50320D7C60D00EDC60D0070B5044621
:1062C0000E4681682E48154601F00EFE2D492C48D9
:1062D00001F00AFEE1682A4801F006FE2A49284832
:1062E00001F002FE3146264801F0FEFD2749244810
:1062F00001F0FAFD2946224801F0F6FD2449204824
:1063000001F0F2FD237D002B38D002F01DFE214963
:1063100001F0FDFD02F018FE1F4901F0F8FD02F04A
:1063200013FEA16801F0E0FD02F00EFE154901F038
:10633000DBFD02F009FEE16801F0D6FD02F004FE8B
:10634000114901F0D1FD02F0FFFD314601F0CCFD15
:1063500002F0FAFD0D4901F0C7FD02F0F5FD2946F6
:1063600001F0C2FD02F0F0FD094901F0BDFD02F0AF
:10637000EBFDBDE87040094901F0C9BD70BD00BF2B
:10638000DCE50320FBC90D00FEC90D00A4C90D000A
:10639000CEC90D0016CA0D0000CA0D0015CA0D00A9
:1063A000F8B50E4F04460026384602F0D9F80546E7
:1063B00090B9A369B3420FDD012000F043FEA36949
:1063C0000136B342F0DC207D28B102F0BDFD044966
:1063D00001F09DFD2846F8BD0120FCE7DCE5032027
:1063E00031C70D002DE9F047037D06468846144667
:1063F0004BB102F0A9FD274901F089FD02F0A4FD8F
:10640000254901F084FDDFF8A490002540F2BB2A65
:10641000484602F0A5F878B1484601F0DAFF337D2E
:10642000C7B22BB102F090FD036839469B689847CC
:10643000675501355545EBD1337D23B102F084FD1D
:10644000164901F064FD002363551549404604F0E8
:1064500046F868B91349204604F09EF89FED120AE9
:106460000028F7EE007A18BFB0EE670ABDE8F087A3
:106470007C21204604F026F848B1013003F0A4FF47
:1064800051EC100B03F0B6FD00EE100AEEE79FEDA5
:10649000060AEBE726C70D0012C70D0025C70D0041
:1064A0001BCA0D0020CA0D005F42A2CDDCE503200F
:1064B00070B52DED028B04464168224842F2343219
:1064C0001D46002302F01AF92046616842F2343278
:1064D000FFF7A8FE1B4801F0E0FE48B32946194823
:1064E00001F002FD2046FFF75BFF054638B915486D
:1064F00002F090F80025BDEC028B284670BD6420A8
:1065000000F060FD1049024606462046FFF76AFF8C
:106510003046B0EE408A00F05DFDDFED0C7AB4EE5F
:10652000678AF1EE10FAE2D0064802F073F8E2E76B
:10653000237D002BDBD002F007FD054901F0E7FCCD
:10654000D5E700BFDCE503201BCA0D005F42A2CDEA
:1065500023CA0D0070B52DED028B044600230D46B5
:10656000164641681E4842F2343202F0C7F820460F
:10657000616842F23432FFF755FE194801F08DFE92
:1065800028B3204632462946FFF798FE2046FFF7FB
:1065900007FF48B912489FED138A02F03BF8B0EEAE
:1065A000480ABDEC028B70BD4FF42F7000F00AFD5D
:1065B0000D49024605462046FFF714FF0848B0EE95
:1065C000408A02F027F8284600F004FDE7E7237D23
:1065D000002BDFD002F0B8FC044901F098FCD9E7A9
:1065E000DCE503205F42A2CD41CA0D0044CA0D0084
:1065F0002DE9F0470446182015460F46FDF74BFDE0
:1066000007F1040A6B68D5F80090BA684361064642
:10661000C0F810905546012352B113694B45CCBFC9
:106620009168D1681546CCBF012300230A46F3E7E1
:10663000A3B1FB68AB4223D0284602F0C2FE8046DD
:10664000D8F810304B451BDB3046FDF728FDC4F869
:106650000080002323712046BDE8F087A846EFE7BD
:1066600028698145ACBF0020012053462A463146A7
:1066700002F0A9FE7B69266001337B610123E9E713
:10668000AA45EDD10120F0E72DE9FF470D4604466C
:106690004FF42F7000F096FC2B7D07464BB102F0B3
:1066A00053FC3A4901F033FC02F04EFC384901F04A
:1066B0002EFCDFF8F090002640F2BB2A484601F09D
:1066C0004FFF88B1484601F084FE2B7D5FFA80F8C9
:1066D0002BB102F039FC036841469B68984707F8E4
:1066E000068001365645E9D12B7D23B102F02CFC02
:1066F000284901F00CFC0025231DC4E90253C4E91C
:106700000435254925713846BD5504F08FFDDFF865
:106710009890DFF898A0DFF8808006467EB349465F
:10672000304603F0DCFE00BB414604F07FFD1B4910
:10673000064603F0D4FE18B9194B0095019308E002
:10674000304603F041FE51EC100B009503F052FC73
:1067500001906A46214602A8FFF74AFF4146002001
:1067600004F064FD01350646D8E75146304603F093
:10677000B6FE0028F2D1414604F058FDDCE7384669
:1067800000F028FC204604B0BDE8F08726C70D00C5
:1067900012C70D0025C70D00FEC90D006ACA0D0005
:1067A0005F42A2CDDCE5032020CA0D006FCA0D00B8
:1067B0002DE9F041071D98460023C0E90237C0E9E2
:1067C000047303710D4688B04968044616462E4886
:1067D00042F2343201F092FF2846696842F23432C4
:1067E000FFF720FD284801F058FD10B3314642461E
:1067F0002846FFF763FD2846FFF7D2FD0646C0B9DD
:106800002148224F01F006FF2149404604F00EFDC9
:1068100035461F4E002832D0214602A86A46009510
:106820000197FFF7E5FE31460020013504F0FEFC3C
:10683000F0E7294602A8FFF727FFA1682046FFF7E7
:106840009FFC049A0023C4E90237C4E904737AB1B7
:106850009DF80C1021710599E1600699A2602161F3
:106860005760079A626103AACDE905220493079352
:1068700002A80499FFF784FC034801F0CBFE2046F0
:1068800008B0BDE8F08100BFDCE503205F42A2CD87
:106890009BC90D0010B5054C204601F00BFF2046AA
:1068A000034A0449BDE8104002F02CBDDCE503209A
:1068B00070E40320D9510D009FED010A704700BF1D
:1068C0005F42A2CD017570470022011DC0E902217F
:1068D000C0E904120271704730B5064D0560C0E989
:1068E00001130025039B057541F28835C0E9033289
:1068F000856130BD44CB0D0010B5054C204602F03B
:10690000F5F82046034A0449BDE8104002F0FABCFD
:10691000F8E5032070E40320B9510D0010B50446DA
:106920004A68024901F03EFA204610BDB8E703204C
:10693000F0B58FB00146064602A81F46FFF7EEFFEE
:1069400002A800F04FFFA0B9337D23B102F0FCFA9A
:10695000274901F0DCFAF323009337223D23A921D4
:1069600008A809AD00F062FF0FCD03AC0FC42B687F
:106970002370002240F2BD211E4802F0E9F80022F7
:1069800042F234311B4801F08BFF03AD1A4B0893E0
:106990000FCD09AC0FC42B681648237042F2343275
:1069A00008A902F0F1F858B9337D23B102F0CCFA0E
:1069B000124901F0ACFA0F4801F0BEFF002014E0CC
:1069C000002FF1D0384603F0BAFD39460246094897
:1069D00001F0C0FF0028E7D0064802F01BF80028AD
:1069E000E2D0044801F0A8FF01200FB0F0BD00BFC5
:1069F00090CA0D00F8E5032000CC0D001CCB0D0063
:106A000073B5037204465020CDE900211E4600F004
:106A1000D9FA60601420FDF73EFB054620B1DDE9A0
:106A200000213346FFF7A4FB256002B070BD0000D3
:106A300038B500250446134645728572024AFFF7B1
:106A4000DFFF204638BD00BF54CB0D0038B50446EB
:106A5000406800F0BFFA256835B12846FFF70AF90B
:106A60001421284602F053FC204638BD0068FFF789
:106A700011B907B5002300931A46FFF7F7FF03B0DB
:106A80005DF804FB0068FFF721BB000008B5024B6E
:106A90001B685B6C019308BD4802030008B5024BFC
:106AA0001B689B6C019308BD4802030008B5024BAC
:106AB0001B685B68019308BD1802030008B5024B10
:106AC0001B68DB68019308BD1802030008B5024B80
:106AD0001B685B69019308BD1802030008B5024BEF
:106AE0001B681B68019308BD2C02030008B5024B0C
:106AF0001B689B68019308BD2C02030008B5024B7C
:106B00001B68DB68019308BD2C02030008B5024B2B
:106B10001B681B69019308BD2C02030008B5024BDA
:106B20001B681B6A019308BD2C02030008B5024BC9
:106B30001B685B6A019308BD2C02030008B5024B79
:106B40001B68DB68019308BD2802030008B5024BEF
:106B50001B689B69019308BD2802030008B5024B1E
:106B60001B68DB69019308BD2802030008B5024BCE
:106B70001B681B6A019308BD2802030008B5024B7D
:106B80001B685B6A019308BD2802030008B5024B2D
:106B90001B689B6A019308BD2802030008B5024BDD
:106BA0001B68DB6A019308BD2802030008B5024B8D
:106BB0001B681B6B019308BD2802030008B5024B3C
:106BC0001B685B6B019308BD2802030008B5024BEC
:106BD0001B681B6C019308BD2802030008B5024B1B
:106BE0001B685B69019308BD6C02030008B5024B8A
:106BF0001B685B69019308BD6402030008B5024B82
:106C00001B681B6A019308BD6402030008B5024BB0
:106C10001B685B6A019308BD6402030008B5024B60
:106C20001B689B6A019308BD6402030008B5024B10
:106C30001B689B68019308BD6802030008B5024BFE
:106C40001B68DB68019308BD6802030008B5024BAE
:106C50001B685B68019308BD3802030008B5024B4E
:106C60001B689B69019308BD3802030008B5024BFD
:106C70001B68DB69019308BD3802030008B5024BAD
:106C80001B681B6A019308BD3802030008B5024B5C
:106C90001B689B6A019308BD3802030008B5024BCC
:106CA0001B68DB6A019308BD3802030008B5024B7C
:106CB0001B681B6B019308BD3802030008B5024B2B
:106CC0001B685B6B019308BD3802030008B5024BDB
:106CD0001B689B6B019308BD3802030008B5024B8B
:106CE0001B68DB69019308BD3002030008B5024B45
:106CF0001B681B6A019308BD3002030008B5024BF4
:106D00001B681B68019308BD3C02030008B5024BD9
:106D10001B68DB68019308BD3C02030008B5024B09
:106D20001B681B69019308BD3C02030008B5024BB8
:106D30001B685B69019308BD3C02030008B5024B68
:106D40001B689B69019308BD3C02030008B5024B18
:106D50001B68DB69019308BD3C02030008B5024BC8
:106D60001B681B6A019308BD3C02030008B5024B77
:106D70001B689B6A019308BD3C02030008B5024BE7
:106D80001B681B68019308BD4C02030008B5024B49
:106D90001B685B68019308BD4C02030008B5024BF9
:106DA0001B681B69019308BD4C02030008B5024B28
:106DB0001B685B69019308BD4C02030008B5024BD8
:106DC0001B689B69019308BD4C02030008B5024B88
:106DD0001B68DB69019308BD4C02030008B5024B38
:106DE0001B681B6A019308BD4C02030008B5024BE7
:106DF0001B685B6B019308BD6002030008B5024B82
:106E00001B689B6B019308BD6002030008B5024B31
:106E10001B68DB6B019308BD6002030008B5024BE1
:106E20001B681B6D019308BD6002030008B5024B8F
:106E30001B685B6D019308BD6002030008B5024B3F
:106E40001B685B68019308BD2002030008B5024B74
:106E50001B685B69019308BD2002030008B5024B63
:106E60001B68DB6C019308BD2002030008B5024BD0
:106E70001B685B6D019308BD2002030008B5034B3E
:106E80001B68D3F88830019308BD0000200203007E
:106E900008B5034B1B68D3F89430019308BD00007C
:106EA0002002030008B5024B1B689B68019308BDD4
:106EB0004402030008B5024B1B685B69019308BDDF
:106EC0004402030008B5024B1B68DB69019308BD4F
:106ED0004402030008B5024B1B681B6A019308BDFE
:106EE0004402030008B5024B1B685B6A019308BDAE
:106EF0004402030008B5024B1B68DB6B019308BD1D
:106F00004402030008B5024B1B685B68019308BD8F
:106F10004002030008B5024B1B689B68019308BD43
:106F20004002030008B5024B1B68DB68019308BDF3
:106F30004002030008B5024B1B681B69019308BDA2
:106F40004002030008B5024B1B685B69019308BD52
:106F50004002030008B5024B1B689B69019308BD02
:106F60004002030008B5024B1B68DB69019308BDB2
:106F70004002030008B5024B1B681B6A019308BD61
:106F80004002030008B5024B1B681B6B019308BD50
:106F90004002030008B5024B1B685B6B019308BD00
:106FA0004002030008B5024B1B681B6C019308BD2F
:106FB0004002030008B5024B1B685B6C019308BDDF
:106FC0004002030008B5024B1B681B68019308BD13
:106FD0001C02030008B5024B1B685B68019308BDE7
:106FE0001C02030008B5024B1B689B68019308BD97
:106FF0001C02030008B5024B1B68DB68019308BD47
:107000001C02030008B5024B1B68DB6A019308BD34
:107010001C02030008B5024B1B681B6B019308BDE3
:107020001C02030008B5024B1B68DB6B019308BD13
:107030001C02030008B5024B1B685B6C019308BD82
:107040001C0203000021FFF701BF10B5836804464E
:107050000BB902F014FAC3689847A3681BB1032266
:1070600021462046984720461021BDE8104002F0F6
:107070004EB910B50446006808B1FFF70FFD204671
:1070800010BD13B50B460246D0E900016C4684E8FA
:10709000030093E8030082E8030094E8030083E818
:1070A000030002B010BD000010B5064C00232046BE
:1070B0002360FFF7EBFC2046034A0449BDE810407B
:1070C00002F020B944E6032070E4032073700D0041
:1070D00070470020704710B51021044602F017F9E0
:1070E000204610BD08B5FFF7F6FF08BD30B50022F9
:1070F0004FF69C74026084808D888C800C6885803B
:1071000004600A6030BD10B504460068FFF762FFF6
:10711000204610BD38B5C468F4B12378022B03D1E2
:1071200004F10C00FFF7EFFF656835B12846FEF764
:107130006DF81021284602F0EAF8A56835B1284616
:10714000FEF764F81021284602F0E1F820461421E9
:10715000BDE8384002F0DBB838BD73B50E460446D2
:1071600056F8043B00930D4601A83146FDF7B2FAEC
:10717000019A009B6260236001A8002301930093A1
:10718000FDF76CF93046FDF769F92846082102F051
:10719000BEF8204602B070BD826810B50AB902F090
:1071A0006EF9BDE81040C368184708B5006800F1E3
:1071B0001001FFF7F1FF08BD826810B50AB902F0AF
:1071C0005EF9BDE81040C368184708B5006800F1D3
:1071D0001001FFF7F1FF08BD38B500230446036036
:1071E00010200D46FCF757FF28B10123C0E90133F9
:1071F000024B0360C5602060204638BD80CB0D0087
:1072000038B5002383608B6804460D462BB10222FB
:107210009847EB68E360AB68A360204638BD000088
:10722000F0B589B004686846FFF760FF4FF00203CD
:10723000D4E84F2F002A03D1C4E8413F0029F7D1F9
:1072400025D104F10C0569462846FFF74FFFBFF32F
:107250005B8F01236370002004F10803BFF35B8F91
:1072600053E8006F43E80002002AF9D1BFF35B8FB7
:107270006EB1FFF7F3FD78B129463046FFF78CFF7A
:107280003046FDF7C3FF1021304602F040F8684653
:10729000FFF739FF09B0F0BD314602A8FFF7B0FF94
:1072A000E068B4F9105008B103F02CF906901020F2
:1072B000ADF81C50FCF7EFFE0546E8B100278760EB
:1072C0001820FCF7E8FE044688B10146876002A852
:1072D000FFF7D7FE049BA268A360059B049206A952
:1072E000E268E36004F110000592FFF7FFFE084B2F
:1072F000EB60084B2C60AB6006A8FFF704FF02A808
:10730000FDF784FF002229460348FFF7AFFDB7E7EA
:10731000AB710D0041740D004B700D002DE9F0476D
:107320008AB005469DF848900C4617469846FFF7E8
:10733000C1FD07AE824638BB4FF62E73059005A9F6
:107340003046ADF81830FFF7D1FE1420FCF7A3FE4D
:10735000044648B1022303700123C0E901AA437027
:1073600031460C30FFF7C2FE2846214640F8044B58
:10737000FFF732FF3046FFF7C6FE05A8FFF7C3FE52
:1073800028460AB0BDE8F0870C234FF0000A14200D
:10739000CDE908AA0793FCF77EFE014628B1C0E9B3
:1073A00001AA80F800A080F801A004A80391FFF7CB
:1073B00013FF224B08930820FCF76DFE824628B18C
:1073C000039B40F8043B04A9FDF784F900965FFA9B
:1073D00089F3424639462046CDF824A0FFF77AFDCE
:1073E000B8B9039B5B7803F0FF0293B94FF69C7327
:1073F00005A903A80592ADF81830FFF711FF05A8FD
:10740000FFF781FE05A80999FFF7A7FE06A8FDF77B
:1074100025F8039B059304A906A8FDF75BF9059BD6
:10742000069A2B606A60002306A806930593FDF771
:1074300015F804A8FDF712F8A2E700BF05750D00C6
:10744000022AF8B5054607D0032A18D0012A01D12F
:107450000B6803600020F8BD18200E68FCF71BFEC7
:10746000044650B13146FFF7CBFE3069B6F91470CF
:1074700008B103F047F82061A7822C60EAE70468AE
:10748000002CE7D004F11000FFF73DFE2046FDF789
:10749000BDFE1821204601F03AFFDBE738B5002396
:1074A00083608B6804460D462BB102229847EB6837
:1074B000E360AB68A360204638BD022A70B504467D
:1074C00007D0032A12D0012A01D10B6803600020E3
:1074D00070BD14200E68FCF7DEFD054620B1314674
:1074E000FFF7DCFF337C2B742560F0E70468002C89
:1074F000EDD02046FDF78AFE1421204601F007FF5B
:10750000E5E70000F0B589B004460D4601A8114634
:10751000FFF723FEA4B124B21DB1284602F0F2FF0A
:10752000054601A803A90395ADF81040FFF778FEC2
:1075300003A8FFF7E8FD02A8FCF790FF09B0F0BD33
:10754000019D0123D5E84F2F002A03D1C5E8413F13
:107550000029F7D1EFD12B73BFF35B8F6B702B1D1D
:10756000BFF35B8F53E8006F43E80042002AF9D174
:10757000BFF35B8F002EDED02046FFF76FFC07467F
:1075800060B105F10C013046FFF716FE3046FDF7FD
:107590003DFE1021304601F0BAFECCE7314603A88B
:1075A000FFF77CFF2B7B8DF81C301020FCF773FD60
:1075B0000546D0B187601420FCF76DFD044678B114
:1075C0008760014603A8FFF75CFD059BA268A360E6
:1075D000069B0592E268E3609DF81C3006922374D6
:1075E000064BEB60064B2C60AB6003A8FDF70EFE6C
:1075F000002229460348FFF739FCC7E7CB710D008D
:10760000BB740D004B700D00002240681146FFF75F
:10761000B1BC002240681146FFF7BCBC40680022A4
:10762000FFF7B0BC4068002281F00101FFF79ABC6F
:10763000002340681A461946FFF78CBC00234068B7
:107640001A461946FFF77EBC002240681146FFF734
:1076500071BC002240681146FFF75CBC4068002204
:107660000221FFF75FBC002340681A46FFF74ABCBF
:10767000024B03225A60024A1A60704748E6032010
:107680009CCB0D007047F8B5064615460C468F1882
:10769000BC4206D0336814F8011B9B6830469847FB
:1076A000F6E72846F8BD007C0022FFF75FBA007CB1
:1076B0000021FFF763BA007C0021FFF767BA007C66
:1076C0000021FFF76BBA007C0021FFF76FBA10B5FD
:1076D0001421044601F01BFE204610BD10B54FF4E6
:1076E0007A73044608460021C4E90113034B236062
:1076F00020741146FFF76AFA204610BDD8CB0D0062
:107700000023007C1A461946FFF718BA007C0022B5
:10771000FFF71CBAC9B2FFF7F9BF007C0022FFF7E0
:107720001DBA0121FFF7F9BFFFF700BAFFF7F6B95D
:10773000704710B51821044601F0E9FD204610BD40
:10774000F0B5037D062B8DB00E4600F104074FF017
:10775000000412D000F1080515F8011D0A22304678
:1077600000F0DFFBAF42044419D0002CF4D02E21EE
:10777000304600F0BDFB0444EEE72F236A4639464D
:107780000A208DF80040FFF731FA684602F0D7FE74
:1077900033680246DB68694630469847044620460F
:1077A0000DB0F0BD10B5054B0446112240F8043B66
:1077B000002102F04BFE204610BD00BF00CC0D00A2
:1077C0000346074A10B543F8042B01F1100251F8A3
:1077D000044B43F8044B9142F9D10A781A7010BD5A
:1077E00000CC0D00037D042B04D14068003818BF85
:1077F00001207047062B07D143683BB983682BB93A
:10780000C3681BB90069F1E7002070470120704789
:1078100010B59DF8084044EA032343EA024242EAD5
:10782000016104234160037510BD000037B5044DAC
:1078300005609DF818500095FFF7EAFF03B030BDD2
:1078400000CC0D0013B5054B0360CB7800938B780B
:107850004A780978FFF7DCFF02B010BD00CC0D00BC
:1078600000F11003012213F8101C0129184608D159
:1078700053F8041C02EB4102013A03F11003F2D168
:107880007047022904BF53F8041C5218F4E77047EC
:107890000020704710B51021044601F038FD204645
:1078A00010BD08B5FFF7F6FF08BD10B5C4687CB180
:1078B000206808B1FCF7F5FB237A1BB1606808B1BA
:1078C000FCF7EFFB20460C21BDE8104001F01FBD86
:1078D00010BD10B5036804469B689847A368013B38
:1078E000A3602BB923682046DB68BDE81040184729
:1078F00010BD38B50B6803604D6843689D4204466F
:107900000CD015B16B6801336B60606828B14368B7
:10791000013B43600BB9FFF7DCFF6560204638BDD3
:107920000B461146002210B5C0E9002204468360D0
:107930000BB9204610BDFFF7DCFFFAE78368EBB117
:107940001A78032A1AD8DFE802F00417021B052070
:10795000704702685B685268D05C2D2812D0A0F195
:107960003003092B0ED974280ED066280CD0A0F154
:107970006E035842584170470620704700207047F8
:107980000420704703207047022070470000000069
:1079900010B50446FFF7D2FF02280DD0C31EDBB29C
:1079A000012B10D82268A36850685B68BDE81040BE
:1079B0000021184403F02EBC2268A36852685B685B
:1079C000D35C742B02D09FED040B10BD9FED040B14
:1079D000FBE700BFAFF300800000000000000000E4
:1079E000000000000000F03F2DE9F04786B0074698
:1079F000884602A80021002499461023924602934B
:107A0000FFF7FCF9CDE9004423464246394602A877
:107A1000FFF7FCF9061E1EDD1049300101F07BFC6A
:107A2000054690B1214602A8FFF7E8F9CDE90064C8
:107A30002B464246394602A8FFF7E8F9A04207DD87
:107A4000CAF800500120C9F8006006B0BDE8F08710
:107A50002846FCF726FB2046F7E700BF10CE0D00B6
:107A60002DE9F84F436886680B4488460E44074664
:107A70001C4619464FF00D094FF0090AB44263D075
:107A8000254615F8012B5C2A2BD1A14207D0A4EB87
:107A9000010B18465A4602F0BFFC03465B44B54250
:107AA00039D06278752A2AD1A21CB21A032A32DD93
:107AB000A01D04F1050E4FF0000CAE4553D015F893
:107AC000011FA1F130025FFA82FBBBF1090F05D95A
:107AD000A1F16102052A07D8A1F1570242EA0C1C64
:107AE000EBE728460446C9E7A1F14102052A12D86E
:107AF000A1F13702F2E703F801CB0146F2E76E2A63
:107B00001CD00ED8622A13D007D82F2A11D05C2A95
:107B10000FD0222A0DD0002023E0662AFBD10C22B0
:107B200007E0722A0DD0742AF5D183F800A001E095
:107B300008221A70A11C01330846D3E74FF00A024D
:107B4000F7E783F80090F5E7A14206D0641A1846DB
:107B5000224602F061FC03462344A3EB0803BB600A
:107B60000120BDE8F88FBCF17F0FC4D92146B9E7E9
:107B7000F8B50446154600EB01160027B44210D0B4
:107B80002378032B08D129462046FFF769FF48B127
:107B9000A368EF541034F1E7002BFBD1A268AB547B
:107BA000F8E70120F8BD000038B50023C0E9003334
:107BB00004460E48C4E90203A9B10B78032B06D092
:107BC0008BB9136858684B68C35C6E2B07D0136879
:107BD0004D6858688B6828445B1BA060E3601146C1
:107BE0002046FFF786FE204638BD00BFAEC80D0018
:107BF00038B500250B46C0E90055C0E90255C0E97B
:107C00000455044611464BB11A78012A06D103F1F6
:107C10001002DB6882604361FFF76BFE204638BDCF
:107C200010B54369044663B18068E060013B1030E1
:107C3000A0602061636113B1FFF712FEA060012014
:107C400000E0184610BD000038B50023044603606C
:107C500010200D46FCF71FFA28B10123C0E90133BB
:107C6000024B0360C5602060204638BD14CC0D0077
:107C7000F0B5044687B00E460C202749154601F0A2
:107C800048FB014618B10023C0E90033037203A882
:107C90000291FFF7D9FF029A42B9C4E90022A2601B
:107CA00003A8FCF7DBFB204607B0F0BD00230193DF
:107CB000294601AB3046FFF797FE18B9C4E900002A
:107CC000A060EDE71449029F681C01F024FB029BB1
:107CD000786058680028F1D02A46314602F08EFBC1
:107CE000029B0199186801221A725A68FFF740FF37
:107CF0000028E3D0029B19680493039B059313B1FA
:107D00005A6801325A6004AA2046FFF709FE05A806
:107D1000FCF7A4FBC4E700BF10CE0D00014B024AE4
:107D20001A60704750E6032028CC0D0000234068FD
:107D30001A46FFF7E7B8406800220221FFF7F2B8C1
:107D4000002240681146FFF7E5B80022406811465E
:107D5000FFF7F0B8002340681A461946FFF7F2B85B
:107D6000002340681A461946FFF7F4B8406800211E
:107D7000FFF718B940680021FFF71CB940680022DE
:107D800081F00101FFF7EEB840680022FFF7FAB872
:107D9000002240681146FFF7FDB8002240681146F6
:107DA000FFF7E8B82DE9F043002495B016460D46DC
:107DB0000746FFF7F7FC214618220EA8009402F0B0
:107DC00045FB4023CDE90C3421466B460CAA3046D6
:107DD000FEF734FF044600284CD1024601216868B2
:107DE000FFF7A8F80221804622466868FFF7A2F84C
:107DF000009E81462146002E3CD000293AD173686E
:107E0000022B03D00A2B11D0F669F4E7B8F1000F6A
:107E10000AD0716906A8043107ADFFF713FD0FCD35
:107E20003C1D0FC42B6823704146EDE7B9F1000FEC
:107E300001D14946E8E77469102201A802F006FB67
:107E400006238DF8143001AD04F1080318341868C6
:107E500059682A4603C20833A3421546F7D101A93F
:107E600006A807ADFFF7ACFC0FCD3C1D0FC42B6877
:107E70002370DEE70098FEF7D9FE384615B0BDE85E
:107E8000F0830000024B034A1A6000225A607047D8
:107E900054E6032034CC0D00F8B506460D468F1885
:107EA0000024BD420CD0336815F8011B9B68304696
:107EB0009847031E01DB1C44F3E7002C08BF1C4657
:107EC0002046F8BD13B50446084659B1019102F0A9
:107ED00036FB23680199DB680246204602B0BDE804
:107EE0001040184702B010BD08B5FFF7EBFF08BD02
:107EF00003689B68184738B50D210546FFF7F8FF62
:107F00000A2104462846FFF7F3FF204438BD38B560
:107F10000546FFF7D7FF04462846FFF7ECFF20444D
:107F200038BD30B58BB000238DF82430012A98BFBE
:107F30000A2209AC0D46B1FBF2F101FB125303F02A
:107F4000FF03092B94BF30333733DBB2AA4204F866
:107F5000013DEFD92146FFF7B5FF0BB030BD10B59D
:107F60000446FDF753F9204610BD00000348044ABB
:107F700004490023836001F0C5B900BF5CE603201B
:107F800070E403205F7F0D0010B5044608462170A1
:107F9000FEF7A4FE00236360204610BD2DE9F047E4
:107FA00057EC106B80460C4610EE100A002200239E
:107FB000394601F0AFFF28B107F100431F462D23DA
:107FC00004F8013B00234FF001090A22D9B2884589
:107FD00003D902FB09F90133F8E7484601F0BEFC7A
:107FE00032463B4601F024FD06460F4602F06AF891
:107FF00005468A4601F0E6FC02460B463046394605
:1080000001F05EFB134B002201F098FF10B1013527
:108010004AF1000A4A462846D317514602F03AF878
:108020000123154621460A2201F007F8B8F1000F96
:108030000DD0204602F083FA2E23211823540A2261
:10804000434628460131BDE8F04700F0F6BFBDE8E1
:10805000F08700BF0000E03F10B504460068FEF75F
:10806000B9FF204610BD10B50446006808B1FEF700
:10807000B1FF0023C4E90133236010BD38B50446C5
:108080000D4600680131FEF7ADFF10B1C4E90005EF
:10809000012038BD10B50368044623B143688B4204
:1080A00001D3012010BD2046FFF7E8FF0028F9D0DA
:1080B000A368002BF5D122681370F2E737B50D469F
:1080C000114601920446FFF7E5FF019A28B92046C0
:1080D000FFF7C9FF204603B030BDA26029462068E3
:1080E00002F08CF92268A3680021D154F2E788429B
:1080F00010B5044605D00B682BB18A681946FFF706
:10810000DDFF204610BDFFF7AEFFFAE710B50023F4
:108110000446C0E9003383600373FFF7E8FF20469D
:1081200010BD13B5044659B10846019102F007FA93
:10813000019902462046FFF7C1FF204602B010BD5C
:10814000FFF791FFF9E730B5044600238BB0C4E98F
:108150000033A360237310EE100ACDB201F010FCBF
:1081600041EC100B01A92846FFF718FF01A9204692
:10817000FFF7D7FF20460BB030BD10B504468AB0DC
:1081800000230846C4E90033A360237301A9C0B2E9
:10819000FFF704FF01A92046FFF7C3FF20460AB0FE
:1081A00010BD70B505460E4609B9002070BD6AB114
:1081B000846814442146FFF76DFF0028F5D0286835
:1081C000AB683146184402F094F9AC600120EDE749
:1081D00013B5044629B92046FFF745FF204602B0F3
:1081E00010BD0846019102F0AAF901990246204605
:1081F000FFF7D7FF0028EED0F0E710B5044600687F
:1082000018B1FEF7E7FE0023236010BD10B5044649
:10821000FFF7F3FF204610BD10B5094B094C0222B1
:1082200000201A60084B2060A080A071A360FEF7B8
:1082300005FE2046054A0649BDE8104001F062B837
:1082400078E603206CE603200000FFFF70E40320C3
:108250000D820D0013B503688DF80710DC6B012249
:108260004FF0FF330DF10701A04702B010BD10B46D
:108270000368DC6B4FF0FF33A4465DF8044B6047A6
:1082800013B5134602688DF80710D46B0DF1070182
:108290000122A04702B010BD704738B543691A6883
:1082A000002A054610DAB3F88620B3F884309A42E3
:1082B0000AD103681B699847044628B92B682846E9
:1082C000DB6A9847204638BD0120FCE743691868FF
:1082D000C043C00F70477047064B994210B500F17C
:1082E0000C0405D0084601F0CDF8002808BF002492
:1082F000204610BD70CB0D0010B5AC21044601F036
:1083000006F8204610BDFBF7CABE2DE9F0414FF03C
:10831000000886B01D46C0F8048004460E46174685
:108320004146102202A802F091F86B1C09D04FF4CC
:108330007A70B5FBF0F3CDE9023800FB13535843D4
:108340000490606910230093006802AB41F20502BB
:1083500040F6FF71FEF782FC002807DAFEF762FEA6
:1083600003686360002006B0BDE8F0816069002307
:1083700000683A463146FEF799FC031EEEDB1846CC
:10838000F1E7000070B54D69054B04468C3544F8A3
:10839000043B06460FCD0FC42B682370304670BDDA
:1083A00000CC0D0010B54369B3F88620B3F88430D3
:1083B0009A42044605D06369B3F8842013441879BF
:1083C00010BD03681B6998470028F4D14FF0FF30B7
:1083D000F6E710B54369B3F88620B3F884309A42C3
:1083E000044608D06369B3F88420511CA3F88410B4
:1083F0001344187910BD03681B6998470028F1D110
:108400004FF0FF30F6E7F8B543691746B3F886201A
:10841000B3F884309A4205460E4616D06969B1F821
:108420008430B1F88640E41ABC4228BF3C4604338D
:1084300022461944304601F0E1FF6A69B2F88430FF
:108440002344A2F884302046F8BD03681B6998478E
:108450000028E3D14FF0FF34F5E742690023A2F88A
:1084600084304269A2F8863070472DE9F0411F46FA
:1084700003680C46DB6A8AB0054616469847237D9A
:10848000D5F81480042B0CBF02200A2006220121FB
:10849000FEF71CFCC8F800006B691B68002B08DAAB
:1084A0002B682846DB6A0024984720460AB0BDE8BE
:1084B000F0812846FFF7D1FFB7B1002303A9F8B236
:1084C0000393ADF81030FEF789FB0028E8D1686906
:1084D00006230093006803AB41F20B0240F6FF71E4
:1084E000FEF7BCFB0028DBD11C22002103A801F011
:1084F000ADFF237D042B1DD14FF407733046ADF83B
:108500000C30FEF78BFBADF80E006068FEF776FBD3
:1085100004906B691C22186803A9FEF7AFFB0028C2
:10852000BED104340FCC6D698C350FC523682B7018
:108530000124BAE740F61C233046ADF80C30FEF7B4
:108540006DFB05AEADF80E00231D04F1140718688D
:108550005968324603C20833BB421646F7D1D8E702
:1085600030B54269B2F886308BB004462BB1B2F810
:1085700084209A4201D1FFF770FF616908680028E2
:1085800018DBB1F886507F2D14D804310823C5F1CB
:1085900080022944FEF77AFB002813DD6369B3F8F3
:1085A00086200AB9A3F884206369B3F886201044B2
:1085B000A3F886006369B3F88600B3F88430C01A64
:1085C0000BB030BDFEF72EFD03680B2BF2D0FEF78B
:1085D00029FD03680B2BEDD020230025CDE90235C2
:1085E000FEF720FD03680193084B0949009302AA96
:1085F0002B463220FEF712FC63691868FEF736FB43
:1086000063694FF0FF321A60D4E700BF6FCC0D00F2
:1086100068CC0D0010B5436904461868002801DBDA
:10862000FEF724FB63694FF0FF321A606069112284
:1086300000218C3001F00AFF2046BDE81040FFF712
:108640000CBF43691868C043C00F704710B50023C2
:1086500004460160C0F884308830FFF7A3F8204654
:1086600010BD000073B500234FF47A72C0E90132E7
:108670000E4A0361026043610446AC200191FBF79E
:108680000AFD051E05F10C0608D00123C5E90133DA
:10869000074B01992B603046FFF7D8FF2046C4E90D
:1086A0000565FFF7DAFE02B070BD00BFA4CC0D0077
:1086B00088CC0D0010B54FF0FF310446FFF7D2FF14
:1086C000204610BD10B504460068002801DBFEF707
:1086D000CDFA204610BD0C30FFF7F4BF70B586B060
:1086E000064601AD6846FFF7ADF80FCD341D0FC447
:1086F0002B682370304606B070BD00002DE9F043B2
:108700009846036893B00D460024DB6A0646174678
:10871000984728466B46224621460094FEF78EFA7B
:108720000546002863D1009B002B4BD05B69002BD2
:1087300048D006A8FFF736F8009B5C696378022BE7
:1087400004D1211D06A8FFF7C9FF26E00A2B24D17A
:108750001122294601A801F079FEA368002B38D028
:1087600004F108030DF1040C1834186859686246C6
:1087700003C20833A3429446F7D1062301A90CA8EB
:108780008DF81430FFF71CF80DF1340CBCE80F0025
:1087900007AC0FC4DCF80030237006A8FFF722F8FE
:1087A00080B1336807ADD3F82090124B0C930FCDF6
:1087B0000DAC0FC42B6823703A4643460CA93046D3
:1087C000C84705460098FEF731FA284613B0BDE8C1
:1087D000F083E368002BC3D14FF6FF70D4F81090FC
:1087E000FEF70CFA8145BBD104F11401AAE7254636
:1087F000E8E700BF00CC0D00024B1A68024B1A607C
:10880000704700BF98E203207CE6032010B40468A0
:10881000246BA4465DF8044B604703689B6C1847C3
:10882000808E7047028FC08E101A704707B503689C
:108830008DF80710DB6801220DF10701984703B09E
:108840005DF804FB10B503681B690446984728B11E
:10885000E38EE26B591CE186D05C10BD4FF0FF3017
:10886000FBE710B503681B690446984718B1E38E0F
:10887000E26BD05C10BD4FF0FF30FBE7704710B4E7
:1088800003460846DC6BD98E1A8F0368521ADB68E0
:1088900021445DF8044B1847A0F11000FFF7EFBF2B
:1088A00070B503688CB05B6A04460E46154698475F
:1088B00001231C22002105A8029301F0C7FD40F608
:1088C0001C233046ADF81430FEF7A8F91122ADF89C
:1088D000160002210A20FEF7F9F90028606125DB65
:1088E0000422009202AB40F6FF71FEF7B7F9E8B937
:1088F00095B10390ADF8100003A9E8B2FEF76EF948
:10890000A0B906230093606903AB41F20B0240F665
:10891000FF71FEF7A3F948B960691C2205A9FEF7AB
:1089200095F918B9656401200CB070BD2368204624
:108930005B6A98470020F7E710B5044640690028B5
:1089400001DBFEF793F94FF0FF3363610023E38609
:10895000238710BD70B50546C06BEE8E68B12B6CD9
:108960009C1B944228BF14462246304401F046FD29
:10897000EB8E2344EB86204670BD0446F1E7D0B56C
:1089800003681B6904460F461646984790B1236852
:1089900020461B699847E38EE16B8642A8BF0646D6
:1089A00019443246384601F029FDE38E3344E3860C
:1089B0003046D0BD4FF0FF36FAE7000070B50446F0
:1089C000054B44F8043B01F1200506460FCD0FC4CA
:1089D0002B682370304670BD00CC0D00F0B5964674
:1089E000026889B0976A0A4A02921C1D8C460646A4
:1089F0000FCC03AD0FC523682B70BDF83830009342
:108A0000724602AB61463046B84709B0F0BD00BFC0
:108A100000CC0D00F0B5036889B09F6A0C4B02933F
:108A200000F1200604460FCE03AD0FC533682B704E
:108A3000A38EE28EE16B0093204602ABB847236819
:108A40000546DB6920469847284609B0F0BD00BFBF
:108A500000CC0D0038B5054614462B7D062B084684
:108A600010D140F61C231380FEF7D8F808342B1DD4
:108A700024F8060C143553F8042B44F8042BAB42AD
:108A8000F9D138BD042BFCD14FF404731380FEF7E9
:108A9000C5F860806868FEF7B1F86060F1E72DE91D
:108AA000F0438BB003AF4FF01C09984604460D46C7
:108AB000164600214A46384601F0C8FCBDF8481069
:108AC0003A464046FFF7C6FF9DF80D3053B1CDE959
:108AD00000796069002332462946FEF7EFF80BB0B3
:108AE000BDE8F0834FF0FF30F9E7000038B500250E
:108AF0004FF47A73C0E901530B4B03F108026C3356
:108B000003614FF0FF330446026043611C30FEF7FF
:108B100049FE4FF40073C4E91035E5862587E56307
:108B200084F84850204638BD04CD0D0010B590F8AB
:108B30004830044623B1C06B10B1012100F0E7FBBF
:108B40000023E36384F848302364E386238710BD61
:108B500070B5044616460D46FFF7E8FF0023E663AE
:108B600023642EB12564206C003818BF012070BD2D
:108B7000002DF8D02846FBF790FA0123E06384F833
:108B800048300028EFD0EDE7F8B51746C26B054630
:108B90000C461AB9016C09B1FFF7DAFF04340FCCA7
:108BA00005F120060FC6236833700023286CAF86BA
:108BB000EB862B87F8BD37B5C26B04460B462AB946
:108BC000016C19B10193FFF7C3FF019BE16B002218
:108BD000E286228741B1226C32B12068056B2046C3
:108BE000A8470028C8BF208723681B69204603B018
:108BF000BDE830401847F0B54378022B8DB00546EC
:108C00000C46174604D1011D2046FFF767FD22E000
:108C10000A2B25D11122002101A801F017FCAB6815
:108C200003B305F1080301AE05F1180C1868596883
:108C3000324603C2083363451646F7D1062301A91D
:108C400006A807AE8DF81430FEF7BAFD0FCE043437
:108C50000FC4336823701FB16888FDF7D7FF3880D1
:108C60000DB0F0BDEB68002BDBD14FF6FF702E6925
:108C7000FDF7C4FF8642D4D105F11401C4E700001A
:108C80002DE9F04117468EB00022064601AB08469A
:108C900011460192FDF7D2FF041E20DB019B2BB38E
:108CA0005B691BB302A8FEF77DFD019B002258699A
:108CB00002A9FFF7A0FF02A8FEF794FDB0B1336848
:108CC00003ADD3F838800B4B08930FCD09AC0FC41C
:108CD0002B6823703A4608A93046C04704460198DD
:108CE000FDF7A4FF20460EB0BDE8F0814FF0FF3441
:108CF000F5E700BF00CC0D002DE9F047D0F8149047
:108D0000B9F1000F90B005460E4690461C463CDB7C
:108D100000293AD04FF01C0A09AF524600213846CC
:108D200001F094FBCDF80CA0DCB100224FF47A7076
:108D3000B4FBF0F3CDE9043200FB13435843102396
:108D400007920690009341F206026B4440F6FF71D1
:108D50004846FDF783FF044620B1204610B0BDE829
:108D6000F087082403ABCDE90073686923464246C7
:108D70003146FDF793FF041EEFDB05F1340205F1E8
:108D80001C013846FFF737FFE7E74FF0FF34E4E711
:108D900070474174704708B5007CFDF7E7FF20EA93
:108DA000E07008BD08B5007CFDF7B8FF20EAE07070
:108DB00008BD08B5007CFDF7C1FF40EAE07008BDC2
:108DC00008B5007CFDF7B2FF40EAE07008BD007C0A
:108DD000FDF7BCBF37B5457C04462DB1207C03B000
:108DE000BDE83040FDF792BF007C0191FDF7BEFF6A
:108DF00000280199F2DC284603B030BD10B51421DB
:108E0000044600F084FA204610BD000010B54FF073
:108E1000000C0446084611464FF47A72C4E901C2B8
:108E2000044A22600122207462741A46FDF766FF2C
:108E3000204610BD7CCD0D0013B50E4C2178BFF33C
:108E40005B8F11F0010112D120460191FBF72BF944
:108E5000019960B1084A094B0948FFF7D7FF20463E
:108E6000FBF726F9074A0849054800F04BFA044881
:108E700002B010BD80E6032084E6032008E703204B
:108E80008CE7032070E40320918D0D00417470473E
:108E9000704708B50021007CFDF790FF40EAE070C4
:108EA00008BD08B50121007CFDF788FF40EAE070AD
:108EB00008BD08B5007CFDF779FF20EAE07008BD29
:108EC00008B5007CFDF76AFF20EAE07008BD13B525
:108ED0000446007C0191FDF769FF0028019901DC3F
:108EE000607C20B1207CFDF771FF20EAE07002B0C9
:108EF00010BD007CFDF772BF10B51421044600F0D0
:108F000006FA204610BD000010B54FF47A730446EF
:108F100008460021C4E90113044B23600123207497
:108F200063741146FDF72AFF204610BDACCD0D003D
:108F3000007C0022FDF72ABF10B514220446002150
:108F400001F084FA204610BD10B5104C88B003A87B
:108F5000FFF7F2FF2178BFF35B8F11F0010111D110
:108F600020460191FBF79FF8019958B103AA0848E0
:108F7000FFF7CAFF2046FBF79BF8064A064904485C
:108F800000F0C0F9024808B010BD00BFA0E7032000
:108F9000A4E7032070E40320918E0D0000224068B6
:108FA0001146FDF7C7BF002240681146FDF7E2BF3A
:108FB000002240681146FDF7EDBF40680022FDF732
:108FC000E1BF4068002281F00101FDF7CBBF002323
:108FD00040681A461946FDF7BDBF002340681A468F
:108FE0001946FDF7AFBF002240681146FDF792BF5A
:108FF000406800220221FDF795BF002340681A4611
:10900000FDF780BF024B04225A60024A1A60704783
:10901000B8E70320DCCD0D0010B5044601F08FFA4F
:10902000013823182046834206D90278197800F8BF
:10903000011B03F80129F6E710BD70B50C46911E1F
:109040002229054622D820466DB1B5FBF2F602FB77
:109050001655E9B2092D94BF30315731C9B200F825
:10906000011B3546F0E7024623443021934202D9E2
:1090700002F8011BFAE71A1A834238BF00220023C4
:1090800083542046FFF7C8FF204670BD0020FCE750
:10909000014B1860704700BF9CE2032008B50B4BE2
:1090A00043B1FFF751FF03681B699847002801DDB2
:1090B000AFF30080064B43B1FFF7BEFE03681B69A8
:1090C0009847002801DDAFF3008008BD00000000D4
:1090D0000000000008B5FFF7E1FFFDF7F7FC014BCA
:1090E000186008BDD4E703200248034A0349121A56
:1090F00001F084B900F4032004F40320C8D10D006A
:1091000007B5002300931A466FF07701FDF7C0FE04
:1091100003B05DF804FB000007B543880A2B08D0B4
:10912000502B0BD1094B1B684BB103B05DF804EB1E
:109130001847FFF7E5FF03B05DF804FB0023009339
:109140001A466FF07701FDF7A3FEF4E7C4E70320AA
:1091500038B5124C1248134D0021FDF76BFF236800
:10916000AB42114B0CBF012200221A7002D0FFF754
:10917000BBFF2560FDF79AFC044601F07FF90B4B1D
:1091800013B12046AFF3008000210848FDF7B2FE7E
:10919000BDE8384006480021FDF770BE00F403200A
:1091A00091900D001E1C279AC0E7032000000000CC
:1091B00019910D00232813B502D9002002B010BD6B
:1091C000A0F10B03022B1AD8174C2178BFF35B8F49
:1091D00011F001010BD120460191FAF764FF0199CA
:1091E00028B11248FEF7D0FE2046FAF761FF0F4B78
:1091F0001878FDF77BFD0028DFD10120DEE701288C
:1092000009D800F057F80021007CFDF7D7FC80F06A
:109210000100C0B2D2E709380128EED8FFF70CFEF2
:10922000007CFDF79BFDF2E7C8E70320CCE70320B5
:10923000232838B504460D460AD8FF2908D0FFF781
:10924000B9FF28B129462046BDE83840FDF74EBC9D
:1092500038BD38B504460D46FDF750FCFF2810D048
:10926000062804D84D2323FA00F0C30709D420466A
:10927000FFF7A0FF28B129462046BDE83840FDF79A
:1092800045BC38BD38B5002320254380142304464F
:109290000380856005610649284600F03CF80449D2
:1092A0006060284600F037F8E060204638BD00BF17
:1092B00010CE0D0030B50F4D2978BFF35B8F11F044
:1092C000010487B013D12846FAF7EDFE78B101A862
:1092D000FFF7D8FF01AA21460748FEF7FFF9284605
:1092E000FAF7E6FE054A0649034800F00BF8024883
:1092F00007B030BDD8E70320DCE7032070E403208B
:1093000085760D000B460146184601F069B8FAF75C
:10931000C6BEFAF7C0BEFAF7C0BEC3689A68C2609C
:1093200010B502B1506042685A600C68844203D1A3
:109330000B609860436010BD916881420CBF9360E0
:10934000D360F6E78368DA68826010B502B15060D6
:1093500042685A600C68844203D10B60D860436055
:1093600010BDD16881420CBFD3609360F6E70378EB
:1093700033B943685B68834202D1DB6818467047A3
:10938000826822B11346D268002AFBD1F6E743680F
:109390009A688242F2D118465B68F9E7C36823B144
:1093A00018469B68002BFBD170474368DA688242FD
:1093B00002D118465B68F9E7C268934218BF1846A5
:1093C0007047FFF7D4BF2DE9F8431E4603F10408A8
:1093D0000023C1E902330C464A600B7000B3964289
:1093E000916018D17160F46001274FF00009736833
:1093F000A3423FD060680278002A3CD14568AB6840
:10940000984223D1EB6883B11A7872B907701F7044
:109410002A702C46EBE7B3689342E5D1B160E3E7ED
:10942000D160F3689342DFD1DDE7C368A34203D183
:109430004146FFF772FF0446636841461F702846A5
:1094400085F80090FFF77EFF2546E2E713B11A7812
:10945000002ADBD08368A34203D14146FFF772FFA5
:109460000446636841461F70284685F80090FFF760
:1094700054FFE9E7234601221A70BDE8F88308B5D6
:10948000FDF7C0FD014900F0F9B800BF2CCE0D007A
:109490007FB500241023CDE90234036800949E694F
:1094A0008DF8044015466B461268B0479DF80430AD
:1094B00003F00603062B03BF009B2B600120204610
:1094C00004B070BD0098904214BF01200620704780
:1094D00010B5034B0360044600F0CDF8204610BDE4
:1094E0006CCE0D0010B50446FFF7F2FF20460821B0
:1094F000FFF70DFF204610BD2DE9F0411F46DDE9C5
:109500000834DDF8188098450646154607D10799B6
:1095100000F0B4F818B165710020BDE8F08139465B
:10952000304600F0ABF80028F6D00123C4F80080E4
:109530002571A371F0E738B515461C4600F09EF87A
:1095400020B10823E36006232560237138BD73B57D
:1095500005460C4601921E4600F090F850B9032EC5
:1095600008D82368019A5B692946204602B0BDE805
:109570007040184702B070BD10B5034B036004463D
:10958000FFF7A6FF204610BDCCCE0D0010B5044657
:10959000FFF7F2FF20460C21FFF7B9FE204610BD71
:1095A000F7B5089F974205460E4614460AD0A868AC
:1095B00002680897156A31462246AC4603B0BDE8FA
:1095C000F04060471946019300F058F8019B0028CD
:1095D000EDD0062003B0F0BD2DE9F14F0D46194640
:1095E000DDE90A4BDDE90CA681461746984600F0F6
:1095F00045F890B1002D3460377109DB61198A4557
:109600000CBF06210121B171002001B0BDE8F08F2F
:109610000235F9D10123B371F6E7544506D1594615
:10962000484600F02BF808B17771EDE7D9F808004B
:109630000368CDE90CA6CDE90A4BDC693A464346FE
:109640002946A44601B0BDE8F04F60472DE9F0413E
:1096500007460C4615461E46FFF76DFF48B9B86829
:1096600003689F692A4633462146BC46BDE8F0415F
:109670006047BDE8F081704700207047814208B51F
:109680000ED0406803782A2B0CD049680B782A2B1F
:1096900008BF013100F023FFB0FA80F0400908BD97
:1096A0000120FCE70020FAE79FED010B704700BFA7
:1096B000000000000000F87F81F0004102E000BFE0
:1096C00083F0004330B54FEA41044FEA430594EA82
:1096D000050F08BF90EA020F1FBF54EA000C55EABD
:1096E000020C7FEA645C7FEA655C00F0E2804FEA8E
:1096F0005454D4EB5555B8BF6D420CDD2C4480EA70
:10970000020281EA030382EA000083EA010180EA9F
:10971000020281EA0303362D88BF30BD11F0004FED
:109720004FEA01314FF4801C4CEA113102D0404223
:1097300061EB410113F0004F4FEA03334CEA13335E
:1097400002D0524263EB430394EA050F00F0A78076
:10975000A4F10104D5F1200E0DDB02FA0EFC22FA71
:1097600005F2801841F1000103FA0EF2801843FA65
:1097700005F359410EE0A5F120050EF1200E012A56
:1097800003FA0EFC28BF4CF0020C43FA05F3C01894
:1097900051EBE37101F0004507D54FF0000EDCF10D
:1097A000000C7EEB00006EEB0101B1F5801F1BD3B6
:1097B000B1F5001F0CD349085FEA30004FEA3C0CBA
:1097C00004F101044FEA445212F5800F80F09A80B0
:1097D000BCF1004F08BF5FEA500C50F1000041EBB4
:1097E000045141EA050130BD5FEA4C0C404141EBB8
:1097F0000101013C28BFB1F5801FE9D291F0000FB3
:1098000004BF01460020B1FA81F308BF2033A3F161
:109810000B03B3F120020CDA0C3208DD02F1140C58
:10982000C2F10C0201FA0CF021FA02F10CE002F193
:109830001402D8BFC2F1200C01FA02F120FA0CFC8C
:10984000DCBF41EA0C019040E41AA2BF01EB0451D5
:10985000294330BD6FEA04041F3C1CDA0C340EDCD3
:1098600004F11404C4F1200220FA04F001FA02F316
:1098700040EA030021FA04F345EA030130BDC4F1D4
:109880000C04C4F1200220FA02F001FA04F340EAC9
:109890000300294630BD21FA04F0294630BD94F07A
:1098A000000F83F4801306BF81F480110134013D61
:1098B0004EE77FEA645C18BF7FEA655C29D094EAD2
:1098C000050F08BF90EA020F05D054EA000C04BF50
:1098D0001946104630BD91EA030F1EBF002100203B
:1098E00030BD5FEA545C05D14000494128BF41F0DA
:1098F000004130BD14F580043CBF01F5801130BD3E
:1099000001F0004545F0FE4141F470014FF00000C8
:1099100030BD7FEA645C1ABF194610467FEA655C79
:109920001CBF0B46024650EA013406BF52EA03351B
:1099300091EA030F41F4002130BD00BF90F0000F09
:1099400004BF0021704730B54FF4806404F1320445
:109950004FF000054FF0000150E700BF90F0000FFE
:1099600004BF0021704730B54FF4806404F1320425
:1099700010F0004548BF40424FF000013EE700BFF5
:1099800042004FEAE2014FEA31014FEA02701FBF85
:1099900012F07F4393F07F4F81F06051704732F0B7
:1099A0007F4208BF704793F07F4F04BF41F400210E
:1099B000704730B54FF4607401F0004521F000416C
:1099C0001CE700BF50EA010208BF704730B54FF0F6
:1099D00000050AE050EA010208BF704730B511F0F7
:1099E000004502D5404261EB41014FF4806404F12F
:1099F00032045FEA915C3FF4D8AE4FF003025FEAB5
:109A0000DC0C18BF03325FEADC0C18BF033202EB38
:109A1000DC02C2F1200300FA03FC20FA02F001FA92
:109A200003FE40EA0E0021FA02F11444BDE600BF35
:109A300070B54FF0FF0C4CF4E06C1CEA11541DBFE4
:109A40001CEA135594EA0C0F95EA0C0F00F0DEF8AF
:109A50002C4481EA030621EA4C5123EA4C5350EA94
:109A6000013518BF52EA033541F4801143F48013E5
:109A700038D0A0FB02CE4FF00005E1FB02E506F076
:109A80000042E0FB03E54FF00006E1FB03569CF0CB
:109A9000000F18BF4EF0010EA4F1FF04B6F5007FD1
:109AA00064F5407404D25FEA4E0E6D4146EB060643
:109AB00042EAC62141EA55514FEAC52040EA5E50CC
:109AC0004FEACE2EB4F1FD0C88BFBCF5E06F1ED876
:109AD000BEF1004F08BF5FEA500E50F1000041EBAD
