:02000002D0002C
:1040000000400D00ACD30D00000006000D000501BE
:084010000401BD0B00000000DB
:0440180050C20D0085
:1040200009480A49884208B505D0094A824202D0A7
:10403000121A06F0CFF90748074A0021121A06F0B3
:10404000F1F9014808BD00BF60E203209CD10D00DA
:1040500048E4032048E40320F0E7032070B5074E4E
:10406000074C05F087F8A41BA4080025A54200D141
:1040700070BD56F8043B98470135F7E754D10D0061
:104080008CD10D0000F014B908B500F001FABDE8BC
:10409000084005F031B802F099BF02F097BF02F076
:1040A0009DBF02F09BBF0078B0FA80F040097047D6
:1040B00001230370704700002DE9F84F10EE100A3D
:1040C0002DED028BB0EE608AF0EE408A05F06CFCBC
:1040D000064618EE100A0F4605F066FC68EEA87A50
:1040E000824617EE900A8B4605F05EFC68EE087A71
:1040F000044617EE900A0D4605F056FC46A3D3E998
:10410000002341EC180B3046394605F0A5FC44A3CA
:10411000D3E9002305F0E8FA43A3D3E9002380465E
:1041200089465046594605F097FC02460B464046E4
:10413000494605F0DBFA3EA3D3E9002380468946D1
:104140003046394605F088FC52465B4605F084FC53
:1041500002460B464046494605F0C8FA36A3D3E965
:104160000023804689462046294605F075FC024614
:104170000B464046494605F0B9FA31A3D3E900237E
:104180008046894651EC180B05F066FC02460B464A
:104190004046494605F0AAFA2BA3D3E900238046FE
:1041A00089462046294605F057FC52465B4605F0F5
:1041B00053FC02460B464046494605F097FA24A3B5
:1041C000D3E90023804689463046394605F044FC51
:1041D00053EC182B05F040FC02460B46404649467E
:1041E00005F084FA1CA3D3E9002306460F462046B7
:1041F000294605F031FC53EC182B05F02DFC024646
:104200000B463046394605F071FABDEC028B41ECA5
:10421000100BBDE8F88F00BFECD8CE1862640040E8
:104220008D976E1283304540CD495AB7624924407C
:10423000F847C607C9C4CCBFCC169C03FC017CBFA1
:10424000248CD100FF10ACBFE5DC6087B521543F62
:10425000DA303301F9F14B3F01BDD3117EB1C0BE5D
:10426000FFF72ABF13B5054B1B788DF800303C23B0
:10427000044603F0A3F8204602B010BD4CE403202E
:104280000EB410B58DB00FAA016852F8044B03921A
:1042900000232020CDE90403CDE900421E2004AA1A
:1042A00002F0C8FD0DB0BDE8104003B0704700003B
:1042B00010B58AB004F098FE4FF4165104F088FE51
:1042C00004F092FE2749284C03F071FE274800F0C5
:1042D00023FB274800F004FE04F0FEFF03F060FA21
:1042E000204600F033FE204600F092FE204600F00B
:1042F000F4FE204600F03CFE00222046022100F0A1
:1043000042FE20461B4900F0A4FE00222046032165
:1043100000F039FE2046184900F09BFE002220469E
:10432000042100F030FE1549204600F092FE02A85C
:1043300002F0CCFD02A906A803F038FF104906A838
:1043400003F096FF0023CDE900330E4900681A46BA
:1043500002F0CCFD06A803F0CFFE02A803F0CCFECD
:104360000AB010BD64C20D0080E4032050E40320B5
:1043700064E4032078C20D007FC20D0070C20D00FE
:1043800084C20D00ED460D0070B52D4C064620464A
:104390000D4600F03DFE00222046012100F0F3FD15
:1043A0002046284900F055FE3146274E204600F0B1
:1043B0005DFE3146204600F04CFE002220460221E0
:1043C00000F0E1FD2046214900F043FE2946204D42
:1043D000204600F04BFE2946204600F03AFE00221F
:1043E0002046042100F0CFFD20461A4900F031FE9E
:1043F000194BD3ED007AFDEEE77A204617EE901ABE
:1044000000F034FE3146204600F023FE0022204614
:10441000052100F0B8FD2046104900F01AFE104BAF
:10442000D3ED007AFDEEE77A204617EE901A00F001
:104430001DFE29462046BDE8704000F00ABE00BFC0
:1044400080E4032099C20D0068C30D00A7C20D00CF
:10445000B5C20D00B7C20D006CE20320C5C20D004D
:1044600068E2032038B5046805467CB16368013B07
:1044700063605BB9236820469B689847A368013B4B
:10448000A3601BB923682046DB689847284638BDDF
:1044900030B52DED048B4CF2503089B002F0D6FDD2
:1044A000784800F069FC7748B0EE408A00F026FCBE
:1044B000B4EE488AF1EE10FAF0EE408A04D6B4EE7B
:1044C000400AF1EE10FA08D704F08EFD6E4903F0B1
:1044D0006EFD09B0BDEC048B30BD6C4C02F0FAFAF5
:1044E0002368C01A6A4B98420FD902F0F3FA694B5D
:1044F00020601B788DF8003004A867493C23002217
:1045000002F05CFF05A8FFF7ADFF644D644CA542C7
:1045100006D9002363480093FF22194600F098FC57
:10452000A54207D2FF23009300235E481A4619468E
:1045300000F08EFC5C4D5D4C286805F035FA41ECCE
:10454000190B206805F030FAB0EE491AF0EE691A3E
:10455000FDEEC87A41EC100B17EE901AFDEEE87AEA
:1045600017EE900AFFF710FFB0EE680A5049514865
:1045700002F083FAB0EE480A4F494E4802F07DFA45
:1045800094ED000A4D494B4802F077FA95ED000A88
:104590004B49484802F071FAF0EE480AB0EE680A5A
:1045A000FFF78AFD51EC100BB0EE409AF0EE609AE6
:1045B00005F00CFD434900EE100A3E4802F05DFA9A
:1045C000D5ED000A94ED000AFFF776FD51EC100BD3
:1045D00005F0FCFC3C4900EE100A364802F04DFAAA
:1045E0003A4B34481A783A4B196802F04FFAB0EE59
:1045F000680A062104A803F0F6FD049A354902A8CA
:10460000FFF730FE03A8FFF72DFF04A803F074FDA9
:10461000B0EE480A062104A803F0E5FD049A2E49ED
:1046200002A8FFF71FFE03A8FFF71CFF04A803F072
:1046300063FDB0EE490AF0EE690A062104A803F012
:10464000ECFD049A1F4902A8FFF70CFE03A8FFF730
:1046500009FF04A803F050FDD5ED000A94ED000A0F
:10466000FFF72AFD062104A803F0D7FD049A164996
:1046700002A8FFF7F7FD03A8FFF7F4FE04A803F074
:104680003BFD26E750E40320D3C20D0064E2032083
:104690009FBB0D004DE40320F2C20D0061420D00EE
:1046A000B9400D0064E4032068E203206CE20320BB
:1046B00005C30D006CE4032011C30D0021C30D00E0
:1046C0002EC30D003FC30D0051C30D004CE4032069
:1046D00060E2032064C30D006AC30D000B68036031
:1046E00013B15A6801325A6070470000F0B50A46AB
:1046F00091B00C4648484949494D4A4EFFF7C0FD24
:10470000204605F008FF2146024603A803F000FBFF
:10471000059C039B069304A907A8FFF7DFFF06AAE1
:1047200021460AA803F0B4FA07A8FFF79BFE3E4F04
:104730000AA803F0C5FA002866D00D9C0A9B0193D5
:104740000BA902A8FFF7CAFF214601AA06A803F099
:104750007BFA02A8FFF786FE0898294605F0ABFE13
:10476000044607A8FFF77EFECCB90E9C0A9B019376
:104770000BA902A8FFF7B2FF01AA214606A803F081
:104780001FF902A8FFF76EFE06A803F051F951ECDD
:10479000100B05F01BFC306007A8FFF763FE0D9CB3
:1047A0000A9B01930BA902A8FFF798FF214601AAD3
:1047B00006A803F049FA02A8FFF754FE0898394604
:1047C00005F079FE044607A8FFF74CFE002CAFD198
:1047D0000E9C0A9B01930BA902A8FFF77FFF01AA79
:1047E000214606A803F0ECF802A8FFF73BFE06A856
:1047F00003F01EF951EC100B05F0E8FB0B4B1860B1
:1048000007A8FFF72FFE92E70BA8FFF72BFE04A8DF
:10481000FFF728FE11B0F0BD58E6032070C30D006D
:1048200087C30D006CE203208CC30D0068E20320F7
:10483000134B1449002270B51A70134C134B144DCE
:1048400001261E700322204602F0F6F82A4611497E
:104850002046114C04F068FD06230B2213210F485B
:1048600000F053F8334609220A21204600F086FA68
:104870002A4620460A49BDE8704004F055BD00BFF5
:104880004CE4032090C30D006CE403204DE40320AE
:1048900048E40320556A0D0064E4032050E403203B
:1048A000974D0D0010B503682F2B044604D9074A15
:1048B00000210A2002F09EFA23681F2B83BF03F019
:1048C0001F03034823604FF0A04010BDC56A0D00D0
:1048D0000003005007B5019001A8FFF7E3FF019A1C
:1048E00001239340C0F8083503B05DF804FB07B519
:1048F000019001A8FFF7D6FF019BD0F81005D84022
:1049000000F0010003B05DF804FB10B50372012351
:104910008171C271037410BD2DE9F04105461E4C32
:104920008079DFF87880002104F094FCAE79237858
:10493000BFF35B8F13F0010F0AD12046FFF7B3FBE3
:1049400030B102F0CFF8C8F800002046FFF7B0FB06
:10495000D8F8003036019F5D2378BFF35B8FDB070B
:104960004FEA47170AD40C48FFF79DFB30B102F01D
:10497000B9F8C8F800000848FFF79AFBD8F80030EB
:1049800033445B7803F01F0343EA0700FFF7A2FFFD
:104990000023EB60BDE8F08178E403207CE4032091
:1049A0002DE9F04F044685B002F094F8E3688342A5
:1049B00084BF0023E360237C2BB9E368C01AB0F501
:1049C000FA6FC0F060810025257402F083F8B04EC4
:1049D00025602571E060A7793378AE4DBFF35B8F1A
:1049E00013F0010F09D13046FFF75DFB28B102F04B
:1049F00079F828603046FFF75BFB2B683F0113F81E
:104A000007803378BFF35B8FD9074FEA481809D482
:104A10009F48FFF748FB28B102F064F828609C48E3
:104A2000FFF746FB2B681F44787800F01F0040EA30
:104A30000800FFF74FFFFA2002F008FBA0790121E0
:104A400004F008FCA7793378BFF35B8FDA0709D449
:104A50008F48FFF728FB28B102F044F828608C4803
:104A6000FFF726FB2B683F01DB5D4FEA43183378E5
:104A7000BFF35B8FDB0709D48548FFF714FB28B130
:104A800002F030F828608248FFF712FB2B681F44C1
:104A900003A87B7803F01F0343EA08030393FFF79F
:104AA00001FF039A01239340C0F80C35142002F053
:104AB000CDFA02F089FEA7793378BFF35B8FD80770
:104AC00009D47348FFF7EFFA28B102F00BF8286019
:104AD0006F48FFF7EDFA2B683F0113F80780337832
:104AE000BFF35B8FD9074FEA481809D46848FFF72E
:104AF000DAFA28B101F0F6FF28606548FFF7D8FA26
:104B00002B681F44787800F01F0040EA0800FFF788
:104B1000E1FE282001F0D6FFA079DFF874810021A2
:104B200004F098FB00270123BA4600934FF00009D8
:104B300094F806B03378BFF35B8FDA0709D44046A8
:104B4000FFF7B1FA28B101F0CDFF28604046FFF72A
:104B5000AFFA2B684FEA0B1B13F80B305B01019384
:104B60003378BFF35B8FDB0709D44046FFF79BFA2E
:104B700028B101F0B7FF28604046FFF799FA2B688B
:104B80005B4493F801B0019B0BF01F0B4BEA030B46
:104B90005846FFF7ACFE5846FFF7A9FE009B83423C
:104BA00009D109F101095FFA89F9012001F08AFFB1
:104BB000B9F1FF0FBCD194F806B03378BFF35B8F27
:104BC000D80709D44046FFF76EFA28B101F08AFFF2
:104BD00028604046FFF76CFA2B684FEA0B1B13F86E
:104BE0000B305B0100933378BFF35B8FD90709D497
:104BF0004046FFF758FA28B101F074FF286040469C
:104C0000FFF756FA2B685B4493F801B0009B0BF05A
:104C10001F0B4BEA030B5846FFF769FE5846FFF798
:104C200066FEB9F1FF0FC3B2009318D0032F11D95C
:104C3000FA070FD44FEADA020AF1010AA35C5B001B
:104C4000DBB2A354217A49453CBF43F00103A3548E
:104C50005FFA8AFA0137FFB2552F7FF467AF02F08F
:104C6000B5FDBAF1270F10D9637820781844A378DE
:104C70001844E37818442379C0B2C31A5842584103
:104C800005B0BDE8F08F0120FAE70020F8E700BF8B
:104C900078E403207CE4032010B50446FFF780FE8F
:104CA00020B3E3790B2B1BD0153B012B1ED8A37827
:104CB000DFED106A03F07F0207EE102AE27807EEBC
:104CC000902AB8EEC77AF8EEE77A1B06E7EE267A66
:104CD000B2EE047A87EE870A07D5B1EE400A04E007
:104CE000A37800EE103AB8EE400A10BD9FED020A1C
:104CF000FBE700BF000080430000C07F08B5FFF75E
:104D0000CBFFF2EE027A20EE270AF1EE047A80EE73
:104D1000277A9FED020A37EE000A08BD0000004224
:104D200010B50446FFF73CFEF0B1E3790B2B15D02C
:104D3000153B012B18D82378DFED0D6A07EE103AEA
:104D4000637807EE903AB8EE477AF8EEE77AE7EE46
:104D5000267AB2EE047A87EE870A10BD237800EE39
:104D6000103AB8EE400AF8E79FED020AF5E700BFF7
:104D7000000080430000C07FFFF7D2BF10B504469B
:104D8000017042708370012103EB430005F00CFBBE
:104D90006060204610BD10B50446406802F01EF960
:104DA000204610BD10B500210446007804F063FAD7
:104DB000142001F087FE2078012104F05CFABDE8A0
:104DC0001040142001F07EBE70B506460C46082542
:104DD00023064CBF01210021707804F04CFA013DFC
:104DE0003046FFF7DFFF640015F0FF05E4B2EFD1B6
:104DF00070BD73B513F0800F1E460C46154614BFE8
:104E0000C021E021730658BF41F010012A0658BFA7
:104E100041F008016B0658BF41F00401220658BF5B
:104E200041F00201630658BF41F001010190FFF714
:104E3000CBFF01983146FFF7C7FF01982946FFF7DE
:104E4000C3FF0198214602B0BDE87040FFF7BCBF28
:104E50002DE9F04704460F460021904699469DF8FB
:104E600020A0FFF7B1FF00212046FFF7ADFF002192
:104E70002046FFF7A9FF00212046FFF7A5FF0026E7
:104E8000A378F5B2AB4219D905EB4500AF4200F16A
:104E9000010200F1020308D1616801F80080616835
:104EA00001F80290616801F803A06168CB5C8A5C3C
:104EB000095C2046FFF79DFF0136E1E7204600210F
:104EC000FFF782FF20460021FFF77EFF20460021EA
:104ED000FFF77AFF20460021BDE8F047FFF774BFD7
:104EE00073B504460121007804F0B4F9607801211B
:104EF00004F0B0F900252E46A378E9B28B4207D919
:104F0000002300961A462046FFF7A2FF0135F3E77B
:104F100002B070BD0368C9B29B68184710B504465B
:104F200004F0DAF93C2102F045FC04F0D5F98021C7
:104F3000FFF7F0FF04F0D0F9036821469B6898471B
:104F400004F0CAF9BDE8104002F03BBC08B5AE2041
:104F5000FFF7E4FF052002F079F8AF20FFF7DEFF4E
:104F6000052002F073F8BDE80840A620FFF7D6BF81
:104F700008B5012303702020FFF7D0FFBDE80840EB
:104F80000220FFF7CBBF10B550391446C8B2FFF767
:104F9000C5FFE00000F00800FFF7C0FFC4F34300C6
:104FA0001030BDE81040FFF7B9BF10B50C4604F053
:104FB00093F93C2102F0FEFB04F08EF94021FFF74B
:104FC000A9FF04F089F9036821469B68984704F01B
:104FD00083F9BDE8104002F0F4BB0000A1F120030A
:104FE0005F2B88BF202170B501F10051074D20399A
:104FF000064605EBC105082415F8011B3046013CA7
:10500000FFF7D3FF14F0FF04F6D170BDA0C30D006D
:1050100070B50546AE20FFF781FF00260022F1B2F1
:105020002846FFF7B0FF102420212846013CFFF757
:10503000D5FF14F0FF04F7D10136082EEED1AF20D2
:10504000FFF76CFF224621462846BDE87040FFF777
:105050009ABF70B506460D460024E3B20134E95C00
:1050600019B13046FFF7BAFFF7E770BDF0B585B06C
:1050700000230C1ECDE901330646ADF80C3024DACE
:105080002D21FFF7ABFF6442012300250A202A46A9
:1050900004A90A440135B4FBF0F100FB114402F805
:1050A0000C4CEDB20C460029F1D12B44DCB204AB20
:1050B0005F190D3F75B117F801193031C9B230468B
:1050C000013DFFF78BFFEDB2F4E7DED13021FFF7B2
:1050D00085FF0124204605B0F0BDA620FFF71EBFC6
:1050E00003681847012A03D0022A03D00020704722
:1050F0000160FBE70B680360F8E7000013B51C20B4
:10510000FEF7C9FF044648B1064B07491B680093E8
:105110000968064B42F2343201F078F8204602B0BA
:1051200010BD00BF0CE5032008E50320A0C60D005C
:1051300013B52020FEF7AFFF044640B1054B0649EA
:105140001B6800930968054B502200F05FFA204667
:1051500002B010BD0CE5032008E50320A0C60D0039
:1051600013B51C20FEF797FF044648B1064B0749CC
:105170001B6800930968064B42F2343201F0B0FB21
:10518000204602B010BD00BF0CE5032008E5032057
:10519000A0C60D0013B51420FEF77DFF044640B1F4
:1051A000054B06491B680093002309681A4600F066
:1051B00059FD204602B010BD0CE5032008E5032090
:1051C00010B5064B036064330446036103F004FC2E
:1051D000204603F0FBFC204610BD00BF24CD0D008F
:1051E00038B584690A4B036005467CB16368013BAE
:1051F00063605BB9236820469B689847A368013BBE
:10520000A3601BB923682046DB689847284638BD51
:10521000BCCC0D0010B58368044613B103220146CF
:105220009847204610BD000010B586B002AB029131
:10523000044693E803006A4682E8030094E803000A
:1052400083E8030092E80300A2680492064AA26081
:10525000E2680592054AE26084E803001846FFF719
:10526000D9FF204606B010BDE5500D00E1500D00FD
:1052700010B50446FFF7B4FF20461C2104F059F88E
:10528000204610BD10B50446FFF79AFF20464C217A
:1052900004F04FF8204610BD70B500F10801C26857
:1052A0000B463AB1157C0478A5422ABF1346D26852
:1052B0009268F6E7994204D000781A7C904238BF91
:1052C0000B46DA690AB904F0ECF8BDE870401A6AD6
:1052D00003F1140010478B6870B5164604460D1D87
:1052E00001225BB130781A7C904234BF9868D8684C
:1052F0001D4634BF012200220346F2E792B1CA687C
:10530000AA4203D1C4E90035204670BD284604F006
:105310006AF83378027C9A424FF00003F2D3C4E972
:105320000003F1E72846F4E72DE9F04300F1040813
:10533000856885B006468946444655B199F80030DF
:105340002A7C9A4236BFEB68AB6825462C461D4640
:10535000F3E7A04504D099F80020237C9A422ED28E
:105360002420FEF798FE99F8009080F81090002312
:10537000A045074600F11002C36125D173691BB136
:1053800031690B7C4B4509D3314602A8FFF7A3FFD7
:10539000DDE90241002951D0002C4DD188454BD088
:1053A000387C0B7C98422CBF0020012043460A46E3
:1053B000394604F01AF87369013373613C4604F10D
:1053C000140005B0BDE8F083237C01924B4518D949
:1053D000F3689C4209D0204604F005F8037C019A4A
:1053E0004B4505D2C36853B9044621461C46D1E754
:1053F000314602A8FFF76FFFDDE90234F5E72346E7
:10540000F3E71BD231698C420BD0204603F0D8FF62
:10541000037C019A4B45054605D9E36853B92146FB
:105420001D462C46B6E7314602A8FFF754FFDDE9DA
:105430000251F6E70146F4E70120B7E707F114004F
:10544000FFF7E8FE3846FEF72AFE2746B6E70000DB
:105450002DE9F341051D0026174600F10802C0E9B9
:105460000362C0E9052604468846067203700DF102
:105470000701012328468DF80730FFF755FF16492D
:10548000FFF7D2FE0DF1070128468DF80760FFF700
:105490004BFF1249FFF7C8FE02230DF10701284612
:1054A0008DF80730FFF740FF0D49FFF7BDFE0323DE
:1054B0000DF1070128468DF80730FFF735FF094940
:1054C000FFF7B2FE084BC3F80080084B20461F6070
:1054D00002B0BDE8F08100BFFD500D0031510D005C
:1054E00061510D0095510D0008E503200CE50320E6
:1054F00010B50E4C204603F02DF920460C4C0D4AF9
:105500000D4903F011FF204603F024F920460B4C0F
:10551000084A094903F008FF204603F037FB2046FC
:10552000044A0749BDE8104003F0FEBEECE4032046
:1055300084E4032048E40320E1510D00A0E40320AB
:10554000C1510D00017570470022011DC0E9022103
:10555000C0E904120271704770B506462DED028B4A
:10556000142001F033FD0546142001F02FFD044600
:10557000304604F0D0FF324600230238984214DD52
:1055800012F8011B0D293AD111780A2937D1517827
:105590000D2934D191780A2931D10433F11814221C
:1055A000284604F0D2FF00232B750A21284604F078
:1055B00075FF064628B30A21013004F06FFF00B3DF
:1055C0003146204604F081FF204604F0A4FF204429
:1055D000002300F8013C204604F0E2FE51EC100BE1
:1055E00004F0F4FC08EE100A204601F0F7FC28460F
:1055F00001F0F4FCB0EE480ABDEC028B70BD013343
:10560000BCE79FED018AF5E75F42A2CD30B5074DBB
:1056100005600025C0E901130575039B41F288353B
:1056200085610525C0E90332057730BDBCC80D0092
:105630002DE9F74FDFF88C80DFF88CA0DFF88CB015
:1056400004460D461746002640465FFA86F902F0EA
:1056500074FE88BB237F4B452ED9237DCBB103F04D
:10566000C3FC514602F090FC03F0BEFC294602F058
:105670008BFC03F0B9FC594602F086FC03F0B4FC45
:105680000A224946019002F09CFC019B184602F058
:1056900082FC0023BAB22946404603F07FF8237DFE
:1056A00023B103F0A1FC064902F081FC4FF47A70AB
:1056B00001F0CCFC0136C7E703B0BDE8F08F00BFB6
:1056C000DEC60D0010E50320B4C60D00CAC60D00ED
:1056D0002DE9F0414B1E0C4601F52F7205460021C5
:1056E00003F8011F9342FBD12B7D4BB103F07CFCEF
:1056F000144902F05CFC03F077FC134902F057FCFC
:10570000124F002640F2BB28384602F079FF70B1F4
:10571000384602F0AEFEA0552B7D2BB103F064FCA1
:105720000368A15D9B68984701364645ECD12B7D07
:1057300033B103F059FCBDE8F041054902F037BC34
:10574000BDE8F08103C70D00EFC60D0010E5032092
:1057500002C70D00F8B50E4F04460026384602F089
:105760004FFF054690B9A369B3420FDD012001F058
:105770006DFCA3690136B342F0DC207D28B103F053
:1057800033FC044902F013FC2846F8BD0120FCE775
:1057900010E503200EC70D00F8B50F4602694168F9
:1057A00004461D46FFF744FF784802F0C6FD064652
:1057B000002800F0E1807649744802F0E5FB3946A4
:1057C000724802F0E1FB7349704802F0DDFB724958
:1057D0006E4802F0D9FB61686C4802F0D5FB6F4956
:1057E0006A4802F0D1FB6E49684802F0CDFBA1681F
:1057F000664802F0C9FB6949644802F0C5FB694983
:10580000624802F0C1FBE168604802F0BDFB6349F9
:105810005E4802F0B9FB64495C4802F0B5FB63499D
:105820005A4802F0B1FB284604F075FE604906466E
:10583000564802F0A9FB0A223146544802F0C1FB47
:105840005C49524802F0A0FB2946504802F09CFBFC
:1058500052494E4802F098FB4C4802F06DFD237D02
:10586000002B69D003F0C0FB534902F0A0FB03F00A
:10587000BBFB474902F088FB03F0B6FB394602F058
:1058800083FB03F0B1FB434902F07EFB03F0ACFB6A
:10589000414902F079FB03F0A7FB616802F074FB59
:1058A00003F0A2FB3D4902F06FFB03F09DFB3C4976
:1058B00002F06AFB03F098FBA16802F065FB03F0BD
:1058C00093FB364902F060FB03F08EFB354902F092
:1058D0005BFB03F089FBE16802F056FB03F084FBFD
:1058E0002E4902F051FB03F07FFB2F4902F04CFBE5
:1058F00003F07AFB2D4902F047FB03F075FB2C49BE
:1059000002F042FB03F070FB0A22314602F059FB21
:1059100003F06AFB274902F037FB03F065FB2946D9
:1059200002F032FB03F060FB1C4902F02DFB03F098
:105930005BFB224902F03BFB2046FFF70BFF237D78
:105940002BB90124114802F0B5FE2046F8BD03F042
:105950004BFB1B490D4D02F02AFB284602F050FE7E
:105960000028EED0284602F084FD044603F03CFBFC
:10597000E1B202F00DFBF0E7247D002CE2D003F051
:1059800033FB104902F013FB3446DBE710E503203C
:1059900041C70D0059C70D0065C70D0089C80D002E
:1059A0006CC70D0079C70D0088C70D009CC70D009E
:1059B000BDC70D0087C80D00CEC70D00EAC70D009A
:1059C00008C80D0024C80D0070B52DED028B0446EB
:1059D00000230E46154641686648502202F0DEFE5E
:1059E000204661685022FFF723FE624802F0A5FCC2
:1059F000002800F0B68060495E4802F0C5FA3146E2
:105A00005C4802F0C1FA5D495A4802F0BDFA2946E5
:105A1000584802F0B9FA5A49564802F0B5FA5949BD
:105A2000544802F0B1FA5849524802F0ADFA6168A0
:105A3000504802F0A9FA55494E4802F0A5FA5449D7
:105A40004C4802F0A1FAA1684A4802F09DFA4F4979
:105A5000484802F099FA4F49464802F095FAE16841
:105A6000444802F091FA4949424802F08DFA4A4905
:105A7000404802F089FA237D002B4FD003F0B4FA9E
:105A80003D4902F081FA03F0AFFA314602F07CFAA8
:105A900003F0AAFA394902F077FA03F0A5FA294689
:105AA00002F072FA03F0A0FA354902F06DFA03F041
:105AB0009BFA344902F068FA03F096FA324902F090
:105AC00063FA03F091FA616802F05EFA03F08CFA6F
:105AD0002E4902F059FA03F087FA2D4902F054FAE0
:105AE00003F082FAA16802F04FFA03F07DFA274929
:105AF00002F04AFA03F078FA264902F045FA03F078
:105B000073FAE16802F040FA03F06EFA1F4902F0FE
:105B10003BFA03F069FA204902F036FA2046FFF713
:105B200019FE48B913489FED1D8A02F0C3FDB0EE7F
:105B3000480ABDEC028B70BD4FF42F7001F046FA9D
:105B4000014605462046FFF7C3FD2846FFF704FD42
:105B50000848B0EE408A02F0ADFD284601F03EFA5A
:105B6000E5E7237D002BDDD003F03EFA0C4902F07F
:105B70001EFAD7E710E503204EC80D0063C80D00DC
:105B800065C80D0059C70D0065C70D0089C80D0017
:105B90006CC70D0079C70D0069C80D005F42A2CD2A
:105BA0008CC80D0010B5054C204602F0D3FD2046F0
:105BB000034A0449BDE8104003F0B6BB10E50320DA
:105BC00048E40320E1510D009FED010A704700BF3A
:105BD0005F42A2CD017470470022011DC0E902217D
:105BE000C0E904120271704730B585B01A46089BAF
:105BF0001B788DF8003002A83C2301F0DFFB002069
:105C0000029C01F02FF920B1637813B901F04EF92D
:105C1000FAE76378BFF35B8F651CABB90025039C83
:105C20007CB16368013B63605BB9236820469B6875
:105C30009847A368013BA3601BB923682046DB6833
:105C40009847284605B030BD002001F00BF920B17F
:105C50002B7813B901F02AF9FAE72378012BDDD16B
:105C6000257BDCE710B5044C0460C0E90113002477
:105C7000029B0474C36010BDD4C80D0010B5044667
:105C8000006808B1FEF70DFAE06801F0A7F9606856
:105C900010B1042103F04DFB204610BD38B5044679
:105CA0000120607494F91000E56800EB800045F86D
:105CB000201094F91010E06801EB810100EB8101E4
:105CC00081ED020A94F91010E06801EB810100EB0C
:105CD00081014A6094F91020E16802EB820201EB35
:105CE0008202D36094F91030E26803EB830302EB85
:105CF0008303049A1A61237C01335BB20A2B237459
:105D000008DDA37C23B103F06FF9034902F04FF9DA
:105D10000A23237438BD00BFE4C80D0010B510EE8F
:105D2000100A86B00C4603F03FFE02460B4601A85F
:105D30000A4901F063F901A81422002310F8011B9D
:105D4000202906D0E1540133DBB211B9E15406B089
:105D500010BD013A12F0FF02F0D1F8E723C90D009F
:105D60002DE9F04F0C4689B04C49DFF85481DFF83B
:105D70005491DFF854A10546204604F0A6FB002606
:105D800095F910309E426ADAEB6806EB860B03EB5E
:105D90008B0393ED020A03A92846FFF7BFFFEB68C8
:105DA00003A9009153F82B3022464146204601F0CA
:105DB00025F9EB684FEA8B073B44DB6843B3224687
:105DC0004946204601F01AF9EB683B441B69002B59
:105DD00038D00A2093FBF0F191FBF0FC00FB1C1C77
:105DE00000FB1131C9B2642293FBF2F292FBF0FE88
:105DF00000FB1E2200915FFA8CF32949D2B202A85F
:105E000001F0FCF8274902AB2246204601F0F6F8E3
:105E1000EB681F447B6823B123492246204601F0EA
:105E2000EDF822462149204601F0E8F8013695F9BF
:105E30001030F6B29E4222460ADA1D49204601F091
:105E4000DDF89DE722465146204601F0D7F8DFE70E
:105E50001649204601F0D2F800232B7490E7AB7C62
:105E6000C3B103F0C1F8134902F0A1F803F0BCF884
:105E7000114902F09CF803F0B7F8214602F097F8B8
:105E800003F0B2F80B4902F092F803F0ADF80B49B9
:105E900002F08DF809B0BDE8F08F00BF28C90D00F1
:105EA00050C90D0057C90D0062C90D0071C90D0020
:105EB00075C90D0003C70D0079C90D008BC80D0011
:105EC0002AC90D003DC90D005CC90D002DE9F04F38
:105ED0000C46054689B05249DFF87481DFF87491A9
:105EE000204616461F4604F0F0FAAB684D4A4E496C
:105EF000204601F083F833464C490097224620465D
:105F000001F07CF84A49494F2246204601F076F8D4
:105F1000002695F910309E4264DAEB6806EB860B9A
:105F200003EB8B0393ED020A03A92846FFF7F6FE65
:105F3000EB6803A9009153F82B30224639462046DE
:105F400001F05CF8EB684FEA8B0A53445B6823B1BD
:105F500022464146204601F051F8EB685344DB6885
:105F60003BB322464946204601F048F8EB685344CB
:105F70001B6953B30A2093FBF0F191FBF0FC00FB8B
:105F80001C1C00FB1131C9B2642293FBF2F292FB9C
:105F9000F0FE00FB1E2200915FFA8CF32549D2B27D
:105FA00002A801F02BF8244902AB2246204601F05A
:105FB00025F895F910300136F6B29E4222460ADAEB
:105FC0001E49204601F01AF8A3E71D492246204643
:105FD00001F014F8EDE71B49204601F00FF800230B
:105FE0002B7496E7AB7CC3B102F0FEFF164901F0BB
:105FF000DEFF02F0F9FF154901F0D9FF02F0F4FFCE
:10600000214601F0D4FF02F0EFFF0F4901F0CFFF6E
:1060100002F0EAFF024901F0CAFF09B0BDE8F08FC3
:106020008BC80D00A0C60D0082C90D008EC90D00E1
:1060300096C90D0050C90D0057C90D0075C90D0056
:106040005CC90D00A8C90D0003C70D0079C90D007A
:106050009BC90D00A1C90D002DE9F74304464FF47B
:106060002F701E460F46904600F0B0FFE37C013BC8
:10607000012B054626D8014643463A462046FFF7FF
:1060800025FFA37C23B102F0AFFF114901F08FFF80
:10609000606803680096D3F8009039462B46424664
:1060A000C8470746284600F099FF1EB10121304637
:1060B00003F03FF9002307B163743846237403B03B
:1060C000BDE8F08301462046FFF74AFED9E700BF4E
:1060D000AFC90D0070B5044601200D461646FDF708
:1060E000DAFF067003462A4629462046BDE870407E
:1060F000FFF7B2BF70B505460C4684B1E16828468B
:10610000FFF7F8FFE369A66823B104F11401032245
:10611000084698472046FDF7C2FF3446EDE770BDBC
:10612000F0B58DB0044601A80D4617461E4600F096
:10613000CDFE03980130FDF7B0FF0199206004F017
:10614000C4F92A4633463946E67405A8FFF780F9B4
:10615000C82000F03BFFE06005A8FFF79DF8002392
:10616000C4E901050899237406A8FFF7C3FF01A835
:1061700001F0C2FF0DB0F0BD38B500250446058220
:10618000FFF7CEFF204638BD70B505460C464CB132
:10619000E1682846FFF7F8FFA6682046FDF77FFF75
:1061A0003446F4E770BD000010B5104B104C0022CF
:1061B0001A70204602F0CEFA20460E4C0E4A0F49C5
:1061C00003F0B2F8204602F0C5FA20460C4C0A4A09
:1061D0000A4903F0A9F8204602F0D8FC2046064AF6
:1061E0000849BDE8104003F09FB800BFB0E50320A8
:1061F00094E503202CE5032048E40320E1510D0041
:1062000048E50320C1510D000175704730B5064DBA
:106210000560C0E901130025039B057541F288352F
:10622000C0E90332856130BD5CCA0D002DE9F84F2D
:106230000D461746804602F0D7FE1E491E4EDFF877
:106240007CA0DFF87CB001F0B2FE0024304602F002
:1062500048FA60BB052C2AD098F81430C3B102F07C
:10626000C3FE514601F090FE02F0BEFE294601F049
:106270008BFE02F0B9FE594601F086FE02F0B4FE34
:106280000A228146214601F09CFE484601F083FE29
:10629000304602F00FFA0023BAB22946304602F027
:1062A0007DFA4FF47A7000F0D1FE0134CEE7BDE8FC
:1062B000F88F00BFBFC90D00B4E50320B4C60D00C0
:1062C000CAC60D0070B504460E4681682E481546B4
:1062D00001F05AFE2D492C4801F056FEE1682A488B
:1062E00001F052FE2A49284801F04EFE3146264868
:1062F00001F04AFE2749244801F046FE294622487B
:1063000001F042FE2449204801F03EFE237D002B8F
:1063100038D002F069FE214901F049FE02F064FE26
:106320001F4901F044FE02F05FFEA16801F02CFE5F
:1063300002F05AFE154901F027FE02F055FEE16811
:1063400001F022FE02F050FE114901F01DFE02F0A4
:106350004BFE314601F018FE02F046FE0D4901F0F9
:1063600013FE02F041FE294601F00EFE02F03CFE53
:10637000094901F009FE02F037FEBDE87040094905
:1063800001F015BE70BD00BFB4E50320D7C90D00F4
:10639000DAC90D0080C90D00AAC90D00F2C90D00AF
:1063A000DCC90D00F1C90D00F8B50E4F04460026FA
:1063B000384602F025F9054690B9A369B3420FDDCE
:1063C000012000F043FEA3690136B342F0DC207DDA
:1063D00028B102F009FE044901F0E9FD2846F8BDA4
:1063E0000120FCE7B4E503200EC70D002DE9F047BE
:1063F000037D0646884614464BB102F0F5FD274959
:1064000001F0D5FD02F0F0FD254901F0D0FDDFF8E7
:10641000A490002540F2BB2A484602F0F1F878B17A
:10642000484602F026F8337DC7B22BB102F0DCFDFE
:10643000036839469B689847675501355545EBD148
:10644000337D23B102F0D0FD164901F0B0FD0023E9
:1064500063551549404604F02EF868B913492046A3
:1064600004F086F89FED120A0028F7EE007A18BFB4
:10647000B0EE670ABDE8F0877C21204604F00EF8F4
:1064800048B1013003F08CFF51EC100B03F09EFD7E
:1064900000EE100AEEE79FED060AEBE703C70D00DA
:1064A000EFC60D0002C70D00F7C90D00FCC90D00B5
:1064B0005F42A2CDB4E5032070B52DED028B0446FA
:1064C0004168224842F234321D46002302F066F948
:1064D0002046616842F23432FFF7A8FE1B4801F003
:1064E0002CFF48B32946194801F04EFD2046FFF71E
:1064F0005BFF054638B9154802F0DCF80025BDEC15
:10650000028B284670BD642000F060FD10490246F1
:1065100006462046FFF76AFF3046B0EE408A00F09C
:106520005DFDDFED0C7AB4EE678AF1EE10FAE2D091
:10653000064802F0BFF8E2E7237D002BDBD002F033
:1065400053FD054901F033FDD5E700BFB4E5032055
:10655000F7C90D005F42A2CDFFC90D0070B52DED4A
:10656000028B044600230D46164641681E4842F23F
:10657000343202F013F92046616842F23432FFF7F8
:1065800055FE194801F0D9FE28B320463246294667
:10659000FFF798FE2046FFF707FF48B912489FED26
:1065A000138A02F087F8B0EE480ABDEC028B70BD8A
:1065B0004FF42F7000F00AFD0D49024605462046B3
:1065C000FFF714FF0848B0EE408A02F073F828463F
:1065D00000F004FDE7E7237D002BDFD002F004FD8F
:1065E000044901F0E4FCD9E7B4E503205F42A2CD01
:1065F0001DCA0D0020CA0D002DE9F04704461820E1
:1066000015460F46FDF747FD07F1040A6B68D5F8FC
:106610000090BA6843610646C0F8109055460123C1
:1066200052B113694B45CCBF9168D1681546CCBFB8
:10663000012300230A46F3E7A3B1FB68AB4223D052
:10664000284602F0D0FE8046D8F810304B451BDBC0
:106650003046FDF724FDC4F8008000232371204656
:10666000BDE8F087A846EFE728698145ACBF002068
:10667000012053462A46314602F0B7FE7B69266068
:1066800001337B610123E9E7AA45EDD10120F0E761
:106690002DE9FF470D4604464FF42F7000F096FC9D
:1066A0002B7D07464BB102F09FFC3A4901F07FFC7D
:1066B00002F09AFC384901F07AFCDFF8F0900026ED
:1066C00040F2BB2A484601F09BFF88B1484601F0E2
:1066D000D0FE2B7D5FFA80F82BB102F085FC0368B9
:1066E00041469B68984707F8068001365645E9D130
:1066F0002B7D23B102F078FC284901F058FC0025DD
:10670000231DC4E90253C4E90435254925713846DF
:10671000BD5504F077FDDFF89890DFF898A0DFF81A
:10672000808006467EB34946304603F0C4FE00BB77
:10673000414604F067FD1B49064603F0BCFE18B94C
:10674000194B0095019308E0304603F029FE51EC07
:10675000100B009503F03AFC01906A46214602A80E
:10676000FFF74AFF4146002004F04CFD0135064684
:10677000D8E75146304603F09EFE0028F2D141464C
:1067800004F040FDDCE7384600F028FC204604B069
:10679000BDE8F08703C70D00EFC60D0002C70D006E
:1067A000DAC90D0046CA0D005F42A2CDB4E5032050
:1067B000FCC90D004BCA0D002DE9F041071D98469C
:1067C0000023C0E90237C0E9047303710D4688B0A5
:1067D0004968044616462E4842F2343201F0DEFF84
:1067E0002846696842F23432FFF720FD284801F05C
:1067F000A4FD10B3314642462846FFF763FD284604
:10680000FFF7D2FD0646C0B92148224F01F052FFE2
:106810002149404604F0F6FC35461F4E002832D090
:10682000214602A86A4600950197FFF7E5FE31462A
:106830000020013504F0E6FCF0E7294602A8FFF746
:1068400027FFA1682046FFF79FFC049A0023C4E9B4
:106850000237C4E904737AB19DF80C1021710599CF
:10686000E1600699A26021615760079A626103AAFC
:10687000CDE905220493079302A80499FFF784FC4D
:10688000034801F017FF204608B0BDE8F08100BFC3
:10689000B4E503205F42A2CD77C90D0010B5054CC9
:1068A000204601F057FF2046034A0449BDE8104046
:1068B00002F03ABDB4E5032048E40320E1510D00A5
:1068C0009FED010A704700BF5F42A2CD017570477E
:1068D0000022011DC0E90221C0E9041202717047C3
:1068E00030B5064D0560C0E901130025039B057511
:1068F00041F28835C0E90332856130BD20CB0D00FF
:1069000010B5054C204602F041F92046034A0449DF
:10691000BDE8104002F008BDD0E5032048E40320A4
:10692000C1510D0010B504464A68024901F08AFAC7
:10693000204610BD20E60320F0B58FB00146064684
:1069400002A81F46FFF7EEFF02A800F09BFFA0B9C8
:10695000337D23B102F048FB274901F028FBF323E4
:10696000009337223D23A92108A809AD00F0AEFF0E
:106970000FCD03AC0FC42B682370002240F2BD2161
:106980001E4802F035F9002242F234311B4801F072
:10699000D7FF03AD1A4B08930FCD09AC0FC42B687A
:1069A0001648237042F2343208A902F03DF958B972
:1069B000337D23B102F018FB124901F0F8FA0F48B9
:1069C00002F00AF8002014E0002FF1D0384603F05E
:1069D000A2FD39460246094802F00CF80028E7D02B
:1069E000064802F067F80028E2D0044801F0F4FFFE
:1069F00001200FB0F0BD00BF6CCA0D00D0E5032030
:106A000018CC0D00F8CA0D0073B50372044650206F
:106A1000CDE900211E4600F0D9FA60601420FDF790
:106A20003AFB054620B1DDE900213346FFF7A4FB20
:106A3000256002B070BD000038B50025044613463D
:106A400045728572024AFFF7DFFF204638BD00BF5E
:106A500030CB0D0038B50446406800F0BFFA256819
:106A600035B12846FFF70AF91421284602F061FCE7
:106A7000204638BD0068FFF711B907B50023009321
:106A80001A46FFF7F7FF03B05DF804FB0068FFF755
:106A900021BB000008B5024B1B685B6C019308BD6D
:106AA0004802030008B5024B1B689B6C019308BDAC
:106AB0004802030008B5024B1B685B68019308BDE0
:106AC0001802030008B5024B1B68DB68019308BD80
:106AD0001802030008B5024B1B685B69019308BDEF
:106AE0001802030008B5024B1B681B68019308BD20
:106AF0002C02030008B5024B1B689B68019308BD7C
:106B00002C02030008B5024B1B68DB68019308BD2B
:106B10002C02030008B5024B1B681B69019308BDDA
:106B20002C02030008B5024B1B681B6A019308BDC9
:106B30002C02030008B5024B1B685B6A019308BD79
:106B40002C02030008B5024B1B68DB68019308BDEB
:106B50002802030008B5024B1B689B69019308BD1E
:106B60002802030008B5024B1B68DB69019308BDCE
:106B70002802030008B5024B1B681B6A019308BD7D
:106B80002802030008B5024B1B685B6A019308BD2D
:106B90002802030008B5024B1B689B6A019308BDDD
:106BA0002802030008B5024B1B68DB6A019308BD8D
:106BB0002802030008B5024B1B681B6B019308BD3C
:106BC0002802030008B5024B1B685B6B019308BDEC
:106BD0002802030008B5024B1B681B6C019308BD1B
:106BE0002802030008B5024B1B685B69019308BDCE
:106BF0006C02030008B5024B1B685B69019308BD7A
:106C00006402030008B5024B1B681B6A019308BDB0
:106C10006402030008B5024B1B685B6A019308BD60
:106C20006402030008B5024B1B689B6A019308BD10
:106C30006402030008B5024B1B689B68019308BD02
:106C40006802030008B5024B1B68DB68019308BDAE
:106C50006802030008B5024B1B685B68019308BD1E
:106C60003802030008B5024B1B689B69019308BDFD
:106C70003802030008B5024B1B68DB69019308BDAD
:106C80003802030008B5024B1B681B6A019308BD5C
:106C90003802030008B5024B1B689B6A019308BDCC
:106CA0003802030008B5024B1B68DB6A019308BD7C
:106CB0003802030008B5024B1B681B6B019308BD2B
:106CC0003802030008B5024B1B685B6B019308BDDB
:106CD0003802030008B5024B1B689B6B019308BD8B
:106CE0003802030008B5024B1B68DB69019308BD3D
:106CF0003002030008B5024B1B681B6A019308BDF4
:106D00003002030008B5024B1B681B68019308BDE5
:106D10003C02030008B5024B1B68DB68019308BD09
:106D20003C02030008B5024B1B681B69019308BDB8
:106D30003C02030008B5024B1B685B69019308BD68
:106D40003C02030008B5024B1B689B69019308BD18
:106D50003C02030008B5024B1B68DB69019308BDC8
:106D60003C02030008B5024B1B681B6A019308BD77
:106D70003C02030008B5024B1B689B6A019308BDE7
:106D80003C02030008B5024B1B681B68019308BD59
:106D90004C02030008B5024B1B685B68019308BDF9
:106DA0004C02030008B5024B1B681B69019308BD28
:106DB0004C02030008B5024B1B685B69019308BDD8
:106DC0004C02030008B5024B1B689B69019308BD88
:106DD0004C02030008B5024B1B68DB69019308BD38
:106DE0004C02030008B5024B1B681B6A019308BDE7
:106DF0004C02030008B5024B1B685B6B019308BD96
:106E00006002030008B5024B1B689B6B019308BD31
:106E10006002030008B5024B1B68DB6B019308BDE1
:106E20006002030008B5024B1B681B6D019308BD8F
:106E30006002030008B5024B1B685B6D019308BD3F
:106E40006002030008B5024B1B685B68019308BD34
:106E50002002030008B5024B1B685B69019308BD63
:106E60002002030008B5024B1B68DB6C019308BDD0
:106E70002002030008B5024B1B685B6D019308BD3F
:106E80002002030008B5034B1B68D3F88830019338
:106E900008BD00002002030008B5034B1B68D3F8AF
:106EA0009430019308BD00002002030008B5024B96
:106EB0001B689B68019308BD4402030008B5024BA0
:106EC0001B685B69019308BD4402030008B5024BCF
:106ED0001B68DB69019308BD4402030008B5024B3F
:106EE0001B681B6A019308BD4402030008B5024BEE
:106EF0001B685B6A019308BD4402030008B5024B9E
:106F00001B68DB6B019308BD4402030008B5024B0C
:106F10001B685B68019308BD4002030008B5024B83
:106F20001B689B68019308BD4002030008B5024B33
:106F30001B68DB68019308BD4002030008B5024BE3
:106F40001B681B69019308BD4002030008B5024B92
:106F50001B685B69019308BD4002030008B5024B42
:106F60001B689B69019308BD4002030008B5024BF2
:106F70001B68DB69019308BD4002030008B5024BA2
:106F80001B681B6A019308BD4002030008B5024B51
:106F90001B681B6B019308BD4002030008B5024B40
:106FA0001B685B6B019308BD4002030008B5024BF0
:106FB0001B681B6C019308BD4002030008B5024B1F
:106FC0001B685B6C019308BD4002030008B5024BCF
:106FD0001B681B68019308BD1C02030008B5024B27
:106FE0001B685B68019308BD1C02030008B5024BD7
:106FF0001B689B68019308BD1C02030008B5024B87
:107000001B68DB68019308BD1C02030008B5024B36
:107010001B68DB6A019308BD1C02030008B5024B24
:107020001B681B6B019308BD1C02030008B5024BD3
:107030001B68DB6B019308BD1C02030008B5024B03
:107040001B685B6C019308BD1C0203000021FFF765
:1070500001BF10B5836804460BB902F022FAC36879
:107060009847A3681BB10322214620469847204633
:107070001021BDE8104002F05CB910B5044600686C
:1070800008B1FFF70FFD204610BD13B50B460246B1
:10709000D0E900016C4684E8030093E8030082E82D
:1070A000030094E8030083E8030002B010BD000071
:1070B00010B5064C002320462360FFF7EBFC20466A
:1070C000034A0449BDE8104002F02EB91CE6032033
:1070D00048E403207B700D00002240681146FFF752
:1070E0002DBF002240681146FFF748BF00224068CC
:1070F0001146FFF753BF40680022FFF747BF4068C3
:10710000002281F00101FFF731BF002340681A46D9
:107110001946FFF723BF002340681A461946FFF7B8
:1071200015BF002240681146FFF7F8BE40680022F4
:107130000221FFF7FBBE002340681A46FFF7E6BEB8
:10714000084B10B5282422461846002103F06AF99E
:10715000054B04804FF0FF32426004225A60034A1C
:107160001A6010BD28E6032020E603205CCB0D004A
:1071700070470020704710B51021044602F0D9F87E
:10718000204610BD08B5FFF7F6FF08BD30B5002258
:107190004FF69C74026084808D888C800C6885809A
:1071A00004600A6030BD10B504460068FFF716FFA2
:1071B000204610BD38B5C468F4B12378022B03D142
:1071C00004F10C00FFF7EFFF656835B12846FEF7C4
:1071D00021F81021284602F0ACF8A56835B1284600
:1071E000FEF718F81021284602F0A3F820461421D3
:1071F000BDE8384002F09DB838BD73B50E46044670
:1072000056F8043B00930D4601A83146FDF766FA97
:10721000019A009B6260236001A800230193009300
:10722000FDF720F93046FDF71DF92846082102F048
:1072300080F8204602B070BD826810B50AB902F02D
:1072400030F9BDE81040C368184708B5006800F180
:107250001001FFF7F1FF08BD826810B50AB902F00E
:1072600020F9BDE81040C368184708B5006800F170
:107270001001FFF7F1FF08BD38B500230446036095
:1072800010200D46FCF707FF28B10123C0E90133A8
:10729000024B0360C5602060204638BD98CB0D00CE
:1072A00038B5002383608B6804460D462BB102225B
:1072B0009847EB68E360AB68A360204638BD0000E8
:1072C000F0B589B004686846FFF760FF4FF002032D
:1072D000D4E84F2F002A03D1C4E8413F0029F7D159
:1072E00025D104F10C0569462846FFF74FFFBFF38F
:1072F0005B8F01236370002004F10803BFF35B8FF1
:1073000053E8006F43E80002002AF9D1BFF35B8F16
:107310006EB1FFF7A7FD78B129463046FFF78CFF25
:107320003046FDF777FF1021304602F002F868463C
:10733000FFF739FF09B0F0BD314602A8FFF7B0FFF3
:10734000E068B4F9105008B103F0C8F806901020B6
:10735000ADF81C50FCF79FFE0546E8B1002787609A
:107360001820FCF798FE044688B10146876002A801
:10737000FFF78BFE049BA268A360059B049206A9FD
:10738000E268E36004F110000592FFF7FFFE084B8E
:10739000EB60084B2C60AB6006A8FFF704FF02A867
:1073A000FDF738FF002229460348FFF763FDB7E7E2
:1073B0004B720D00E1740D0053700D002DE9F04784
:1073C0008AB005469DF848900C4617469846FFF748
:1073D00075FD07AE824638BB4FF62E73059005A9A2
:1073E0003046ADF81830FFF7D1FE1420FCF753FEFD
:1073F000044648B1022303700123C0E901AA437087
:1074000031460C30FFF7C2FE2846214640F8044BB7
:10741000FFF732FF3046FFF7C6FE05A8FFF7C3FEB1
:1074200028460AB0BDE8F0870C234FF0000A14206C
:10743000CDE908AA0793FCF72EFE014628B1C0E962
:1074400001AA80F800A080F801A004A80391FFF72A
:1074500013FF224B08930820FCF71DFE824628B13B
:10746000039B40F8043B04A9FDF738F900965FFA46
:1074700089F3424639462046CDF824A0FFF72EFD79
:10748000B8B9039B5B7803F0FF0293B94FF69C7386
:1074900005A903A80592ADF81830FFF711FF05A85C
:1074A000FFF781FE05A80999FFF7A7FE06A8FCF7DC
:1074B000D9FF039B059304A906A8FDF70FF9059BC7
:1074C000069A2B606A60002306A806930593FCF7D2
:1074D000C9FF04A8FCF7C6FFA2E700BFA5750D0011
:1074E000022AF8B5054607D0032A18D0012A01D18F
:1074F0000B6803600020F8BD18200E68FCF7CBFD78
:10750000044650B13146FFF7CBFE3069B6F914702E
:1075100008B102F0E3FF2061A7822C60EAE704686B
:10752000002CE7D004F11000FFF73DFE2046FDF7E8
:1075300071FE1821204601F0FCFEDBE738B5002380
:1075400083608B6804460D462BB102229847EB6896
:10755000E360AB68A360204638BD022A70B50446DC
:1075600007D0032A12D0012A01D10B680360002042
:1075700070BD14200E68FCF78EFD054620B1314623
:10758000FFF7DCFF337C2B742560F0E70468002CE8
:10759000EDD02046FDF73EFE1421204601F0C9FE45
:1075A000E5E70000F0B589B004460D4601A8114694
:1075B000FFF723FEA4B124B21DB1284602F08EFFCE
:1075C000054601A803A90395ADF81040FFF778FE22
:1075D00003A8FFF7E8FD02A8FCF744FF09B0F0BDDF
:1075E000019D0123D5E84F2F002A03D1C5E8413F73
:1075F0000029F7D1EFD12B73BFF35B8F6B702B1D7D
:10760000BFF35B8F53E8006F43E80042002AF9D1D3
:10761000BFF35B8F002EDED02046FFF723FC07462A
:1076200060B105F10C013046FFF716FE3046FDF75C
:10763000F1FD1021304601F07CFECCE7314603A875
:10764000FFF77CFF2B7B8DF81C301020FCF723FD0F
:107650000546D0B187601420FCF71DFD044678B1C3
:107660008760014603A8FFF710FD059BA268A36091
:10767000069B0592E268E3609DF81C300692237435
:10768000064BEB60064B2C60AB6003A8FDF7C2FD18
:10769000002229460348FFF7EDFBC7E76B720D0098
:1076A0005B750D0053700D00002240681146FFF716
:1076B00065BC002240681146FFF770BC406800229C
:1076C000FFF764BC4068002281F00101FFF74EBC67
:1076D000002340681A461946FFF740BC0023406863
:1076E0001A461946FFF732BC002240681146FFF7E0
:1076F00025BC002240681146FFF710BC40680022FC
:107700000221FFF713BC002340681A46FFF7FEBBB7
:10771000024B03225A60024A1A60704750E6032067
:10772000B4CB0D007047F8B5064615460C468F18C9
:10773000BC4206D0336814F8011B9B68304698475A
:10774000F6E72846F8BD007C0022FFF713BA007C5C
:107750000021FFF717BA007C0021FFF71BBA007C5D
:107760000021FFF71FBA007C0021FFF723BA10B5F4
:107770001421044601F0DDFD204610BD10B54FF484
:107780007A73044608460021C4E90113034B2360C1
:1077900020741146FFF71EFA204610BDF0CB0D00F5
:1077A0000023007C1A461946FFF7CCB9007C002262
:1077B000FFF7D0B9C9B2FFF7F9BF007C0022FFF78D
:1077C000D1B90121FFF7F9BFFFF7B4B9FFF7AAB9A3
:1077D000704710B51821044601F0ABFD204610BDDE
:1077E000F0B5037D062B8DB00E4600F104074FF077
:1077F000000412D000F1080515F8011D0A223046D8
:1078000000F0DFFBAF42044419D0002CF4D02E214D
:10781000304600F0BDFB0444EEE72F236A463946AC
:107820000A208DF80040FFF7E5F9684602F073FE84
:1078300033680246DB68694630469847044620466E
:107840000DB0F0BD10B5054B0446112240F8043BC5
:10785000002102F0E7FD204610BD00BF18CC0D004E
:107860000346074A10B543F8042B01F1100251F802
:10787000044B43F8044B9142F9D10A781A7010BDB9
:1078800018CC0D00037D042B04D14068003818BFCC
:1078900001207047062B07D143683BB983682BB999
:1078A000C3681BB90069F1E70020704701207047E9
:1078B00010B59DF8084044EA032343EA024242EA35
:1078C000016104234160037510BD000037B5044D0C
:1078D00005609DF818500095FFF7EAFF03B030BD32
:1078E00018CC0D0013B5054B0360CB7800938B7853
:1078F0004A780978FFF7DCFF02B010BD18CC0D0004
:1079000000F11003012213F8101C0129184608D1B8
:1079100053F8041C02EB4102013A03F11003F2D1C7
:107920007047022904BF53F8041C5218F4E770474B
:107930000020704710B51021044601F0FAFC2046E3
:1079400010BD08B5FFF7F6FF08BD10B5C4687CB1DF
:10795000206808B1FCF7A5FB237A1BB1606808B169
:10796000FCF79FFB20460C21BDE8104001F0E1BC74
:1079700010BD10B5036804469B689847A368013B97
:10798000A3602BB923682046DB68BDE81040184788
:1079900010BD38B50B6803604D6843689D420446CE
:1079A0000CD015B16B6801336B60606828B1436817
:1079B000013B43600BB9FFF7DCFF6560204638BD33
:1079C0000B461146002210B5C0E900220446836030
:1079D0000BB9204610BDFFF7DCFFFAE78368EBB177
:1079E0001A78032A1AD8DFE802F00417021B0520D0
:1079F000704702685B685268D05C2D2812D0A0F1F5
:107A00003003092B0ED974280ED066280CD0A0F1B3
:107A10006E03584258417047062070470020704757
:107A200004207047032070470220704700000000C8
:107A300010B50446FFF7D2FF02280DD0C31EDBB2FB
:107A4000012B10D82268A36850685B68BDE810401D
:107A50000021184403F0CABB2268A36852685B681F
:107A6000D35C742B02D09FED040B10BD9FED040B73
:107A7000FBE700BFAFF30080000000000000000043
:107A8000000000000000F03F2DE9F04786B00746F7
:107A9000884602A8002100249946102392460293AA
:107AA000FFF7B0F9CDE9004423464246394602A823
:107AB000FFF7B0F9061E1EDD1049300101F03DFC54
:107AC000054690B1214602A8FFF79CF9CDE9006474
:107AD0002B464246394602A8FFF79CF9A04207DD33
:107AE000CAF800500120C9F8006006B0BDE8F08770
:107AF0002846FCF7D6FA2046F7E700BFECCD0D008C
:107B00002DE9F84F436886680B4488460E440746C3
:107B10001C4619464FF00D094FF0090AB44263D0D4
:107B2000254615F8012B5C2A2BD1A14207D0A4EBE6
:107B3000010B18465A4602F05BFC03465B44B54213
:107B400039D06278752A2AD1A21CB21A032A32DDF2
:107B5000A01D04F1050E4FF0000CAE4553D015F8F2
:107B6000011FA1F130025FFA82FBBBF1090F05D9B9
:107B7000A1F16102052A07D8A1F1570242EA0C1CC3
:107B8000EBE728460446C9E7A1F14102052A12D8CD
:107B9000A1F13702F2E703F801CB0146F2E76E2AC2
:107BA0001CD00ED8622A13D007D82F2A11D05C2AF5
:107BB0000FD0222A0DD0002023E0662AFBD10C2210
:107BC00007E0722A0DD0742AF5D183F800A001E0F5
:107BD00008221A70A11C01330846D3E74FF00A02AD
:107BE000F7E783F80090F5E7A14206D0641A18463B
:107BF000224602F0FDFB03462344A3EB0803BB60CF
:107C00000120BDE8F88FBCF17F0FC4D92146B9E748
:107C1000F8B50446154600EB01160027B44210D013
:107C20002378032B08D129462046FFF769FF48B186
:107C3000A368EF541034F1E7002BFBD1A268AB54DA
:107C4000F8E70120F8BD000038B50023C0E9003393
:107C500004460E48C4E90203A9B10B78032B06D0F1
:107C60008BB9136858684B68C35C6E2B07D01368D8
:107C70004D6858688B6828445B1BA060E360114620
:107C80002046FFF786FE204638BD00BF8BC80D009A
:107C900038B500250B46C0E90055C0E90255C0E9DA
:107CA0000455044611464BB11A78012A06D103F156
:107CB0001002DB6882604361FFF76BFE204638BD2F
:107CC00010B54369044663B18068E060013B103041
:107CD000A0602061636113B1FFF712FEA060012074
:107CE00000E0184610BD000038B5002304460360CC
:107CF00010200D46FCF7CFF928B10123C0E901336C
:107D0000024B0360C5602060204638BD2CCC0D00BE
:107D1000F0B5044687B00E460C202749154601F001
:107D20000AFB014618B10023C0E90033037203A81F
:107D30000291FFF7D9FF029A42B9C4E90022A2607A
:107D400003A8FCF78FFB204607B0F0BD002301938A
:107D5000294601AB3046FFF797FE18B9C4E9000089
:107D6000A060EDE71449029F681C01F0E6FA029B4F
:107D7000786058680028F1D02A46314602F02AFB84
:107D8000029B0199186801221A725A68FFF740FF96
:107D90000028E3D0029B19680493039B059313B159
:107DA0005A6801325A6004AA2046FFF709FE05A866
:107DB000FCF758FBC4E700BFECCD0D00014B024AB5
:107DC0001A60704758E6032040CC0D00002340683D
:107DD0001A46FFF79BB8406800220221FFF7A6B8B9
:107DE000002240681146FFF799B80022406811460A
:107DF000FFF7A4B8002340681A461946FFF7A6B853
:107E0000002340681A461946FFF7A8B840680021C9
:107E1000FFF7CCB840680021FFF7D0B840680022D7
:107E200081F00101FFF7A2B840680022FFF7AEB869
:107E3000002240681146FFF7B1B8002240681146A1
:107E4000FFF79CB82DE9F043002495B016460D4687
:107E50000746FFF7F7FC214618220EA8009402F00F
:107E6000E1FA4023CDE90C3421466B460CAA30469A
:107E7000FEF7E8FE044600284CD10246012168685E
:107E8000FFF75CF80221804622466868FFF756F843
:107E9000009E81462146002E3CD000293AD17368CD
:107EA000022B03D00A2B11D0F669F4E7B8F1000FCA
:107EB0000AD0716906A8043107ADFFF713FD0FCD95
:107EC0003C1D0FC42B6823704146EDE7B9F1000F4C
:107ED00001D14946E8E77469102201A802F0A2FA2C
:107EE00006238DF8143001AD04F108031834186826
:107EF00059682A4603C20833A3421546F7D101A99F
:107F000006A807ADFFF7ACFC0FCD3C1D0FC42B68D6
:107F10002370DEE70098FEF78DFE384615B0BDE809
:107F2000F0830000024B034A1A6000225A60704737
:107F30005CE603204CCC0D00F8B506460D468F18C4
:107F40000024BD420CD0336815F8011B9B683046F5
:107F50009847031E01DB1C44F3E7002C08BF1C46B6
:107F60002046F8BD13B50446084659B1019102F008
:107F7000D2FA23680199DB680246204602B0BDE8C8
:107F80001040184702B010BD08B5FFF7EBFF08BD61
:107F900003689B68184738B50D210546FFF7F8FFC1
:107FA0000A2104462846FFF7F3FF204438BD38B5C0
:107FB0000546FFF7D7FF04462846FFF7ECFF2044AD
:107FC00038BD30B58BB000238DF82430012A98BF1E
:107FD0000A2209AC0D46B1FBF2F101FB125303F08A
:107FE000FF03092B94BF30333733DBB2AA4204F8C6
:107FF000013DEFD92146FFF7B5FF0BB030BD10B5FD
:108000000446FDF707F9204610BD00000348044A66
:1080100004490023836001F087B900BF64E60320B0
:1080200048E40320FF7F0D0010B504460846217088
:10803000FEF758FE00236360204610BD2DE9F0478F
:1080400057EC106B80460C4610EE100A00220023FD
:10805000394601F073FF28B107F100431F462D2375
:1080600004F8013B00234FF001090A22D9B28845E8
:1080700003D902FB09F90133F8E7484601F082FC15
:1080800032463B4601F0E8FC06460F4602F006F891
:1080900005468A4601F0AAFC02460B4630463946A0
:1080A00001F022FB134B002201F05CFF10B10135FF
:1080B0004AF1000A4A462846D317514601F0D6FF36
:1080C0000123154621460A2200F0C9FFB8F1000F2E
:1080D0000DD0204602F01FFA2E23211823540A2225
:1080E000434628460131BDE8F04700F0B8BFBDE87F
:1080F000F08700BF0000E03F10B504460068FEF7BF
:108100006DFF204610BD10B50446006808B1FEF7AB
:1081100065FF0023C4E90133236010BD38B5044670
:108120000D4600680131FEF761FF10B1C4E900059A
:10813000012038BD10B50368044623B143688B4263
:1081400001D3012010BD2046FFF7E8FF0028F9D039
:10815000A368002BF5D122681370F2E737B50D46FE
:10816000114601920446FFF7E5FF019A28B920461F
:10817000FFF7C9FF204603B030BDA2602946206842
:1081800002F028F92268A3680021D154F2E788425E
:1081900010B5044605D00B682BB18A681946FFF765
:1081A000DDFF204610BDFFF7AEFFFAE710B5002354
:1081B0000446C0E9003383600373FFF7E8FF2046FD
:1081C00010BD13B5044659B10846019102F0A3F958
:1081D000019902462046FFF7C1FF204602B010BDBC
:1081E000FFF791FFF9E730B5044600238BB0C4E9EF
:1081F0000033A360237310EE100ACDB201F0D4FB5C
:1082000041EC100B01A92846FFF718FF01A92046F1
:10821000FFF7D7FF20460BB030BD10B504468AB03B
:1082200000230846C4E90033A360237301A9C0B248
:10823000FFF704FF01A92046FFF7C3FF20460AB05D
:1082400010BD70B505460E4609B9002070BD6AB173
:10825000846814442146FFF76DFF0028F5D0286894
:10826000AB683146184402F030F9AC600120EDE70C
:1082700013B5044629B92046FFF745FF204602B052
:1082800010BD0846019102F046F9019902462046C8
:10829000FFF7D7FF0028EED0F0E710B504460068DE
:1082A00018B1FEF79BFE0023236010BD10B50446F5
:1082B000FFF7F3FF204610BD10B5094B094C022211
:1082C00000201A60084B2060A080A071A360FEF718
:1082D000B9FD2046054A0649BDE8104001F024B822
:1082E00080E6032074E603200000FFFF48E403203B
:1082F000AD820D0013B503688DF80710DC6B012209
:108300004FF0FF330DF10701A04702B010BD10B4CC
:108310000368DC6B4FF0FF33A4465DF8044B604705
:1083200013B5134602688DF80710D46B0DF10701E1
:108330000122A04702B010BD704738B543691A68E2
:10834000002A054610DAB3F88620B3F884309A4242
:108350000AD103681B699847044628B92B68284648
:10836000DB6A9847204638BD0120FCE7436918685E
:10837000C043C00F70477047064B994210B500F1DB
:108380000C0405D0084601F08FF8002808BF00242F
:10839000204610BD4CCB0D0010B5AC21044600F0BA
:1083A000C8FF204610BDFBF77ABE2DE9F0414FF023
:1083B000000886B01D46C0F8048004460E461746E5
:1083C0004146102202A802F02DF86B1C09D04FF490
:1083D0007A70B5FBF0F3CDE9023800FB1353584334
:1083E0000490606910230093006802AB41F205021B
:1083F00040F6FF71FEF736FC002807DAFEF716FE9E
:1084000003686360002006B0BDE8F0816069002366
:1084100000683A463146FEF74DFC031EEEDB184677
:10842000F1E7000070B54D69054B04468C3544F802
:10843000043B06460FCD0FC42B682370304670BD39
:1084400018CC0D0010B54369B3F88620B3F884301A
:108450009A42044605D06369B3F88420134418791E
:1084600010BD03681B6998470028F4D14FF0FF3016
:10847000F6E710B54369B3F88620B3F884309A4222
:10848000044608D06369B3F88420511CA3F8841013
:108490001344187910BD03681B6998470028F1D16F
:1084A0004FF0FF30F6E7F8B543691746B3F886207A
:1084B000B3F884309A4205460E4616D06969B1F881
:1084C0008430B1F88640E41ABC4228BF3C460433ED
:1084D00022461944304601F07DFF6A69B2F88430C3
:1084E0002344A2F884302046F8BD03681B699847EE
:1084F0000028E3D14FF0FF34F5E742690023A2F8EA
:1085000084304269A2F8863070472DE9F0411F4659
:1085100003680C46DB6A8AB0054616469847237DF9
:10852000D5F81480042B0CBF02200A20062201215A
:10853000FEF7D0FBC8F800006B691B68002B08DA57
:108540002B682846DB6A0024984720460AB0BDE81D
:10855000F0812846FFF7D1FFB7B1002303A9F8B295
:108560000393ADF81030FEF73DFB0028E8D16869B1
:1085700006230093006803AB41F20B0240F6FF7143
:10858000FEF770FB0028DBD11C22002103A801F0BC
:1085900049FF237D042B1DD14FF407733046ADF8FE
:1085A0000C30FEF73FFBADF80E006068FEF72AFBCB
:1085B00004906B691C22186803A9FEF763FB00286E
:1085C000BED104340FCC6D698C350FC523682B7078
:1085D0000124BAE740F61C233046ADF80C30FEF714
:1085E00021FB05AEADF80E00231D04F11407186839
:1085F0005968324603C20833BB421646F7D1D8E762
:1086000030B54269B2F886308BB004462BB1B2F86F
:1086100084209A4201D1FFF770FF61690868002841
:1086200018DBB1F886507F2D14D804310823C5F12A
:1086300080022944FEF72EFB002813DD6369B3F89E
:1086400086200AB9A3F884206369B3F88620104411
:10865000A3F886006369B3F88600B3F88430C01AC3
:108660000BB030BDFEF7E2FC03680B2BF2D0FEF737
:10867000DDFC03680B2BEDD020230025CDE902356E
:10868000FEF7D4FC03680193084B0949009302AA42
:108690002B463220FEF7C6FB63691868FEF7EAFA3C
:1086A00063694FF0FF321A60D4E700BF87CC0D003A
:1086B00080CC0D0010B5436904461868002801DB22
:1086C000FEF7D8FA63694FF0FF321A606069112231
:1086D00000218C3001F0A6FE2046BDE81040FFF7D7
:1086E0000CBF43691868C043C00F704710B5002322
:1086F00004460160C0F884308830FFF7A3F82046B4
:1087000010BD000073B500234FF47A72C0E9013246
:108710000E4A0361026043610446AC200191FBF7FD
:10872000BAFC051E05F10C0608D00123C5E901338A
:10873000074B01992B603046FFF7D8FF2046C4E96C
:108740000565FFF7DAFE02B070BD00BFBCCC0D00BE
:10875000A0CC0D0010B54FF0FF310446FFF7D2FF5B
:10876000204610BD10B504460068002801DBFEF766
:1087700081FA204610BD0C30FFF7F4BF70B586B00B
:10878000064601AD6846FFF7ADF80FCD341D0FC4A6
:108790002B682370304606B070BD00002DE9F04311
:1087A0009846036893B00D460024DB6A06461746D8
:1087B000984728466B46224621460094FEF742FA27
:1087C0000546002863D1009B002B4BD05B69002B32
:1087D00048D006A8FFF736F8009B5C696378022B47
:1087E00004D1211D06A8FFF7C9FF26E00A2B24D1DA
:1087F0001122294601A801F015FEA368002B38D0EC
:1088000004F108030DF1040C183418685968624625
:1088100003C20833A3429446F7D1062301A90CA84A
:108820008DF81430FFF71CF80DF1340CBCE80F0084
:1088300007AC0FC4DCF80030237006A8FFF722F85D
:1088400080B1336807ADD3F82090124B0C930FCD55
:108850000DAC0FC42B6823703A4643460CA9304632
:10886000C84705460098FEF7E5F9284613B0BDE86D
:10887000F083E368002BC3D14FF6FF70D4F810905B
:10888000FEF7C0F98145BBD104F11401AAE72546E2
:10889000E8E700BF18CC0D00024B1A68024B1A60C3
:1088A000704700BF70E2032084E6032010B4046820
:1088B000246BA4465DF8044B604703689B6C184723
:1088C000808E7047028FC08E101A704707B50368FC
:1088D0008DF80710DB6801220DF10701984703B0FE
:1088E0005DF804FB10B503681B690446984728B17E
:1088F000E38EE26B591CE186D05C10BD4FF0FF3077
:10890000FBE710B503681B690446984718B1E38E6E
:10891000E26BD05C10BD4FF0FF30FBE7704710B446
:1089200003460846DC6BD98E1A8F0368521ADB683F
:1089300021445DF8044B1847A0F11000FFF7EFBF8A
:1089400070B503688CB05B6A04460E4615469847BE
:1089500001231C22002105A8029301F063FD40F6CB
:108960001C233046ADF81430FEF75CF91122ADF847
:10897000160002210A20FEF7ADF90028606125DB10
:108980000422009202AB40F6FF71FEF76BF9E8B9E2
:1089900095B10390ADF8100003A9E8B2FEF722F9F3
:1089A000A0B906230093606903AB41F20B0240F6C5
:1089B000FF71FEF757F948B960691C2205A9FEF757
:1089C00049F918B9656401200CB070BD23682046D0
:1089D0005B6A98470020F7E710B504464069002815
:1089E00001DBFEF747F94FF0FF3363610023E386B5
:1089F000238710BD70B50546C06BEE8E68B12B6C39
:108A00009C1B944228BF14462246304401F0E2FCED
:108A1000EB8E2344EB86204670BD0446F1E7D0B5CB
:108A200003681B6904460F461646984790B12368B1
:108A300020461B699847E38EE16B8642A8BF064635
:108A400019443246384601F0C5FCE38E3344E386D0
:108A50003046D0BD4FF0FF36FAE7000070B504464F
:108A6000054B44F8043B01F1200506460FCD0FC429
:108A70002B682370304670BD18CC0D00F0B59646BB
:108A8000026889B0976A0A4A02921C1D8C46064603
:108A90000FCC03AD0FC523682B70BDF838300093A1
:108AA000724602AB61463046B84709B0F0BD00BF20
:108AB00018CC0D00F0B5036889B09F6A0C4B029387
:108AC00000F1200604460FCE03AD0FC533682B70AE
:108AD000A38EE28EE16B0093204602ABB847236879
:108AE0000546DB6920469847284609B0F0BD00BF1F
:108AF00018CC0D0038B5054614462B7D062B0846CC
:108B000010D140F61C231380FEF78CF808342B1D7F
:108B100024F8060C143553F8042B44F8042BAB420C
:108B2000F9D138BD042BFCD14FF404731380FEF748
:108B300079F860806868FEF765F86060F1E72DE914
:108B4000F0438BB003AF4FF01C09984604460D4626
:108B5000164600214A46384601F064FCBDF848102C
:108B60003A464046FFF7C6FF9DF80D3053B1CDE9B8
:108B700000796069002332462946FEF7A3F80BB05E
:108B8000BDE8F0834FF0FF30F9E7000038B500256D
:108B90004FF47A73C0E901530B4B03F108026C33B5
:108BA00003614FF0FF330446026043611C30FEF75F
:108BB00049FE4FF40073C4E91035E5862587E56367
:108BC00084F84850204638BD1CCD0D0010B590F8F3
:108BD0004830044623B1C06B10B1012100F0A9FB5D
:108BE0000023E36384F848302364E386238710BDC1
:108BF00070B5044616460D46FFF7E8FF0023E6630E
:108C000023642EB12564206C003818BF012070BD8C
:108C1000002DF8D02846FBF740FA0123E06384F8E2
:108C200048300028EFD0EDE7F8B51746C26B05468F
:108C30000C461AB9016C09B1FFF7DAFF04340FCC06
:108C400005F120060FC6236833700023286CAF8619
:108C5000EB862B87F8BD37B5C26B04460B462AB9A5
:108C6000016C19B10193FFF7C3FF019BE16B002277
:108C7000E286228741B1226C32B12068056B204622
:108C8000A8470028C8BF208723681B69204603B077
:108C9000BDE830401847F0B54378022B8DB005464B
:108CA0000C46174604D1011D2046FFF767FD22E060
:108CB0000A2B25D11122002101A801F0B3FBAB68DA
:108CC00003B305F1080301AE05F1180C18685968E3
:108CD000324603C2083363451646F7D1062301A97D
:108CE00006A807AE8DF81430FEF7BAFD0FCE043497
:108CF0000FC4336823701FB16888FDF78BFF38807D
:108D00000DB0F0BDEB68002BDBD14FF6FF702E6984
:108D1000FDF778FF8642D4D105F11401C4E70000C5
:108D20002DE9F04117468EB00022064601AB0846F9
:108D300011460192FDF786FF041E20DB019B2BB339
:108D40005B691BB302A8FEF77DFD019B00225869F9
:108D500002A9FFF7A0FF02A8FEF794FDB0B13368A7
:108D600003ADD3F838800B4B08930FCD09AC0FC47B
:108D70002B6823703A4608A93046C047044601983C
:108D8000FDF758FF20460EB0BDE8F0814FF0FF34EC
:108D9000F5E700BF18CC0D002DE9F047D0F814908E
:108DA000B9F1000F90B005460E4690461C463CDBDC
:108DB00000293AD04FF01C0A09AF5246002138462C
:108DC00001F030FBCDF80CA0DCB100224FF47A703A
:108DD000B4FBF0F3CDE9043200FB134358431023F6
:108DE00007920690009341F206026B4440F6FF7131
:108DF0004846FDF737FF044620B1204610B0BDE8D5
:108E0000F087082403ABCDE9007368692346424626
:108E10003146FDF747FF041EEFDB05F1340205F193
:108E20001C013846FFF737FFE7E74FF0FF34E4E770
:108E300070474174704708B5007CFDF79BFF20EA3E
:108E4000E07008BD08B5007CFDF76CFF20EAE0701B
:108E500008BD08B5007CFDF775FF40EAE07008BD6D
:108E600008B5007CFDF766FF40EAE07008BD007CB5
:108E7000FDF770BF37B5457C04462DB1207C03B0AB
:108E8000BDE83040FDF746BF007C0191FDF772FF61
:108E900000280199F2DC284603B030BD10B514213A
:108EA000044600F046FA204610BD000010B54FF011
:108EB000000C0446084611464FF47A72C4E901C218
:108EC000044A22600122207462741A46FDF71AFFD8
:108ED000204610BD94CD0D0013B50E4C2178BFF384
:108EE0005B8F11F0010112D120460191FBF7DBF8F5
:108EF000019960B1084A094B0948FFF7D7FF20469E
:108F0000FBF7D6F8074A0849054800F00DFA04486F
:108F100002B010BD88E603208CE6032010E7032092
:108F200094E7032048E40320318E0D00417470471C
:108F3000704708B50021007CFDF744FF40EAE0706F
:108F400008BD08B50121007CFDF73CFF40EAE07058
:108F500008BD08B5007CFDF72DFF20EAE07008BDD4
:108F600008B5007CFDF71EFF20EAE07008BD13B5D0
:108F70000446007C0191FDF71DFF0028019901DCEA
:108F8000607C20B1207CFDF725FF20EAE07002B074
:108F900010BD007CFDF726BF10B51421044600F07B
:108FA000C8F9204610BD000010B54FF47A7304468E
:108FB00008460021C4E90113044B236001232074F7
:108FC00063741146FDF7DEFE204610BDC4CD0D00D2
:108FD000007C0022FDF7DEBE10B5142204460021FD
:108FE00001F020FA204610BD10B5104C88B003A83F
:108FF000FFF7F2FF2178BFF35B8F11F0010111D170
:1090000020460191FBF74FF8019958B103AA08488F
:10901000FFF7CAFF2046FBF74BF8064A064904480B
:1090200000F082F9024808B010BD00BFA8E7032095
:10903000ACE7032048E40320318F0D0010B504464F
:1090400001F069FA013823182046834206D90278D4
:10905000197800F8011B03F80129F6E710BD70B577
:109060000C46911E2229054622D820466DB1B5FB3B
:10907000F2F602FB1655E9B2092D94BF3031573193
:10908000C9B200F8011B3546F0E7024623443021FF
:10909000934202D902F8011BFAE71A1A834238BF39
:1090A0000022002383542046FFF7C8FF204670BDEE
:1090B0000020FCE7014B1860704700BF74E20320FA
:1090C00008B50B4B43B1FFF78FFF03681B69984747
:1090D000002801DDAFF30080064B43B1FFF7FCFE33
:1090E00003681B699847002801DDAFF3008008BDC5
:1090F000000000000000000008B5FFF7E1FFFDF7E9
:10910000E9FC014B186008BDD4E703200248034A7C
:109110000349121A01F05EB900F4032004F403209D
:1091200098D10D0007B5002300931A466FF0770120
:10913000FDF7B2FE03B05DF804FB000007B54388FD
:109140000A2B08D0502B0BD1094B1B684BB103B035
:109150005DF804EB1847FFF7E5FF03B05DF804FB8B
:10916000002300931A466FF07701FDF795FEF4E7B0
:10917000C4E7032038B5124C1248134D0021FDF707
:109180005DFF2368AB42114B0CBF012200221A7015
:1091900002D0FFF7BBFF2560FDF78CFC044601F011
:1091A00059F90B4B13B12046AFF30080002108485A
:1091B000FDF7A4FEBDE8384006480021FDF762BE79
:1091C00000F40320B5900D001E1C279AC0E7032071
:1091D000000000003D910D00232813B502D90020A6
:1091E00002B010BDA0F10B03022B1AD8174C217846
:1091F000BFF35B8F11F001010BD120460191FAF70B
:1092000052FF019928B11248FEF70EFF2046FAF7E7
:109210004FFF0F4B1878FDF76DFD0028DFD10120BF
:10922000DEE7012809D800F057F80021007CFDF79F
:10923000C9FC80F00100C0B2D2E709380128EED89D
:10924000FFF74AFE007CFDF78DFDF2E7C8E703203B
:10925000CCE70320232838B504460D460AD8FF2959
:1092600008D0FFF7B9FF28B129462046BDE83840AD
:10927000FDF740BC38BD38B504460D46FDF742FC4D
:10928000FF2810D0062804D84D2323FA00F0C30786
:1092900009D42046FFF7A0FF28B129462046BDE8A3
:1092A0003840FDF737BC38BD38B500232025438052
:1092B000142304460380856005610649284600F0B2
:1092C0003CF804496060284600F037F8E06020462A
:1092D00038BD00BFECCD0D0030B50F4D2978BFF380
:1092E0005B8F11F0010487B013D12846FAF7DBFE3B
:1092F00078B101A8FFF7D8FF01AA21460748FEF779
:109300003DFA2846FAF7D4FE054A0649034800F01C
:109310000BF8024807B030BDD8E70320DCE7032094
:1093200048E4032025770D000B460146184601F05E
:1093300043B8FAF7B4BEFAF7AEBEFAF7AEBEC368EA
:109340009A68C26010B502B1506042685A600C68F9
:10935000844203D10B609860436010BD91688142E4
:109360000CBF9360D360F6E78368DA68826010B55B
:1093700002B1506042685A600C68844203D10B60AD
:10938000D860436010BDD16881420CBFD360936048
:10939000F6E7037833B943685B68834202D1DB6840
:1093A00018467047826822B11346D268002AFBD162
:1093B000F6E743689A688242F2D118465B68F9E79B
:1093C000C36823B118469B68002BFBD170474368E4
:1093D000DA68824202D118465B68F9E7C2689342B4
:1093E00018BF18467047FFF7D4BF2DE9F8431E4653
:1093F00003F104080023C1E902330C464A600B70F4
:1094000000B39642916018D17160F46001274FF06B
:1094100000097368A3423FD060680278002A3CD1FB
:109420004568AB68984223D1EB6883B11A7872B96A
:1094300007701F702A702C46EBE7B3689342E5D1A2
:10944000B160E3E7D160F3689342DFD1DDE7C36841
:10945000A34203D14146FFF772FF044663684146C9
:109460001F70284685F80090FFF77EFF2546E2E74B
:1094700013B11A78002ADBD08368A34203D1414696
:10948000FFF772FF0446636841461F70284685F85F
:109490000090FFF754FFE9E7234601221A70BDE868
:1094A000F88308B5FDF7B2FD014900F0F9B800BF37
:1094B00008CE0D007FB500241023CDE902340368E7
:1094C00000949E698DF8044015466B461268B047BB
:1094D0009DF8043003F00603062B03BF009B2B60AE
:1094E0000120204604B070BD0098904214BF0120B6
:1094F0000620704710B5034B0360044600F0CDF81A
:10950000204610BD48CE0D0010B50446FFF7F2FF0F
:1095100020460821FFF70DFF204610BD2DE9F04140
:109520001F46DDE90834DDF81880984506461546E3
:1095300007D1079900F0B4F818B165710020BDE8B3
:10954000F0813946304600F0ABF80028F6D0012310
:10955000C4F800802571A371F0E738B515461C46A4
:1095600000F09EF820B10823E360062325602371F4
:1095700038BD73B505460C4601921E4600F090F8C2
:1095800050B9032E08D82368019A5B692946204602
:1095900002B0BDE87040184702B070BD10B5034B73
:1095A00003600446FFF7A6FF204610BDA8CE0D00BD
:1095B00010B50446FFF7F2FF20460C21FFF7B9FE75
:1095C000204610BDF7B5089F974205460E46144643
:1095D0000AD0A86802680897156A31462246AC4648
:1095E00003B0BDE8F04060471946019300F058F819
:1095F000019B0028EDD0062003B0F0BD2DE9F14F0E
:109600000D461946DDE90A4BDDE90CA681461746F1
:10961000984600F045F890B1002D3460377109DBB1
:1096200061198A450CBF06210121B171002001B0EA
:10963000BDE8F08F0235F9D10123B371F6E7544547
:1096400006D15946484600F02BF808B17771EDE78E
:10965000D9F808000368CDE90CA6CDE90A4BDC690E
:109660003A4643462946A44601B0BDE8F04F60475C
:109670002DE9F04107460C4615461E46FFF76DFFE3
:1096800048B9B86803689F692A4633462146BC46F4
:10969000BDE8F0416047BDE8F081704700207047A9
:1096A000814208B50ED0406803782A2B0CD0496857
:1096B0000B782A2B08BF013100F0FDFEB0FA80F0D4
:1096C000400908BD0120FCE70020FAE70000000087
:1096D0009FED010B704700BF000000000000F87F05
:1096E00081F0004102E000BF83F0004330B54FEA53
:1096F00041044FEA430594EA050F08BF90EA020FC0
:109700001FBF54EA000C55EA020C7FEA645C7FEA52
:10971000655C00F0E2804FEA5454D4EB5555B8BF75
:109720006D420CDD2C4480EA020281EA030382EAE6
:10973000000083EA010180EA020281EA0303362D78
:1097400088BF30BD11F0004F4FEA01314FF4801C4B
:109750004CEA113102D0404261EB410113F0004F5D
:109760004FEA03334CEA133302D0524263EB430314
:1097700094EA050F00F0A780A4F10104D5F1200EB2
:109780000DDB02FA0EFC22FA05F2801841F100010D
:1097900003FA0EF2801843FA05F359410EE0A5F1E1
:1097A00020050EF1200E012A03FA0EFC28BF4CF012
:1097B000020C43FA05F3C01851EBE37101F00045C8
:1097C00007D54FF0000EDCF1000C7EEB00006EEBD5
:1097D0000101B1F5801F1BD3B1F5001F0CD349085F
:1097E0005FEA30004FEA3C0C04F101044FEA4452B6
:1097F00012F5800F80F09A80BCF1004F08BF5FEA3D
:10980000500C50F1000041EB045141EA050130BD1C
:109810005FEA4C0C404141EB0101013C28BFB1F52E
:10982000801FE9D291F0000F04BF01460020B1FA79
:1098300081F308BF2033A3F10B03B3F120020CDA4C
:109840000C3208DD02F1140CC2F10C0201FA0CF02A
:1098500021FA02F10CE002F11402D8BFC2F1200C8F
:1098600001FA02F120FA0CFCDCBF41EA0C01904045
:10987000E41AA2BF01EB0451294330BD6FEA04048E
:109880001F3C1CDA0C340EDC04F11404C4F1200279
:1098900020FA04F001FA02F340EA030021FA04F38B
:1098A00045EA030130BDC4F10C04C4F1200220FAE2
:1098B00002F001FA04F340EA0300294630BD21FA20
:1098C00004F0294630BD94F0000F83F4801306BFE6
:1098D00081F480110134013D4EE77FEA645C18BFDA
:1098E0007FEA655C29D094EA050F08BF90EA020F71
:1098F00005D054EA000C04BF1946104630BD91EA69
:10990000030F1EBF0021002030BD5FEA545C05D16B
:109910004000494128BF41F0004130BD14F58004AA
:109920003CBF01F5801130BD01F0004545F0FE411E
:1099300041F470014FF0000030BD7FEA645C1ABF53
:10994000194610467FEA655C1CBF0B46024650EA8A
:10995000013406BF52EA033591EA030F41F40021B6
:1099600030BD00BF90F0000F04BF0021704730B53C
:109970004FF4806404F132044FF000054FF0000111
:1099800050E700BF90F0000F04BF0021704730B5D2
:109990004FF4806404F1320410F0004548BF4042A7
:1099A0004FF000013EE700BF42004FEAE2014FEAFC
:1099B00031014FEA02701FBF12F07F4393F07F4FD7
:1099C00081F06051704732F07F4208BF704793F0DA
:1099D0007F4F04BF41F40021704730B54FF46074ED
:1099E00001F0004521F000411CE700BF50EA0102F0
:1099F00008BF704730B54FF000050AE050EA010299
:109A000008BF704730B511F0004502D5404261EB08
:109A100041014FF4806404F132045FEA915C3FF449
:109A2000D8AE4FF003025FEADC0C18BF03325FEAE6
:109A3000DC0C18BF033202EBDC02C2F1200300FA97
:109A400003FC20FA02F001FA03FE40EA0E0021FABC
:109A500002F11444BDE600BF70B54FF0FF0C4CF4AA
:109A6000E06C1CEA11541DBF1CEA135594EA0C0F5C
:109A700095EA0C0F00F0DEF82C4481EA030621EA97
:109A80004C5123EA4C5350EA013518BF52EA0335D2
:109A900041F4801143F4801338D0A0FB02CE4FF084
:109AA0000005E1FB02E506F00042E0FB03E54FF0B4
:109AB0000006E1FB03569CF0000F18BF4EF0010EAC
:109AC000A4F1FF04B6F5007F64F5407404D25FEAA8
:109AD0004E0E6D4146EB060642EAC62141EA55515B
