:02000002D0002C
:1040000000400D007CD70D00000006000D000501EA
:084010000401BD0B00000000DB
:0440180010C60D00C1
:1040200009480A49884208B505D0094A824202D0A7
:10403000121A06F0ADFB0748074A0021121A06F0D3
:10404000CFFB014808BD00BF58E203206CD50D002E
:1040500040E4032040E40320F0E7032070B5074E5E
:10406000074C05F027FAA41BA4080025A54200D19F
:1040700070BD56F8043B98470135F7E71CD50D0095
:1040800054D50D0000F03EB808B500F0F7F9BDE8D2
:10409000084005F0D1B903F065B803F063B803F048
:1040A00069B803F067B80078B0FA80F0400970474B
:1040B000012303707047000013B5054B1B788DF882
:1040C00000303C23044603F045FA204602B010BD00
:1040D00044E403200EB410B58DB00FAA016852F865
:1040E000044B039200232020CDE90403CDE90042D4
:1040F0001E2004AA02F06AFF0DB0BDE8104003B014
:104100007047000010B58AB005F00EF94FF4165153
:1041100005F0FEF805F008F92C492D4C04F013F8D1
:104120002C4800F0C5FC2C4800F0A6FF05F074FAFE
:1041300003F002FC204600F0D5FF204601F034F8E1
:10414000204601F096F8204600F0DEFF00222046CF
:10415000022100F0E4FF2046204901F046F8002249
:104160002046032100F0DBFF20461D4901F03DF809
:1041700000222046042100F0D2FF2046194901F018
:1041800034F800222046052100F0C9FF16492046D8
:1041900001F02BF802A802F065FF02A906A804F0BE
:1041A000A5F9124906A804F003FA0023CDE900336B
:1041B0000F4900681A4602F065FF06A804F03CF9B2
:1041C00002A804F039F90AB010BD00BF24C60D00E2
:1041D00080E4032048E4032060E4032038C60D0097
:1041E0003FC60D0044C60D0030C60D004FC60D0081
:1041F00065480D002DE9F843274C284D204659EC21
:10420000108B57EC116B00F0CFFF002220460121EC
:1042100000F085FF2046224900F0E7FF00222046FB
:10422000022100F07CFF20461E4900F0DEFF002244
:104230002046032100F073FF20461B4900F0D5FF04
:1042400000222046052100F06AFF2046174900F0B1
:10425000CCFF4946404606F04FF80146204600F0A4
:10426000D1FF2946204600F0C0FF0022204606214B
:1042700000F055FF20460E4900F0B7FF39463046A2
:1042800006F03AF80146204600F0BCFF29462046D9
:10429000BDE8F84300F0A9BF80E4032097C60D00F5
:1042A00064C60D0072C60D0080C60D008DC60D00DF
:1042B00099C60D00000000002DE9F84F55EC104B99
:1042C0002DED028B10EE102A10EE100A2B46294617
:1042D00057EC116B05F060FD324682468B463B463B
:1042E0003046394605F058FD47A3D3E9002341EC99
:1042F000180B2046294605F04FFD45A3D3E90023BE
:1043000005F092FB44A3D3E900238046894630465A
:10431000394605F041FD02460B464046494605F048
:1043200085FB3FA3D3E900238046894620462946E2
:1043300005F032FD32463B4605F02EFD02460B46A7
:104340004046494605F072FB37A3D3E90023804677
:1043500089465046594605F01FFD02460B46404629
:10436000494605F063FB32A3D3E900238046894622
:1043700051EC180B05F010FD02460B46404649462D
:1043800005F054FB2CA3D3E9002380468946504610
:10439000594605F001FD32463B4605F0FDFC02465C
:1043A0000B464046494605F041FB25A3D3E90023CF
:1043B00006460F462046294605F0EEFC53EC182B26
:1043C00005F0EAFC02460B463046394605F02EFB66
:1043D0001DA3D3E9002304460D465046594605F077
:1043E000DBFC53EC182B05F0D7FC02460B462046AD
:1043F000294605F01BFBBDEC028B41EC100BBDE820
:10440000F88F00BFAFF30080ECD8CE186264004094
:104410008D976E1283304540CD495AB7624924408A
:10442000F847C607C9C4CCBFCC169C03FC017CBFAF
:10443000248CD100FF10ACBFE5DC6087B521543F70
:10444000DA303301F9F14B3F01BDD3117EB1C0BE6B
:1044500038B5046805467CB16368013B63605BB9AD
:10446000236820469B689847A368013BA3601BB95B
:1044700023682046DB689847284638BD2DE9F0417F
:104480002DED048B4CF2503088B002F0ABFE224B85
:10449000224CD3ED009A94ED009A19EE900A05F0A3
:1044A00023FC41EC180B19EE100A05F01DFCB0EED0
:1044B000481AF0EE681A41EC100BFFF7FDFE184B9E
:1044C000186857EC106B05F00FFC164B41EC180BFD
:1044D000186805F009FCB0EE481AF0EE681A41ECD5
:1044E000100BFFF7E9FEF4EE699AF1EE10FAB0EE68
:1044F000408AF0EE608A04D6B4EE499AF1EE10FAE2
:1045000014D704F011FF084903F01DFE08B0BDECFC
:10451000048BBDE8F08100BF5CE4032068E4032065
:1045200060E2032064E20320A4C60D00B84D02F04F
:104530009DFB2B68C01AB74B98420FD902F096FB2F
:10454000B54B28601B788DF8003004A8B3493C2394
:10455000002202F0FFFF05A8FFF77AFF53EC182BAB
:104560003046394605F08AFE38B1FF230093002318
:10457000AB481A46194600F037FD53EC182B30466D
:10458000394605F099FE30B10023A5480093FF227B
:10459000194600F029FDB0EE481AF0EE681A47EC13
:1045A000106BDFF8AC829F4D9F4EFFF723FE94ED1A
:1045B000000A9E499E4802F02CFB98ED000A9D4996
:1045C0009B4802F026FB95ED000A9B49984802F0B3
:1045D00020FB96ED000A9949954802F01AFBD8F89D
:1045E000000005F081FB41EC190B206805F07CFB15
:1045F000B0EE491AF0EE691A41EC100BFFF75CFEC1
:1046000051EC100B05F0C0FE8D4900EE100A8848F1
:1046100002F0FFFA306805F067FB41EC190B2868DF
:1046200005F062FBB0EE491AF0EE691A41EC100B8E
:10463000FFF742FE51EC100B05F0A6FE814900EE9B
:10464000100A7B4802F0E5FA7F4B79481A787F4BD5
:10465000196802F0E7FA94ED000A062104A803F0B5
:1046600062FF049A714902A8FFF726FD03A8FFF72D
:10467000EFFE04A803F0E0FE98ED000A062104A86E
:1046800003F051FF049A6B4902A8FFF715FD03A838
:10469000FFF7DEFE04A803F0CFFE95ED000A062129
:1046A00004A803F040FF049A634902A8FFF704FD41
:1046B00003A8FFF7CDFE04A803F0BEFE98ED000AA4
:1046C000062104A803F02FFF049A5C4902A8FFF713
:1046D000F3FC03A8FFF7BCFE04A803F0ADFED8F876
:1046E000000005F001FB41EC190B206805F0FCFA15
:1046F000B0EE491AF0EE691A41EC100BFFF7DCFD41
:10470000062104A803F029FF049A4D4902A8FFF7E7
:10471000D3FC03A8FFF79CFE04A803F08DFE3068CD
:1047200005F0E2FA41EC190B286805F0DDFAB0EE6D
:10473000491AF0EE691A41EC100BFFF7BDFD062196
:1047400004A803F00AFF049A3E4902A8FFF7B4FC4C
:1047500003A8FFF77DFE04A803F06EFE04F0E4FD5D
:104760000746D8F8000005F0BFFA41EC190B2068A5
:1047700005F0BAFAB0EE491AF0EE691A41EC100BE6
:10478000FFF79AFD51EC100B05F0B6FD041E3ADA66
:104790002D21384603F0C8FC61420A22384603F056
:1047A000DCFC384603F0C3FC04F0BEFD074630686D
:1047B00005F09AFA41EC190B286805F095FAB0EE6D
:1047C000491AF0EE691A41EC100BFFF775FD51EC38
:1047D000100B05F091FD041E17DA2D21384603F069
:1047E000A3FC61420A22384603F0B7FC384603F0C6
:1047F0009EFC04F099FDB0EE480AF0EE680A022132
:1048000003F092FD82E62146C7E72146EAE700BFB2
:104810005CE203209FBB0D0045E40320C3C60D00EE
:1048200060E4032064E2032060E20320D6C60D00AA
:104830006CE40320E2C60D00F2C60D00FFC60D00B9
:1048400010C70D0022C70D0044E4032058E20320E6
:104850005CE403200B68036013B15A6801325A60AC
:1048600070470000F0B50A4691B00C4648484949E7
:10487000494D4A4EFFF72EFC204606F02AF8214605
:10488000024603A803F010FB059C039B069304A9B2
:1048900007A8FFF7DFFF06AA21460AA803F0C4FA1B
:1048A00007A8FFF7D5FD3E4F0AA803F0D5FA002868
:1048B00066D00D9C0A9B01930BA902A8FFF7CAFFC3
:1048C000214601AA06A803F08BFA02A8FFF7C0FD53
:1048D0000898294605F0CDFF044607A8FFF7B8FD64
:1048E000CCB90E9C0A9B01930BA902A8FFF7B2FF5B
:1048F00001AA214606A803F02FF902A8FFF7A8FD98
:1049000006A803F061F951EC100B05F03DFD306095
:1049100007A8FFF79DFD0D9C0A9B01930BA902A818
:10492000FFF798FF214601AA06A803F059FA02A84A
:10493000FFF78EFD0898394605F09BFF044607A84F
:10494000FFF786FD002CAFD10E9C0A9B01930BA9AB
:1049500002A8FFF77FFF01AA214606A803F0FCF892
:1049600002A8FFF775FD06A803F02EF951EC100B15
:1049700005F00AFD0B4B186007A8FFF769FD92E7E9
:104980000BA8FFF765FD04A8FFF762FD11B0F0BDAD
:1049900058E6032035C70D004CC70D0064E2032024
:1049A00051C70D0060E20320F8B5194B194C1A49A4
:1049B0001A4E1B4D00221A701A4B01271F7003223A
:1049C000204602F005F92046174C1849324604F0FB
:1049D0004BFE06230B221321204600F062F83B46D3
:1049E00009220A21284600F095FA11493246284644
:1049F00004F03AFE204600F08BFA0E4B204683ED81
:104A0000000A00F047FA0C4B83ED000AF8BD00BF26
:104A100044E403206CE4032055C70D0040E4032068
:104A200060E4032045E4032048E40320ED6B0D001F
:104A30002F4F0D005CE4032068E4032010B50368E9
:104A40002F2B044604D9074A00210A2002F09EFABF
:104A500023681F2B83BF03F01F03034823604FF01D
:104A6000A04010BD5D6C0D000003005007B5019023
:104A700001A8FFF7E3FF019A01239340C0F808352E
:104A800003B05DF804FB07B5019001A8FFF7D6FF5E
:104A9000019BD0F81005D84000F0010003B05DF88C
:104AA00004FB10B5037201238171C271037410BD40
:104AB0002DE9F04105461E4C8079DFF87880002111
:104AC00004F068FDAE792378BFF35B8F13F0010F1C
:104AD0000AD12046FFF7E7FA30B102F0CFF8C8F864
:104AE00000002046FFF7E4FAD8F8003036019F5D59
:104AF0002378BFF35B8FDB074FEA47170AD40C48D4
:104B0000FFF7D1FA30B102F0B9F8C8F80000084850
:104B1000FFF7CEFAD8F8003033445B7803F01F0378
:104B200043EA0700FFF7A2FF0023EB60BDE8F08136
:104B300078E403207CE403202DE9F04F044685B09F
:104B400002F094F8E368834284BF0023E360237C8F
:104B50002BB9E368C01AB0F5FA6FC0F06081002588
:104B6000257402F083F8B04E25602571E060A779C6
:104B70003378AE4DBFF35B8F13F0010F09D1304690
:104B8000FFF791FA28B102F079F828603046FFF774
:104B90008FFA2B683F0113F807803378BFF35B8FE0
:104BA000D9074FEA481809D49F48FFF77CFA28B183
:104BB00002F064F828609C48FFF77AFA2B681F44DB
:104BC000787800F01F0040EA0800FFF74FFFFA2056
:104BD00002F008FBA079012104F0DCFCA77933780E
:104BE000BFF35B8FDA0709D48F48FFF75CFA28B16F
:104BF00002F044F828608C48FFF75AFA2B683F010E
:104C0000DB5D4FEA43183378BFF35B8FDB0709D4D2
:104C10008548FFF748FA28B102F030F8286082484A
:104C2000FFF746FA2B681F4403A87B7803F01F03A5
:104C300043EA08030393FFF701FF039A012393401C
:104C4000C0F80C35142002F0CDFA02F089FEA779E5
:104C50003378BFF35B8FD80709D47348FFF723FA83
:104C600028B102F00BF828606F48FFF721FA2B6893
:104C70003F0113F807803378BFF35B8FD9074FEA02
:104C8000481809D46848FFF70EFA28B101F0F6FF7A
:104C900028606548FFF70CFA2B681F44787800F00D
:104CA0001F0040EA0800FFF7E1FE282001F0D6FFD0
:104CB000A079DFF87481002104F06CFC0027012347
:104CC000BA4600934FF0000994F806B03378BFF36A
:104CD0005B8FDA0709D44046FFF7E5F928B101F008
:104CE000CDFF28604046FFF7E3F92B684FEA0B1B26
:104CF00013F80B305B0101933378BFF35B8FDB0755
:104D000009D44046FFF7CFF928B101F0B7FF28607A
:104D10004046FFF7CDF92B685B4493F801B0019B47
:104D20000BF01F0B4BEA030B5846FFF7ACFE58463F
:104D3000FFF7A9FE009B834209D109F101095FFA3F
:104D400089F9012001F08AFFB9F1FF0FBCD194F875
:104D500006B03378BFF35B8FD80709D44046FFF71E
:104D6000A2F928B101F08AFF28604046FFF7A0F9B8
:104D70002B684FEA0B1B13F80B305B010093337861
:104D8000BFF35B8FD90709D44046FFF78CF928B1F0
:104D900001F074FF28604046FFF78AF92B685B44F6
:104DA00093F801B0009B0BF01F0B4BEA030B584626
:104DB000FFF769FE5846FFF766FEB9F1FF0FC3B271
:104DC000009318D0032F11D9FA070FD44FEADA0253
:104DD0000AF1010AA35C5B00DBB2A354217A4945C6
:104DE0003CBF43F00103A3545FFA8AFA0137FFB2D4
:104DF000552F7FF467AF02F0B5FDBAF1270F10D938
:104E0000637820781844A3781844E3781844237909
:104E1000C0B2C31A5842584105B0BDE8F08F012016
:104E2000FAE70020F8E700BF78E403207CE40320E1
:104E300010B50446FFF780FE20B3E3790B2B1BD09F
:104E4000153B012B1ED8A378DFED106A03F07F021B
:104E500007EE102AE27807EE902AB8EEC77AF8EE4D
:104E6000E77A1B06E7EE267AB2EE047A87EE870A27
:104E700007D5B1EE400A04E0A37800EE103AB8EE90
:104E8000400A10BD9FED020AFBE700BF000080430F
:104E90000000C07F08B5FFF7CBFFF2EE027A20EEEC
:104EA000270AF1EE047A80EE277A9FED020A37EEA8
:104EB000000A08BD0000004210B50446FFF73CFEA2
:104EC000F0B1E3790B2B15D0153B012B18D82378C3
:104ED000DFED0D6A07EE103A637807EE903AB8EE10
:104EE000477AF8EEE77AE7EE267AB2EE047A87EEB2
:104EF000870A10BD237800EE103AB8EE400AF8E7B2
:104F00009FED020AF5E700BF000080430000C07F6C
:104F1000FFF7D2BF10B504460170427083700121C3
:104F200003EB430005F01EFC6060204610BD10B589
:104F30000446406802F01EF9204610BD10B500215D
:104F40000446007804F037FB142001F087FE207837
:104F5000012104F030FBBDE81040142001F07EBEBA
:104F600070B506460C46082523064CBF01210021DA
:104F7000707804F020FB013D3046FFF7DFFF64004E
:104F800015F0FF05E4B2EFD170BD73B513F0800FDB
:104F90001E460C46154614BFC021E021730658BFBB
:104FA00041F010012A0658BF41F008016B0658BFB6
:104FB00041F00401220658BF41F00201630658BFC8
:104FC00041F001010190FFF7CBFF01983146FFF757
:104FD000C7FF01982946FFF7C3FF0198214602B099
:104FE000BDE87040FFF7BCBF2DE9F04704460F460F
:104FF0000021904699469DF820A0FFF7B1FF0021BF
:105000002046FFF7ADFF00212046FFF7A9FF002152
:105010002046FFF7A5FF0026A378F5B2AB4219D9C9
:1050200005EB4500AF4200F1010200F1020308D197
:10503000616801F80080616801F80290616801F818
:1050400003A06168CB5C8A5C095C2046FFF79DFF8A
:105050000136E1E720460021FFF782FF20460021CC
:10506000FFF77EFF20460021FFF77AFF2046002150
:10507000BDE8F047FFF774BF73B50446012100781F
:1050800004F088FA6078012104F084FA00252E46A5
:10509000A378E9B28B4207D9002300961A4620462E
:1050A000FFF7A2FF0135F3E702B070BD0368C9B294
:1050B0009B68184710B5044604F0AEFA3C2102F094
:1050C00045FC04F0A9FA8021FFF7F0FF04F0A4FAF0
:1050D000036821469B68984704F09EFABDE810409B
:1050E00002F03BBC08B5AE20FFF7E4FF052002F05C
:1050F00079F8AF20FFF7DEFF052002F073F8BDE876
:105100000840A620FFF7D6BF08B501230370202072
:10511000FFF7D0FFBDE808400220FFF7CBBF10B576
:1051200050391446C8B2FFF7C5FFE00000F0080090
:10513000FFF7C0FFC4F343001030BDE81040FFF795
:10514000B9BF10B50C4604F067FA3C2102F0FEFB33
:1051500004F062FA4021FFF7A9FF04F05DFA03684A
:1051600021469B68984704F057FABDE8104002F0CA
:10517000F4BB0000A1F120035F2B88BF202170B594
:1051800001F10051074D2039064605EBC105082401
:1051900015F8011B3046013CFFF7D3FF14F0FF0464
:1051A000F6D170BD65C70D0070B50546AE20FFF79E
:1051B00081FF00260022F1B22846FFF7B0FF10243D
:1051C00020212846013CFFF7D5FF14F0FF04F7D15A
:1051D0000136082EEED1AF20FFF76CFF22462146A4
:1051E0002846BDE87040FFF79ABF70B506460D46E9
:1051F0000024E3B20134E95C19B13046FFF7BAFF8D
:10520000F7E770BDF0B585B000230C1ECDE9013382
:105210000646ADF80C3024DA2D21FFF7ABFF6442CF
:10522000012300250A202A4604A90A440135B4FBBB
:10523000F0F100FB114402F80C4CEDB20C460029D1
:10524000F1D12B44DCB204AB5F190D3F75B117F8F7
:1052500001193031C9B23046013DFFF78BFFEDB285
:10526000F4E7DED13021FFF785FF0124204605B0A9
:10527000F0BDA620FFF71EBF03681847012A03D020
:10528000022A03D0002070470160FBE70B6803602F
:10529000F8E7000013B51C20FEF7FDFE044648B1F8
:1052A000064B07491B6800930968064B42F23432EB
:1052B00001F078F8204602B010BD00BF0CE50320D5
:1052C00008E5032065CA0D0013B52020FEF7E3FEB4
:1052D000044640B1054B06491B6800930968054B1D
:1052E000502200F05FFA204602B010BD0CE503200A
:1052F00008E5032065CA0D0013B51C20FEF7CBFEA0
:10530000044648B1064B07491B6800930968064BE1
:1053100042F2343201F0B0FB204602B010BD00BFB3
:105320000CE5032008E5032065CA0D0013B5142021
:10533000FEF7B1FE044640B1054B06491B680093D9
:10534000002309681A4600F059FD204602B010BD3E
:105350000CE5032008E5032010B5064B0360643319
:105360000446036103F0D8FC204603F0CFFD20463D
:1053700010BD00BFF4D00D0038B584690A4B03603E
:1053800005467CB16368013B63605BB923682046D6
:105390009B689847A368013BA3601BB9236820461C
:1053A000DB689847284638BD8CD00D0010B583685F
:1053B000044613B1032201469847204610BD000061
:1053C00010B586B002AB0291044693E803006A462A
:1053D00082E8030094E8030083E8030092E80300F6
:1053E000A2680492064AA260E2680592054AE26059
:1053F00084E803001846FFF7D9FF204606B010BD29
:105400007D520D0079520D0010B50446FFF7B4FF30
:1054100020461C2104F02DF9204610BD10B504468D
:10542000FFF79AFF20464C2104F023F9204610BDD7
:1054300070B500F10801C2680B463AB1157C0478DA
:10544000A5422ABF1346D2689268F6E7994204D073
:1054500000781A7C904238BF0B46DA690AB904F02A
:10546000C0F9BDE870401A6A03F1140010478B6858
:1054700070B5164604460D1D01225BB130781A7CCA
:10548000904234BF9868D8681D4634BF012200227C
:105490000346F2E792B1CA68AA4203D1C4E90035D3
:1054A000204670BD284604F03EF93378027C9A42CB
:1054B0004FF00003F2D3C4E90003F1E72846F4E714
:1054C0002DE9F04300F10408856885B00646894659
:1054D000444655B199F800302A7C9A4236BFEB68B1
:1054E000AB6825462C461D46F3E7A04504D099F845
:1054F0000020237C9A422ED22420FEF7CCFD99F87E
:10550000009080F810900023A045074600F110029B
:10551000C36125D173691BB131690B7C4B4509D33C
:10552000314602A8FFF7A3FFDDE90241002951D06F
:10553000002C4DD188454BD0387C0B7C98422CBF39
:105540000020012043460A46394604F0EEF873690C
:10555000013373613C4604F1140005B0BDE8F083EB
:10556000237C01924B4518D9F3689C4209D0204610
:1055700004F0D9F8037C019A4B4505D2C36853B9AE
:10558000044621461C46D1E7314602A8FFF76FFFCB
:10559000DDE90234F5E72346F3E71BD231698C429B
:1055A0000BD0204604F0ACF8037C019A4B4505462D
:1055B00005D9E36853B921461D462C46B6E7314666
:1055C00002A8FFF754FFDDE90251F6E70146F4E7D0
:1055D0000120B7E707F11400FFF7E8FE3846FEF7B1
:1055E0005EFD2746B6E700002DE9F341051D0026C4
:1055F000174600F10802C0E90362C0E90526044627
:105600008846067203700DF10701012328468DF8C4
:105610000730FFF755FF1649FFF7D2FE0DF10701DE
:1056200028468DF80760FFF74BFF1249FFF7C8FEC9
:1056300002230DF1070128468DF80730FFF740FFE0
:105640000D49FFF7BDFE03230DF1070128468DF834
:105650000730FFF735FF0949FFF7B2FE084BC3F8E3
:105660000080084B20461F6002B0BDE8F08100BFFB
:1056700095520D00C9520D00F9520D002D530D0029
:1056800008E503200CE5032010B50E4C204603F07E
:1056900001FA20460C4C0D4A0D4903F0E5FF204667
:1056A00003F0F8F920460B4C084A094903F0DCFFE7
:1056B000204603F00BFC2046044A0749BDE8104091
:1056C00003F0D2BFECE4032084E4032040E4032091
:1056D00079530D00A0E4032059530D000175704764
:1056E0000022011DC0E90221C0E9041202717047C5
:1056F00070B506462DED028B142001F033FD0546F2
:10570000142001F02FFD0446304605F0E2F8324641
:1057100000230238984214DD12F8011B0D293AD1FA
:1057200011780A2937D151780D2934D191780A2975
:1057300031D10433F1181422284605F0E4F800238F
:105740002B750A21284605F087F8064628B30A215A
:10575000013005F081F800B33146204605F093F89A
:10576000204605F0B6F82044002300F8013C20460E
:1057700004F0F4FF51EC100B04F006FE08EE100AE2
:10578000204601F0F7FC284601F0F4FCB0EE480A90
:10579000BDEC028B70BD0133BCE79FED018AF5E7DC
:1057A0005F42A2CD30B5074D05600025C0E9011369
:1057B0000575039B41F2883585610525C0E90332F3
:1057C000057730BD80CC0D002DE9F74FDFF88C80D8
:1057D000DFF88CA0DFF88CB004460D461746002693
:1057E00040465FFA86F902F048FF88BB237F4B45AD
:1057F0002ED9237DCBB103F097FD514602F090FCEA
:1058000003F092FD294602F08BFC03F08DFD594612
:1058100002F086FC03F088FD0A224946019002F05E
:105820009CFC019B184602F082FC0023BAB2294678
:10583000404603F053F9237D23B103F075FD06497B
:1058400002F081FC4FF47A7001F0CCFC0136C7E71E
:1058500003B0BDE8F08F00BFA3CA0D0010E5032020
:1058600079CA0D008FCA0D002DE9F0414B1E0C4680
:1058700001F52F720546002103F8011F9342FBD169
:105880002B7D4BB103F050FD144902F05CFC03F09A
:105890004BFD134902F057FC124F002640F2BB2883
:1058A000384603F04DF870B1384602F082FFA0553B
:1058B0002B7D2BB103F038FD0368A15D9B689847F1
:1058C00001364645ECD12B7D33B103F02DFDBDE80B
:1058D000F041054902F037BCBDE8F081C8CA0D00AF
:1058E000B4CA0D0010E50320C7CA0D00F8B50E4F6D
:1058F00004460026384603F023F8054690B9A3690C
:10590000B3420FDD012001F06DFCA3690136B34203
:10591000F0DC207D28B103F007FD044902F013FC00
:105920002846F8BD0120FCE710E50320D3CA0D008E
:10593000F8B50F460269416804461D46FFF744FF6B
:10594000784802F09AFE0646002800F0E180764989
:10595000744802F0E5FB3946724802F0E1FB7349F6
:10596000704802F0DDFB72496E4802F0D9FB6168B5
:105970006C4802F0D5FB6F496A4802F0D1FB6E49D2
:10598000684802F0CDFBA168664802F0C9FB69498E
:10599000644802F0C5FB6949624802F0C1FBE16856
:1059A000604802F0BDFB63495E4802F0B9FB644900
:1059B0005C4802F0B5FB63495A4802F0B1FB284647
:1059C00004F087FF60490646564802F0A9FB0A2208
:1059D0003146544802F0C1FB5C49524802F0A0FB3A
:1059E0002946504802F09CFB52494E4802F098FB71
:1059F0004C4802F041FE237D002B69D003F094FC5B
:105A0000534902F0A0FB03F08FFC474902F088FBEA
:105A100003F08AFC394602F083FB03F085FC43491E
:105A200002F07EFB03F080FC414902F079FB03F0B9
:105A30007BFC616802F074FB03F076FC3D4902F0E8
:105A40006FFB03F071FC3C4902F06AFB03F06CFC55
:105A5000A16802F065FB03F067FC364902F060FBC9
:105A600003F062FC354902F05BFB03F05DFCE1688A
:105A700002F056FB03F058FC2E4902F051FB03F0F4
:105A800053FC2F4902F04CFB03F04EFC2D4902F071
:105A900047FB03F049FC2C4902F042FB03F044FCB5
:105AA0000A22314602F059FB03F03EFC274902F07E
:105AB00037FB03F039FC294602F032FB03F034FCDB
:105AC0001C4902F02DFB03F02FFC224902F03BFBA6
:105AD0002046FFF70BFF237D2BB90124114802F06C
:105AE00089FF2046F8BD03F01FFC1B490D4D02F055
:105AF0002AFB284602F024FF0028EED0284602F0B8
:105B000058FE044603F010FCE1B202F00DFBF0E792
:105B1000247D002CE2D003F007FC104902F013FBB7
:105B20003446DBE710E5032006CB0D001ECB0D004D
:105B30002ACB0D004ECC0D0031CB0D003ECB0D001D
:105B40004DCB0D0061CB0D0082CB0D004CCC0D0078
:105B500093CB0D00AFCB0D00CDCB0D00E9CB0D00ED
:105B600070B52DED028B044600230E4615464168A4
:105B70006648502202F0B2FF204661685022FFF7CB
:105B800023FE624802F079FD002800F0B6806049EB
:105B90005E4802F0C5FA31465C4802F0C1FA5D4940
:105BA0005A4802F0BDFA2946584802F0B9FA5A4953
:105BB000564802F0B5FA5949544802F0B1FA58492A
:105BC000524802F0ADFA6168504802F0A9FA55490E
:105BD0004E4802F0A5FA54494C4802F0A1FAA168D7
:105BE0004A4802F09DFA4F49484802F099FA4F4955
:105BF000464802F095FAE168444802F091FA4949B2
:105C0000424802F08DFA4A49404802F089FA237D61
:105C1000002B4FD003F088FB3D4902F081FA03F0DE
:105C200083FB314602F07CFA03F07EFB394902F037
:105C300077FA03F079FB294602F072FA03F074FB5D
:105C4000354902F06DFA03F06FFB344902F068FA4F
:105C500003F06AFB324902F063FA03F065FB616806
:105C600002F05EFA03F060FB2E4902F059FA03F0ED
:105C70005BFB2D4902F054FA03F056FBA16802F0D9
:105C80004FFA03F051FB274902F04AFA03F04CFBAC
:105C9000264902F045FA03F047FBE16802F040FABA
:105CA00003F042FB1F4902F03BFA03F03DFB2049A1
:105CB00002F036FA2046FFF719FE48B913489FED67
:105CC0001D8A02F097FEB0EE480ABDEC028B70BD53
:105CD0004FF42F7001F046FA014605462046FFF7C3
:105CE000C3FD2846FFF704FD0848B0EE408A02F0E5
:105CF00081FE284601F03EFAE5E7237D002BDDD04A
:105D000003F012FB0C4902F01EFAD7E710E503205E
:105D100013CC0D0028CC0D002ACC0D001ECB0D009D
:105D20002ACB0D004ECC0D0031CB0D003ECB0D002B
:105D30002ECC0D005F42A2CD51CC0D0010B5054C0C
:105D4000204602F0A7FE2046034A0449BDE8104061
:105D500003F08ABC10E5032040E4032079530D00D2
:105D60009FED010A704700BF5F42A2CD01747047EA
:105D70000022011DC0E90221C0E90412027170472E
:105D800030B585B01A46089B1B788DF8003002A804
:105D90003C2301F0DFFB0020029C01F02FF920B131
:105DA000637813B901F04EF9FAE76378BFF35B8FBC
:105DB000651CABB90025039C7CB16368013B636043
:105DC0005BB9236820469B689847A368013BA360A2
:105DD0001BB923682046DB689847284605B030BDCC
:105DE000002001F00BF920B12B7813B901F02AF94A
:105DF000FAE72378012BDDD1257BDCE710B5044CD5
:105E00000460C0E901130024029B0474C36010BD48
:105E100098CC0D0010B50446006808B1FEF741F9B2
:105E2000E06801F0A7F9606810B1042103F021FCDB
:105E3000204610BD38B504460120607494F9100066
:105E4000E56800EB800045F8201094F91010E06838
:105E500001EB810100EB810181ED020A94F9101040
:105E6000E06801EB810100EB81014A6094F91020A8
:105E7000E16802EB820201EB8202D36094F91030F8
:105E8000E26803EB830302EB8303049A1A61237C29
:105E900001335BB20A2B237408DDA37C23B103F02A
:105EA00043FA034902F04FF90A23237438BD00BFB7
:105EB000A8CC0D0010B510EE100A86B00C4603F009
:105EC00013FF02460B4601A80A4901F063F901A835
:105ED0001422002310F8011B202906D0E1540133BD
:105EE000DBB211B9E15406B010BD013A12F0FF0265
:105EF000F0D1F8E7E7CC0D002DE9F04F0C4689B062
:105F00004C49DFF85481DFF85491DFF854A105467D
:105F1000204604F0B8FC002695F910309E426ADA5B
:105F2000EB6806EB860B03EB8B0393ED020A03A9E8
:105F30002846FFF7BFFFEB6803A9009153F82B3009
:105F400022464146204601F025F9EB684FEA8B07CF
:105F50003B44DB6843B322464946204601F01AF928
:105F6000EB683B441B69002B38D00A2093FBF0F10F
:105F700091FBF0FC00FB1C1C00FB1131C9B2642238
:105F800093FBF2F292FBF0FE00FB1E2200915FFAFF
:105F90008CF32949D2B202A801F0FCF8274902ABE0
:105FA0002246204601F0F6F8EB681F447B6823B1D7
:105FB00023492246204601F0EDF822462149204699
:105FC00001F0E8F8013695F91030F6B29E4222460B
:105FD0000ADA1D49204601F0DDF89DE722465146C8
:105FE000204601F0D7F8DFE71649204601F0D2F845
:105FF00000232B7490E7AB7CC3B103F095F91349F0
:1060000002F0A1F803F090F9114902F09CF803F0B6
:106010008BF9214602F097F803F086F90B4902F05C
:1060200092F803F081F90B4902F08DF809B0BDE850
:10603000F08F00BFECCC0D0014CD0D001BCD0D007A
:1060400026CD0D0035CD0D0039CD0D00C8CA0D008F
:106050003DCD0D0050CC0D00EECC0D0001CD0D005E
:1060600020CD0D002DE9F04F0C46054689B0524970
:10607000DFF87481DFF87491204616461F4604F05D
:1060800002FCAB684D4A4E49204601F083F8334686
:106090004C4900972246204601F07CF84A49494F76
:1060A0002246204601F076F8002695F910309E42EF
:1060B00064DAEB6806EB860B03EB8B0393ED020AC5
:1060C00003A92846FFF7F6FEEB6803A9009153F8F1
:1060D0002B3022463946204601F05CF8EB684FEA47
:1060E0008B0A53445B6823B122464146204601F0A7
:1060F00051F8EB685344DB683BB3224649462046DF
:1061000001F048F8EB6853441B6953B30A2093FB32
:10611000F0F191FBF0FC00FB1C1C00FB1131C9B23B
:10612000642293FBF2F292FBF0FE00FB1E22009130
:106130005FFA8CF32549D2B202A801F02BF824496A
:1061400002AB2246204601F025F895F910300136C1
:10615000F6B29E4222460ADA1E49204601F01AF89B
:10616000A3E71D492246204601F014F8EDE71B493C
:10617000204601F00FF800232B7496E7AB7CC3B1E7
:1061800003F0D2F8164901F0DEFF03F0CDF815490F
:1061900001F0D9FF03F0C8F8214601F0D4FF03F065
:1061A000C3F80F4901F0CFFF03F0BEF8024901F038
:1061B000CAFF09B0BDE8F08F50CC0D0065CA0D00D4
:1061C00046CD0D0052CD0D005ACD0D0014CD0D0061
:1061D0001BCD0D0039CD0D0020CD0D006CCD0D0077
:1061E000C8CA0D003DCD0D005FCD0D0065CD0D0081
:1061F0002DE9F74304464FF42F701E460F46904694
:1062000000F0B0FFE37C013B012B054626D8014698
:1062100043463A462046FFF725FFA37C23B103F00F
:1062200083F8114901F08FFF606803680096D3F886
:10623000009039462B464246C8470746284600F09C
:1062400099FF1EB10121304603F013FA002307B174
:1062500063743846237403B0BDE8F08301462046DA
:10626000FFF74AFED9E700BF73CD0D0070B50446B5
:1062700001200D461646FDF70EFF067003462A461E
:1062800029462046BDE87040FFF7B2BF70B505460D
:106290000C4684B1E1682846FFF7F8FFE369A66879
:1062A00023B104F114010322084698472046FDF764
:1062B000F6FE3446EDE770BDF0B58DB0044601A89A
:1062C0000D4617461E4600F0CDFE03980130FDF73F
:1062D000E4FE0199206004F0D6FA2A463346394696
:1062E000E67405A8FFF780F9C82000F03BFFE060E6
:1062F00005A8FFF79DF80023C4E901050899237458
:1063000006A8FFF7C3FF01A802F096F80DB0F0BD94
:1063100038B5002504460582FFF7CEFF204638BD7C
:1063200070B505460C464CB1E1682846FFF7F8FF0A
:10633000A6682046FDF7B3FE3446F4E770BD0000C2
:1063400010B5104B104C00221A70204602F0A2FB30
:1063500020460E4C0E4A0F4903F086F9204602F003
:1063600099FB20460C4C0A4A0A4903F07DF9204665
:1063700002F0ACFD2046064A0849BDE8104003F093
:1063800073B900BFB0E5032094E503202CE503209A
:1063900040E4032079530D0048E5032059530D00D4
:1063A0000175704730B5064D0560C0E90113002541
:1063B000039B057541F28835C0E90332856130BD24
:1063C00020CE0D002DE9F84F0D461746804602F00D
:1063D000ABFF1E491E4EDFF87CA0DFF87CB001F059
:1063E000B2FE0024304602F01CFB60BB052C2AD014
:1063F00098F81430C3B102F097FF514601F090FEB7
:1064000002F092FF294601F08BFE02F08DFF594603
:1064100001F086FE02F088FF0A228146214601F043
:106420009CFE484601F083FE304602F0E3FA00236A
:10643000BAB22946304602F051FB4FF47A7000F0B0
:10644000D1FE0134CEE7BDE8F88F00BF83CD0D004B
:10645000B4E5032079CA0D008FCA0D0070B504465B
:106460000E4681682E48154601F05AFE2D492C48EB
:1064700001F056FEE1682A4801F052FE2A492848F8
:1064800001F04EFE3146264801F04AFE27492448D5
:1064900001F046FE2946224801F042FE24492048E8
:1064A00001F03EFE237D002B38D002F03DFF214954
:1064B00001F049FE02F038FF1F4901F044FE02F0EE
:1064C00033FFA16801F02CFE02F02EFF154901F008
:1064D00027FE02F029FFE16801F022FE02F024FF0E
:1064E000114901F01DFE02F01FFF314601F018FEB8
:1064F00002F01AFF0D4901F013FE02F015FF2946C4
:1065000001F00EFE02F010FF094901F009FE02F051
:106510000BFFBDE87040094901F015BE70BD00BF1A
:10652000B4E503209BCD0D009ECD0D0044CD0D00A4
:106530006ECD0D00B6CD0D00A0CD0D00B5CD0D007A
:10654000F8B50E4F04460026384602F0F9F9054624
:1065500090B9A369B3420FDD012000F043FEA369A7
:106560000136B342F0DC207D28B102F0DDFE0449A3
:1065700001F0E9FD2846F8BD0120FCE7B4E5032061
:10658000D3CA0D002DE9F047037D06468846144620
:106590004BB102F0C9FE274901F0D5FD02F0C4FE5F
:1065A000254901F0D0FDDFF8A490002540F2BB2A78
:1065B000484602F0C5F978B1484602F0FAF8337D52
:1065C000C7B22BB102F0B0FE036839469B6898470A
:1065D000675501355545EBD1337D23B102F0A4FE5B
:1065E000164901F0B0FD002363551549404604F0FB
:1065F00040F968B91349204604F098F99FED120A52
:106600000028F7EE007A18BFB0EE670ABDE8F08701
:106610007C21204604F020F948B1013004F09EF8B6
:1066200051EC100B03F0B0FE00EE100AEEE79FED08
:10663000060AEBE7C8CA0D00B4CA0D00C7CA0D00B0
:10664000BBCD0D00C0CD0D005F42A2CDB4E503204F
:1066500070B52DED028B04464168224842F2343277
:106660001D46002302F03AFA2046616842F23432B5
:10667000FFF7A8FE1B4802F000F848B32946194866
:1066800001F04EFD2046FFF75BFF054638B915487F
:1066900002F0B0F90025BDEC028B284670BD6420E5
:1066A00000F060FD1049024606462046FFF76AFFEB
:1066B0003046B0EE408A00F05DFDDFED0C7AB4EEBE
:1066C000678AF1EE10FAE2D0064802F093F9E2E7A9
:1066D000237D002BDBD002F027FE054901F033FDBE
:1066E000D5E700BFB4E50320BBCD0D005F42A2CDCE
:1066F000C3CD0D0070B52DED028B044600230D4671
:10670000164641681E4842F2343202F0E7F920464C
:10671000616842F23432FFF755FE194801F0ADFFCF
:1067200028B3204632462946FFF798FE2046FFF759
:1067300007FF48B912489FED138A02F05BF9B0EEEB
:10674000480ABDEC028B70BD4FF42F7000F00AFDBB
:106750000D49024605462046FFF714FF0848B0EEF3
:10676000408A02F047F9284600F004FDE7E7237D60
:10677000002BDFD002F0D8FD044901F0E4FCD9E79A
:10678000B4E503205F42A2CDE1CD0D00E4CD0D00C4
:106790002DE9F0470446182015460F46FDF77BFC0F
:1067A00007F1040A6B68D5F80090BA6843610646A1
:1067B000C0F810905546012352B113694B45CCBF28
:1067C0009168D1681546CCBF012300230A46F3E740
:1067D000A3B1FB68AB4223D0284602F0A4FF804659
:1067E000D8F810304B451BDB3046FDF758FCC4F899
:1067F0000080002323712046BDE8F087A846EFE71C
:1068000028698145ACBF0020012053462A46314605
:1068100002F08BFF7B69266001337B610123E9E78E
:10682000AA45EDD10120F0E72DE9FF470D460446CA
:106830004FF42F7000F096FC2B7D07464BB102F011
:1068400073FD3A4901F07FFC02F06EFD384901F01A
:106850007AFCDFF8F090002640F2BB2A484602F0AE
:106860006FF888B1484601F0A4FF2B7D5FFA80F8ED
:106870002BB102F059FD036841469B68984707F821
:10688000068001365645E9D12B7D23B102F04CFD3F
:10689000284901F058FC0025231DC4E90253C4E92E
:1068A0000435254925713846BD5504F08BFEDFF8C7
:1068B0009890DFF898A0DFF8808006467EB34946BE
:1068C000304603F0D6FF00BB414604F07BFE1B4977
:1068D000064603F0CEFF18B9194B0095019308E066
:1068E000304603F03BFF51EC100B009503F04CFDDC
:1068F00001906A46214602A8FFF74AFF4146002060
:1069000004F060FE01350646D8E75146304603F0F4
:10691000B0FF0028F2D1414604F054FEDCE73846CF
:1069200000F028FC204604B0BDE8F087C8CA0D007E
:10693000B4CA0D00C7CA0D009ECD0D000ACE0D00D1
:106940005F42A2CDB4E50320C0CD0D000FCE0D00F7
:106950002DE9F041071D98460023C0E90237C0E940
:10696000047303710D4688B04968044616462E48E4
:1069700042F2343202F0B2F82846696842F2343208
:10698000FFF720FD284801F078FE10B3314642465B
:106990002846FFF763FD2846FFF7D2FD0646C0B93B
:1069A0002148224F02F026F82149404604F00AFE11
:1069B00035461F4E002832D0214602A86A4600956F
:1069C0000197FFF7E5FE31460020013504F0FAFD9E
:1069D000F0E7294602A8FFF727FFA1682046FFF746
:1069E0009FFC049A0023C4E90237C4E904737AB116
:1069F0009DF80C1021710599E1600699A260216152
:106A00005760079A626103AACDE9052204930793B0
:106A100002A80499FFF784FC034801F0EBFF20462D
:106A200008B0BDE8F08100BFB4E503205F42A2CD0D
:106A30003BCD0D0010B5054C204602F02BF820464A
:106A4000034A0449BDE8104002F00EBEB4E503203D
:106A500040E4032079530D009FED010A704700BF09
:106A60005F42A2CD017570470022011DC0E90221DD
:106A7000C0E904120271704730B5064D0560C0E9E7
:106A800001130025039B057541F28835C0E90332E7
:106A9000856130BDE4CE0D0010B5054C204602F0F6
:106AA00015FA2046034A0449BDE8104002F0DCBD57
:106AB000D0E5032040E4032059530D0010B50446EF
:106AC0004A68024901F08AFA204610BD20E60320F8
:106AD000F0B58FB00146064602A81F46FFF7EEFF4D
:106AE00002A800F09BFFA0B9337D23B102F01CFC8B
:106AF000274901F028FBF323009337223D23A921E6
:106B000008A809AD00F0AEFF0FCD03AC0FC42B6891
:106B10002370002240F2BD211E4802F009FA002233
:106B200042F234311B4802F0ABF803AD1A4B089324
:106B30000FCD09AC0FC42B681648237042F23432D3
:106B400008A902F011FA58B9337D23B102F0ECFB29
:106B5000124901F0F8FA0F4802F0DEF8002014E0C4
:106B6000002FF1D0384603F0B4FE394602460948FA
:106B700002F0E0F80028E7D0064802F03BF90028D0
:106B8000E2D0044802F0C8F801200FB0F0BD00BF09
:106B900030CE0D00D0E50320DCCF0D00BCCE0D00C3
:106BA00073B5037204465020CDE900211E4600F063
:106BB000D9FA60601420FDF76EFA054620B1DDE9D0
:106BC00000213346FFF7A4FB256002B070BD000032
:106BD00038B500250446134645728572024AFFF710
:106BE000DFFF204638BD00BFF4CE0D0038B50446A7
:106BF000406800F0BFFA256835B12846FFF70AF96A
:106C00001421284602F035FD204638BD0068FFF704
:106C100011B907B5002300931A46FFF7F7FF03B039
:106C20005DF804FB0068FFF721BB000008B5024BCC
:106C30001B685B6C019308BD4802030008B5024B5A
:106C40001B689B6C019308BD4802030008B5024B0A
:106C50001B685B68019308BD1802030008B5024B6E
:106C60001B68DB68019308BD1802030008B5024BDE
:106C70001B685B69019308BD1802030008B5024B4D
:106C80001B681B68019308BD2C02030008B5024B6A
:106C90001B689B68019308BD2C02030008B5024BDA
:106CA0001B68DB68019308BD2C02030008B5024B8A
:106CB0001B681B69019308BD2C02030008B5024B39
:106CC0001B681B6A019308BD2C02030008B5024B28
:106CD0001B685B6A019308BD2C02030008B5024BD8
:106CE0001B68DB68019308BD2802030008B5024B4E
:106CF0001B689B69019308BD2802030008B5024B7D
:106D00001B68DB69019308BD2802030008B5024B2C
:106D10001B681B6A019308BD2802030008B5024BDB
:106D20001B685B6A019308BD2802030008B5024B8B
:106D30001B689B6A019308BD2802030008B5024B3B
:106D40001B68DB6A019308BD2802030008B5024BEB
:106D50001B681B6B019308BD2802030008B5024B9A
:106D60001B685B6B019308BD2802030008B5024B4A
:106D70001B681B6C019308BD2802030008B5024B79
:106D80001B685B69019308BD6C02030008B5024BE8
:106D90001B685B69019308BD6402030008B5024BE0
:106DA0001B681B6A019308BD6402030008B5024B0F
:106DB0001B685B6A019308BD6402030008B5024BBF
:106DC0001B689B6A019308BD6402030008B5024B6F
:106DD0001B689B68019308BD6802030008B5024B5D
:106DE0001B68DB68019308BD6802030008B5024B0D
:106DF0001B685B68019308BD3802030008B5024BAD
:106E00001B689B69019308BD3802030008B5024B5B
:106E10001B68DB69019308BD3802030008B5024B0B
:106E20001B681B6A019308BD3802030008B5024BBA
:106E30001B689B6A019308BD3802030008B5024B2A
:106E40001B68DB6A019308BD3802030008B5024BDA
:106E50001B681B6B019308BD3802030008B5024B89
:106E60001B685B6B019308BD3802030008B5024B39
:106E70001B689B6B019308BD3802030008B5024BE9
:106E80001B68DB69019308BD3002030008B5024BA3
:106E90001B681B6A019308BD3002030008B5024B52
:106EA0001B681B68019308BD3C02030008B5024B38
:106EB0001B68DB68019308BD3C02030008B5024B68
:106EC0001B681B69019308BD3C02030008B5024B17
:106ED0001B685B69019308BD3C02030008B5024BC7
:106EE0001B689B69019308BD3C02030008B5024B77
:106EF0001B68DB69019308BD3C02030008B5024B27
:106F00001B681B6A019308BD3C02030008B5024BD5
:106F10001B689B6A019308BD3C02030008B5024B45
:106F20001B681B68019308BD4C02030008B5024BA7
:106F30001B685B68019308BD4C02030008B5024B57
:106F40001B681B69019308BD4C02030008B5024B86
:106F50001B685B69019308BD4C02030008B5024B36
:106F60001B689B69019308BD4C02030008B5024BE6
:106F70001B68DB69019308BD4C02030008B5024B96
:106F80001B681B6A019308BD4C02030008B5024B45
:106F90001B685B6B019308BD6002030008B5024BE0
:106FA0001B689B6B019308BD6002030008B5024B90
:106FB0001B68DB6B019308BD6002030008B5024B40
:106FC0001B681B6D019308BD6002030008B5024BEE
:106FD0001B685B6D019308BD6002030008B5024B9E
:106FE0001B685B68019308BD2002030008B5024BD3
:106FF0001B685B69019308BD2002030008B5024BC2
:107000001B68DB6C019308BD2002030008B5024B2E
:107010001B685B6D019308BD2002030008B5034B9C
:107020001B68D3F88830019308BD000020020300DC
:1070300008B5034B1B68D3F89430019308BD0000DA
:107040002002030008B5024B1B689B68019308BD32
:107050004402030008B5024B1B685B69019308BD3D
:107060004402030008B5024B1B68DB69019308BDAD
:107070004402030008B5024B1B681B6A019308BD5C
:107080004402030008B5024B1B685B6A019308BD0C
:107090004402030008B5024B1B68DB6B019308BD7B
:1070A0004402030008B5024B1B685B68019308BDEE
:1070B0004002030008B5024B1B689B68019308BDA2
:1070C0004002030008B5024B1B68DB68019308BD52
:1070D0004002030008B5024B1B681B69019308BD01
:1070E0004002030008B5024B1B685B69019308BDB1
:1070F0004002030008B5024B1B689B69019308BD61
:107100004002030008B5024B1B68DB69019308BD10
:107110004002030008B5024B1B681B6A019308BDBF
:107120004002030008B5024B1B681B6B019308BDAE
:107130004002030008B5024B1B685B6B019308BD5E
:107140004002030008B5024B1B681B6C019308BD8D
:107150004002030008B5024B1B685B6C019308BD3D
:107160004002030008B5024B1B681B68019308BD71
:107170001C02030008B5024B1B685B68019308BD45
:107180001C02030008B5024B1B689B68019308BDF5
:107190001C02030008B5024B1B68DB68019308BDA5
:1071A0001C02030008B5024B1B68DB6A019308BD93
:1071B0001C02030008B5024B1B681B6B019308BD42
:1071C0001C02030008B5024B1B68DB6B019308BD72
:1071D0001C02030008B5024B1B685B6C019308BDE1
:1071E0001C0203000021FFF701BF10B583680446AD
:1071F0000BB902F0F6FAC3689847A3681BB10322E3
:1072000021462046984720461021BDE8104002F054
:1072100030BA10B50446006808B1FFF70FFD2046EC
:1072200010BD13B50B460246D0E900016C4684E858
:10723000030093E8030082E8030094E8030083E876
:10724000030002B010BD000010B5064C002320461C
:107250002360FFF7EBFC2046034A0449BDE81040D9
:1072600002F002BA1CE6032040E4032013720D0072
:10727000002240681146FFF72DBF002240681146EA
:10728000FFF748BF002240681146FFF753BF406830
:107290000022FFF747BF4068002281F00101FFF79D
:1072A00031BF002340681A461946FFF723BF002369
:1072B00040681A461946FFF715BF0022406811467C
:1072C000FFF7F8BE406800220221FFF7FBBE002353
:1072D00040681A46FFF7E6BE084B10B52824224640
:1072E0001846002103F07CFA054B04804FF0FF3272
:1072F000426004225A60034A1A6010BD28E6032047
:1073000020E6032020CF0D0070470020704710B505
:107310001021044602F0ADF9204610BD08B5FFF774
:10732000F6FF08BD30B500224FF69C7402608480E1
:107330008D888C800C68858004600A6030BD10B533
:1073400004460068FFF716FF204610BD38B5C46834
:10735000F4B12378022B03D104F10C00FFF7EFFF07
:10736000656835B12846FEF721F81021284602F05D
:1073700080F9A56835B12846FEF718F8102128468F
:1073800002F077F920461421BDE8384002F071B9C7
:1073900038BD73B50E46044656F8043B00930D46BF
:1073A00001A83146FDF756FA019A009B62602360FE
:1073B00001A8002301930093FDF74AF83046FDF73A
:1073C00047F82846082102F054F9204602B070BD63
:1073D000826810B50AB902F004FABDE81040C3682B
:1073E000184708B5006800F11001FFF7F1FF08BD6C
:1073F000826810B50AB902F0F4F9BDE81040C3681C
:10740000184708B5006800F11001FFF7F1FF08BD4B
:1074100038B500230446036010200D46FCF73BFE00
:1074200028B10123C0E90133024B0360C56020602D
:10743000204638BD5CCF0D0038B5002383608B68D3
:1074400004460D462BB102229847EB68E360AB6817
:10745000A360204638BD0000F0B589B004686846D6
:10746000FFF760FF4FF00203D4E84F2F002A03D14B
:10747000C4E8413F0029F7D125D104F10C05694644
:107480002846FFF74FFFBFF35B8F01236370002097
:1074900004F10803BFF35B8F53E8006F43E8000279
:1074A000002AF9D1BFF35B8F6EB1FFF7A7FD78B16A
:1074B00029463046FFF78CFF3046FDF777FF102155
:1074C000304602F0D6F86846FFF739FF09B0F0BD44
:1074D000314602A8FFF7B0FFE068B4F9105008B1D8
:1074E00003F0DAF906901020ADF81C50FCF7D3FD3C
:1074F0000546E8B1002787601820FCF7CCFD04465C
:1075000088B10146876002A8FFF78BFE049BA26842
:10751000A360059B049206A9E268E36004F11000F1
:107520000592FFF7FFFE084BEB60084B2C60AB6049
:1075300006A8FFF704FF02A8FDF738FF002229463E
:107540000348FFF763FDB7E7E3730D0079760D009D
:10755000EB710D002DE9F0478AB005469DF8489083
:107560000C4617469846FFF775FD07AE824638BBB6
:107570004FF62E73059005A93046ADF81830FFF789
:10758000D1FE1420FCF787FD044648B102230370A6
:107590000123C0E901AA437031460C30FFF7C2FE57
:1075A0002846214640F8044BFFF732FF3046FFF7EC
:1075B000C6FE05A8FFF7C3FE28460AB0BDE8F0875F
:1075C0000C234FF0000A1420CDE908AA0793FCF71A
:1075D00062FD014628B1C0E901AA80F800A080F848
:1075E00001A004A80391FFF713FF224B0893082082
:1075F000FCF751FD824628B1039B40F8043B04A9E7
:10760000FDF728F900965FFA89F34246394620468D
:10761000CDF824A0FFF72EFDB8B9039B5B7803F0EB
:10762000FF0293B94FF69C7305A903A80592ADF824
:107630001830FFF711FF05A8FFF781FE05A809998B
:10764000FFF7A7FE06A8FCF703FF039B059304A919
:1076500006A8FDF7FFF8059B069A2B606A600023D9
:1076600006A806930593FCF7F3FE04A8FCF7F0FECA
:10767000A2E700BF3D770D00022AF8B5054607D006
:10768000032A18D0012A01D10B6803600020F8BD3D
:1076900018200E68FCF7FFFC044650B13146FFF796
:1076A000CBFE3069B6F9147008B103F0F5F820612B
:1076B000A7822C60EAE70468002CE7D004F11000F0
:1076C000FFF73DFE2046FDF771FE1821204601F030
:1076D000D0FFDBE738B5002383608B6804460D4696
:1076E0002BB102229847EB68E360AB68A3602046A9
:1076F00038BD022A70B5044607D0032A12D0012AE9
:1077000001D10B680360002070BD14200E68FCF7E7
:10771000C2FC054620B13146FFF7DCFF337C2B74F9
:107720002560F0E70468002CEDD02046FDF73EFE12
:107730001421204601F09DFFE5E70000F0B589B077
:1077400004460D4601A81146FFF723FEA4B124B25A
:107750001DB1284603F0A0F8054601A803A903952A
:10776000ADF81040FFF778FE03A8FFF7E8FD02A888
:10777000FCF76EFE09B0F0BD019D0123D5E84F2F47
:10778000002A03D1C5E8413F0029F7D1EFD12B737F
:10779000BFF35B8F6B702B1DBFF35B8F53E8006FE4
:1077A00043E80042002AF9D1BFF35B8F002EDED000
:1077B0002046FFF723FC074660B105F10C01304677
:1077C000FFF716FE3046FDF7F1FD1021304601F0BF
:1077D00050FFCCE7314603A8FFF77CFF2B7B8DF8E9
:1077E0001C301020FCF757FC0546D0B187601420F0
:1077F000FCF751FC044678B18760014603A8FFF707
:1078000010FD059BA268A360069B0592E268E360F9
:107810009DF81C3006922374064BEB60064B2C60DF
:10782000AB6003A8FDF7C2FD002229460348FFF71D
:10783000EDFBC7E703740D00F3760D00EB710D004F
:10784000002240681146FFF765BC002240681146DF
:10785000FFF770BC40680022FFF764BC406800225C
:1078600081F00101FFF74EBC002340681A4619461B
:10787000FFF740BC002340681A461946FFF732BCA8
:10788000002240681146FFF725BC002240681146DF
:10789000FFF710BC406800220221FFF713BC002351
:1078A00040681A46FFF7FEBB024B03225A60024AA9
:1078B0001A60704750E6032078CF0D007047F8B586
:1078C000064615460C468F18BC4206D0336814F89D
:1078D000011B9B6830469847F6E72846F8BD007CB8
:1078E0000022FFF713BA007C0021FFF717BA007CD3
:1078F0000021FFF71BBA007C0021FFF71FBA007CB4
:107900000021FFF723BA10B51421044601F0B1FE9F
:10791000204610BD10B54FF47A7304460846002186
:10792000C4E90113034B236020741146FFF71EFACC
:10793000204610BDB4CF0D000023007C1A46194626
:10794000FFF7CCB9007C0022FFF7D0B9C9B2FFF72E
:10795000F9BF007C0022FFF7D1B90121FFF7F9BF81
:10796000FFF7B4B9FFF7AAB9704710B5182104465C
:1079700001F07FFE204610BDF0B5037D062B8DB0D3
:107980000E4600F104074FF0000412D000F1080584
:1079900015F8011D0A22304600F0DFFBAF42044417
:1079A00019D0002CF4D02E21304600F0BDFB044449
:1079B000EEE72F236A4639460A208DF80040FFF78C
:1079C000E5F9684602F085FF33680246DB686946E0
:1079D00030469847044620460DB0F0BD10B5054B23
:1079E0000446112240F8043B002102F0F9FE204633
:1079F00010BD00BFDCCF0D000346074A10B543F8A9
:107A0000042B01F1100251F8044B43F8044B91424E
:107A1000F9D10A781A7010BDDCCF0D00037D042B5C
:107A200004D14068003818BF01207047062B07D1E9
:107A300043683BB983682BB9C3681BB90069F1E798
:107A4000002070470120704710B59DF8084044EAB7
:107A5000032343EA024242EA0161042341600375C1
:107A600010BD000037B5044D05609DF81850009515
:107A7000FFF7EAFF03B030BDDCCF0D0013B5054BB7
:107A80000360CB7800938B784A780978FFF7DCFFA6
:107A900002B010BDDCCF0D0000F11003012213F87D
:107AA000101C0129184608D153F8041C02EB4102AE
:107AB000013A03F11003F2D17047022904BF53F8D1
:107AC000041C5218F4E770470020704710B51021CD
:107AD000044601F0CEFD204610BD08B5FFF7F6FFC5
:107AE00008BD10B5C4687CB1206808B1FCF7D9FAAC
:107AF000237A1BB1606808B1FCF7D3FA20460C2149
:107B0000BDE8104001F0B5BD10BD10B503680446D6
:107B10009B689847A368013BA3602BB92368204664
:107B2000DB68BDE81040184710BD38B50B6803602E
:107B30004D6843689D4204460CD015B16B68013313
:107B40006B60606828B14368013B43600BB9FFF785
:107B5000DCFF6560204638BD0B461146002210B59B
:107B6000C0E90022044683600BB9204610BDFFF730
:107B7000DCFFFAE78368EBB11A78032A1AD8DFE84A
:107B800002F00417021B0520704702685B68526808
:107B9000D05C2D2812D0A0F13003092B0ED9742807
:107BA0000ED066280CD0A0F16E03584258417047A1
:107BB000062070470020704704207047032070475C
:107BC000022070470000000010B50446FFF7D2FF06
:107BD00002280DD0C31EDBB2012B10D82268A36887
:107BE00050685B68BDE810400021184403F0DEBC1B
:107BF0002268A36852685B68D35C742B02D09FED47
:107C0000040B10BD9FED040BFBE700BFAFF300803A
:107C10000000000000000000000000000000F03F35
:107C20002DE9F04786B00746884602A800210024C7
:107C30009946102392460293FFF7B0F9CDE900442C
:107C400023464246394602A8FFF7B0F9061E1EDD5C
:107C50001049300101F011FD054690B1214602A8FE
:107C6000FFF79CF9CDE900642B464246394602A84D
:107C7000FFF79CF9A04207DDCAF800500120C9F8BF
:107C8000006006B0BDE8F0872846FCF70AFA2046F7
:107C9000F7E700BFBCD10D002DE9F84F43688668B7
:107CA0000B4488460E4407461C4619464FF00D0902
:107CB0004FF0090AB44263D0254615F8012B5C2A1F
:107CC0002BD1A14207D0A4EB010B18465A4602F073
:107CD0006DFD03465B44B54239D06278752A2AD1DE
:107CE000A21CB21A032A32DDA01D04F1050E4FF0CA
:107CF000000CAE4553D015F8011FA1F130025FFA18
:107D000082FBBBF1090F05D9A1F16102052A07D851
:107D1000A1F1570242EA0C1CEBE728460446C9E7EA
:107D2000A1F14102052A12D8A1F13702F2E703F8C6
:107D300001CB0146F2E76E2A1CD00ED8622A13D07E
:107D400007D82F2A11D05C2A0FD0222A0DD000206C
:107D500023E0662AFBD10C2207E0722A0DD0742A98
:107D6000F5D183F800A001E008221A70A11C0133AC
:107D70000846D3E74FF00A02F7E783F80090F5E7EB
:107D8000A14206D0641A1846224602F00FFD0346AF
:107D90002344A3EB0803BB600120BDE8F88FBCF1CE
:107DA0007F0FC4D92146B9E7F8B50446154600EB64
:107DB00001160027B44210D02378032B08D129469E
:107DC0002046FFF769FF48B1A368EF541034F1E78C
:107DD000002BFBD1A268AB54F8E70120F8BD0000EE
:107DE00038B50023C0E9003304460E48C4E9020355
:107DF000A9B10B78032B06D08BB9136858684B6870
:107E0000C35C6E2B07D013684D6858688B68284494
:107E10005B1BA060E36011462046FFF786FE20460C
:107E200038BD00BF50CC0D0038B500250B46C0E969
:107E30000055C0E90255C0E90455044611464BB14E
:107E40001A78012A06D103F11002DB6882604361CF
:107E5000FFF76BFE204638BD10B54369044663B199
:107E60008068E060013B1030A0602061636113B165
:107E7000FFF712FEA060012000E0184610BD0000D0
:107E800038B500230446036010200D46FCF703F9C3
:107E900028B10123C0E90133024B0360C5602060B3
:107EA000204638BDF0CF0D00F0B5044687B00E4631
:107EB0000C202749154601F0DEFB014618B10023CE
:107EC000C0E90033037203A80291FFF7D9FF029AB9
:107ED00042B9C4E90022A26003A8FCF7B9FA20461F
:107EE00007B0F0BD00230193294601AB3046FFF7F0
:107EF00097FE18B9C4E90000A060EDE71449029F9D
:107F0000681C01F0BAFB029B786058680028F1D029
:107F10002A46314602F03CFC029B01991868012276
:107F20001A725A68FFF740FF0028E3D0029B1968D5
:107F30000493039B059313B15A6801325A6004AA53
:107F40002046FFF709FE05A8FCF782FAC4E700BF48
:107F5000BCD10D00014B024A1A60704758E603205D
:107F600004D00D00002340681A46FFF79BB8406814
:107F700000220221FFF7A6B8002240681146FFF751
:107F800099B8002240681146FFF7A4B80023406862
:107F90001A461946FFF7A6B8002340681A46194644
:107FA000FFF7A8B840680021FFF7CCB8406800216F
:107FB000FFF7D0B84068002281F00101FFF7A2B8B6
:107FC00040680022FFF7AEB8002240681146FFF774
:107FD000B1B8002240681146FFF79CB82DE9F04384
:107FE000002495B016460D460746FFF7F7FC2146DC
:107FF00018220EA8009402F0F3FB4023CDE90C34C4
:1080000021466B460CAA3046FEF7E8FE04460028DF
:108010004CD1024601216868FFF75CF802218046D6
:1080200022466868FFF756F8009E81462146002EDA
:108030003CD000293AD17368022B03D00A2B11D00F
:10804000F669F4E7B8F1000F0AD0716906A80431A7
:1080500007ADFFF713FD0FCD3C1D0FC42B68237038
:108060004146EDE7B9F1000F01D14946E8E77469EF
:10807000102201A802F0B4FB06238DF8143001ADE4
:1080800004F108031834186859682A4603C20833F3
:10809000A3421546F7D101A906A807ADFFF7ACFC2E
:1080A0000FCD3C1D0FC42B682370DEE70098FEF750
:1080B0008DFE384615B0BDE8F0830000024B034A40
:1080C0001A6000225A6070475CE6032010D00D0051
:1080D000F8B506460D468F180024BD420CD0336813
:1080E00015F8011B9B6830469847031E01DB1C44B2
:1080F000F3E7002C08BF1C462046F8BD13B5044624
:10810000084659B1019102F0E4FB23680199DB684C
:108110000246204602B0BDE81040184702B010BD2C
:1081200008B5FFF7EBFF08BD03689B68184738B533
:108130000D210546FFF7F8FF0A2104462846FFF700
:10814000F3FF204438BD38B50546FFF7D7FF044696
:108150002846FFF7ECFF204438BD30B58BB0002334
:108160008DF82430012A98BF0A2209AC0D46B1FBD4
:10817000F2F101FB125303F0FF03092B94BF3033DC
:108180003733DBB2AA4204F8013DEFD92146FFF7AD
:10819000B5FF0BB030BD00002DE9F74F55EC104B8B
:1081A00006460F4610EE102A10EE100A2B462946FE
:1081B00002F08CF840B153493046FFF79FFF8246EA
:1081C000504603B0BDE8F08F25F000494E4B4FF00C
:1081D000FF322046494602F079F848B94A4B4FF041
:1081E000FF322046494602F053F808B94749E3E711
:1081F000474B4FF060422046294602F05DF808B137
:108200004449D9E7444B4FF060422046294602F0EA
:1082100035F80028F4D1002200232046294602F038
:108220002DF8D0B12D213046FFF77EFF05F1004338
:1082300082461D463949DFF8EC904FF0000B0020D4
:108240004FF000085FFA8BF39F4208D942464B4635
:1082500001F0CCFE0BF1010BF4E78246EAE722467F
:108260002B4601F0E3FB0D46044602F06DF8804614
:1082700001F018FD02460B462046294601F0D4FBCA
:108280000A2204460D4630464146FFF766FF824407
:1082900027B123493046FFF731FF8244DFF884904D
:1082A0004FF00008013FFFB2FF2F89D042464B46F6
:1082B0002046294601F070FD04460D4602F01CF8E8
:1082C000B0F1000B1ADA2D213046FFF72DFFCBF16C
:1082D000000103460A2230460193FFF73EFF019B4F
:1082E00018448244584601F0EDFC02460B462046F5
:1082F000294601F099FB04460D46D3E75946002371
:10830000E8E700BF44D00D00FFFFEF7F48D00D002D
:10831000FFFFEF414CD00D00FFFFEFC10000E03F39
:10832000CBCB0D000000244038B5C9B20546FFF79D
:1083300033FF04462846FFF7FAFE204438BD10B547
:108340000446FDF733F8204610BD00000348044AF8
:1083500004490023836001F087B900BF64E603206D
:1083600040E403203F830D0010B504460846217009
:10837000FEF784FD00236360204610BD2DE9F04721
:1083800057EC106B80460C4610EE100A00220023BA
:10839000394601F073FF28B107F100431F462D2332
:1083A00004F8013B00234FF001090A22D9B28845A5
:1083B00003D902FB09F90133F8E7484601F082FCD2
:1083C00032463B4601F0E8FC06460F4602F044F810
:1083D00005468A4601F0AAFC02460B46304639465D
:1083E00001F022FB134B002201F05CFF10B10135BC
:1083F0004AF1000A4A462846D317514602F014F8BB
:108400000123154621460A2200F0C9FFB8F1000FEA
:108410000DD0204602F05DFA2E23211823540A22A3
:10842000434628460131BDE8F04700F0B8BFBDE83B
:10843000F08700BF0000E03F10B504460068FEF77B
:1084400099FE204610BD10B50446006808B1FEF73D
:1084500091FE0023C4E90133236010BD38B5044602
:108460000D4600680131FEF78DFE10B1C4E900052C
:10847000012038BD10B50368044623B143688B4220
:1084800001D3012010BD2046FFF7E8FF0028F9D0F6
:10849000A368002BF5D122681370F2E737B50D46BB
:1084A000114601920446FFF7E5FF019A28B92046DC
:1084B000FFF7C9FF204603B030BDA26029462068FF
:1084C00002F066F92268A3680021D154F2E78842DD
:1084D00010B5044605D00B682BB18A681946FFF722
:1084E000DDFF204610BDFFF7AEFFFAE710B5002311
:1084F0000446C0E9003383600373FFF7E8FF2046BA
:1085000010BD13B5044659B10846019102F0E1F9D6
:10851000019902462046FFF7C1FF204602B010BD78
:10852000FFF791FFF9E730B5044600238BB0C4E9AB
:108530000033A360237310EE100ACDB201F0D4FB18
:1085400041EC100B01A92846FFF718FF01A92046AE
:10855000FFF7D7FF20460BB030BD10B504468AB0F8
:1085600000230846C4E90033A360237301A9C0B205
:10857000FFF704FF01A92046FFF7C3FF20460AB01A
:1085800010BD70B505460E4609B9002070BD6AB130
:10859000846814442146FFF76DFF0028F5D0286851
:1085A000AB683146184402F06EF9AC600120EDE78B
:1085B00013B5044629B92046FFF745FF204602B00F
:1085C00010BD0846019102F084F901990246204647
:1085D000FFF7D7FF0028EED0F0E710B5044600689B
:1085E00018B1FEF7C7FD0023236010BD10B5044687
:1085F000FFF7F3FF204610BD10B5094B094C0222CE
:1086000000201A60084B2060A080A071A360FEF7D4
:10861000E5FC2046054A0649BDE8104001F024B8B3
:1086200080E6032074E603200000FFFF40E40320FF
:10863000ED850D0013B503688DF80710DC6B012282
:108640004FF0FF330DF10701A04702B010BD10B489
:108650000368DC6B4FF0FF33A4465DF8044B6047C2
:1086600013B5134602688DF80710D46B0DF107019E
:108670000122A04702B010BD704738B543691A689F
:10868000002A054610DAB3F88620B3F884309A42FF
:108690000AD103681B699847044628B92B68284605
:1086A000DB6A9847204638BD0120FCE7436918681B
:1086B000C043C00F70477047064B994210B500F198
:1086C0000C0405D0084601F08FF8002808BF0024EC
:1086D000204610BD10CF0D0010B5AC21044600F0AF
:1086E000C8FF204610BDFBF7DABC2DE9F0414FF082
:1086F000000886B01D46C0F8048004460E461746A2
:108700004146102202A802F06BF86B1C09D04FF40E
:108710007A70B5FBF0F3CDE9023800FB13535843F0
:108720000490606910230093006802AB41F20502D7
:1087300040F6FF71FEF762FB002807DAFEF742FD04
:1087400003686360002006B0BDE8F0816069002323
:1087500000683A463146FEF779FB031EEEDB184609
:10876000F1E7000070B54D69054B04468C3544F8BF
:10877000043B06460FCD0FC42B682370304670BDF6
:10878000DCCF0D0010B54369B3F88620B3F8843010
:108790009A42044605D06369B3F8842013441879DB
:1087A00010BD03681B6998470028F4D14FF0FF30D3
:1087B000F6E710B54369B3F88620B3F884309A42DF
:1087C000044608D06369B3F88420511CA3F88410D0
:1087D0001344187910BD03681B6998470028F1D12C
:1087E0004FF0FF30F6E7F8B543691746B3F8862037
:1087F000B3F884309A4205460E4616D06969B1F83E
:108800008430B1F88640E41ABC4228BF3C460433A9
:1088100022461944304601F0BBFF6A69B2F8843041
:108820002344A2F884302046F8BD03681B699847AA
:108830000028E3D14FF0FF34F5E742690023A2F8A6
:1088400084304269A2F8863070472DE9F0411F4616
:1088500003680C46DB6A8AB0054616469847237DB6
:10886000D5F81480042B0CBF02200A200622012117
:10887000FEF7FCFAC8F800006B691B68002B08DAE9
:108880002B682846DB6A0024984720460AB0BDE8DA
:10889000F0812846FFF7D1FFB7B1002303A9F8B252
:1088A0000393ADF81030FEF769FA0028E8D1686943
:1088B00006230093006803AB41F20B0240F6FF7100
:1088C000FEF79CFA0028DBD11C22002103A801F04E
:1088D00087FF237D042B1DD14FF407733046ADF87D
:1088E0000C30FEF76BFAADF80E006068FEF756FA32
:1088F00004906B691C22186803A9FEF78FFA002800
:10890000BED104340FCC6D698C350FC523682B7034
:108910000124BAE740F61C233046ADF80C30FEF7D0
:108920004DFA05AEADF80E00231D04F114071868CA
:108930005968324603C20833BB421646F7D1D8E71E
:1089400030B54269B2F886308BB004462BB1B2F82C
:1089500084209A4201D1FFF770FF616908680028FE
:1089600018DBB1F886507F2D14D804310823C5F1E7
:1089700080022944FEF75AFA002813DD6369B3F830
:1089800086200AB9A3F884206369B3F886201044CE
:10899000A3F886006369B3F88600B3F88430C01A80
:1089A0000BB030BDFEF70EFC03680B2BF2D0FEF7C8
:1089B00009FC03680B2BEDD020230025CDE90235FF
:1089C000FEF700FC03680193084B0949009302AAD3
:1089D0002B463220FEF7F2FA63691868FEF716FAA2
:1089E00063694FF0FF321A60D4E700BF57D00D0023
:1089F00050D00D0010B5436904461868002801DB0B
:108A0000FEF704FA63694FF0FF321A6060691122C1
:108A100000218C3001F0E4FE2046BDE81040FFF755
:108A20000CBF43691868C043C00F704710B50023DE
:108A300004460160C0F884308830FEF7CFFF20463E
:108A400010BD000073B500234FF47A72C0E9013203
:108A50000E4A0361026043610446AC200191FBF7BA
:108A60001AFB051E05F10C0608D00123C5E90133E8
:108A7000074B01992B603046FFF7D8FF2046C4E929
:108A80000565FFF7DAFE02B070BD00BF8CD00D00A7
:108A900070D00D0010B54FF0FF310446FFF7D2FF44
:108AA000204610BD10B504460068002801DBFEF723
:108AB000ADF9204610BD0C30FFF7F4BF70B586B09D
:108AC000064601AD6846FEF7D9FF0FCD341D0FC431
:108AD0002B682370304606B070BD00002DE9F043CE
:108AE0009846036893B00D460024DB6A0646174695
:108AF000984728466B46224621460094FEF76EF9B9
:108B00000546002863D1009B002B4BD05B69002BEE
:108B100048D006A8FEF762FF009B5C696378022BD1
:108B200004D1211D06A8FFF7C9FF26E00A2B24D196
:108B30001122294601A801F053FEA368002B38D06A
:108B400004F108030DF1040C1834186859686246E2
:108B500003C20833A3429446F7D1062301A90CA807
:108B60008DF81430FEF748FF0DF1340CBCE80F000F
:108B700007AC0FC4DCF80030237006A8FEF74EFFE8
:108B800080B1336807ADD3F82090124B0C930FCD12
:108B90000DAC0FC42B6823703A4643460CA93046EF
:108BA000C84705460098FEF711F9284613B0BDE8FE
:108BB000F083E368002BC3D14FF6FF70D4F8109018
:108BC000FEF7ECF88145BBD104F11401AAE7254674
:108BD000E8E700BFDCCF0D00024B1A68024B1A60B9
:108BE000704700BF68E2032084E6032010B40468E5
:108BF000246BA4465DF8044B604703689B6C1847E0
:108C0000808E7047028FC08E101A704707B50368B8
:108C10008DF80710DB6801220DF10701984703B0BA
:108C20005DF804FB10B503681B690446984728B13A
:108C3000E38EE26B591CE186D05C10BD4FF0FF3033
:108C4000FBE710B503681B690446984718B1E38E2B
:108C5000E26BD05C10BD4FF0FF30FBE7704710B403
:108C600003460846DC6BD98E1A8F0368521ADB68FC
:108C700021445DF8044B1847A0F11000FFF7EFBF47
:108C800070B503688CB05B6A04460E46154698477B
:108C900001231C22002105A8029301F0A1FD40F64A
:108CA0001C233046ADF81430FEF788F81122ADF8D9
:108CB000160002210A20FEF7D9F80028606125DBA2
:108CC0000422009202AB40F6FF71FEF797F8E8B974
:108CD00095B10390ADF8100003A9E8B2FEF74EF885
:108CE000A0B906230093606903AB41F20B0240F682
:108CF000FF71FEF783F848B960691C2205A9FEF7E9
:108D000075F818B9656401200CB070BD2368204661
:108D10005B6A98470020F7E710B5044640690028D1
:108D200001DBFEF773F84FF0FF3363610023E38646
:108D3000238710BD70B50546C06BEE8E68B12B6CF5
:108D40009C1B944228BF14462246304401F020FD6B
:108D5000EB8E2344EB86204670BD0446F1E7D0B588
:108D600003681B6904460F461646984790B123686E
:108D700020461B699847E38EE16B8642A8BF0646F2
:108D800019443246384601F003FDE38E3344E3864E
:108D90003046D0BD4FF0FF36FAE7000070B504460C
:108DA000054B44F8043B01F1200506460FCD0FC4E6
:108DB0002B682370304670BDDCCF0D00F0B59646B1
:108DC000026889B0976A0A4A02921C1D8C460646C0
:108DD0000FCC03AD0FC523682B70BDF8383000935E
:108DE000724602AB61463046B84709B0F0BD00BFDD
:108DF000DCCF0D00F0B5036889B09F6A0C4B02937D
:108E000000F1200604460FCE03AD0FC533682B706A
:108E1000A38EE28EE16B0093204602ABB847236835
:108E20000546DB6920469847284609B0F0BD00BFDB
:108E3000DCCF0D0038B5054614462B7D062B0846C1
:108E400010D140F61C231380FDF7B8FF08342B1D0A
:108E500024F8060C143553F8042B44F8042BAB42C9
:108E6000F9D138BD042BFCD14FF404731380FDF706
:108E7000A5FF60806868FDF791FF6060F1E72DE96C
:108E8000F0438BB003AF4FF01C09984604460D46E3
:108E9000164600214A46384601F0A2FCBDF84810AB
:108EA0003A464046FFF7C6FF9DF80D3053B1CDE975
:108EB00000796069002332462946FDF7CFFF0BB0E9
:108EC000BDE8F0834FF0FF30F9E7000038B500252A
:108ED0004FF47A73C0E901530B4B03F108026C3372
:108EE00003614FF0FF330446026043611C30FEF71C
:108EF00075FD4FF40073C4E91035E5862587E563F9
:108F000084F84850204638BDECD00D0010B590F8DC
:108F10004830044623B1C06B10B1012100F0A9FB19
:108F20000023E36384F848302364E386238710BD7D
:108F300070B5044616460D46FFF7E8FF0023E663CA
:108F400023642EB12564206C003818BF012070BD49
:108F5000002DF8D02846FBF7A0F80123E06384F841
:108F600048300028EFD0EDE7F8B51746C26B05464C
:108F70000C461AB9016C09B1FFF7DAFF04340FCCC3
:108F800005F120060FC6236833700023286CAF86D6
:108F9000EB862B87F8BD37B5C26B04460B462AB962
:108FA000016C19B10193FFF7C3FF019BE16B002234
:108FB000E286228741B1226C32B12068056B2046DF
:108FC000A8470028C8BF208723681B69204603B034
:108FD000BDE830401847F0B54378022B8DB0054608
:108FE0000C46174604D1011D2046FFF767FD22E01D
:108FF0000A2B25D11122002101A801F0F1FBAB6859
:1090000003B305F1080301AE05F1180C186859689F
:10901000324603C2083363451646F7D1062301A939
:1090200006A807AE8DF81430FEF7E6FC0FCE043428
:109030000FC4336823701FB16888FDF7B7FE38800E
:109040000DB0F0BDEB68002BDBD14FF6FF702E6941
:10905000FDF7A4FE8642D4D105F11401C4E7000057
:109060002DE9F04117468EB00022064601AB0846B6
:1090700011460192FDF7B2FE041E20DB019B2BB3CB
:109080005B691BB302A8FEF7A9FC019B002258698B
:1090900002A9FFF7A0FF02A8FEF7C0FCB0B1336839
:1090A00003ADD3F838800B4B08930FCD09AC0FC438
:1090B0002B6823703A4608A93046C04704460198F9
:1090C000FDF784FE20460EB0BDE8F0814FF0FF347E
:1090D000F5E700BFDCCF0D002DE9F047D0F8149084
:1090E000B9F1000F90B005460E4690461C463CDB99
:1090F00000293AD04FF01C0A09AF524600213846E9
:1091000001F06EFBCDF80CA0DCB100224FF47A70B8
:10911000B4FBF0F3CDE9043200FB134358431023B2
:1091200007920690009341F206026B4440F6FF71ED
:109130004846FDF763FE044620B1204610B0BDE866
:10914000F087082403ABCDE90073686923464246E3
:109150003146FDF773FE041EEFDB05F1340205F125
:109160001C013846FFF737FFE7E74FF0FF34E4E72D
:1091700070474174704708B5007CFDF7C7FE20EAD0
:10918000E07008BD08B5007CFDF798FE20EAE070AD
:1091900008BD08B5007CFDF7A1FE40EAE07008BDFF
:1091A00008B5007CFDF792FE40EAE07008BD007C47
:1091B000FDF79CBE37B5457C04462DB1207C03B03D
:1091C000BDE83040FDF772BE007C0191FDF79EFEC8
:1091D00000280199F2DC284603B030BD10B51421F7
:1091E000044600F046FA204610BD000010B54FF0CE
:1091F000000C0446084611464FF47A72C4E901C2D5
:10920000044A22600122207462741A46FDF746FE69
:10921000204610BD64D10D0013B50E4C2178BFF36C
:109220005B8F11F0010112D120460191FAF73BFF4B
:10923000019960B1084A094B0948FFF7D7FF20465A
:10924000FAF736FF074A0849054800F00DFA0448C6
:1092500002B010BD88E603208CE6032010E703204F
:1092600094E7032040E4032071910D00417470479E
:10927000704708B50021007CFDF770FE40EAE07001
:1092800008BD08B50121007CFDF768FE40EAE070EA
:1092900008BD08B5007CFDF759FE20EAE07008BD66
:1092A00008B5007CFDF74AFE20EAE07008BD13B562
:1092B0000446007C0191FDF749FE0028019901DC7C
:1092C000607C20B1207CFDF751FE20EAE07002B006
:1092D00010BD007CFDF752BE10B51421044600F00D
:1092E000C8F9204610BD000010B54FF47A7304464B
:1092F00008460021C4E90113044B236001232074B4
:1093000063741146FDF70AFE204610BD94D10D008E
:10931000007C0022FDF70ABE10B51422044600218D
:1093200001F05EFA204610BD10B5104C88B003A8BD
:10933000FFF7F2FF2178BFF35B8F11F0010111D12C
:1093400020460191FAF7AFFE019958B103AA0848E7
:10935000FFF7CAFF2046FAF7ABFE064A0649044863
:1093600000F082F9024808B010BD00BFA8E7032052
:10937000ACE7032040E4032071920D0010B50446D1
:1093800001F0A7FA013823182046834206D9027853
:10939000197800F8011B03F80129F6E710BD70B534
:1093A0000C46911E2229054622D820466DB1B5FBF8
:1093B000F2F602FB1655E9B2092D94BF3031573150
:1093C000C9B200F8011B3546F0E7024623443021BC
:1093D000934202D902F8011BFAE71A1A834238BFF6
:1093E0000022002383542046FFF7C8FF204670BDAB
:1093F0000020FCE7014B1860704700BF6CE20320BF
:1094000008B50B4B43B1FFF78FFF03681B69984703
:10941000002801DDAFF30080064B43B1FFF7FCFEEF
:1094200003681B699847002801DDAFF3008008BD81
:10943000000000000000000008B5FFF7E1FFFDF7A5
:1094400015FC014B186008BDD4E703200248034A0D
:109450000349121A01F09CB900F4032004F403201C
:1094600068D50D0007B5002300931A466FF0770109
:10947000FDF7DEFD03B05DF804FB000007B543888F
:109480000A2B08D0502B0BD1094B1B684BB103B0F2
:109490005DF804EB1847FFF7E5FF03B05DF804FB48
:1094A000002300931A466FF07701FDF7C1FDF4E742
:1094B000C4E7032038B5124C1248134D0021FDF7C4
:1094C00089FE2368AB42114B0CBF012200221A70A7
:1094D00002D0FFF7BBFF2560FDF7B8FB044601F0A3
:1094E00097F90B4B13B12046AFF3008000210848D9
:1094F000FDF7D0FDBDE8384006480021FDF78EBDE0
:1095000000F40320F5930D001E1C279AC0E70320EA
:10951000000000007D940D00232813B502D900201F
:1095200002B010BDA0F10B03022B1AD8174C217802
:10953000BFF35B8F11F001010BD120460191FAF7C7
:10954000B2FD019928B11248FEF70EFF2046FAF746
:10955000AFFD0F4B1878FDF799FC0028DFD10120F3
:10956000DEE7012809D800F057F80021007CFDF75C
:10957000F5FB80F00100C0B2D2E709380128EED82F
:10958000FFF74AFE007CFDF7B9FCF2E7C8E70320CD
:10959000CCE70320232838B504460D460AD8FF2916
:1095A00008D0FFF7B9FF28B129462046BDE838406A
:1095B000FDF76CBB38BD38B504460D46FDF76EFBB4
:1095C000FF2810D0062804D84D2323FA00F0C30743
:1095D00009D42046FFF7A0FF28B129462046BDE860
:1095E0003840FDF763BB38BD38B5002320254380E4
:1095F000142304460380856005610649284600F06F
:109600003CF804496060284600F037F8E0602046E6
:1096100038BD00BFBCD10D0030B50F4D2978BFF368
:109620005B8F11F0010487B013D12846FAF73BFD98
:1096300078B101A8FFF7D8FF01AA21460748FEF735
:1096400069F92846FAF734FD054A0649034800F04F
:109650000BF8024807B030BDD8E70320DCE7032051
:1096600040E40320BD780D000B460146184601F08A
:1096700081B8FAF714BDFAF70EBDFAF70EBDC3684C
:109680009A68C26010B502B1506042685A600C68B6
:10969000844203D10B609860436010BD91688142A1
:1096A0000CBF9360D360F6E78368DA68826010B518
:1096B00002B1506042685A600C68844203D10B606A
:1096C000D860436010BDD16881420CBFD360936005
:1096D000F6E7037833B943685B68834202D1DB68FD
:1096E00018467047826822B11346D268002AFBD11F
:1096F000F6E743689A688242F2D118465B68F9E758
:10970000C36823B118469B68002BFBD170474368A0
:10971000DA68824202D118465B68F9E7C268934270
:1097200018BF18467047FFF7D4BF2DE9F8431E460F
:1097300003F104080023C1E902330C464A600B70B0
:1097400000B39642916018D17160F46001274FF028
:1097500000097368A3423FD060680278002A3CD1B8
:109760004568AB68984223D1EB6883B11A7872B927
:1097700007701F702A702C46EBE7B3689342E5D15F
:10978000B160E3E7D160F3689342DFD1DDE7C368FE
:10979000A34203D14146FFF772FF04466368414686
:1097A0001F70284685F80090FFF77EFF2546E2E708
:1097B00013B11A78002ADBD08368A34203D1414653
:1097C000FFF772FF0446636841461F70284685F81C
:1097D0000090FFF754FFE9E7234601221A70BDE825
:1097E000F88308B5FDF7DEFC014900F0F9B800BFC9
:1097F000D8D10D007FB500241023CDE902340368D1
:1098000000949E698DF8044015466B461268B04777
:109810009DF8043003F00603062B03BF009B2B606A
:109820000120204604B070BD0098904214BF012072
:109830000620704710B5034B0360044600F0CDF8D6
:10984000204610BD18D20D0010B50446FFF7F2FFF8
:1098500020460821FFF70DFF204610BD2DE9F041FD
:109860001F46DDE90834DDF81880984506461546A0
:1098700007D1079900F0B4F818B165710020BDE870
:10988000F0813946304600F0ABF80028F6D00123CD
:10989000C4F800802571A371F0E738B515461C4661
:1098A00000F09EF820B10823E360062325602371B1
:1098B00038BD73B505460C4601921E4600F090F87F
:1098C00050B9032E08D82368019A5B6929462046BF
:1098D00002B0BDE87040184702B070BD10B5034B30
:1098E00003600446FFF7A6FF204610BD78D20D00A6
:1098F00010B50446FFF7F2FF20460C21FFF7B9FE32
:10990000204610BDF7B5089F974205460E461446FF
:109910000AD0A86802680897156A31462246AC4604
:1099200003B0BDE8F04060471946019300F058F8D5
:10993000019B0028EDD0062003B0F0BD2DE9F14FCA
:109940000D461946DDE90A4BDDE90CA681461746AE
:10995000984600F045F890B1002D3460377109DB6E
:1099600061198A450CBF06210121B171002001B0A7
:10997000BDE8F08F0235F9D10123B371F6E7544504
:1099800006D15946484600F02BF808B17771EDE74B
:10999000D9F808000368CDE90CA6CDE90A4BDC69CB
:1099A0003A4643462946A44601B0BDE8F04F604719
:1099B0002DE9F04107460C4615461E46FFF76DFFA0
:1099C00048B9B86803689F692A4633462146BC46B1
:1099D000BDE8F0416047BDE8F08170470020704766
:1099E000814208B50ED0406803782A2B0CD0496814
:1099F0000B782A2B08BF013100F03BFFB0FA80F052
:109A0000400908BD0120FCE70020FAE70000000043
:109A10009FED010B704700BF000000000000F87FC1
:109A200081F0004102E000BF83F0004330B54FEA0F
:109A300041044FEA430594EA050F08BF90EA020F7C
:109A40001FBF54EA000C55EA020C7FEA645C7FEA0F
:109A5000655C00F0E2804FEA5454D4EB5555B8BF32
:109A60006D420CDD2C4480EA020281EA030382EAA3
:109A7000000083EA010180EA020281EA0303362D35
:109A800088BF30BD11F0004F4FEA01314FF4801C08
:109A90004CEA113102D0404261EB410113F0004F1A
:109AA0004FEA03334CEA133302D0524263EB4303D1
:109AB00094EA050F00F0A780A4F10104D5F1200E6F
:109AC0000DDB02FA0EFC22FA05F2801841F10001CA
:109AD00003FA0EF2801843FA05F359410EE0A5F19E
