:02000002D0002C
:1040000000400D00DC6E0D00000006000D000501F3
:084010000401BD0B00000000DB
:04401800206C0D000B
:10401C0009480A49884208B505D0094A824202D0AB
:10402C00121A02F097FD0748074A0021121A02F0F3
:10403C009FFD014808BD00BF90E503204C6E0D00AC
:10404C00F8E50320F8E50320F0E7032070B5074EF0
:10405C00074C01F055FEA41BA4080025A54200D175
:10406C0070BD56F8043B98470135F7E7106E0D000C
:10407C00346E0D0000F024B808B500F04DF8BDE822
:10408C00084001F0FFBD00F011BD00F00FBD00F0C5
:10409C0015BD0078B0FA80F0400970470123037019
:1040AC007047000013B5054B1B788DF800303C238E
:1040BC00044600F0F3FE204602B010BDFCE50320E0
:1040CC0008B501F057FD4FF4165101F047FD01F012
:1040DC0051FD044901F047FABDE80840024800F0E0
:1040EC00DDB800BF346C0D0000E6032038B5046861
:1040FC0005467CB16368013B63605BB9236820466D
:10410C009B689847A368013BA3601BB923682046B2
:10411C00DB689847284638BD00B52DED048B42F27C
:10412C00107087B000F0F2FC334800F0E9FA324826
:10413C00F0EE408A00F0A4FA2F48B0EE408A00F06E
:10414C00A1FAF4EE688AF1EE10FAB0EE409A09D6B4
:10415C00B4EE488AF1EE10FA04D6B4EE400AF1EE51
:10416C0010FA09D701F006FD244901F0FCF907B05B
:10417C00BDEC048B5DF804FB01F0FCFC204901F064
:10418C00DFF901F0F7FCB0EE480A022101F0DCFA8D
:10419C00B0EE480A062102A801F0BFFB029A1849AA
:1041AC006846FFF77FFF01A8FFF7A0FF02A801F008
:1041BC0057FBB0EE490A062102A801F0AEFB029AA9
:1041CC0010496846FFF76EFF01A8FFF78FFF02A8A2
:1041DC0001F046FBB0EE680A062102A801F09DFB37
:1041EC00029A09496846FFF75DFF01A8FFF77EFFB9
:1041FC0002A801F035FBBAE700E603203F6C0D0086
:10420C005E6C0D00646C0D006A6C0D00044B05486F
:10421C0000221A70132106230B2200F038B800BFBD
:10422C00FCE5032000E6032010B503682F2B0446A1
:10423C0004D9074A00210A2000F084FB23681F2BB5
:10424C0083BF03F01F03034823604FF0A04010BD51
:10425C0041470D000003005007B5019001A8FFF77E
:10426C00E3FF019A01239340C0F8083503B05DF8D1
:10427C0004FB07B5019001A8FFF7D6FF019BD0F80E
:10428C001005D84000F0010003B05DF804FB10B538
:10429C00037201238171C271037410BD2DE9F041C9
:1042AC0005461E4C8079DFF87880002101F098FDDE
:1042BC00AE792378BFF35B8F13F0010F0AD1204640
:1042CC00FFF7E7FE30B100F045FAC8F800002046D1
:1042DC00FFF7E4FED8F8003036019F5D2378BFF37A
:1042EC005B8FDB074FEA47170AD40C48FFF7D1FE68
:1042FC0030B100F02FFAC8F800000848FFF7CEFEE6
:10430C00D8F8003033445B7803F01F0343EA07000E
:10431C00FFF7A2FF0023EB60BDE8F08114E6032059
:10432C0018E603202DE9F04F044685B000F00AFA98
:10433C00E368834284BF0023E360237C2BB9E368EA
:10434C00C01AB0F5FA6FC0F060810025257400F03A
:10435C00F9F9B04E25602571E060A7793378AE4D40
:10436C00BFF35B8F13F0010F09D13046FFF791FEBD
:10437C0028B100F0EFF928603046FFF78FFE2B686C
:10438C003F0113F807803378BFF35B8FD9074FEAEF
:10439C00481809D49F48FFF77CFE28B100F0DAF9E1
:1043AC0028609C48FFF77AFE2B681F44787800F051
:1043BC001F0040EA0800FFF74FFFFA2000F0A6FBB1
:1043CC00A079012101F00CFDA7793378BFF35B8F45
:1043DC00DA0709D48F48FFF75CFE28B100F0BAF970
:1043EC0028608C48FFF75AFE2B683F01DB5D4FEAD3
:1043FC0043183378BFF35B8FDB0709D48548FFF78D
:10440C0048FE28B100F0A6F928608248FFF746FE66
:10441C002B681F4403A87B7803F01F0343EA0803AF
:10442C000393FFF701FF039A01239340C0F80C3567
:10443C00142000F06BFB00F023FFA7793378BFF357
:10444C005B8FD80709D47348FFF723FE28B100F01F
:10445C0081F928606F48FFF721FE2B683F0113F8A4
:10446C0007803378BFF35B8FD9074FEA481809D41C
:10447C006848FFF70EFE28B100F06CF9286065481B
:10448C00FFF70CFE2B681F44787800F01F0040EA01
:10449C000800FFF7E1FE282000F04CF9A079DFF8C6
:1044AC007481002101F09CFC00270123BA46009383
:1044BC004FF0000994F806B03378BFF35B8FDA073E
:1044CC0009D44046FFF7E5FD28B100F043F9286018
:1044DC004046FFF7E3FD2B684FEA0B1B13F80B303C
:1044EC005B0101933378BFF35B8FDB0709D4404644
:1044FC00FFF7CFFD28B100F02DF928604046FFF7FB
:10450C00CDFD2B685B4493F801B0019B0BF01F0BA6
:10451C004BEA030B5846FFF7ACFE5846FFF7A9FED3
:10452C00009B834209D109F101095FFA89F9012045
:10453C0000F000F9B9F1FF0FBCD194F806B0337854
:10454C00BFF35B8FD80709D44046FFF7A2FD28B113
:10455C0000F000F928604046FFF7A0FD2B684FEAF9
:10456C000B1B13F80B305B0100933378BFF35B8F9D
:10457C00D90709D44046FFF78CFD28B100F0EAF8C2
:10458C0028604046FFF78AFD2B685B4493F801B026
:10459C00009B0BF01F0B4BEA030B5846FFF769FE11
:1045AC005846FFF766FEB9F1FF0FC3B2009318D05F
:1045BC00032F11D9FA070FD44FEADA020AF1010AD4
:1045CC00A35C5B00DBB2A354217A49453CBF43F0AA
:1045DC000103A3545FFA8AFA0137FFB2552F7FF417
:1045EC0067AF00F04FFEBAF1270F10D9637820782F
:1045FC001844A3781844E37818442379C0B2C31A3A
:10460C005842584105B0BDE8F08F0120FAE7002070
:10461C00F8E700BF14E6032018E6032010B50446A3
:10462C00FFF780FE20B3E3790B2B1BD0153B012B3E
:10463C001ED8A378DFED106A03F07F0207EE102A74
:10464C00E27807EE902AB8EEC77AF8EEE77A1B0606
:10465C00E7EE267AB2EE047A87EE870A07D5B1EE3A
:10466C00400A04E0A37800EE103AB8EE400A10BD00
:10467C009FED020AFBE700BF000080430000C07FF3
:10468C00FFF7CCBF08B5FFF7C9FFF2EE027A20EEB8
:10469C00270AF1EE047A80EE277A9FED020A37EEB4
:1046AC00000A08BD0000004210B50446FFF73AFEB0
:1046BC00F0B1E3790B2B15D0153B012B18D82378CF
:1046CC00DFED0D6A07EE103A637807EE903AB8EE1C
:1046DC00477AF8EEE77AE7EE267AB2EE047A87EEBE
:1046EC00870A10BD237800EE103AB8EE400AF8E7BE
:1046FC009FED020AF5E700BF000080430000C07F79
:10470C00FFF7D2BF08B5024B1B685B6C019308BD69
:10471C004802030008B5024B1B689B6C019308BD53
:10472C004802030008B5024B1B685B68019308BD87
:10473C001802030008B5024B1B68DB68019308BD27
:10474C001802030008B5024B1B685B69019308BD96
:10475C001802030008B5024B1B681B68019308BDC7
:10476C002C02030008B5024B1B689B68019308BD23
:10477C002C02030008B5024B1B681B6A019308BD91
:10478C002C02030008B5024B1B685B6A019308BD41
:10479C002C02030008B5024B1B681B6A019308BD71
:1047AC002802030008B5024B1B685B6A019308BD25
:1047BC002802030008B5024B1B689B6A019308BDD5
:1047CC002802030008B5024B1B68DB6A019308BD85
:1047DC002802030008B5024B1B681B6B019308BD34
:1047EC002802030008B5024B1B685B6B019308BDE4
:1047FC002802030008B5024B1B681B6C019308BD13
:10480C002802030008B5024B1B685B69019308BDC5
:10481C006402030008B5024B1B689B68019308BD3A
:10482C006802030008B5024B1B68DB68019308BDE6
:10483C006802030008B5024B1B68DB69019308BDD5
:10484C003002030008B5024B1B681B6A019308BDBC
:10485C003002030008B5024B1B681B68019308BDAE
:10486C003C02030008B5024B1B68DB68019308BDD2
:10487C003C02030008B5024B1B681B69019308BD81
:10488C003C02030008B5024B1B685B69019308BD31
:10489C003C02030008B5024B1B689B69019308BDE1
:1048AC003C02030008B5024B1B68DB69019308BD91
:1048BC003C02030008B5024B1B681B6A019308BD40
:1048CC003C02030008B5024B1B689B6A019308BDB0
:1048DC003C02030008B5024B1B681B68019308BD22
:1048EC004C02030008B5024B1B685B68019308BDC2
:1048FC004C02030008B5024B1B681B69019308BDF1
:10490C004C02030008B5024B1B685B69019308BDA0
:10491C004C02030008B5024B1B689B69019308BD50
:10492C004C02030008B5024B1B68DB69019308BD00
:10493C004C02030008B5024B1B681B6A019308BDAF
:10494C004C02030008B5024B1B685B6B019308BD5E
:10495C006002030008B5024B1B685B68019308BD3D
:10496C002002030008B5024B1B685B69019308BD6C
:10497C002002030008B5024B1B68DB6C019308BDD9
:10498C002002030008B5024B1B685B6D019308BD48
:10499C002002030008B5034B1B68D3F88830019341
:1049AC0008BD00002002030008B5034B1B68D3F8B8
:1049BC009430019308BD00002002030008B5024B9F
:1049CC001B685B69019308BD4402030008B5024BE8
:1049DC001B681B6A019308BD4402030008B5024B17
:1049EC001B68DB6B019308BD4402030008B5024B46
:1049FC001B685B68019308BD4002030008B5024BBD
:104A0C001B689B68019308BD4002030008B5024B6C
:104A1C001B68DB68019308BD4002030008B5024B1C
:104A2C001B681B69019308BD4002030008B5024BCB
:104A3C001B685B69019308BD4002030008B5024B7B
:104A4C001B689B69019308BD4002030008B5024B2B
:104A5C001B68DB69019308BD4002030008B5024BDB
:104A6C001B681B6A019308BD4002030008B5024B8A
:104A7C001B681B6B019308BD4002030008B5024B79
:104A8C001B685B6B019308BD4002030008B5024B29
:104A9C001B681B6C019308BD4002030008B5024B58
:104AAC001B685B6C019308BD4002030008B5024B08
:104ABC001B681B68019308BD1C02030008B5024B60
:104ACC001B685B68019308BD1C02030008B5024B10
:104ADC001B689B68019308BD1C02030008B5024BC0
:104AEC001B68DB6A019308BD1C02030008B5024B6E
:104AFC001B681B6B019308BD1C02030008B5024B1D
:104B0C001B685B6C019308BD1C0203000021FFF7BE
:104B1C0029BF10B5836804460BB901F0BCF9C36812
:104B2C009847A3681BB1032221462046984720468C
:104B3C001021BDE8104001F0AAB910B50446006878
:104B4C0008B1FFF7E7FD204610BD10B58368044699
:104B5C0013B1032201469847204610BD0B68036031
:104B6C0013B15A6801325A60704713B50B460246AE
:104B7C00D0E900016C4684E8030093E8030082E866
:104B8C00030094E8030083E8030002B010BD0000AA
:104B9C0010B5064C002320462360FFF7B3FD2046DA
:104BAC00034A0449BDE8104001F06CB91CE603202F
:104BBC00F8E50320474B0D00002240681146FFF733
:104BCC002DBF002240681146FFF748BF0022406805
:104BDC001146FFF753BF40680022FFF747BF4068FC
:104BEC00002281F00101FFF731BF002340681A4613
:104BFC001946FFF723BF002340681A461946FFF7F2
:104C0C0015BF002240681146FFF7F8BE406800222D
:104C1C000221FFF7FBBE002340681A46FFF7E6BEF1
:104C2C00084B10B5282422461846002101F0A0FF9D
:104C3C00054B04804FF0FF32426004225A60034A55
:104C4C001A6010BD28E6032020E60320786C0D00C6
:104C5C0070470020704710B51021044601F017F979
:104C6C00204610BD08B5FFF7F6FF08BD30B5002291
:104C7C004FF69C74026084808D888C800C688580D3
:104C8C0004600A6030BD10B504460068FFF716FFDB
:104C9C00204610BD38B5C468F4B12378022B03D17B
:104CAC0004F10C00FFF7EFFF656835B12846FFF7FC
:104CBC004CFF1021284601F0EAF8A56835B12846CA
:104CCC00FFF743FF1021284601F0E1F8204614219C
:104CDC00BDE8384001F0DBB838BD73B50E4604466C
:104CEC0056F8043B00930D4601A83146FFF736FFFA
:104CFC00019A009B6260236001A80023019300933A
:104D0C00FFF7F4F93046FFF7F1F92846082101F0D6
:104D1C00BEF8204602B070BD826810B50AB901F029
:104D2C00BAF8BDE81040C368184708B5006800F130
:104D3C001001FFF7F1FF08BD826810B50AB901F048
:104D4C00AAF8BDE81040C368184708B5006800F120
:104D5C001001FFF7F1FF08BD38B5002304460360CE
:104D6C0010200D46FFF78FF928B10123C0E901335C
:104D7C00024B0360C5602060204638BDB46C0D004A
:104D8C0038B5002383608B6804460D462BB1022294
:104D9C009847EB68E360AB68A360204638BD000021
:104DAC00F0B589B004686846FFF760FF4FF0020366
:104DBC00D4E84F2F002A03D1C4E8413F0029F7D192
:104DCC0025D104F10C0569462846FFF74FFFBFF3C8
:104DDC005B8F01236370002004F10803BFF35B8F2A
:104DEC0053E8006F43E80002002AF9D1BFF35B8F50
:104DFC006EB1FFF7BFFD78B129463046FFF78CFF47
:104E0C003046FFF7A2FE1021304601F040F868460C
:104E1C00FFF739FF09B0F0BD314602A8FFF7B0FF2C
:104E2C00E068B4F9105008B101F0CEFE06901020E5
:104E3C00ADF81C50FFF727F90546E8B1002787604D
:104E4C001820FFF720F9044688B10146876002A8B4
:104E5C00FFF78BFE049BA268A360059B049206A936
:104E6C00E268E36004F110000592FFF7FFFE084BC7
:104E7C00EB60084B2C60AB6006A8FFF704FF02A8A0
:104E8C00FFF763FE002229460348FFF77BFDB7E7D7
:104E9C00374D0D00CD4F0D001F4B0D002DE9F04788
:104EAC008AB005469DF848900C4617469846FFF781
:104EBC0085FD07AE824638BB4FF62E73059005A9CB
:104ECC003046ADF81830FFF7D1FE1420FFF7DBF8B1
:104EDC00044648B1022303700123C0E901AA4370C0
:104EEC0031460C30FFF7C2FE2846214640F8044BF1
:104EFC00FFF732FF3046FFF7C6FE05A8FFF7C3FEEB
:104F0C0028460AB0BDE8F0870C234FF0000A1420A5
:104F1C00CDE908AA0793FFF7B6F8014628B1C0E916
:104F2C0001AA80F800A080F801A004A80391FFF763
:104F3C0013FF224B08930820FFF7A5F8824628B1EF
:104F4C00039B40F8043B04A9FFF708FE00965FFAA8
:104F5C0089F3424639462046CDF824A0FFF736FDAA
:104F6C00B8B9039B5B7803F0FF0293B94FF69C73BF
:104F7C0005A903A80592ADF81830FFF711FF05A895
:104F8C00FFF781FE05A80999FFF7A7FE06A8FFF712
:104F9C00ADF8039B059304A906A8FFF7DFFD059B5D
:104FAC00069A2B606A60002306A806930593FFF708
:104FBC009DF804A8FFF79AF8A2E700BF91500D00E6
:104FCC00022AF8B5054607D0032A18D0012A01D1C8
:104FDC000B6803600020F8BD18200E68FFF753F82B
:104FEC00044650B13146FFF7CBFE3069B6F9147068
:104FFC0008B101F0E9FD2061A7822C60EAE70468A2
:10500C00002CE7D004F11000FFF73DFE2046FFF71F
:10501C009CFD1821204600F03AFFDBE738B5002351
:10502C0083608B6804460D462BB102229847EB68CF
:10503C00E360AB68A360204638BD022A70B5044615
:10504C0007D0032A12D0012A01D10B68036000207B
:10505C0070BD14200E68FFF716F8054620B13146D6
:10506C00FFF7DCFF337C2B742560F0E70468002C21
:10507C00EDD02046FFF769FD1421204600F007FF14
:10508C00E5E70000F0B589B004460D4601A81146CD
:10509C00FFF723FEA4B124B21DB1284601F094FD04
:1050AC00054601A803A90395ADF81040FFF778FE5B
:1050BC0003A8FFF7E8FD02A8FFF718F809B0F0BD48
:1050CC00019D0123D5E84F2F002A03D1C5E8413FAC
:1050DC000029F7D1EFD12B73BFF35B8F6B702B1DB6
:1050EC00BFF35B8F53E8006F43E80042002AF9D10D
:1050FC00BFF35B8F002EDED02046FFF73BFC07464C
:10510C0060B105F10C013046FFF716FE3046FFF793
:10511C001CFD1021304600F0BAFECCE7314603A846
:10512C00FFF77CFF2B7B8DF81C301020FEF7ABFFBC
:10513C000546D0B187601420FEF7A5FF044678B170
:10514C008760014603A8FFF710FD059BA268A360CA
:10515C00069B0592E268E3609DF81C30069223746E
:10516C00064BEB60064B2C60AB6003A8FFF7EDFC25
:10517C00002229460348FFF705FCC7E7574D0D00F1
:10518C0047500D001F4B0D00002240681146FFF7E1
:10519C0065BC002240681146FFF770BC40680022D5
:1051AC00FFF764BC4068002281F00101FFF74EBCA0
:1051BC00002340681A461946FFF740BC002340689C
:1051CC001A461946FFF732BC002240681146FFF719
:1051DC0025BC002240681146FFF710BC4068002235
:1051EC000221FFF713BC002340681A46FFF7FEBBF1
:1051FC00024B03225A60024A1A60704750E60320A1
:10520C00D06C0D007047F8B5064615460C468F1845
:10521C00BC4206D0336814F8011B9B683046984793
:10522C00F6E72846F8BD007C0022FFF7B3BA007CF5
:10523C000021FFF7B7BA007C0021FFF7BBBA007C56
:10524C000021FFF7BFBA007C0021FFF7C3BA10B5ED
:10525C001421044600F01BFE204610BD10B54FF47F
:10526C007A73044608460021C4E90113034B2360FA
:10527C0020741146FFF7BEFA204610BD0C6D0D00D0
:10528C00FFF780BAFFF776BA704710B518210446BD
:10529C0000F0FDFD204610BDF0B5037D062B8DB052
:1052AC000E4600F104074FF0000412D000F108057F
:1052BC0015F8011D0A22304600F05FF9AF42044494
:1052CC0019D0002CF4D02E21304600F03DF90444C6
:1052DC00EEE72F236A4639460A208DF80040FFF787
:1052EC0091FA684601F08DFC33680246DB6869462A
:1052FC0030469847044620460DB0F0BD10B5054B1E
:10530C000446112240F8043B002101F031FC2046F8
:10531C0010BD00BF346D0D000346074A10B543F8AD
:10532C00042B01F1100251F8044B43F8044B914249
:10533C00F9D10A781A7010BD346D0D0010B59DF8B6
:10534C00084044EA032343EA024242EA016104238F
:10535C004160037510BD000013B5054B0360CB789D
:10536C0000938B784A780978FFF7E8FF02B010BDFC
:10537C00346D0D00014B024A1A60704758E6032049
:10538C00406D0D00002340681A46FFF72FBB4068A4
:10539C0000220221FFF73ABB002240681146FFF7BA
:1053AC002DBB002240681146FFF738BB0023406834
:1053BC001A461946FFF73ABB002340681A461946AD
:1053CC00FFF73CBB40680021FFF760BB4068002141
:1053DC00FFF764BB4068002281F00101FFF736BB88
:1053EC0040680022FFF742BB002240681146FFF7DD
:1053FC0045BB002240681146FFF730BB2DE9F04356
:10540C00002495B016460D460746FFF777FF214658
:10541C0018220EA8009401F0ABFB4023CDE90C340C
:10542C0021466B460CAA3046FFF7FCF904460028CF
:10543C004CD1024601216868FFF7F0FA0221804640
:10544C0022466868FFF7EAFA009E81462146002E44
:10545C003CD000293AD17368022B03D00A2B11D00F
:10546C00F669F4E7B8F1000F0AD0716906A80431A7
:10547C0007ADFFF771FF0FCD3C1D0FC42B682370D8
:10548C004146EDE7B9F1000F01D14946E8E77469EF
:10549C00102201A801F06CFB06238DF8143001AD2D
:1054AC0004F108031834186859682A4603C20833F3
:1054BC00A3421546F7D101A906A807ADFFF72CFFAB
:1054CC000FCD3C1D0FC42B682370DEE70098FFF74F
:1054DC00A1F9384615B0BDE8F0830000024B034A31
:1054EC001A6000225A6070475CE603204C6D0D0078
:1054FC00F8B506460D468F180024BD420CD0336813
:10550C0015F8011B9B6830469847031E01DB1C44B1
:10551C00F3E7002C08BF1C462046F8BD13B5044623
:10552C00084659B1019101F06CFB23680199DB68C5
:10553C000246204602B0BDE81040184702B010BD2C
:10554C0008B5FFF7EBFF08BD03689B68184738B533
:10555C000D210546FFF7F8FF0A2104462846FFF700
:10556C00F3FF204438BD38B50546FFF7D7FF044696
:10557C002846FFF7ECFF204438BD30B58BB0002334
:10558C008DF82430012A98BF0A2209AC0D46B1FBD4
:10559C00F2F101FB125303F0FF03092B94BF3033DC
:1055AC003733DBB2AA4204F8013DEFD92146FFF7AD
:1055BC00B5FF0BB030BD00002DE9F74F55EC104B8B
:1055CC0006460F4610EE102A10EE100A2B462946FE
:1055DC0001F0BAF840B153493046FFF79FFF8246BD
:1055EC00504603B0BDE8F08F25F000494E4B4FF00C
:1055FC00FF322046494601F0A7F848B94A4B4FF014
:10560C00FF322046494601F081F808B94749E3E7E3
:10561C00474B4FF060422046294601F08BF808B109
:10562C004449D9E7444B4FF060422046294601F0EB
:10563C0063F80028F4D1002200232046294601F00B
:10564C005BF8D0B12D213046FFF77EFF05F100430A
:10565C0082461D463949DFF8EC904FF0000B0020D4
:10566C004FF000085FFA8BF39F4208D942464B4635
:10567C0000F0FAFE0BF1010BF4E78246EAE7224652
:10568C002B4600F011FC0D46044601F09BF88046B9
:10569C0000F046FD02460B462046294600F002FC6F
:1056AC000A2204460D4630464146FFF766FF824407
:1056BC0027B123493046FFF731FF8244DFF884904D
:1056CC004FF00008013FFFB2FF2F89D042464B46F6
:1056DC002046294600F09EFD04460D4601F04AF88E
:1056EC00B0F1000B1ADA2D213046FFF72DFFCBF16C
:1056FC00000103460A2230460193FFF73EFF019B4F
:10570C0018448244584600F01BFD02460B462046C6
:10571C00294600F0C7FB04460D46D3E75946002343
:10572C00E8E700BF806D0D00FFFFEF7F846D0D007B
:10573C00FFFFEF41886D0D00FFFFEFC10000E03F60
:10574C008C6D0D000000244038B5044610EE100A94
:10575C00CDB200F007FD41EC100B29462046BDE808
:10576C003840FFF729BF10B50446FFF7EEF9204685
:10577C0010BD00000348044A04490023836000F074
:10578C0081BB00BF64E60320F8E5032073570D00CE
:10579C0010B5044608462170FFF74CF800236360EF
:1057AC00204610BD2DE9F04757EC106B80460C4697
:1057BC0010EE100A00220023394600F09DFF28B19C
:1057CC0007F100431F462D2304F8013B00234FF043
:1057DC0001090A22D9B2884503D902FB09F9013320
:1057EC00F8E7484600F0ACFC32463B4600F012FDB0
:1057FC0006460F4601F01EF805468A4600F0D4FC1A
:10580C0002460B463046394600F04CFB134B002247
:10581C0000F086FF10B101354AF1000A4A462846CD
:10582C00D317514600F0EEFF0123154621460A22FC
:10583C0000F0DBF9B8F1000F0DD0204601F0E1F9D2
:10584C002E23211823540A22434628460131BDE851
:10585C00F04700F0CAB9BDE8F08700BF0000E03F98
:10586C0010B504460068FFF729F9204610BD10B5A5
:10587C000446006808B1FFF721F90023C4E901339D
:10588C00236010BD38B504460D4600680131FFF7A2
:10589C001DF910B1C4E90005012038BD10B503682D
:1058AC00044623B143688B4201D3012010BD20462E
:1058BC00FFF7E8FF0028F9D0A368002BF5D1226888
:1058CC001370F2E737B50D46114601920446FFF707
:1058DC00E5FF019A28B92046FFF7C9FF204603B01F
:1058EC0030BDA2602946206801F034F92268A36813
:1058FC000021D154F2E713B5044659B10846019181
:10590C0001F07FF9019902462046FFF7DBFF2046A4
:10591C0002B010BDFFF7ABFFF9E730B5044600232A
:10592C008BB0C4E90033A360237310EE100ACDB220
:10593C0000F018FC41EC100B01A92846FFF732FFD0
:10594C0001A92046FFF7D7FF20460BB030BD10B59C
:10595C000446006818B1FFF7B1F80023236010BDAE
:10596C0010B50446FFF7F3FF204610BD10B5094BE8
:10597C00094C022200201A60084B2060A080A07104
:10598C00A360FEF7E7FF2046054A0649BDE8104034
:10599C0000F078BA80E6032074E603200000FFFFD5
:1059AC00F8E503206D590D00024B1A68024B1A6082
:1059BC00704700BF90E5032084E6032070474174D4
:1059CC00704708B5007CFEF77DFF20EAE07008BD4B
:1059DC0008B5007CFEF74EFF20EAE07008BD08B564
:1059EC00007CFEF757FF40EAE07008BD08B5007C6C
:1059FC00FEF748FF40EAE07008BD007CFEF752BF9E
:105A0C0037B5457C04462DB1207C03B0BDE8304051
:105A1C00FEF728BF007C0191FEF754FF0028019986
:105A2C00F2DC284603B030BD10B51421044600F05A
:105A3C002EFA204610BD000010B54FF0000C0446A5
:105A4C00084611464FF47A72C4E901C2044A226036
:105A5C000122207462741A46FEF7FCFE204610BD2B
:105A6C00B46D0D0013B50E4C2178BFF35B8F11F0A4
:105A7C00010112D120460191FEF70BFB019960B197
:105A8C00084A094B0948FFF7D7FF2046FEF706FBEB
:105A9C00074A0849054800F0F5F9044802B010BD62
:105AAC0088E603208CE6032010E7032094E703200C
:105ABC00F8E50320C9590D0041747047704708B5CB
:105ACC000021007CFEF726FF40EAE07008BD08B517
:105ADC000121007CFEF71EFF40EAE07008BD08B50E
:105AEC00007CFEF70FFF20EAE07008BD08B5007CD3
:105AFC00FEF700FF20EAE07008BD13B50446007CF9
:105B0C000191FEF7FFFE0028019901DC607C20B1B9
:105B1C00207CFEF707FF20EAE07002B010BD007C8D
:105B2C00FEF708BF10B51421044600F0B0F920466A
:105B3C0010BD000010B54FF47A73044608460021DE
:105B4C00C4E90113044B23600123207463741146D0
:105B5C00FEF7C0FE204610BDE46D0D00007C002257
:105B6C00FEF7C0BE10B514220446002101F000F867
:105B7C00204610BD10B5104C88B003A8FFF7F2FFFB
:105B8C002178BFF35B8F11F0010111D120460191F7
:105B9C00FEF77FFA019958B103AA0848FFF7CAFF2C
:105BAC002046FEF77BFA064A0649044800F06AF9DB
:105BBC00024808B010BD00BFA8E70320ACE70320E3
:105BCC00F8E50320C95A0D0010B5044601F019F888
:105BDC00013823182046834206D90278197800F838
:105BEC00011B03F80129F6E710BD70B50C46911E98
:105BFC002229054622D820466DB1B5FBF2F602FBF0
:105C0C001655E9B2092D94BF30315731C9B200F89D
:105C1C00011B3546F0E7024623443021934202D95A
:105C2C0002F8011BFAE71A1A834238BF002200233C
:105C3C0083542046FFF7C8FF204670BD0020FCE7C8
:105C4C00014B1860704700BF94E5032008B50B4B5F
:105C5C0043B1FFF78FFF03681B699847002801DDEC
:105C6C00AFF30080064B43B1FFF7FCFE03681B69E2
:105C7C009847002801DDAFF3008008BD000000004C
:105C8C000000000008B5FFF7E1FFFEF75BFD014BDC
:105C9C00186008BDD4E703200248034A0349121ACE
:105CAC0000F058BF00F4032004F40320486E0D00EC
:105CBC0007B5002300931A466FF07701FEF774FEC8
:105CCC0003B05DF804FB000007B543880A2B08D02D
:105CDC00502B0BD1094B1B684BB103B05DF804EB97
:105CEC001847FFF7E5FF03B05DF804FB00230093B2
:105CFC001A466FF07701FEF757FEF4E7C4E703206E
:105D0C0038B5124C1248134D0021FEF7F7FE2368EC
:105D1C00AB42114B0CBF012200221A7002D0FFF7CC
:105D2C00BBFF2560FEF7FEFC044600F029FF0B4B81
:105D3C0013B12046AFF3008000210848FEF74EFE59
:105D4C00BDE8384006480021FEF724BE00F40320CD
:105D5C004D5C0D001E1C279AC0E7032000000000BC
:105D6C00D55C0D00232813B502D9002002B010BD5C
:105D7C00A0F10B03022B1AD8174C2178BFF35B8FC1
:105D8C0011F001010BD120460191FEF782F9019926
:105D9C0028B11248FFF7FCFC2046FEF77FF90F4BA9
:105DAC001878FEF74FFD0028DFD10120DEE701282F
:105DBC0009D800F03FF80021007CFEF713FD80F0BD
:105DCC000100C0B2D2E709380128EED8FFF74AFE2D
:105DDC00007CFEF76FFDF2E7C8E70320CCE7032059
:105DEC00232838B504460D460AD8FF2908D0FFF7FA
:105DFC00B9FF28B129462046BDE83840FEF7B2BCB1
:105E0C0038BD000038B500232025438014230446F8
:105E1C000380856005610649284600F03AF804497C
:105E2C006060284600F035F8E060204638BD00BFC1
:105E3C000C6E0D0030B50F4D2978BFF35B8F11F050
:105E4C00010487B013D12846FEF723F978B101A8D5
:105E5C00FFF7D8FF01AA21460748FFF7FFF92846AC
:105E6C00FEF71CF9054A0649034800F00BF80248F6
:105E7C0007B030BDD8E70320DCE70320F8E50320AA
:105E8C0011520D000B460146184600F055BEFEF7A8
:105E9C00FEB8FEF7FAB808B5FEF720FE81F0004117
:105EAC0002E000BF83F0004330B54FEA41044FEAF3
:105EBC00430594EA050F08BF90EA020F1FBF54EA8E
:105ECC00000C55EA020C7FEA645C7FEA655C00F02A
:105EDC00E2804FEA5454D4EB5555B8BF6D420CDDFB
:105EEC002C4480EA020281EA030382EA000083EA7E
:105EFC00010180EA020281EA0303362D88BF30BD1E
:105F0C0011F0004F4FEA01314FF4801C4CEA113173
:105F1C0002D0404261EB410113F0004F4FEA0333D2
:105F2C004CEA133302D0524263EB430394EA050F5D
:105F3C0000F0A780A4F10104D5F1200E0DDB02FACC
:105F4C000EFC22FA05F2801841F1000103FA0EF260
:105F5C00801843FA05F359410EE0A5F120050EF126
:105F6C00200E012A03FA0EFC28BF4CF0020C43FA57
:105F7C0005F3C01851EBE37101F0004507D54FF064
:105F8C00000EDCF1000C7EEB00006EEB0101B1F5B4
:105F9C00801F1BD3B1F5001F0CD349085FEA3000FA
:105FAC004FEA3C0C04F101044FEA445212F5800F05
:105FBC0080F09A80BCF1004F08BF5FEA500C50F1A2
:105FCC00000041EB045141EA050130BD5FEA4C0C85
:105FDC00404141EB0101013C28BFB1F5801FE9D2E2
:105FEC0091F0000F04BF01460020B1FA81F308BF05
:105FFC002033A3F10B03B3F120020CDA0C3208DDD1
:10600C0002F1140CC2F10C0201FA0CF021FA02F1AB
:10601C000CE002F11402D8BFC2F1200C01FA02F11B
:10602C0020FA0CFCDCBF41EA0C019040E41AA2BF40
:10603C0001EB0451294330BD6FEA04041F3C1CDA08
:10604C000C340EDC04F11404C4F1200220FA04F028
:10605C0001FA02F340EA030021FA04F345EA0301D2
:10606C0030BDC4F10C04C4F1200220FA02F001FA94
:10607C0004F340EA0300294630BD21FA04F0294616
:10608C0030BD94F0000F83F4801306BF81F48011AF
:10609C000134013D4EE77FEA645C18BF7FEA655C22
:1060AC0029D094EA050F08BF90EA020F05D054EAF4
:1060BC00000C04BF1946104630BD91EA030F1EBFF9
:1060CC000021002030BD5FEA545C05D140004941FD
:1060DC0028BF41F0004130BD14F580043CBF01F5F0
:1060EC00801130BD01F0004545F0FE4141F47001D6
:1060FC004FF0000030BD7FEA645C1ABF19461046B1
:10610C007FEA655C1CBF0B46024650EA013406BFB1
:10611C0052EA033591EA030F41F4002130BD00BF70
:10612C0090F0000F04BF0021704730B54FF480642D
:10613C0004F132044FF000054FF0000150E700BFAE
:10614C0090F0000F04BF0021704730B54FF480640D
:10615C0004F1320410F0004548BF40424FF00001FA
:10616C003EE700BF42004FEAE2014FEA31014FEA3D
:10617C0002701FBF12F07F4393F07F4F81F060518C
:10618C00704732F07F4208BF704793F07F4F04BFD7
:10619C0041F40021704730B54FF4607401F00045B4
:1061AC0021F000411CE700BF50EA010208BF704714
:1061BC0030B54FF000050AE050EA010208BF704705
:1061CC0030B511F0004502D5404261EB41014FF46E
:1061DC00806404F132045FEA915C3FF4D8AE4FF076
:1061EC0003025FEADC0C18BF03325FEADC0C18BF59
:1061FC00033202EBDC02C2F1200300FA03FC20FAAA
:10620C0002F001FA03FE40EA0E0021FA02F11444F6
:10621C00BDE600BF70B54FF0FF0C4CF4E06C1CEA0F
:10622C0011541DBF1CEA135594EA0C0F95EA0C0F80
:10623C0000F0DEF82C4481EA030621EA4C5123EAF3
:10624C004C5350EA013518BF52EA033541F4801122
:10625C0043F4801338D0A0FB02CE4FF00005E1FBD5
:10626C0002E506F00042E0FB03E54FF00006E1FB1F
:10627C0003569CF0000F18BF4EF0010EA4F1FF0462
:10628C00B6F5007F64F5407404D25FEA4E0E6D41A2
:10629C0046EB060642EAC62141EA55514FEAC520B3
:1062AC0040EA5E504FEACE2EB4F1FD0C88BFBCF52F
:1062BC00E06F1ED8BEF1004F08BF5FEA500E50F1E0
:1062CC00000041EB045170BD06F0004646EA0101A6
:1062DC0040EA020081EA0301B4EB5C04C2BFD4EBD8
:1062EC000C0541EA045170BD41F480114FF0000ED1
:1062FC00013C00F3AB8014F1360FDEBF002001F03F
:10630C00004170BDC4F10004203C35DA0C341BDCB8
:10631C0004F11404C4F1200500FA05F320FA04F08A
:10632C0001FA05F240EA020001F0004221F00041BE
:10633C0010EBD37021FA04F642EB06015EEA430E31
:10634C0008BF20EAD37070BDC4F10C04C4F1200561
:10635C0000FA04F320FA05F001FA04F240EA020014
:10636C0001F0004110EBD37041F100015EEA430EE5
:10637C0008BF20EAD37070BDC4F1200500FA05F205
:10638C004EEA020E20FA04F301FA05F243EA020384
:10639C0021FA04F001F0004121FA04F220EA020093
:1063AC0000EBD3705EEA430E08BF20EAD37070BDD9
:1063BC0094F0000F0FD101F00046400041EB0101B9
:1063CC0011F4801F08BF013CF7D041EA060195F09B
:1063DC00000F18BF704703F00046520043EB030355
:1063EC0013F4801F08BF013DF7D043EA0603704742
:1063FC0094EA0C0F0CEA135518BF95EA0C0F0CD04D
:10640C0050EA410618BF52EA4306D1D181EA030192
:10641C0001F000414FF0000070BD50EA410606BF8C
:10642C001046194652EA430619D094EA0C0F02D1D1
:10643C0050EA013613D195EA0C0F05D152EA033616
:10644C001CBF104619460AD181EA030101F0004134
:10645C0041F0FE4141F470014FF0000070BD41F07D
:10646C00FE4141F4780170BD70B54FF0FF0C4CF457
:10647C00E06C1CEA11541DBF1CEA135594EA0C0F76
:10648C0095EA0C0F00F0A7F8A4EB050481EA030EC3
:10649C0052EA03354FEA013100F088804FEA0333AA
:1064AC004FF0805545EA131343EA12634FEA022278
:1064BC0045EA111545EA10654FEA00260EF0004139
:1064CC009D4208BF964244F1FD0404F5407402D28B
:1064DC005B084FEA3202B61A65EB03055B084FEA1C
:1064EC0032024FF480104FF4002CB6EB020E75EB19
:1064FC00030E22BFB61A754640EA0C005B084FEA41
:10650C003202B6EB020E75EB030E22BFB61A7546BD
:10651C0040EA5C005B084FEA3202B6EB020E75EB08
:10652C00030E22BFB61A754640EA9C005B084FEA80
:10653C003202B6EB020E75EB030E22BFB61A75468D
:10654C0040EADC0055EA060E18D04FEA051545EA7C
:10655C0016754FEA06164FEAC30343EA52734FEA25
:10656C00C2025FEA1C1CC0D111F4801F0BD141EA9E
:10657C0000014FF000004FF0004CB6E711F4801F03
:10658C0004BF01430020B4F1FD0C88BFBCF5E06FE3
:10659C003FF6AFAEB5EB030C04BFB6EB020C5FEAF3
:1065AC00500C50F1000041EB045170BD0EF0004E48
:1065BC004EEA113114EB5C04C2BFD4EB0C0541EA7A
:1065CC00045170BD41F480114FF0000E013C90E677
:1065DC0045EA060E8DE60CEA135594EA0C0F08BF3B
:1065EC0095EA0C0F3FF43BAF94EA0C0F0AD150EA3A
:1065FC0001347FF434AF95EA0C0F7FF425AF1046CD
:10660C0019462CE795EA0C0F06D152EA03353FF4F4
:10661C00FDAE1046194622E750EA410618BF52EA71
:10662C0043067FF4C5AE50EA41047FF40DAF52EA45
:10663C0043057FF4EBAE12E74FF0FF3C06E000BFE2
:10664C004FF0010C02E000BF4FF0010C4DF804CDEF
:10665C004FEA410C7FEA6C5C4FEA430C18BF7FEAAF
:10666C006C5C1BD001B050EA410C0CBF52EA430CDD
:10667C0091EA030F02BF90EA020F0020704710F15D
:10668C00000F91EA030F58BF994208BF90422CBFEC
:10669C00D8176FEAE37040F0010070474FEA410CE5
:1066AC007FEA6C5C02D150EA013C07D14FEA430C03
:1066BC007FEA6C5CD6D152EA033CD3D05DF8040B74
:1066CC00704700BF8446104662468C4619466346A6
:1066DC0000E000BF01B5FFF7B7FF002848BF10F17D
:1066EC00000F01BD4DF808EDFFF7F4FF0CBF0120C2
:1066FC0000205DF808FB00BF4DF808EDFFF7EAFF3E
:10670C0034BF012000205DF808FB00BF4DF808EDF8
:10671C00FFF7E0FF94BF012000205DF808FB00BFED
:10672C004DF808EDFFF7CEFF94BF012000205DF877
:10673C0008FB00BF4DF808EDFFF7C4FF34BF012084
:10674C0000205DF808FB00BF4FEA410C7FEA6C5C4F
:10675C0002D150EA013C0AD14FEA430C7FEA6C5C4F
:10676C0002D152EA033C02D14FF0000070474FF0C7
:10677C00010070474FEA410212F5001215D211D5F3
:10678C006FF47873B3EB625212D94FEAC12343F022
:10679C00004343EA505311F0004F23FA02F018BFA4
:1067AC00404270474FF00000704750EA013005D16D
:1067BC0011F0004008BF6FF0004070474FF0000030
:1067CC00704700BF4A0011D212F5001211D20DD53C
:1067DC006FF47873B3EB62520ED44FEAC12343F0DB
:1067EC00004343EA505323FA02F070474FF0000085
:1067FC00704750EA013002D14FF0FF3070474FF034
:10680C000000704753B94AB9002908BF00281CBFC3
:10681C004FF0FF314FF0FF3000F08CB9ADF1080CA8
:10682C006DE904CE00F024F8DDF804E0DDE9022384
:10683C0004B07047D0B50C4B002206460F46FFF74C
:10684C00E9FCFFF7BFFF0446FFF76AFC074B002289
:10685C00FFF7E0FC02460B4630463946FFF722FBB9
:10686C00FFF7B0FF2146D0BD0000F03D0000F04125
:10687C002DE9F047089D04468C46002B40F08380A0
:10688C008A42174647D9B2FA82F242B1C2F12000CD
:10689C0024FA00F09140974040EA010C94404FEAF2
:1068AC001748230CBCFBF8F61FFA87FE08FB16C131
:1068BC0043EA014306FB0EF1994209D9FB1806F194
:1068CC00FF3080F01981994240F21681023E3B4420
:1068DC005B1AA4B2B3FBF8F008FB103344EA034490
:1068EC0000FB0EFEA64509D93C1900F1FF3380F0E0
:1068FC000581A64540F2028102383C4440EA06403C
:10690C00A4EB0E0400261DB1D4400023C5E90043BE
:10691C003146BDE8F08702B9FFDEB2FA82F2002AF6
:10692C0050D1CB1B4FEA174E1FFA87F80126B3FB49
:10693C00FEFC210C0EFB1C3341EA034108FB0CF35B
:10694C008B4207D979180CF1FF3002D28B4200F23E
:10695C00E9808446C91AA3B2B1FBFEF00EFB1011FC
:10696C0043EA014408FB00F8A04507D93C1900F1A3
:10697C00FF3302D2A04500F2D9801846A4EB0804DC
:10698C0040EA0C40BFE78B4209D9002D00F0B180E2
:10699C000026C5E9000130463146BDE8F087B3FA60
:1069AC0083F6002E4AD18B4202D3824200F2B88089
:1069BC00841A61EB030101208C46002DA8D0C5E997
:1069CC00004CA5E7C2F1200320FA03F6974001FA28
:1069DC0002F04FEA174ED9403043030CB1FBFEF6E0
:1069EC001FFA87F80EFB161143EA014306FB08F168
:1069FC00994204FA02F409D9FB1806F1FF3C80F025
:106A0C008D80994240F28A80023E3B445B1A81B2EF
:106A1C00B3FBFEF00EFB103341EA034100FB08F31D
:106A2C008B4207D9791800F1FF3C73D28B4271D994
:106A3C0002383944CB1A40EA064678E7C6F1200CF6
:106A4C0003FA06F422FA0CF31C4320FA0CF701FAB1
:106A5C0006F34FEA144E21FA0CF11F433B0CB1FB29
:106A6C00FEF91FFA84F80EFB191143EA014109FBE8
:106A7C0008FA8A4502FA06F200FA06F308D96118F8
:106A8C0009F1FF3048D28A4546D9A9F102092144BF
:106A9C00A1EB0A01BFB2B1FBFEF00EFB101147EAED
:106AAC00014700FB08F8B84507D9E71900F1FF3199
:106ABC002ED2B8452CD90238274440EA0940A7EB1E
:106ACC000807A0FB02894F45C64649461AD317D082
:106ADC005DB1B3EB0E0267EB010707FA0CFCF24059
:106AEC004CEA0202F740C5E9002700263146BDE812
:106AFC00F0872E4628460BE70646E9E61846FDE6E3
:106B0C004345E5D2B8EB020E69EB04010138DFE72F
:106B1C000846D2E760468DE78146B9E7664675E7D9
:106B2C0030464AE7ACF1020C394413E702383C44D6
:106B3C0024E700BF704700BF10B5054C13462CB1BD
:106B4C000A4601460220AFF3008010BD2046FCE748
:106B5C00000000000A44914200F1FF3300D170475D
:106B6C0010B511F8014B03F8014F9142F9D110BD4A
:106B7C0002440346934200D1704703F8011BF9E726
:106B8C0038B50D4B1D68AB6B04467BB91820FDF76F
:106B9C008DFF0A4A0A4BA863C0E90023094B8360A6
:106BAC000B23838101220023C0E90423AB6B002259
:106BBC001C615A6138BD00BF94E503200E33CDAB88
:106BCC0034126DE6ECDE0500024B0146186800F04D
:106BDC0003B800BF94E5032037B5044608460D46BC
:106BEC0000F00FF8421C114620460192FDF77EFF83
:106BFC00044618B1019A2946FFF7ACFF204603B0B2
:106C0C0030BD034613F8012B002AFBD1181A0138AA
:106C1C00704700001D400D0059400D0081400D00D3
:106C2C0085400D000000000044485431312074654B
:106C3C007374004661696C656420746F20726561C1
:106C4C00642066726F6D204448542073656E736FB8
:106C5C00720074656D70430074656D7046006875E4
:106C6C006D6964000000000000000000234C0D0062
:106C7C00194C0D000F4C0D00C54B0D00034C0D00B5
:106C8C00F74B0D00D1530D00D9530D00EB4B0D00FC
:106C9C00E34B0D00D94B0D00CF4B0D0009540D00EB
:106CAC0000000000000000005D4C0D00634C0D0066
:106CBC00A14C0D00714C0D005F4C0D00000000004C
:106CCC0000000000F3510D00E9510D00DF510D00E3
:106CDC00D5510D00C9510D00BD510D00D1530D0002
:106CEC00D9530D00B1510D00A9510D009F510D004C
:106CFC0095510D0009540D0000000000000000002B
:106D0C0011520D005B520D0033520D0013520D0049
:106D1C003B520D0043520D004B520D0053520D00CF
:106D2C000000000000000000A5520D0095520D005F
:106D3C0097520D0061707000000000000000000010
:106D4C0091530D009B530D00A5530D00AF530D0037
:106D5C00B9530D00C5530D00D1530D00D9530D007F
:106D6C00E1530D00ED530D00F5530D00FF530D00D5
:106D7C0009540D006E616E00696E66006F766600D8
:106D8C002E0025592D256D2D25645425483A254D69
:106D9C003A2553257A0061736374696D65000000B0
:106DAC000000000000000000C9590D00355A0D000C
:106DBC000D5A0D00FD540D00DD590D00F9590D0053
:106DCC00EB590D00075A0D00CB590D00CF590D0092
:106DDC000000000000000000C95A0D00315B0D00DE
:106DEC00075B0D00FD540D00F95A0D00CB5A0D0038
:106DFC00DB5A0D002B5B0D00EB5A0D00C55A0D0034
:106E0C000000000019420D009D4B0D002D4C0D0093
:106E1C00FD510D0081530D00E9540D0081570D00FB
:106E2C0079590D00B5590D0000000000000000005C
:046E3C000000000052
:086E40003CFAFF7F0100000095
:046E48000000000046
:106E4C00A26D0D0098E5032000000000000000007A
:106E5C000000000000000000000000000000000026
:106E6C000000000000000000000000000000000016
:106E7C000000000000000000000000000000000006
:106E8C0000000000000000000000000000000000F6
:106E9C0000000000000000000000000000000000E6
:086EAC000000000000000000DE
:106EB400FFFFFFFF00000102030405060708090A9B
:106EC4000B0C0D0E0F101112131415161718191A96
:086ED4001B1C1D1E1F202800DD
:046EDC00785634129E
:04000003D000401CCD
:00000001FF
