:02000002D0002C
:1040000000400D009C760D00000006000D0005012B
:084010000401BD0B00000000DB
:04401800CC700D005B
:10401C0009480A49884208B505D0094A824202D0AB
:10402C00121A02F0DDFF0748074A0021121A02F0AB
:10403C00E5FF014808BD00BF84E503200C760D00A8
:10404C00ECE50320ECE50320F0E7032070B5074E08
:10405C00074C02F07BF8A41BA4080025A54200D154
:10406C0070BD56F8043B98470135F7E7D8750D003D
:10407C00FC750D0000F024B808B500F085F8BDE81B
:10408C00084002F025B800F023BF00F021BF00F07B
:10409C0027BF0078B0FA80F0400970470123037005
:1040AC007047000013B5054B1B788DF800303C238E
:1040BC00044601F005F9204602B010BDF0E50320DE
:1040CC0010B501F07DFF4FF4165101F06DFF01F0BA
:1040DC0077FF1B491B4C01F06CFC1B4800F04CF9A2
:1040EC001A4800F02FFC02F0E3F801F0DBFA20464E
:1040FC0000F05EFC204600F0BDFC204600F0E8FC21
:10410C00204600F067FC00222046022100F06DFCE6
:10411C0020460F4900F0CFFC00222046032100F07E
:10412C0064FC20460B4900F0C6FC2046042100220A
:10413C0000F05BFC20460849BDE8104000F0BBBC19
:10414C00E0700D0018E60320F4E5032008E60320D8
:10415C00EB700D00F4700D00FC700D0038B50468A8
:10416C0005467CB16368013B63605BB923682046FC
:10417C009B689847A368013BA3601BB92368204642
:10418C00DB689847284638BD00B52DED048B4CF202
:10419C00503089B000F0CCFE424800F01FFB414883
:1041AC00B0EE409A00F0DAFA3E48F0EE408A00F0A9
:1041BC00D7FAB4EE499AF1EE10FAB0EE408A09D66D
:1041CC00F4EE688AF1EE10FA04D6B4EE400AF1EE81
:1041DC0010FA09D701F0F4FE334901F0EAFB09B0FB
:1041EC00BDEC048B5DF804FBDFED307AB4EEE70A2E
:1041FC00F1EE10FAF0EE679A06DD00232C480093DE
:10420C00FF22194600F056FBB4EEE98AF1EE10FAE3
:10421C0007D5FF230093002325481A46194600F0C2
:10422C0049FB01F0CDFE234901F0B0FB01F0C8FEC3
:10423C00B0EE680A022101F0ADFCB0EE680A06216E
:10424C0004A801F090FD049A1A4902A8FFF72AFF6E
:10425C0003A8FFF783FF04A801F028FDB0EE480A7D
:10426C00062104A801F07FFD049A134902A8FFF768
:10427C0019FF03A8FFF772FF04A801F017FDB0EEB9
:10428C00490A062104A801F06EFD049A0B4902A804
:10429C00FFF708FF03A8FFF761FF04A801F006FD74
:1042AC009DE700BFF4E5032004710D000000964269
:1042BC0008E6032023710D0029710D002F710D00EC
:1042CC0010B50B4B0B4C0C4800221A701321062313
:1042DC000B2200F04AF809220A212046012300F0A3
:1042EC007FFA2046054A0649BDE8104002F008B89E
:1042FC00F0E5032008E60320F4E50320ECE50320B9
:10430C0007480D0010B503682F2B044604D9074A43
:10431C0000210A2000F028FD23681F2B83BF03F027
:10432C001F03034823604FF0A04010BD154B0D0038
:10433C000003005007B5019001A8FFF7E3FF019AB5
:10434C0001239340C0F8083503B05DF804FB07B5B2
:10435C00019001A8FFF7D6FF019BD0F81005D840BB
:10436C0000F0010003B05DF804FB10B503720123EB
:10437C008171C271037410BD2DE9F04105461E4CCC
:10438C008079DFF87880002101F050FFAE79237836
:10439C00BFF35B8F13F0010F0AD12046FFF779FEB4
:1043AC0030B100F0C1FBC8F800002046FFF776FEE4
:1043BC00D8F8003036019F5D2378BFF35B8FDB07A5
:1043CC004FEA47170AD40C48FFF763FE30B100F0F0
:1043DC00ABFBC8F800000848FFF760FED8F80030C7
:1043EC0033445B7803F01F0343EA0700FFF7A2FF97
:1043FC000023EB60BDE8F08110E6032014E60320F7
:10440C002DE9F04F044685B000F086FBE36883424B
:10441C0084BF0023E360237C2BB9E368C01AB0F59A
:10442C00FA6FC0F060810025257400F075FBB04E6A
:10443C0025602571E060A7793378AE4DBFF35B8FB3
:10444C0013F0010F09D13046FFF723FE28B100F01D
:10445C006BFB28603046FFF721FE2B683F0113F8F9
:10446C0007803378BFF35B8FD9074FEA481809D41C
:10447C009F48FFF70EFE28B100F056FB28609C48C1
:10448C00FFF70CFE2B681F44787800F01F0040EA01
:10449C000800FFF74FFFFA2000F04AFDA079012138
:1044AC0001F0C4FEA7793378BFF35B8FDA0709D428
:1044BC008F48FFF7EEFD28B100F036FB28608C48E2
:1044CC00FFF7ECFD2B683F01DB5D4FEA43183378B7
:1044DC00BFF35B8FDB0709D48548FFF7DAFD28B102
:1044EC0000F022FB28608248FFF7D8FD2B681F44A0
:1044FC0003A87B7803F01F0343EA08030393FFF739
:10450C0001FF039A01239340C0F80C35142000F0EE
:10451C000FFD01F0DBF8A7793378BFF35B8FD80779
:10452C0009D47348FFF7B5FD28B100F0FDFA2860F7
:10453C006F48FFF7B3FD2B683F0113F80780337802
:10454C00BFF35B8FD9074FEA481809D46848FFF7C7
:10455C00A0FD28B100F0E8FA28606548FFF79EFD41
:10456C002B681F44787800F01F0040EA0800FFF722
:10457C00E1FE282000F0C8FAA079DFF87481002150
:10458C0001F054FE00270123BA4600934FF00009B6
:10459C0094F806B03378BFF35B8FDA0709D4404642
:1045AC00FFF777FD28B100F0BFFA28604046FFF70F
:1045BC0075FD2B684FEA0B1B13F80B305B01019355
:1045CC003378BFF35B8FDB0709D44046FFF761FDFF
:1045DC0028B100F0A9FA28604046FFF75FFD2B6870
:1045EC005B4493F801B0019B0BF01F0B4BEA030BE0
:1045FC005846FFF7ACFE5846FFF7A9FE009B8342D6
:10460C0009D109F101095FFA89F9012000F07CFA5E
:10461C00B9F1FF0FBCD194F806B03378BFF35B8FC0
:10462C00D80709D44046FFF734FD28B100F07CFAD6
:10463C0028604046FFF732FD2B684FEA0B1B13F83E
:10464C000B305B0100933378BFF35B8FD90709D430
:10465C004046FFF71EFD28B100F066FA2860404680
:10466C00FFF71CFD2B685B4493F801B0009B0BF02B
:10467C001F0B4BEA030B5846FFF769FE5846FFF732
:10468C0066FEB9F1FF0FC3B2009318D0032F11D9F6
:10469C00FA070FD44FEADA020AF1010AA35C5B00B5
:1046AC00DBB2A354217A49453CBF43F00103A35428
:1046BC005FFA8AFA0137FFB2552F7FF467AF01F02A
:1046CC0007F8BAF1270F10D9637820781844A3782B
:1046DC001844E37818442379C0B2C31A584258419D
:1046EC0005B0BDE8F08F0120FAE70020F8E700BF25
:1046FC0010E6032014E6032010B50446FFF780FEF5
:10470C0020B3E3790B2B1BD0153B012B1ED8A378C0
:10471C00DFED106A03F07F0207EE102AE27807EE55
:10472C00902AB8EEC77AF8EEE77A1B06E7EE267AFF
:10473C00B2EE047A87EE870A07D5B1EE400A04E0A0
:10474C00A37800EE103AB8EE400A10BD9FED020AB5
:10475C00FBE700BF000080430000C07FFFF7CCBF29
:10476C0008B5FFF7C9FFF2EE027A20EE270AF1EE48
:10477C00047A80EE277A9FED020A37EE000A08BD14
:10478C000000004210B50446FFF73AFEF0B1E379A1
:10479C000B2B15D0153B012B18D82378DFED0D6AA8
:1047AC0007EE103A637807EE903AB8EE477AF8EED7
:1047BC00E77AE7EE267AB2EE047A87EE870A10BD26
:1047CC00237800EE103AB8EE400AF8E79FED020AA3
:1047DC00F5E700BF000080430000C07FFFF7D2BFA9
:1047EC0010B50446017042708370012103EB430045
:1047FC0002F0E0FB6060204610BD10B50446406836
:10480C0000F06EFB204610BD10B500210446007868
:10481C0001F01DFD142000F077F92078012101F042
:10482C0016FDBDE81040142000F06EB970B50646B8
:10483C000C46082523064CBF01210021707801F09D
:10484C0006FD013D3046FFF7DFFF640015F0FF0564
:10485C00E4B2EFD170BD73B513F0800F1E460C4659
:10486C00154614BFC021E021730658BF41F010015A
:10487C002A0658BF41F008016B0658BF41F00401ED
:10488C00220658BF41F00201630658BF41F00101F6
:10489C000190FFF7CBFF01983146FFF7C7FF019856
:1048AC002946FFF7C3FF0198214602B0BDE87040CE
:1048BC00FFF7BCBF2DE9F04704460F460021904698
:1048CC0099469DF820A0FFF7B1FF00212046FFF785
:1048DC00ADFF00212046FFF7A9FF00212046FFF77E
:1048EC00A5FF0026A378F5B2AB4219D905EB45001C
:1048FC00AF4200F1010200F1020308D1616801F836
:10490C000080616801F80290616801F803A0616899
:10491C00CB5C8A5C095C2046FFF79DFF0136E1E722
:10492C0020460021FFF782FF20460021FFF77EFF83
:10493C0020460021FFF77AFF20460021BDE8F04712
:10494C00FFF774BF73B504460121007801F06EFCCB
:10495C006078012101F06AFC00252E46A378E9B2AB
:10496C008B4207D9002300961A462046FFF7A2FF78
:10497C000135F3E702B070BD0368C9B29B681847F4
:10498C0010B5044601F094FC3C2100F095FE01F0BA
:10499C008FFC8021FFF7F0FF01F08AFC03682146B1
:1049AC009B68984701F084FCBDE8104000F08BBE7A
:1049BC0008B5AE20FFF7E4FF052000F0B9FAAF20F0
:1049CC00FFF7DEFF052000F0B3FABDE80840A62093
:1049DC00FFF7D6BF08B5012303702020FFF7D0FFE7
:1049EC00BDE808400220FFF7CBBF10B55039144684
:1049FC00C8B2FFF7C5FFE00000F00800FFF7C0FFEA
:104A0C00C4F343001030BDE81040FFF7B9BF10B538
:104A1C000C4601F04DFC3C2100F04EFE01F048FC30
:104A2C004021FFF7A9FF01F043FC036821469B6876
:104A3C00984701F03DFCBDE8104000F044BE00007A
:104A4C00A1F120035F2B88BF202170B501F100512B
:104A5C00074D2039064605EBC105082415F8011B46
:104A6C003046013CFFF7D3FF14F0FF04F6D170BDC4
:104A7C0035710D0070B50546AE20FFF781FF00269D
:104A8C000022F1B22846FFF7B0FF1024202128465F
:104A9C00013CFFF7D5FF14F0FF04F7D10136082EC7
:104AAC00EED1AF20FFF76CFF224621462846BDE829
:104ABC007040FFF79ABF70B506460D460024E3B26E
:104ACC000134E95C19B13046FFF7BAFFF7E770BD66
:104ADC00A620FFF755BF000008B5024B1B685B6CA6
:104AEC00019308BD4802030008B5024B1B689B6C80
:104AFC00019308BD4802030008B5024B1B685B68B4
:104B0C00019308BD1802030008B5024B1B68DB6853
:104B1C00019308BD1802030008B5024B1B685B69C2
:104B2C00019308BD1802030008B5024B1B681B68F3
:104B3C00019308BD2C02030008B5024B1B689B684F
:104B4C00019308BD2C02030008B5024B1B68DB68FF
:104B5C00019308BD2C02030008B5024B1B681B69AE
:104B6C00019308BD2C02030008B5024B1B681B6A9D
:104B7C00019308BD2C02030008B5024B1B685B6A4D
:104B8C00019308BD2C02030008B5024B1B68DB68BF
:104B9C00019308BD2802030008B5024B1B689B69F2
:104BAC00019308BD2802030008B5024B1B68DB69A2
:104BBC00019308BD2802030008B5024B1B681B6A51
:104BCC00019308BD2802030008B5024B1B685B6A01
:104BDC00019308BD2802030008B5024B1B689B6AB1
:104BEC00019308BD2802030008B5024B1B68DB6A61
:104BFC00019308BD2802030008B5024B1B681B6B10
:104C0C00019308BD2802030008B5024B1B685B6BBF
:104C1C00019308BD2802030008B5024B1B681B6CEE
:104C2C00019308BD2802030008B5024B1B685B69A1
:104C3C00019308BD6402030008B5024B1B689B6816
:104C4C00019308BD6802030008B5024B1B68DB68C2
:104C5C00019308BD6802030008B5024B1B68DB69B1
:104C6C00019308BD3002030008B5024B1B681B6A98
:104C7C00019308BD3002030008B5024B1B681B688A
:104C8C00019308BD3C02030008B5024B1B68DB68AE
:104C9C00019308BD3C02030008B5024B1B681B695D
:104CAC00019308BD3C02030008B5024B1B685B690D
:104CBC00019308BD3C02030008B5024B1B689B69BD
:104CCC00019308BD3C02030008B5024B1B68DB696D
:104CDC00019308BD3C02030008B5024B1B681B6A1C
:104CEC00019308BD3C02030008B5024B1B689B6A8C
:104CFC00019308BD3C02030008B5024B1B681B68FE
:104D0C00019308BD4C02030008B5024B1B685B689D
:104D1C00019308BD4C02030008B5024B1B681B69CC
:104D2C00019308BD4C02030008B5024B1B685B697C
:104D3C00019308BD4C02030008B5024B1B689B692C
:104D4C00019308BD4C02030008B5024B1B68DB69DC
:104D5C00019308BD4C02030008B5024B1B681B6A8B
:104D6C00019308BD4C02030008B5024B1B685B6B3A
:104D7C00019308BD6002030008B5024B1B685B6819
:104D8C00019308BD2002030008B5024B1B685B6948
:104D9C00019308BD2002030008B5024B1B68DB6CB5
:104DAC00019308BD2002030008B5024B1B685B6D24
:104DBC00019308BD2002030008B5034B1B68D3F810
:104DCC008830019308BD00002002030008B5034B96
:104DDC001B68D3F89430019308BD00002002030037
:104DEC0008B5024B1B685B69019308BD44020300C4
:104DFC0008B5024B1B681B6A019308BD44020300F3
:104E0C0008B5024B1B68DB6B019308BD4402030021
:104E1C0008B5024B1B685B68019308BD4002030098
:104E2C0008B5024B1B689B68019308BD4002030048
:104E3C0008B5024B1B68DB68019308BD40020300F8
:104E4C0008B5024B1B681B69019308BD40020300A7
:104E5C0008B5024B1B685B69019308BD4002030057
:104E6C0008B5024B1B689B69019308BD4002030007
:104E7C0008B5024B1B68DB69019308BD40020300B7
:104E8C0008B5024B1B681B6A019308BD4002030066
:104E9C0008B5024B1B681B6B019308BD4002030055
:104EAC0008B5024B1B685B6B019308BD4002030005
:104EBC0008B5024B1B681B6C019308BD4002030034
:104ECC0008B5024B1B685B6C019308BD40020300E4
:104EDC0008B5024B1B681B68019308BD1C0203003C
:104EEC0008B5024B1B685B68019308BD1C020300EC
:104EFC0008B5024B1B689B68019308BD1C0203009C
:104F0C0008B5024B1B68DB6A019308BD1C02030049
:104F1C0008B5024B1B681B6B019308BD1C020300F8
:104F2C0008B5024B1B685B6C019308BD1C020300A7
:104F3C000021FFF729BF10B5836804460BB901F0B7
:104F4C00E8F9C3689847A3681BB1032221462046A1
:104F5C00984720461021BDE8104001F0D6B910B595
:104F6C000446006808B1FFF7BFFD204610BD10B520
:104F7C008368044613B1032201469847204610BDAE
:104F8C000B68036013B15A6801325A60704713B54D
:104F9C000B460246D0E900016C4684E8030093E816
:104FAC00030082E8030094E8030083E8030002B0E6
:104FBC0010BD000010B5064C002320462360FFF7FF
:104FCC008BFD2046034A0449BDE8104001F098B916
:104FDC001CE60320ECE503206B4F0D00002240681B
:104FEC001146FFF72DBF002240681146FFF748BF5E
:104FFC00002240681146FFF753BF40680022FFF7BC
:10500C0047BF4068002281F00101FFF731BF002348
:10501C0040681A461946FFF723BF002340681A461A
:10502C001946FFF715BF002240681146FFF7F8BE7E
:10503C00406800220221FFF7FBBE002340681A469D
:10504C00FFF7E6BE084B10B528242246184600216F
:10505C0001F0D4FF054B04804FF0FF324260042274
:10506C005A60034A1A6010BD28E6032020E603208C
:10507C0040740D0070470020704710B51021044695
:10508C0001F043F9204610BD08B5FFF7F6FF08BD47
:10509C0030B500224FF69C74026084808D888C8021
:1050AC000C68858004600A6030BD10B50446006849
:1050BC00FFF716FF204610BD38B5C468F4B123784D
:1050CC00022B03D104F10C00FFF7EFFF656835B13B
:1050DC002846FFF74CFF1021284601F016F9A56869
:1050EC0035B12846FFF743FF1021284601F00DF992
:1050FC0020461421BDE8384001F007B938BD73B51E
:10510C000E46044656F8043B00930D4601A8314662
:10511C00FFF736FF019A009B6260236001A8002311
:10512C0001930093FFF71AF83046FFF717F828465B
:10513C00082101F0EAF8204602B070BD826810B573
:10514C000AB901F0E6F8BDE81040C368184708B585
:10515C00006800F11001FFF7F1FF08BD826810B57F
:10516C000AB901F0D6F8BDE81040C368184708B575
:10517C00006800F11001FFF7F1FF08BD38B50023FE
:10518C000446036010200D46FEF77DFF28B1012375
:10519C00C0E90133024B0360C5602060204638BD76
:1051AC007C740D0038B5002383608B6804460D4673
:1051BC002BB102229847EB68E360AB68A3602046F2
:1051CC0038BD0000F0B589B004686846FFF760FF91
:1051DC004FF00203D4E84F2F002A03D1C4E8413F1B
:1051EC000029F7D125D104F10C0569462846FFF7B3
:1051FC004FFFBFF35B8F01236370002004F10803A2
:10520C00BFF35B8F53E8006F43E80002002AF9D12B
:10521C00BFF35B8F6EB1FFF7BFFD78B12946304607
:10522C00FFF78CFF3046FFF7A2FE1021304601F04D
:10523C006CF86846FFF739FF09B0F0BD314602A89B
:10524C00FFF7B0FFE068B4F9105008B101F012FF9D
:10525C0006901020ADF81C50FEF715FF0546E8B17E
:10526C00002787601820FEF70EFF044688B1014620
:10527C00876002A8FFF78BFE049BA268A360059BC6
:10528C00049206A9E268E36004F110000592FFF7AE
:10529C00FFFE084BEB60084B2C60AB6006A8FFF7D9
:1052AC0004FF02A8FFF763FE002229460348FFF71C
:1052BC007BFDB7E75B510D00F1530D00434F0D0023
:1052CC002DE9F0478AB005469DF848900C461746E4
:1052DC009846FFF785FD07AE824638BB4FF62E7316
:1052EC00059005A93046ADF81830FFF7D1FE142013
:1052FC00FEF7C9FE044648B1022303700123C0E93E
:10530C0001AA437031460C30FFF7C2FE28462146F5
:10531C0040F8044BFFF732FF3046FFF7C6FE05A8F6
:10532C00FFF7C3FE28460AB0BDE8F0870C234FF008
:10533C00000A1420CDE908AA0793FEF7A4FE014643
:10534C0028B1C0E901AA80F800A080F801A004A847
:10535C000391FFF713FF224B08930820FEF793FEEF
:10536C00824628B1039B40F8043B04A9FFF708FED2
:10537C0000965FFA89F3424639462046CDF824A0C0
:10538C00FFF736FDB8B9039B5B7803F0FF0293B9C6
:10539C004FF69C7305A903A80592ADF81830FFF7DA
:1053AC0011FF05A8FFF781FE05A80999FFF7A7FED5
:1053BC0006A8FEF7D3FE039B059304A906A8FFF7E6
:1053CC00DFFD059B069A2B606A60002306A80693F6
:1053DC000593FEF7C3FE04A8FEF7C0FEA2E700BFCC
:1053EC00B5540D00022AF8B5054607D0032A18D08B
:1053FC00012A01D10B6803600020F8BD18200E684B
:10540C00FEF741FE044650B13146FFF7CBFE306942
:10541C00B6F9147008B101F02DFE2061A7822C6042
:10542C00EAE70468002CE7D004F11000FFF73DFE1A
:10543C002046FFF79CFD1821204600F066FFDBE7B5
:10544C0038B5002383608B6804460D462BB10222CD
:10545C009847EB68E360AB68A360204638BD022A2E
:10546C0070B5044607D0032A12D0012A01D10B686B
:10547C000360002070BD14200E68FEF704FE054684
:10548C0020B13146FFF7DCFF337C2B742560F0E74D
:10549C000468002CEDD02046FFF769FD142120464E
:1054AC0000F033FFE5E70000F0B589B004460D4687
:1054BC0001A81146FFF723FEA4B124B21DB1284662
:1054CC0001F0D8FD054601A803A90395ADF81040DD
:1054DC00FFF778FE03A8FFF7E8FD02A8FEF73EFEF3
:1054EC0009B0F0BD019D0123D5E84F2F002A03D14F
:1054FC00C5E8413F0029F7D1EFD12B73BFF35B8F88
:10550C006B702B1DBFF35B8F53E8006F43E80042B9
:10551C00002AF9D1BFF35B8F002EDED02046FFF7B7
:10552C003BFC074660B105F10C013046FFF716FE57
:10553C003046FFF71CFD1021304600F0E6FECCE7AC
:10554C00314603A8FFF77CFF2B7B8DF81C30102015
:10555C00FEF799FD0546D0B187601420FEF793FD48
:10556C00044678B18760014603A8FFF710FD059B40
:10557C00A268A360069B0592E268E3609DF81C306C
:10558C0006922374064BEB60064B2C60AB6003A8B1
:10559C00FFF7EDFC002229460348FFF705FCC7E79F
:1055AC007B510D006B540D00434F0D0000224068E1
:1055BC001146FFF765BC002240681146FFF770BC2E
:1055CC0040680022FFF764BC4068002281F00101B2
:1055DC00FFF74EBC002340681A461946FFF740BC43
:1055EC00002340681A461946FFF732BC0022406877
:1055FC001146FFF725BC002240681146FFF710BC8E
:10560C00406800220221FFF713BC002340681A46B1
:10561C00FFF7FEBB024B03225A60024A1A60704726
:10562C0050E6032098740D007047F8B506461546F1
:10563C000C468F18BC4206D0336814F8011B9B68CB
:10564C0030469847F6E72846F8BD007C0022FFF765
:10565C00B3BA007C0021FFF7B7BA007C0021FFF73A
:10566C00BBBA007C0021FFF7BFBA007C0021FFF71A
:10567C00C3BA10B51421044600F047FE204610BDF5
:10568C0010B54FF47A73044608460021C4E901139F
:10569C00034B236020741146FFF7BEFA204610BD61
:1056AC00D4740D000023007C1A461946FFF76CBA1F
:1056BC00007C0022FFF770BAC9B2FFF7F9BF007C7B
:1056CC000022FFF771BA0121FFF7F9BFFFF754BAB7
:1056DC00FFF74ABA704710B51821044600F015FEC2
:1056EC00204610BDF0B5037D062B8DB00E4600F1A3
:1056FC0004074FF0000412D000F1080515F8011D45
:10570C000A22304600F05FF9AF42044419D0002C55
:10571C00F4D02E21304600F03DF90444EEE72F235F
:10572C006A4639460A208DF80040FFF77DFA684634
:10573C0001F0BDFC33680246DB6869463046984789
:10574C00044620460DB0F0BD10B5054B04461122A1
:10575C0040F8043B002101F051FC204610BD00BF75
:10576C00FC740D000346074A10B543F8042B01F1F5
:10577C00100251F8044B43F8044B9142F9D10A78CA
:10578C001A7010BDFC740D0010B59DF8084044EA69
:10579C00032343EA024242EA016104234160037598
:1057AC0010BD000013B5054B0360CB7800938B78CC
:1057BC004A780978FFF7E8FF02B010BDFC740D00C1
:1057CC00014B024A1A60704758E6032008750D0019
:1057DC00002340681A46FFF71BBB406800220221D9
:1057EC00FFF726BB002240681146FFF719BB0022C9
:1057FC0040681146FFF724BB002340681A4619463F
:10580C00FFF726BB002340681A461946FFF728BB52
:10581C0040680021FFF74CBB40680021FFF750BBEC
:10582C004068002281F00101FFF722BB4068002292
:10583C00FFF72EBB002240681146FFF731BB002258
:10584C0040681146FFF71CBB2DE9F043002495B0CE
:10585C0016460D460746FFF777FF214618220EA87D
:10586C00009401F0CBFB4023CDE90C3421466B4670
:10587C000CAA3046FFF7E8F9044600284CD1024642
:10588C0001216868FFF7DCFA02218046224668682D
:10589C00FFF7D6FA009E81462146002E3CD0002907
:1058AC003AD17368022B03D00A2B11D0F669F4E7B6
:1058BC00B8F1000F0AD0716906A8043107ADFFF7E3
:1058CC0071FF0FCD3C1D0FC42B6823704146EDE7D3
:1058DC00B9F1000F01D14946E8E77469102201A81B
:1058EC0001F08CFB06238DF8143001AD04F1080394
:1058FC001834186859682A4603C20833A34215465F
:10590C00F7D101A906A807ADFFF72CFF0FCD3C1D61
:10591C000FC42B682370DEE70098FFF78DF938462B
:10592C0015B0BDE8F0830000024B034A1A60002258
:10593C005A6070475CE6032014750D00F8B50646F6
:10594C000D468F180024BD420CD0336815F8011B8E
:10595C009B6830469847031E01DB1C44F3E7002C80
:10596C0008BF1C462046F8BD13B50446084659B17D
:10597C00019101F09CFB23680199DB6802462046EB
:10598C0002B0BDE81040184702B010BD08B5FFF7D3
:10599C00EBFF08BD03689B68184738B50D21054619
:1059AC00FFF7F8FF0A2104462846FFF7F3FF2044CF
:1059BC0038BD38B50546FFF7D7FF04462846FFF734
:1059CC00ECFF204438BD30B58BB000238DF824306B
:1059DC00012A98BF0A2209AC0D46B1FBF2F101FB7A
:1059EC00125303F0FF03092B94BF30333733DBB270
:1059FC00AA4204F8013DEFD92146FFF7B5FF0BB0E1
:105A0C0030BD00002DE9F74F55EC104B06460F4604
:105A1C0010EE102A10EE100A2B46294601F0D2F88F
:105A2C0040B153493046FFF79FFF8246504603B0C2
:105A3C00BDE8F08F25F000494E4B4FF0FF32204669
:105A4C00494601F0BFF848B94A4B4FF0FF322046A7
:105A5C00494601F099F808B94749E3E7474B4FF03D
:105A6C0060422046294601F0A3F808B14449D9E721
:105A7C00444B4FF060422046294601F07BF8002849
:105A8C00F4D1002200232046294601F073F8D0B14E
:105A9C002D213046FFF77EFF05F1004382461D465F
:105AAC003949DFF8EC904FF0000B00204FF0000864
:105ABC005FFA8BF39F4208D942464B4600F012FF27
:105ACC000BF1010BF4E78246EAE722462B4600F085
:105ADC0029FC0D46044601F0B3F8804600F05EFD4B
:105AEC0002460B462046294600F01AFC0A220446C0
:105AFC000D4630464146FFF766FF824427B12349E5
:105B0C003046FFF731FF8244DFF884904FF00008F5
:105B1C00013FFFB2FF2F89D042464B462046294613
:105B2C0000F0B6FD04460D4601F062F8B0F1000B32
:105B3C001ADA2D213046FFF72DFFCBF10001034679
:105B4C000A2230460193FFF73EFF019B1844824422
:105B5C00584600F033FD02460B462046294600F01D
:105B6C00DFFB04460D46D3E759460023E8E700BFA8
:105B7C0048750D00FFFFEF7F4C750D00FFFFEF41E7
:105B8C0050750D00FFFFEFC10000E03F54750D0094
:105B9C000000244038B5044610EE100ACDB200F0D7
:105BAC001FFD41EC100B29462046BDE83840FFF79D
:105BBC0029BF10B50446FFF7DAF9204610BD0000E6
:105BCC000348044A04490023836000F099BB00BFDA
:105BDC0064E60320ECE50320BF5B0D0010B5044622
:105BEC0008462170FFF738F800236360204610BD8B
:105BFC002DE9F04757EC106B80460C4610EE100A5E
:105C0C0000220023394600F0B5FF28B107F100430C
:105C1C001F462D2304F8013B00234FF001090A22F3
:105C2C00D9B2884503D902FB09F90133F8E7484694
:105C3C0000F0C4FC32463B4600F02AFD06460F46F7
:105C4C0001F036F805468A4600F0ECFC02460B469D
:105C5C003046394600F064FB134B002200F09EFFE7
:105C6C0010B101354AF1000A4A462846D31751466D
:105C7C0001F006F80123154621460A2200F0DBF953
:105C8C00B8F1000F0DD0204601F011FA2E23211887
:105C9C0023540A22434628460131BDE8F04700F060
:105CAC00CAB9BDE8F08700BF0000E03F10B504465C
:105CBC000068FFF715F9204610BD10B504460068C2
:105CCC0008B1FFF70DF90023C4E90133236010BDBF
:105CDC0038B504460D4600680131FFF709F910B1DB
:105CEC00C4E90005012038BD10B50368044623B192
:105CFC0043688B4201D3012010BD2046FFF7E8FF1B
:105D0C000028F9D0A368002BF5D122681370F2E7B4
:105D1C0037B50D46114601920446FFF7E5FF019A8F
:105D2C0028B92046FFF7C9FF204603B030BDA2605A
:105D3C002946206801F054F92268A3680021D15447
:105D4C00F2E713B5044659B10846019101F0AFF9D9
:105D5C00019902462046FFF7DBFF204602B010BD3A
:105D6C00FFF7ABFFF9E730B5044600238BB0C4E96D
:105D7C000033A360237310EE100ACDB200F030FC98
:105D8C0041EC100B01A92846FFF732FF01A9204670
:105D9C00FFF7D7FF20460BB030BD10B504460068A6
:105DAC0018B1FFF79DF80023236010BD10B5044611
:105DBC00FFF7F3FF204610BD10B5094B094C02222A
:105DCC0000201A60084B2060A080A071A360FEF731
:105DDC00D3FF2046054A0649BDE8104000F090BAB2
:105DEC0080E6032074E603200000FFFFECE50320AF
:105DFC00B95D0D00024B1A68024B1A60704700BF68
:105E0C0084E5032084E6032070474174704708B58D
:105E1C00007CFEF769FF20EAE07008BD08B5007C45
:105E2C00FEF73AFF20EAE07008BD08B5007CFEF7EB
:105E3C0043FF40EAE07008BD08B5007CFEF734FF74
:105E4C0040EAE07008BD007CFEF73EBF37B5457CEC
:105E5C0004462DB1207C03B0BDE83040FEF714BFE2
:105E6C00007C0191FEF740FF00280199F2DC2846E6
:105E7C0003B030BD10B51421044600F046FA20469C
:105E8C0010BD000010B54FF0000C0446084611463A
:105E9C004FF47A72C4E901C2044A226001222074D0
:105EAC0062741A46FEF7E8FE204610BD7C750D00A4
:105EBC0013B50E4C2178BFF35B8F11F0010112D199
:105ECC0020460191FEF7E5F8019960B1084A094BAB
:105EDC000948FFF7D7FF2046FEF7E0F8074A0849C4
:105EEC00054800F00DFA044802B010BD88E6032006
:105EFC008CE6032010E7032094E70320ECE5032055
:105F0C00155E0D0041747047704708B50021007C88
:105F1C00FEF712FF40EAE07008BD08B50121007CD5
:105F2C00FEF70AFF40EAE07008BD08B5007CFEF7FA
:105F3C00FBFE20EAE07008BD08B5007CFEF7ECFE25
:105F4C0020EAE07008BD13B50446007C0191FEF711
:105F5C00EBFE0028019901DC607C20B1207CFEF76F
:105F6C00F3FE20EAE07002B010BD007CFEF7F4BE38
:105F7C0010B51421044600F0C8F9204610BD0000ED
:105F8C0010B54FF47A73044608460021C4E9011396
:105F9C00044B23600123207463741146FEF7ACFE9E
:105FAC00204610BDAC750D00007C0022FEF7ACBE87
:105FBC0010B514220446002101F020F8204610BD33
:105FCC0010B5104C88B003A8FFF7F2FF2178BFF38F
:105FDC005B8F11F0010111D120460191FEF759F8A8
:105FEC00019958B103AA0848FFF7CAFF2046FEF7EB
:105FFC0055F8064A0649044800F082F9024808B0F0
:10600C0010BD00BFA8E70320ACE70320ECE503209C
:10601C00155F0D0010B5044601F049F8013823183E
:10602C002046834206D90278197800F8011B03F840
:10603C000129F6E710BD70B50C46911E22290546C4
:10604C0022D820466DB1B5FBF2F602FB1655E9B22B
:10605C00092D94BF30315731C9B200F8011B3546B8
:10606C00F0E7024623443021934202D902F8011B87
:10607C00FAE71A1A834238BF0022002383542046C1
:10608C00FFF7C8FF204670BD0020FCE7014B1860ED
:10609C00704700BF88E5032008B50B4B43B1FFF7F1
:1060AC008FFF03681B699847002801DDAFF3008060
:1060BC00064B43B1FFF7FCFE03681B6998470028A9
:1060CC0001DDAFF3008008BD0000000000000000FF
:1060DC0008B5FFF7E1FFFEF71FFD014B186008BD87
:1060EC00D4E703200248034A0349121A00F078BF90
:1060FC0000F4032004F4032008760D0007B50023F8
:10610C0000931A466FF07701FEF760FE03B05DF85E
:10611C0004FB000007B543880A2B08D0502B0BD189
:10612C00094B1B684BB103B05DF804EB1847FFF744
:10613C00E5FF03B05DF804FB002300931A466FF0F3
:10614C007701FEF743FEF4E7C4E7032038B5124CA1
:10615C001248134D0021FEF7E3FE2368AB42114BAE
:10616C000CBF012200221A7002D0FFF7BBFF256082
:10617C00FEF7C2FC044600F059FF0B4B13B120464E
:10618C00AFF3008000210848FEF73AFEBDE8384026
:10619C0006480021FEF710BE00F4032099600D00A4
:1061AC001E1C279AC0E703200000000021610D008F
:1061BC00232813B502D9002002B010BDA0F10B03A7
:1061CC00022B1AD8174C2178BFF35B8F11F0010109
:1061DC000BD120460191FDF75CFF019928B11248C3
:1061EC00FFF7FCFC2046FDF759FF0F4B1878FEF724
:1061FC003BFD0028DFD10120DEE7012809D800F0A3
:10620C0057F80021007CFEF7FFFC80F00100C0B2C3
:10621C00D2E709380128EED8FFF74AFE007CFEF7DA
:10622C005BFDF2E7C8E70320CCE70320232838B551
:10623C0004460D460AD8FF2908D0FFF7B9FF28B14C
:10624C0029462046BDE83840FEF776BC38BD38B547
:10625C0004460D46FEF778FCFF2810D0062804D81B
:10626C004D2323FA00F0C30709D42046FFF7A0FF03
:10627C0028B129462046BDE83840FEF76DBC38BD34
:10628C0038B5002320254380142304460380856001
:10629C0005610649284600F03AF804496060284632
:1062AC0000F035F8E060204638BD00BFD4750D0015
:1062BC0030B50F4D2978BFF35B8F11F0010487B017
:1062CC0013D12846FDF7E5FE78B101A8FFF7D8FFFA
:1062DC0001AA21460748FFF7D3F92846FDF7DEFE51
:1062EC00054A0649034800F00BF8024807B030BDD8
:1062FC00D8E70320DCE70320ECE5032035560D003E
:10630C000B460146184600F05DBEFDF7C0BEFDF71A
:10631C00BCBE08B5FEF7F4FD81F0004102E000BF01
:10632C0083F0004330B54FEA41044FEA430594EA49
:10633C00050F08BF90EA020F1FBF54EA000C55EA84
:10634C00020C7FEA645C7FEA655C00F0E2804FEA55
:10635C005454D4EB5555B8BF6D420CDD2C4480EA37
:10636C00020281EA030382EA000083EA010180EA67
:10637C00020281EA0303362D88BF30BD11F0004FB5
:10638C004FEA01314FF4801C4CEA113102D04042EB
:10639C0061EB410113F0004F4FEA03334CEA133326
:1063AC0002D0524263EB430394EA050F00F0A7803E
:1063BC00A4F10104D5F1200E0DDB02FA0EFC22FA39
:1063CC0005F2801841F1000103FA0EF2801843FA2D
:1063DC0005F359410EE0A5F120050EF1200E012A1E
:1063EC0003FA0EFC28BF4CF0020C43FA05F3C0185C
:1063FC0051EBE37101F0004507D54FF0000EDCF1D5
:10640C00000C7EEB00006EEB0101B1F5801F1BD37D
:10641C00B1F5001F0CD349085FEA30004FEA3C0C81
:10642C0004F101044FEA445212F5800F80F09A8077
:10643C00BCF1004F08BF5FEA500C50F1000041EB7B
:10644C00045141EA050130BD5FEA4C0C404141EB7F
:10645C000101013C28BFB1F5801FE9D291F0000F7A
:10646C0004BF01460020B1FA81F308BF2033A3F129
:10647C000B03B3F120020CDA0C3208DD02F1140C20
:10648C00C2F10C0201FA0CF021FA02F10CE002F15B
:10649C001402D8BFC2F1200C01FA02F120FA0CFC54
:1064AC00DCBF41EA0C019040E41AA2BF01EB04519D
:1064BC00294330BD6FEA04041F3C1CDA0C340EDC9B
:1064CC0004F11404C4F1200220FA04F001FA02F3DE
:1064DC0040EA030021FA04F345EA030130BDC4F19C
:1064EC000C04C4F1200220FA02F001FA04F340EA91
:1064FC000300294630BD21FA04F0294630BD94F042
:10650C00000F83F4801306BF81F480110134013D28
:10651C004EE77FEA645C18BF7FEA655C29D094EA99
:10652C00050F08BF90EA020F05D054EA000C04BF17
:10653C001946104630BD91EA030F1EBF0021002002
:10654C0030BD5FEA545C05D14000494128BF41F0A1
:10655C00004130BD14F580043CBF01F5801130BD05
:10656C0001F0004545F0FE4141F470014FF0000090
:10657C0030BD7FEA645C1ABF194610467FEA655C41
:10658C001CBF0B46024650EA013406BF52EA0335E3
:10659C0091EA030F41F4002130BD00BF90F0000FD1
:1065AC0004BF0021704730B54FF4806404F132040D
:1065BC004FF000054FF0000150E700BF90F0000FC6
:1065CC0004BF0021704730B54FF4806404F13204ED
:1065DC0010F0004548BF40424FF000013EE700BFBD
:1065EC0042004FEAE2014FEA31014FEA02701FBF4D
:1065FC0012F07F4393F07F4F81F06051704732F07F
:10660C007F4208BF704793F07F4F04BF41F40021D5
:10661C00704730B54FF4607401F0004521F0004133
:10662C001CE700BF50EA010208BF704730B54FF0BD
:10663C0000050AE050EA010208BF704730B511F0BE
:10664C00004502D5404261EB41014FF4806404F1F6
:10665C0032045FEA915C3FF4D8AE4FF003025FEA7C
:10666C00DC0C18BF03325FEADC0C18BF033202EB00
:10667C00DC02C2F1200300FA03FC20FA02F001FA5A
:10668C0003FE40EA0E0021FA02F11444BDE600BFFD
:10669C0070B54FF0FF0C4CF4E06C1CEA11541DBFAC
:1066AC001CEA135594EA0C0F95EA0C0F00F0DEF877
:1066BC002C4481EA030621EA4C5123EA4C5350EA5C
:1066CC00013518BF52EA033541F4801143F48013AD
:1066DC0038D0A0FB02CE4FF00005E1FB02E506F03E
:1066EC000042E0FB03E54FF00006E1FB03569CF093
:1066FC00000F18BF4EF0010EA4F1FF04B6F5007F99
:10670C0064F5407404D25FEA4E0E6D4146EB06060A
:10671C0042EAC62141EA55514FEAC52040EA5E5093
:10672C004FEACE2EB4F1FD0C88BFBCF5E06F1ED83D
:10673C00BEF1004F08BF5FEA500E50F1000041EB74
:10674C00045170BD06F0004646EA010140EA020021
:10675C0081EA0301B4EB5C04C2BFD4EB0C0541EA43
:10676C00045170BD41F480114FF0000E013C00F358
:10677C00AB8014F1360FDEBF002001F0004170BD7C
:10678C00C4F10004203C35DA0C341BDC04F1140495
:10679C00C4F1200500FA05F320FA04F001FA05F221
:1067AC0040EA020001F0004221F0004110EBD370EE
:1067BC0021FA04F642EB06015EEA430E08BF20EA1A
:1067CC00D37070BDC4F10C04C4F1200500FA04F3BD
:1067DC0020FA05F001FA04F240EA020001F000414F
:1067EC0010EBD37041F100015EEA430E08BF20EAC2
:1067FC00D37070BDC4F1200500FA05F24EEA020E0A
:10680C0020FA04F301FA05F243EA020321FA04F038
:10681C0001F0004121FA04F220EA020000EBD370EF
:10682C005EEA430E08BF20EAD37070BD94F0000FEF
:10683C000FD101F00046400041EB010111F4801F23
:10684C0008BF013CF7D041EA060195F0000F18BFD4
:10685C00704703F00046520043EB030313F4801F10
:10686C0008BF013DF7D043EA0603704794EA0C0FCA
:10687C000CEA135518BF95EA0C0F0CD050EA4106E0
:10688C0018BF52EA4306D1D181EA030101F000415D
:10689C004FF0000070BD50EA410606BF1046194685
:1068AC0052EA430619D094EA0C0F02D150EA013691
:1068BC0013D195EA0C0F05D152EA03361CBF1046D2
:1068CC0019460AD181EA030101F0004141F0FE4171
:1068DC0041F470014FF0000070BD41F0FE4141F4F5
:1068EC00780170BD70B54FF0FF0C4CF4E06C1CEAF5
:1068FC0011541DBF1CEA135594EA0C0F95EA0C0FAA
:10690C0000F0A7F8A4EB050481EA030E52EA033564
:10691C004FEA013100F088804FEA03334FF0805585
:10692C0045EA131343EA12634FEA022245EA1115B2
:10693C0045EA10654FEA00260EF000419D4208BF63
:10694C00964244F1FD0404F5407402D25B084FEA10
:10695C003202B61A65EB03055B084FEA32024FF4BC
:10696C0080104FF4002CB6EB020E75EB030E22BF19
:10697C00B61A754640EA0C005B084FEA3202B6EBD9
:10698C00020E75EB030E22BFB61A754640EA5C0088
:10699C005B084FEA3202B6EB020E75EB030E22BF18
:1069AC00B61A754640EA9C005B084FEA3202B6EB19
:1069BC00020E75EB030E22BFB61A754640EADC00D8
:1069CC0055EA060E18D04FEA051545EA16754FEA3A
:1069DC0006164FEAC30343EA52734FEAC2025FEA58
:1069EC001C1CC0D111F4801F0BD141EA00014FF0E7
:1069FC0000004FF0004CB6E711F4801F04BF0143B8
:106A0C000020B4F1FD0C88BFBCF5E06F3FF6AFAED3
:106A1C00B5EB030C04BFB6EB020C5FEA500C50F163
:106A2C00000041EB045170BD0EF0004E4EEA1131E6
:106A3C0014EB5C04C2BFD4EB0C0541EA045170BDED
:106A4C0041F480114FF0000E013C90E645EA060E31
:106A5C008DE60CEA135594EA0C0F08BF95EA0C0F5F
:106A6C003FF43BAF94EA0C0F0AD150EA01347FF4A7
:106A7C0034AF95EA0C0F7FF425AF104619462CE77E
:106A8C0095EA0C0F06D152EA03353FF4FDAE1046E1
:106A9C00194622E750EA410618BF52EA43067FF432
:106AAC00C5AE50EA41047FF40DAF52EA43057FF4C2
:106ABC00EBAE12E74FF0FF3C06E000BF4FF0010CCD
:106ACC0002E000BF4FF0010C4DF804CD4FEA410C31
:106ADC007FEA6C5C4FEA430C18BF7FEA6C5C1BD0FE
:106AEC0001B050EA410C0CBF52EA430C91EA030F7F
:106AFC0002BF90EA020F0020704710F1000F91EADC
:106B0C00030F58BF994208BF90422CBFD8176FEAA9
:106B1C00E37040F0010070474FEA410C7FEA6C5C77
:106B2C0002D150EA013C07D14FEA430C7FEA6C5C7E
:106B3C00D6D152EA033CD3D05DF8040B704700BFAA
:106B4C008446104662468C461946634600E000BFF8
:106B5C0001B5FFF7B7FF002848BF10F1000F01BDCA
:106B6C004DF808EDFFF7F4FF0CBF012000205DF895
:106B7C0008FB00BF4DF808EDFFF7EAFF34BF01201A
:106B8C0000205DF808FB00BF4DF808EDFFF7E0FFB3
:106B9C0094BF012000205DF808FB00BF4DF808ED04
:106BAC00FFF7CEFF94BF012000205DF808FB00BF6B
:106BBC004DF808EDFFF7C4FF34BF012000205DF84D
:106BCC0008FB00BF4FEA410C7FEA6C5C02D150EA33
:106BDC00013C0AD14FEA430C7FEA6C5C02D152EAC9
:106BEC00033C02D14FF0000070474FF0010070479A
:106BFC004FEA410212F5001215D211D56FF47873D9
:106C0C00B3EB625212D94FEAC12343F0004343EA7B
:106C1C00505311F0004F23FA02F018BF4042704756
:106C2C004FF00000704750EA013005D111F00040E0
:106C3C0008BF6FF0004070474FF00000704700BF76
:106C4C004A0011D212F5001211D20DD56FF47873DF
:106C5C00B3EB62520ED44FEAC12343F0004343EA34
:106C6C00505323FA02F070474FF00000704750EA7F
:106C7C00013002D14FF0FF3070474FF000007047E9
:106C8C0053B94AB9002908BF00281CBF4FF0FF3187
:106C9C004FF0FF3000F08CB9ADF1080C6DE904CE6B
:106CAC0000F024F8DDF804E0DDE9022304B07047BD
:106CBC00D0B50C4B002206460F46FFF7E9FCFFF758
:106CCC00BFFF0446FFF76AFC074B0022FFF7E0FC0E
:106CDC0002460B4630463946FFF722FBFFF7B0FF62
:106CEC002146D0BD0000F03D0000F0412DE9F047F9
:106CFC00089D04468C46002B40F083808A42174640
:106D0C0047D9B2FA82F242B1C2F1200024FA00F063
:106D1C009140974040EA010C94404FEA1748230CED
:106D2C00BCFBF8F61FFA87FE08FB16C143EA0143C9
:106D3C0006FB0EF1994209D9FB1806F1FF3080F0E1
:106D4C001981994240F21681023E3B445B1AA4B26F
:106D5C00B3FBF8F008FB103344EA034400FB0EFECF
:106D6C00A64509D93C1900F1FF3380F00581A645F1
:106D7C0040F2028102383C4440EA0640A4EB0E0487
:106D8C0000261DB1D4400023C5E900433146BDE8BF
:106D9C00F08702B9FFDEB2FA82F2002A50D1CB1B87
:106DAC004FEA174E1FFA87F80126B3FBFEFC210CA5
:106DBC000EFB1C3341EA034108FB0CF38B4207D951
:106DCC0079180CF1FF3002D28B4200F2E980844634
:106DDC00C91AA3B2B1FBFEF00EFB101143EA014439
:106DEC0008FB00F8A04507D93C1900F1FF3302D28B
:106DFC00A04500F2D9801846A4EB080440EA0C40E8
:106E0C00BFE78B4209D9002D00F0B1800026C5E9FF
:106E1C00000130463146BDE8F087B3FA83F6002E08
:106E2C004AD18B4202D3824200F2B880841A61EBC1
:106E3C00030101208C46002DA8D0C5E9004CA5E724
:106E4C00C2F1200320FA03F6974001FA02F04FEA50
:106E5C00174ED9403043030CB1FBFEF61FFA87F8EE
:106E6C000EFB161143EA014306FB08F1994204FAA2
:106E7C0002F409D9FB1806F1FF3C80F08D80994291
:106E8C0040F28A80023E3B445B1A81B2B3FBFEF0B7
:106E9C000EFB103341EA034100FB08F38B4207D988
:106EAC00791800F1FF3C73D28B4271D90238394406
:106EBC00CB1A40EA064678E7C6F1200C03FA06F432
:106ECC0022FA0CF31C4320FA0CF701FA06F34FEAF2
:106EDC00144E21FA0CF11F433B0CB1FBFEF91FFAC7
:106EEC0084F80EFB191143EA014109FB08FA8A45A3
:106EFC0002FA06F200FA06F308D9611809F1FF301C
:106F0C0048D28A4546D9A9F102092144A1EB0A01CC
:106F1C00BFB2B1FBFEF00EFB101147EA014700FBBC
:106F2C0008F8B84507D9E71900F1FF312ED2B8455A
:106F3C002CD90238274440EA0940A7EB0807A0FBEC
:106F4C0002894F45C64649461AD317D05DB1B3EBFB
:106F5C000E0267EB010707FA0CFCF2404CEA020246
:106F6C00F740C5E9002700263146BDE8F0872E46DC
:106F7C0028460BE70646E9E61846FDE64345E5D20A
:106F8C00B8EB020E69EB04010138DFE70846D2E7E3
:106F9C0060468DE78146B9E7664675E730464AE7B5
:106FAC00ACF1020C394413E702383C4424E700BF2F
:106FBC00704700BF024B0A460146186800F026B81D
:106FCC0088E5032010B5054C13462CB10A46014642
:106FDC000220AFF3008010BD2046FCE7000000004B
:106FEC000A44914200F1FF3300D1704710B511F8FB
:106FFC00014B03F8014F9142F9D110BD02440346F5
:10700C00934200D1704703F8011BF9E713B54A43CB
:10701C0011460192FDF77CFF044618B1019A00213C
:10702C00FFF7ECFF204602B010BD000038B50D4B49
:10703C001D68AB6B04467BB91820FDF749FF0A4A63
:10704C000A4BA863C0E90023094B83600B2383819F
:10705C0001220023C0E90423AB6B00221C615A619E
:10706C0038BD00BF88E503200E33CDAB34126DE67E
:10707C00ECDE0500024B0146186800F003B800BFB7
:10708C0088E5032037B5044608460D4600F00FF896
:10709C00421C114620460192FDF73AFF044618B1F6
:1070AC00019A2946FFF79CFF204603B030BD0346EA
:1070BC0013F8012B002AFBD1181A01387047000075
:1070CC001D400D0059400D0081400D0085400D0004
:1070DC000000000044485431312074657374005032
:1070EC0061727469636C65005765617468657200E0
:1070FC0053746174696F6E004661696C65642074C9
:10710C006F20726561642066726F6D204448542054
:10711C0073656E736F720074656D70430074656D8A
:10712C0070460068756D6964000000000000000086
:10713C000000005F000000000000000700070000D6
:10714C000000147F147F14000000242A7F2A1200F0
:10715C0000002313086462000000364955225000D9
:10716C00000000050300000000001C22410000008C
:10717C00000041221C0000000000082A1C2A080004
:10718C00000008083E0808000000A0600000000095
:10719C0000000808080808000000606000000000FB
:1071AC00000020100804020000003E5149453E003A
:1071BC00000000427F400000000062514949460037
:1071CC00000022414949360000001814127F1000BB
:1071DC00000027454545390000003C4A494930002C
:1071EC0000000171090503000000364949493600C9
:1071FC000000064949291E00000000363600000038
:10720C00000000AC6C0000000000081422410000DB
:10721C00000014141414140000004122140800007F
:10722C0000000201510906000000324979413E007C
:10723C0000007E0909097E0000007F49494936009B
:10724C0000003E414141220000007F4141221C00D0
:10725C0000007F494949410000007F0909090100EC
:10726C0000003E414151720000007F0808087F0079
:10727C000000417F4100000000002040413F010020
:10728C0000007F081422410000007F404040400075
:10729C0000007F020C027F0000007F0408107F00BA
:1072AC0000003E4141413E0000007F0909090600F3
:1072BC0000003E4151215E0000007F091929460063
:1072CC000000264949493200000001017F010100FC
:1072DC0000003F4040403F0000001F2040201F00A6
:1072EC0000003F4038403F00000063140814630066
:1072FC000000030478040300000061514945430079
:10730C0000007F4141000000000002040810200032
:10731C00000041417F000000000004020102040053
:10732C0000008080808080000000010204000000CA
:10733C00000020545454780000007F484444380026
:10734C0000003844442800000000384444487F00C2
:10735C0000003854545418000000087E0902000044
:10736C00000018A4A4A47C0000007F08040478008A
:10737C000000007D00000000000080847D00000003
:10738C0000007F10284400000000417F40000000F6
:10739C0000007C041804780000007C08047C0000C9
:1073AC0000003844443800000000FC24241800007D
:1073BC000000182424FC00000000007C08040000DD
:1073CC0000004854542400000000047F44000000D6
:1073DC0000003C40407C000000001C2040201C00B1
:1073EC0000003C4030403C00000044281028440081
:1073FC0000001CA0A07C000000004464544C44001D
:10740C0000000836410000000000007F0000000072
:10741C0000004136080000000000020101020100DA
:10742C000000020505020000000000000000000042
:10743C000000000047500D003D500D0033500D0072
:10744C00E94F0D0027500D001B500D001D580D006D
:10745C0025580D000F500D0007500D00FD4F0D006D
:10746C00F34F0D0055580D00000000000000000007
:10747C0081500D0087500D00C5500D0095500D002A
:10748C0083500D00000000000000000017560D0096
:10749C000D560D0003560D00F9550D00ED550D0060
:1074AC00E1550D001D580D0025580D00D5550D004A
:1074BC00CD550D00C3550D00B9550D0055580D0097
:1074CC00000000000000000035560D007F560D0036
:1074DC0057560D0037560D005F560D0067560D00C0
:1074EC006F560D0077560D000000000000000000E4
:1074FC00F1560D00E1560D00E3560D006170700061
:10750C000000000000000000DD570D00E7570D00E3
:10751C00F1570D00FB570D0005580D0011580D00CB
:10752C001D580D0025580D002D580D0039580D0013
:10753C0041580D004B580D0055580D006E616E00F2
:10754C00696E66006F7666002E0025592D256D2D0F
:10755C0025645425483A254D3A2553257A00617304
:10756C006374696D650000000000000000000000FD
:10757C00155E0D00815E0D00595E0D0049590D0020
:10758C00295E0D00455E0D00375E0D00535E0D004B
:10759C00175E0D001B5E0D000000000000000000D7
:1075AC00155F0D007D5F0D00535F0D0049590D00F7
:1075BC00455F0D00175F0D00275F0D00775F0D0015
:1075CC00375F0D00115F0D0000000000CD420D0073
:1075DC00C14F0D0051500D0021560D00CD570D001F
:1075EC0035590D00CD5B0D00C55D0D00015E0D0024
:0475FC00000000008B
:08760000F8F6FF7F0100000015
:04760800000000007E
:10760C006A750D008CE503200000000000000000EE
:10761C00000000000000000000000000000000005E
:10762C00000000000000000000000000000000004E
:10763C00000000000000000000000000000000003E
:10764C00000000000000000000000000000000002E
:10765C00000000000000000000000000000000001E
:08766C00000000000000000016
:10767400FFFFFFFF00000102030405060708090AD3
:107684000B0C0D0E0F101112131415161718191ACE
:087694001B1C1D1E1F20280015
:04769C0078563412D6
:04000003D000401CCD
:00000001FF
