:02000002D0002C
:1040000000400D009CD40D00000006000D000501CD
:084010000401BD0B00000000DB
:0440180070C30D0064
:1040200009480A49884208B505D0094A824202D0A7
:10403000121A06F05DFA0748074A0021121A06F024
:104040007FFA014808BD00BF58E203208CD20D0062
:1040500040E4032040E40320F0E7032070B5074E5E
:10406000074C05F0D9F8A41BA4080025A54200D1EF
:1040700070BD56F8043B98470135F7E73CD20D0078
:1040800074D20D0000F02EB808B500F087F9BDE835
:10409000084005F083B802F033BF02F031BF02F0F0
:1040A00037BF02F035BF0078B0FA80F040097047A2
:1040B0000123037070470EB410B58DB00FAA0168CC
:1040C00052F8044B039200232020CDE90403CDE9EC
:1040D00000421E2004AA02F047FE0DB0BDE81040C9
:1040E00003B0704710B58AB004F0D0FF4FF41651FA
:1040F00004F0C0FF04F0CAFF2C492D4C03F0EFFE82
:104100002C4800F0DBFB2C4800F0BCFE05F036F933
:1041100003F0E0FA204600F0EBFE204600F04AFFF4
:10412000204600F075FF204600F0F4FE00222046F5
:10413000022100F0FAFE2046204900F05CFF002238
:104140002046032100F0F1FE20461D4900F053FFF8
:1041500000222046042100F0E8FE2046194900F024
:104160004AFF00222046052100F0DFFE16492046C6
:1041700000F041FF02A802F043FE02A906A804F0E5
:1041800081F8124906A804F0C5F80023CDE90033F0
:104190000F4900681A4602F043FE06A804F018F81A
:1041A00002A804F015F80AB010BD00BF84C30D00CA
:1041B00080E4032048E4032060E4032098C30D005A
:1041C0009FC30D00A4C30D0090C30D00AFC30D002D
:1041D00071460D00000000002DE9F84F55EC104B22
:1041E0002DED028B10EE102A10EE100A2B462946F8
:1041F00057EC116B05F080FC324682468B463B46FD
:104200003046394605F078FC47A3D3E9002341EC5A
:10421000180B2046294605F06FFC45A3D3E900237F
:1042200005F0B2FA44A3D3E900238046894630461C
:10423000394605F061FC02460B464046494605F00A
:10424000A5FA3FA3D3E900238046894620462946A4
:1042500005F052FC32463B4605F04EFC02460B464A
:104260004046494605F092FA37A3D3E90023804639
:1042700089465046594605F03FFC02460B464046EB
:10428000494605F083FA32A3D3E9002380468946E4
:1042900051EC180B05F030FC02460B4640464946EF
:1042A00005F074FA2CA3D3E90023804689465046D2
:1042B000594605F021FC32463B4605F01DFC0246FE
:1042C0000B464046494605F061FA25A3D3E9002391
:1042D00006460F462046294605F00EFC53EC182BE7
:1042E00005F00AFC02460B463046394605F04EFA08
:1042F0001DA3D3E9002304460D465046594605F058
:10430000FBFB53EC182B05F0F7FB02460B4620464F
:10431000294605F03BFABDEC028B41EC100BBDE8E1
:10432000F88F00BFAFF30080ECD8CE186264004075
:104330008D976E1283304540CD495AB7624924406B
:10434000F847C607C9C4CCBFCC169C03FC017CBF90
:10435000248CD100FF10ACBFE5DC6087B521543F51
:10436000DA303301F9F14B3F01BDD3117EB1C0BE4C
:1043700038B5046805467CB16368013B63605BB98E
:10438000236820469B689847A368013BA3601BB93C
:1043900023682046DB689847284638BD2DE9F04F52
:1043A0002DED028BDFF8AC92DFF8AC8289B04CF2D5
:1043B000503002F0E5FDD9F8000005F045FB41EC76
:1043C000180BD8F8000005F03FFBB0EE481AF0EEED
:1043D000681A41EC100BFFF7FFFE8E4B186857EC84
:1043E000106B05F031FB8C4B41EC180B186805F095
:1043F0002BFBB0EE481AF0EE681A41EC100BFFF7F9
:10440000EBFE32463B463046394655EC104B05F044
:104410000DFE38B922462B462046294605F006FEF9
:10442000824648B104F032FE7C4903F058FD09B0E1
:10443000BDEC028BBDE8F08FDFF820B202F0E4FAA9
:10444000DBF80030C01A764B984210D902F0DCFA43
:10445000744BCBF800001B788DF8003004A872492B
:104460003C23524602F044FF05A8FFF781FF224695
:104470002B463046394605F0B1FD30B100236B487C
:104480000093FF22194600F0B5FC22462B46304629
:10449000394605F0C1FD38B1FF230093002363487E
:1044A0001A46194600F0A6FCDFF86CA198ED000A48
:1044B0005F496048DFF85CB102F079FA99ED000AD3
:1044C0005D495C4802F073FA9AED000A5B4959486D
:1044D00002F06DFA9BED000A5949564802F067FA5E
:1044E000D9F8000005F0B0FA41EC180BD8F800003C
:1044F00005F0AAFAB0EE481AF0EE681A41EC100B7B
:10450000FFF76AFE51EC100B05F0EEFD4D4900EE91
:10451000100A484802F04BFADBF8000005F094FA64
:1045200041EC180BDAF8000005F08EFAB0EE481AEC
:10453000F0EE681A41EC100BFFF74EFE51EC100B39
:1045400005F0D2FD404900EE100A3A4802F02FFA79
:104550003E4B38481A783E4B196802F031FAD9F8C8
:10456000000005F071FA41EC180BD8F8000005F0D6
:104570006BFAB0EE481AF0EE681A41EC100BFFF738
:104580002BFE062104A803F09AFE304B049A1B78F8
:104590002C498DF8003002A83C2302F0A9FE03A8A4
:1045A000FFF7E6FE04A803F013FEDBF8000005F0B9
:1045B0004BFA41EC180BDAF8000005F045FAB0EEC2
:1045C000481AF0EE681A41EC100BFFF705FE0621C1
:1045D00004A803F074FE1D4B049A1B781A498DF849
:1045E000003002A83C2302F083FE03A8FFF7C0FEC0
:1045F00004A803F0EDFD04F049FD47EC106B022127
:1046000003F05EFD04F042FD45EC104B022103F087
:1046100057FD0CE760E2032064E20320C4C30D00F1
:104620009FBB0D0045E40320E3C30D0060E40320BD
:10463000F6C30D006CE4032002C40D0012C40D008B
:104640001FC40D0030C40D0042C40D0044E403201B
:1046500058E203205CE4032068E403205CE20320CA
:104660000B68036013B15A6801325A60704700004A
:10467000F0B50A4691B00C4648484949494D4A4E62
:10468000FFF719FD204605F0D4FF2146024603A896
:1046900003F0D6FA059C039B069304A907A8FFF72D
:1046A000DFFF06AA21460AA803F08AFA07A8FFF747
:1046B0005FFE3E4F0AA803F09BFA002866D00D9CCF
:1046C0000A9B01930BA902A8FFF7CAFF214601AA82
:1046D00006A803F051FA02A8FFF74AFE08982946F7
:1046E00005F077FF044607A8FFF742FECCB90E9C01
:1046F0000A9B01930BA902A8FFF7B2FF01AA21466A
:1047000006A803F0F7F802A8FFF732FE06A803F0A8
:1047100027F951EC100B05F0E7FC306007A8FFF714
:1047200027FE0D9C0A9B01930BA902A8FFF798FF97
:10473000214601AA06A803F01FFA02A8FFF718FEF7
:104740000898394605F045FF044607A8FFF710FE14
:10475000002CAFD10E9C0A9B01930BA902A8FFF776
:104760007FFF01AA214606A803F0C4F802A8FFF7BC
:10477000FFFD06A803F0F4F851EC100B05F0B4FCB3
:104780000B4B186007A8FFF7F3FD92E70BA8FFF7A4
:10479000EFFD04A8FFF7ECFD11B0F0BD58E60320D3
:1047A00055C40D006CC40D0064E2032071C40D00FB
:1047B00060E20320F8B5194B194C1A491A4E1B4DEB
:1047C00000221A701A4B01271F700322204602F0A4
:1047D000CDF82046174C1849324604F0F7FD062361
:1047E0000B221321204600F062F83B4609220A21E1
:1047F000284600F095FA11493246284604F0E6FDB5
:10480000204600F08BFA0E4B204683ED000A00F0A4
:1048100047FA0C4B83ED000AF8BD00BF44E40320C7
:104820006CE4032075C40D0040E4032060E4032021
:1048300045E4032048E4032089690D003B4D0D0049
:104840005CE4032068E4032010B503682F2B0446C2
:1048500004D9074A00210A2002F066FA23681F2BB8
:1048600083BF03F01F03034823604FF0A04010BD37
:10487000F9690D000003005007B5019001A8FFF78A
:10488000E3FF019A01239340C0F8083503B05DF8B7
:1048900004FB07B5019001A8FFF7D6FF019BD0F8F4
:1048A0001005D84000F0010003B05DF804FB10B51E
:1048B000037201238171C271037410BD2DE9F041AF
:1048C00005461E4C8079DFF87880002104F014FD45
:1048D000AE792378BFF35B8F13F0010F0AD1204626
:1048E000FFF7E1FB30B102F097F8C8F8000020466E
:1048F000FFF7DEFBD8F8003036019F5D2378BFF369
:104900005B8FDB074FEA47170AD40C48FFF7CBFB56
:1049100030B102F081F8C8F800000848FFF7C8FB82
:10492000D8F8003033445B7803F01F0343EA0700F4
:10493000FFF7A2FF0023EB60BDE8F08178E40320DD
:104940007CE403202DE9F04F044685B002F05CF8CA
:10495000E368834284BF0023E360237C2BB9E368D0
:10496000C01AB0F5FA6FC0F060810025257402F01E
:104970004BF8B04E25602571E060A7793378AE4DD5
:10498000BFF35B8F13F0010F09D13046FFF78BFBAC
:1049900028B102F041F828603046FFF789FB2B6808
:1049A0003F0113F807803378BFF35B8FD9074FEAD5
:1049B000481809D49F48FFF776FB28B102F02CF87D
:1049C00028609C48FFF774FB2B681F44787800F040
:1049D0001F0040EA0800FFF74FFFFA2002F0D0FA6C
:1049E000A079012104F088FCA7793378BFF35B8FAD
:1049F000DA0709D48F48FFF756FB28B102F00CF80C
:104A000028608C48FFF754FB2B683F01DB5D4FEAC1
:104A100043183378BFF35B8FDB0709D48548FFF772
:104A200042FB28B101F0F8FF28608248FFF740FB05
:104A30002B681F4403A87B7803F01F0343EA080395
:104A40000393FFF701FF039A01239340C0F80C354D
:104A5000142002F095FA02F051FEA7793378BFF3E3
:104A60005B8FD80709D47348FFF71DFB28B101F00D
:104A7000D3FF28606F48FFF71BFB2B683F0113F83B
:104A800007803378BFF35B8FD9074FEA481809D402
:104A90006848FFF708FB28B101F0BEFF28606548B1
:104AA000FFF706FB2B681F44787800F01F0040EAF0
:104AB0000800FFF7E1FE282001F09EFFA079DFF853
:104AC0007481002104F018FC00270123BA460093EA
:104AD0004FF0000994F806B03378BFF35B8FDA0724
:104AE00009D44046FFF7DFFA28B101F095FF2860AE
:104AF0004046FFF7DDFA2B684FEA0B1B13F80B302B
:104B00005B0101933378BFF35B8FDB0709D4404629
:104B1000FFF7C9FA28B101F07FFF28604046FFF790
:104B2000C7FA2B685B4493F801B0019B0BF01F0B95
:104B30004BEA030B5846FFF7ACFE5846FFF7A9FEB9
:104B4000009B834209D109F101095FFA89F901202B
:104B500001F052FFB9F1FF0FBCD194F806B03378E1
:104B6000BFF35B8FD80709D44046FFF79CFA28B102
:104B700001F052FF28604046FFF79AFA2B684FEA8F
:104B80000B1B13F80B305B0100933378BFF35B8F83
:104B9000D90709D44046FFF786FA28B101F03CFF57
:104BA00028604046FFF784FA2B685B4493F801B015
:104BB000009B0BF01F0B4BEA030B5846FFF769FEF7
:104BC0005846FFF766FEB9F1FF0FC3B2009318D045
:104BD000032F11D9FA070FD44FEADA020AF1010ABA
:104BE000A35C5B00DBB2A354217A49453CBF43F090
:104BF0000103A3545FFA8AFA0137FFB2552F7FF4FD
:104C000067AF02F07DFDBAF1270F10D963782078E5
:104C10001844A3781844E37818442379C0B2C31A1F
:104C20005842584105B0BDE8F08F0120FAE7002056
:104C3000F8E700BF78E403207CE4032010B50446C5
:104C4000FFF780FE20B3E3790B2B1BD0153B012B24
:104C50001ED8A378DFED106A03F07F0207EE102A5A
:104C6000E27807EE902AB8EEC77AF8EEE77A1B06EC
:104C7000E7EE267AB2EE047A87EE870A07D5B1EE20
:104C8000400A04E0A37800EE103AB8EE400A10BDE6
:104C90009FED020AFBE700BF000080430000C07FD9
:104CA00008B5FFF7CBFFF2EE027A20EE270AF1EE0D
:104CB000047A80EE277A9FED020A37EE000A08BDDB
:104CC0000000004210B50446FFF73CFEF0B1E37966
:104CD0000B2B15D0153B012B18D82378DFED0D6A6F
:104CE00007EE103A637807EE903AB8EE477AF8EE9E
:104CF000E77AE7EE267AB2EE047A87EE870A10BDED
:104D0000237800EE103AB8EE400AF8E79FED020A69
:104D1000F5E700BF000080430000C07FFFF7D2BF6F
:104D200010B50446017042708370012103EB43000B
:104D300005F0C8FB6060204610BD10B50446406811
:104D400002F0E6F8204610BD10B5002104460078B8
:104D500004F0E3FA142001F04FFE2078012104F062
:104D6000DCFABDE81040142001F046BE70B50646DE
:104D70000C46082523064CBF01210021707804F061
:104D8000CCFA013D3046FFF7DFFF640015F0FF0568
:104D9000E4B2EFD170BD73B513F0800F1E460C4620
:104DA000154614BFC021E021730658BF41F0100121
:104DB0002A0658BF41F008016B0658BF41F00401B4
:104DC000220658BF41F00201630658BF41F00101BD
:104DD0000190FFF7CBFF01983146FFF7C7FF01981D
:104DE0002946FFF7C3FF0198214602B0BDE8704095
:104DF000FFF7BCBF2DE9F04704460F46002190465F
:104E000099469DF820A0FFF7B1FF00212046FFF74B
:104E1000ADFF00212046FFF7A9FF00212046FFF744
:104E2000A5FF0026A378F5B2AB4219D905EB4500E2
:104E3000AF4200F1010200F1020308D1616801F8FC
:104E40000080616801F80290616801F803A0616860
:104E5000CB5C8A5C095C2046FFF79DFF0136E1E7E9
:104E600020460021FFF782FF20460021FFF77EFF4A
:104E700020460021FFF77AFF20460021BDE8F047D9
:104E8000FFF774BF73B504460121007804F034FACB
:104E90006078012104F030FA00252E46A378E9B2AB
:104EA0008B4207D9002300961A462046FFF7A2FF3F
:104EB0000135F3E702B070BD0368C9B29B681847BB
:104EC00010B5044604F05AFA3C2102F00DFC04F03F
:104ED00055FA8021FFF7F0FF04F050FA03682146ED
:104EE0009B68984704F04AFABDE8104002F003BC02
:104EF00008B5AE20FFF7E4FF052002F041F8AF202F
:104F0000FFF7DEFF052002F03BF8BDE80840A620D1
:104F1000FFF7D6BF08B5012303702020FFF7D0FFAD
:104F2000BDE808400220FFF7CBBF10B5503914464A
:104F3000C8B2FFF7C5FFE00000F00800FFF7C0FFB0
:104F4000C4F343001030BDE81040FFF7B9BF10B5FF
:104F50000C4604F013FA3C2102F0C6FB04F00EFAF2
:104F60004021FFF7A9FF04F009FA036821469B6876
:104F7000984704F003FABDE8104002F0BCBB000003
:104F8000A1F120035F2B88BF202170B501F10051F2
:104F9000074D2039064605EBC105082415F8011B0D
:104FA0003046013CFFF7D3FF14F0FF04F6D170BD8B
:104FB00085C40D0070B50546AE20FFF781FF0026C1
:104FC0000022F1B22846FFF7B0FF10242021284626
:104FD000013CFFF7D5FF14F0FF04F7D10136082E8E
:104FE000EED1AF20FFF76CFF224621462846BDE8F0
:104FF0007040FFF79ABF70B506460D460024E3B235
:105000000134E95C19B13046FFF7BAFFF7E770BD2C
:10501000A620FFF755BF03681847012A03D0022ACC
:1050200003D0002070470160FBE70B680360F8E7DE
:1050300013B51C20FFF72FF8044648B1064B07496B
:105040001B6800930968064B42F2343201F078F88D
:10505000204602B010BD00BF0CE5032008E5032088
:1050600085C70D0013B52020FFF715F8044640B1A1
:10507000054B06491B6800930968054B502200F058
:105080005FFA204602B010BD0CE5032008E50320BE
:1050900085C70D0013B51C20FEF7FDFF044648B17F
:1050A000064B07491B6800930968064B42F23432ED
:1050B00001F0B0FB204602B010BD00BF0CE503209C
:1050C00008E5032085C70D0013B51420FEF7E3FFA4
:1050D000044640B1054B06491B680093002309684C
:1050E0001A4600F059FD204602B010BD0CE5032021
:1050F00008E5032010B5064B0360643304460361E2
:1051000003F0BCFC204603F0B3FD204610BD00BFF9
:1051100014CE0D0038B584690A4B036005467CB196
:105120006368013B63605BB9236820469B689847CE
:10513000A368013BA3601BB923682046DB6898473E
:10514000284638BDACCD0D0010B58368044613B1B8
:10515000032201469847204610BD000010B586B0D6
:1051600002AB0291044693E803006A4682E803001A
:1051700094E8030083E8030092E80300A268049225
:10518000064AA260E2680592054AE26084E80300EC
:105190001846FFF7D9FF204606B010BD1B500D0082
:1051A00017500D0010B50446FFF7B4FF20461C2130
:1051B00004F011F9204610BD10B50446FFF79AFF20
:1051C00020464C2104F007F9204610BD70B500F1CF
:1051D0000801C2680B463AB1157C0478A5422ABF83
:1051E0001346D2689268F6E7994204D000781A7C98
:1051F000904238BF0B46DA690AB904F0A4F9BDE859
:1052000070401A6A03F1140010478B6870B5164697
:1052100004460D1D01225BB130781A7C904234BFE8
:105220009868D8681D4634BF012200220346F2E781
:1052300092B1CA68AA4203D1C4E90035204670BDC4
:10524000284604F022F93378027C9A424FF000039A
:10525000F2D3C4E90003F1E72846F4E72DE9F0436F
:1052600000F10408856885B006468946444655B174
:1052700099F800302A7C9A4236BFEB68AB68254625
:105280002C461D46F3E7A04504D099F80020237C66
:105290009A422ED22420FEF7FEFE99F8009080F864
:1052A00010900023A045074600F11002C36125D1EC
:1052B00073691BB131690B7C4B4509D3314602A898
:1052C000FFF7A3FFDDE90241002951D0002C4DD1A9
:1052D00088454BD0387C0B7C98422CBF00200120A5
:1052E00043460A46394604F0D2F8736901337361C4
:1052F0003C4604F1140005B0BDE8F083237C019224
:105300004B4518D9F3689C4209D0204604F0BDF8FB
:10531000037C019A4B4505D2C36853B90446214624
:105320001C46D1E7314602A8FFF76FFFDDE90234E2
:10533000F5E72346F3E71BD231698C420BD02046B8
:1053400004F090F8037C019A4B45054605D9E368C3
:1053500053B921461D462C46B6E7314602A8FFF751
:1053600054FFDDE90251F6E70146F4E70120B7E713
:1053700007F11400FFF7E8FE3846FEF790FE2746D7
:10538000B6E700002DE9F341051D0026174600F1A0
:105390000802C0E90362C0E9052604468846067291
:1053A00003700DF10701012328468DF80730FFF740
:1053B00055FF1649FFF7D2FE0DF1070128468DF87B
:1053C0000760FFF74BFF1249FFF7C8FE02230DF1FC
:1053D000070128468DF80730FFF740FF0D49FFF71A
:1053E000BDFE03230DF1070128468DF80730FFF7B6
:1053F00035FF0949FFF7B2FE084BC3F80080084BA0
:1054000020461F6002B0BDE8F08100BF31500D00A2
:1054100065500D0095500D00C9500D0008E50320A2
:105420000CE5032010B50E4C204603F0E5F92046AC
:105430000C4C0D4A0D4903F0C9FF204603F0DCF97E
:1054400020460B4C084A094903F0C0FF204603F0F0
:10545000EFFB2046044A0749BDE8104003F0B6BF01
:10546000ECE4032084E4032040E4032015510D0004
:10547000A0E40320F5500D00017570470022011DC6
:10548000C0E90221C0E904120271704770B50646F6
:105490002DED028B142001F033FD0546142001F0A0
:1054A0002FFD0446304605F0C4F83246002302388A
:1054B000984214DD12F8011B0D293AD111780A29FE
:1054C00037D151780D2934D191780A2931D104335B
:1054D000F1181422284605F0C6F800232B750A217E
:1054E000284605F069F8064628B30A21013005F080
:1054F00063F800B33146204605F075F8204605F004
:1055000098F82044002300F8013C204604F0D6FF20
:1055100051EC100B04F0E8FD08EE100A204601F0F3
:10552000F7FC284601F0F4FCB0EE480ABDEC028B13
:1055300070BD0133BCE79FED018AF5E75F42A2CD64
:1055400030B5074D05600025C0E901130575039BC3
:1055500041F2883585610525C0E90332057730BD04
:10556000A0C90D002DE9F74FDFF88C80DFF88CA083
:10557000DFF88CB004460D461746002640465FFA19
:1055800086F902F02CFF88BB237F4B452ED9237D63
:10559000CBB103F07BFD514602F08EFC03F076FDAB
:1055A000294602F089FC03F071FD594602F084FCA3
:1055B00003F06CFD0A224946019002F09AFC019B1F
:1055C000184602F080FC0023BAB22946404603F098
:1055D00037F9237D23B103F059FD064902F07FFC22
:1055E0004FF47A7001F0CCFC0136C7E703B0BDE898
:1055F000F08F00BFC3C70D0010E5032099C70D0051
:10560000AFC70D002DE9F0414B1E0C4601F52F727E
:105610000546002103F8011F9342FBD12B7D4BB1BE
:1056200003F034FD144902F05AFC03F02FFD134936
:1056300002F055FC124F002640F2BB28384603F01A
:1056400031F870B1384602F066FFA0552B7D2BB1C2
:1056500003F01CFD0368A15D9B6898470136464531
:10566000ECD12B7D33B103F011FDBDE8F0410549CC
:1056700002F035BCBDE8F081E8C70D00D4C70D00CD
:1056800010E50320E7C70D00F8B50E4F04460026CD
:10569000384603F007F8054690B9A369B3420FDD19
:1056A000012001F06DFCA3690136B342F0DC207DDE
:1056B00028B103F0EBFC044902F011FC2846F8BDC8
:1056C0000120FCE710E50320F3C70D00F8B50F46F5
:1056D0000269416804461D46FFF744FF784802F01E
:1056E0007EFE0646002800F0E1807649744802F00C
:1056F000E3FB3946724802F0DFFB7349704802F061
:10570000DBFB72496E4802F0D7FB61686C4802F01F
:10571000D3FB6F496A4802F0CFFB6E49684802F03C
:10572000CBFBA168664802F0C7FB6949644802F0F8
:10573000C3FB6949624802F0BFFBE168604802F0C0
:10574000BBFB63495E4802F0B7FB64495C4802F06A
:10575000B3FB63495A4802F0AFFB284604F069FFE7
:1057600060490646564802F0A7FB0A2231465448D3
:1057700002F0BFFB5C49524802F09EFB29465048AC
:1057800002F09AFB52494E4802F096FB4C4802F058
:1057900025FE237D002B69D003F078FC534902F0ED
:1057A0009EFB03F073FC474902F086FB03F06EFC9E
:1057B000394602F081FB03F069FC434902F07CFBAF
:1057C00003F064FC414902F077FB03F05FFC616881
:1057D00002F072FB03F05AFC3D4902F06DFB03F04E
:1057E00055FC3C4902F068FB03F050FCA16802F054
:1057F00063FB03F04BFC364902F05EFB03F046FC12
:10580000354902F059FB03F041FCE16802F054FB1A
:1058100003F03CFC2E4902F04FFB03F037FC2F490C
:1058200002F04AFB03F032FC2D4902F045FB03F085
:105830002DFC2C4902F040FB03F028FC0A223146E3
:1058400002F057FB03F022FC274902F035FB03F07E
:105850001DFC294602F030FB03F018FC1C4902F045
:105860002BFB03F013FC224902F039FB2046FFF723
:105870000BFF237D2BB90124114802F06DFF204658
:10588000F8BD03F003FC1B490D4D02F028FB284630
:1058900002F008FF0028EED0284602F03CFE044645
:1058A00003F0F4FBE1B202F00BFBF0E7247D002CE7
:1058B000E2D003F0EBFB104902F011FB3446DBE7CA
:1058C00010E5032026C80D003EC80D004AC80D0093
:1058D0006EC90D0051C80D005EC80D006DC80D00E9
:1058E00081C80D00A2C80D006CC90D00B3C80D0021
:1058F000CFC80D00EDC80D0009C90D0070B52DED24
:10590000028B044600230E46154641686648502225
:1059100002F096FF204661685022FFF723FE62489E
:1059200002F05DFD002800F0B68060495E4802F09C
:10593000C3FA31465C4802F0BFFA5D495A4802F0AA
:10594000BBFA2946584802F0B7FA5A49564802F0BD
:10595000B3FA5949544802F0AFFA5849524802F094
:10596000ABFA6168504802F0A7FA55494E4802F078
:10597000A3FA54494C4802F09FFAA1684A4802F041
:105980009BFA4F49484802F097FA4F49464802F0BF
:1059900093FAE168444802F08FFA4949424802F01C
:1059A0008BFA4A49404802F087FA237D002B4FD0FA
:1059B00003F06CFB3D4902F07FFA03F067FB3146D0
:1059C00002F07AFA03F062FB394902F075FA03F04B
:1059D0005DFB294602F070FA03F058FB354902F0EE
:1059E0006BFA03F053FB344902F066FA03F04EFB06
:1059F000324902F061FA03F049FB616802F05CFA97
:105A000003F044FB2E4902F057FA03F03FFB2D4907
:105A100002F052FA03F03AFBA16802F04DFA03F0EB
:105A200035FB274902F048FA03F030FB264902F023
:105A300043FA03F02BFBE16802F03EFA03F026FB89
:105A40001F4902F039FA03F021FB204902F034FA31
:105A50002046FFF719FE48B913489FED1D8A02F052
:105A60007BFEB0EE480ABDEC028B70BD4FF42F7088
:105A700001F046FA014605462046FFF7C3FD2846D9
:105A8000FFF704FD0848B0EE408A02F065FE2846A4
:105A900001F03EFAE5E7237D002BDDD003F0F6FAB6
:105AA0000C4902F01CFAD7E710E5032033C90D00BA
:105AB00048C90D004AC90D003EC80D004AC80D0076
:105AC0006EC90D0051C80D005EC80D004EC90D0015
:105AD0005F42A2CD71C90D0010B5054C204602F001
:105AE0008BFE2046034A0449BDE8104003F06EBC1B
:105AF00010E5032040E4032015510D009FED010A3D
:105B0000704700BF5F42A2CD017470470022011DA3
:105B1000C0E90221C0E904120271704730B585B0B6
:105B20001A46089B1B788DF8003002A83C2301F030
:105B3000DFFB0020029C01F02FF920B1637813B93C
:105B400001F04EF9FAE76378BFF35B8F651CABB9E0
:105B50000025039C7CB16368013B63605BB92368EB
:105B600020469B689847A368013BA3601BB9236844
:105B70002046DB689847284605B030BD002001F07C
:105B80000BF920B12B7813B901F02AF9FAE7237841
:105B9000012BDDD1257BDCE710B5044C0460C0E9A6
:105BA00001130024029B0474C36010BDB8C90D002A
:105BB00010B50446006808B1FEF773FAE06801F01A
:105BC000A7F9606810B1042103F005FC204610BD60
:105BD00038B504460120607494F91000E56800EBC4
:105BE000800045F8201094F91010E06801EB810165
:105BF00000EB810181ED020A94F91010E06801EBDD
:105C0000810100EB81014A6094F91020E16802EB08
:105C1000820201EB8202D36094F91030E26803EB58
:105C2000830302EB8303049A1A61237C01335BB282
:105C30000A2B237408DDA37C23B103F027FA034960
:105C400002F04DF90A23237438BD00BFC8C90D0006
:105C500010B510EE100A86B00C4603F0F5FE0246B1
:105C60000B4601A80A4901F063F901A81422002398
:105C700010F8011B202906D0E1540133DBB211B921
:105C8000E15406B010BD013A12F0FF02F0D1F8E77E
:105C900007CA0D002DE9F04F0C4689B04C49DFF8DA
:105CA0005481DFF85491DFF854A10546204604F0F2
:105CB0009AFC002695F910309E426ADAEB6806EBF2
:105CC000860B03EB8B0393ED020A03A92846FFF72B
:105CD000BFFFEB6803A9009153F82B3022464146E1
:105CE000204601F025F9EB684FEA8B073B44DB685F
:105CF00043B322464946204601F01AF9EB683B447B
:105D00001B69002B38D00A2093FBF0F191FBF0FCCB
:105D100000FB1C1C00FB1131C9B2642293FBF2F2A0
:105D200092FBF0FE00FB1E2200915FFA8CF32949E2
:105D3000D2B202A801F0FCF8274902AB2246204665
:105D400001F0F6F8EB681F447B6823B12349224633
:105D5000204601F0EDF822462149204601F0E8F8FE
:105D6000013695F91030F6B29E4222460ADA1D49F4
:105D7000204601F0DDF89DE722465146204601F01D
:105D8000D7F8DFE71649204601F0D2F800232B743C
:105D900090E7AB7CC3B103F079F9134902F09FF8A7
:105DA00003F074F9114902F09AF803F06FF92146F3
:105DB00002F095F803F06AF90B4902F090F803F04D
:105DC00065F90B4902F08BF809B0BDE8F08F00BF10
:105DD0000CCA0D0034CA0D003BCA0D0046CA0D00A6
:105DE00055CA0D0059CA0D00E8C70D005DCA0D0067
:105DF00070C90D000ECA0D0021CA0D0040CA0D0069
:105E00002DE9F04F0C46054689B05249DFF8748100
:105E1000DFF87491204616461F4604F0E4FBAB6899
:105E20004D4A4E49204601F083F833464C490097CD
:105E30002246204601F07CF84A49494F2246204636
:105E400001F076F8002695F910309E4264DAEB688E
:105E500006EB860B03EB8B0393ED020A03A928469E
:105E6000FFF7F6FEEB6803A9009153F82B302246AA
:105E70003946204601F05CF8EB684FEA8B0A534440
:105E80005B6823B122464146204601F051F8EB6899
:105E90005344DB683BB322464946204601F048F8AC
:105EA000EB6853441B6953B30A2093FBF0F191FB59
:105EB000F0FC00FB1C1C00FB1131C9B2642293FBF7
:105EC000F2F292FBF0FE00FB1E2200915FFA8CF3CF
:105ED0002549D2B202A801F02BF8244902AB224690
:105EE000204601F025F895F910300136F6B29E42B1
:105EF00022460ADA1E49204601F01AF8A3E71D4996
:105F00002246204601F014F8EDE71B49204601F037
:105F10000FF800232B7496E7AB7CC3B103F0B6F8FF
:105F2000164901F0DCFF03F0B1F8154901F0D7FF85
:105F300003F0ACF8214601F0D2FF03F0A7F80F49B7
:105F400001F0CDFF03F0A2F8024901F0C8FF09B04B
:105F5000BDE8F08F70C90D0085C70D0066CA0D0041
:105F600072CA0D007ACA0D0034CA0D003BCA0D007A
:105F700059CA0D0040CA0D008CCA0D00E8C70D00BB
:105F80005DCA0D007FCA0D0085CA0D002DE9F743DB
:105F900004464FF42F701E460F46904600F0B0FFA7
:105FA000E37C013B012B054626D8014643463A4691
:105FB0002046FFF725FFA37C23B103F067F81149C2
:105FC00001F08DFF606803680096D3F800903946B1
:105FD0002B464246C8470746284600F099FF1EB1A7
:105FE0000121304603F0F7F9002307B16374384606
:105FF000237403B0BDE8F08301462046FFF74AFE54
:10600000D9E700BF93CA0D0070B5044601200D46C4
:106010001646FEF740F8067003462A4629462046F3
:10602000BDE87040FFF7B2BF70B505460C4684B1BD
:10603000E1682846FFF7F8FFE369A66823B104F199
:1060400014010322084698472046FEF728F83446F4
:10605000EDE770BDF0B58DB0044601A80D461746BA
:106060001E4600F0CDFE03980130FEF716F80199A8
:10607000206004F0B8FA2A4633463946E67405A88B
:10608000FFF780F9C82000F03BFFE06005A8FFF7AC
:106090009DF80023C4E901050899237406A8FFF7B9
:1060A000C3FF01A802F094F80DB0F0BD38B500258B
:1060B00004460582FFF7CEFF204638BD70B5054681
:1060C0000C464CB1E1682846FFF7F8FFA668204669
:1060D000FDF7E5FF3446F4E770BD000010B5104B46
:1060E000104C00221A70204602F086FB20460E4C0F
:1060F0000E4A0F4903F06AF9204602F07DFB204664
:106100000C4C0A4A0A4903F061F9204602F090FD5E
:106110002046064A0849BDE8104003F057B900BFC1
:10612000B0E5032094E503202CE5032040E40320A0
:1061300015510D0048E50320F5500D00017570471D
:1061400030B5064D0560C0E901130025039B0575B8
:1061500041F28835C0E90332856130BD40CB0D0086
:106160002DE9F84F0D461746804602F08FFF1E4975
:106170001E4EDFF87CA0DFF87CB001F0B0FE0024FA
:10618000304602F000FB60BB052C2AD098F8143092
:10619000C3B102F07BFF514601F08EFE02F076FFA4
:1061A000294601F089FE02F071FF594601F084FE94
:1061B00002F06CFF0A228146214601F09AFE484611
:1061C00001F081FE304602F0C7FA0023BAB2294638
:1061D000304602F035FB4FF47A7000F0D1FE013406
:1061E000CEE7BDE8F88F00BFA3CA0D00B4E50320D9
:1061F00099C70D00AFC70D0070B504460E46816803
:106200002E48154601F058FE2D492C4801F054FE49
:10621000E1682A4801F050FE2A49284801F04CFE66
:106220003146264801F048FE2749244801F044FE43
:106230002946224801F040FE2449204801F03CFE56
:10624000237D002B38D002F021FF214901F047FEC9
:1062500002F01CFF1F4901F042FE02F017FFA16887
:1062600001F02AFE02F012FF154901F025FE02F0AE
:106270000DFFE16801F020FE02F008FF114901F076
:106280001BFE02F003FF314601F016FE02F0FEFE97
:106290000D4901F011FE02F0F9FE294601F00CFE55
:1062A00002F0F4FE094901F007FE02F0EFFEBDE83E
:1062B0007040094901F013BE70BD00BFB4E5032072
:1062C000BBCA0D00BECA0D0064CA0D008ECA0D0007
:1062D000D6CA0D00C0CA0D00D5CA0D00F8B50E4FC4
:1062E00004460026384602F0DDF9054690B9A36958
:1062F000B3420FDD012000F043FEA3690136B34233
:10630000F0DC207D28B102F0C1FE044901F0E7FD78
:106310002846F8BD0120FCE7B4E50320F3C70D00D3
:106320002DE9F047037D0646884614464BB102F03E
:10633000ADFE274901F0D3FD02F0A8FE254901F08A
:10634000CEFDDFF8A490002540F2BB2A484602F0BB
:10635000A9F978B1484602F0DEF8337DC7B22BB117
:1063600002F094FE036839469B68984767550135EB
:106370005545EBD1337D23B102F088FE164901F07B
:10638000AEFD002363551549404604F022F968B973
:106390001349204604F07AF99FED120A0028F7EE1F
:1063A000007A18BFB0EE670ABDE8F0877C2120466E
:1063B00004F002F948B1013004F080F851EC100B00
:1063C00003F092FE00EE100AEEE79FED060AEBE7FF
:1063D000E8C70D00D4C70D00E7C70D00DBCA0D00EC
:1063E000E0CA0D005F42A2CDB4E5032070B52DEDEB
:1063F000028B04464168224842F234321D46002393
:1064000002F01EFA2046616842F23432FFF7A8FE1D
:106410001B4801F0E4FF48B32946194801F04CFD40
:106420002046FFF75BFF054638B9154802F094F99E
:106430000025BDEC028B284670BD642000F060FD95
:106440001049024606462046FFF76AFF3046B0EE86
:10645000408A00F05DFDDFED0C7AB4EE678AF1EE64
:1064600010FAE2D0064802F077F9E2E7237D002B2C
:10647000DBD002F00BFE054901F031FDD5E700BF8E
:10648000B4E50320DBCA0D005F42A2CDE3CA0D00D4
:1064900070B52DED028B044600230D46164641686B
:1064A0001E4842F2343202F0CBF92046616842F2D3
:1064B0003432FFF755FE194801F091FF28B320460A
:1064C00032462946FFF798FE2046FFF707FF48B9F6
:1064D00012489FED138A02F03FF9B0EE480ABDEC76
:1064E000028B70BD4FF42F7000F00AFD0D4902467B
:1064F00005462046FFF714FF0848B0EE408A02F038
:106500002BF9284600F004FDE7E7237D002BDFD0C0
:1065100002F0BCFD044901F0E2FCD9E7B4E5032038
:106520005F42A2CD01CB0D0004CB0D002DE9F04759
:106530000446182015460F46FDF7ADFD07F1040A85
:106540006B68D5F80090BA6843610646C0F81090B1
:106550005546012352B113694B45CCBF9168D168B0
:106560001546CCBF012300230A46F3E7A3B1FB681D
:10657000AB4223D0284602F088FF8046D8F810307E
:106580004B451BDB3046FDF78AFDC4F80080002335
:1065900023712046BDE8F087A846EFE728698145CA
:1065A000ACBF0020012053462A46314602F06FFF5F
:1065B0007B69266001337B610123E9E7AA45EDD1C0
:1065C0000120F0E72DE9FF470D4604464FF42F70F8
:1065D00000F096FC2B7D07464BB102F057FD3A497F
:1065E00001F07DFC02F052FD384901F078FCDFF843
:1065F000F090002640F2BB2A484602F053F888B1DA
:10660000484601F088FF2B7D5FFA80F82BB102F03D
:106610003DFD036841469B68984707F806800136B0
:106620005645E9D12B7D23B102F030FD284901F018
:1066300056FC0025231DC4E90253C4E9043525494D
:1066400025713846BD5504F06DFEDFF89890DFF8EF
:1066500098A0DFF8808006467EB34946304603F0B6
:10666000B8FF00BB414604F05DFE1B49064603F03F
:10667000B0FF18B9194B0095019308E0304603F0BC
:106680001DFF51EC100B009503F02EFD01906A46A2
:10669000214602A8FFF74AFF4146002004F042FECF
:1066A00001350646D8E75146304603F092FF0028F0
:1066B000F2D1414604F036FEDCE7384600F028FC13
:1066C000204604B0BDE8F087E8C70D00D4C70D0030
:1066D000E7C70D00BECA0D002ACB0D005F42A2CD58
:1066E000B4E50320E0CA0D002FCB0D002DE9F041E9
:1066F000071D98460023C0E90237C0E904730371FF
:106700000D4688B04968044616462E4842F2343297
:1067100002F096F82846696842F23432FFF720FD0D
:10672000284801F05CFE10B3314642462846FFF788
:1067300063FD2846FFF7D2FD0646C0B92148224F27
:1067400002F00AF82149404604F0ECFD35461F4EA0
:10675000002832D0214602A86A4600950197FFF72B
:10676000E5FE31460020013504F0DCFDF0E7294666
:1067700002A8FFF727FFA1682046FFF79FFC049AB5
:106780000023C4E90237C4E904737AB19DF80C1000
:1067900021710599E1600699A26021615760079A0D
:1067A000626103AACDE905220493079302A8049924
:1067B000FFF784FC034801F0CFFF204608B0BDE896
:1067C000F08100BFB4E503205F42A2CD5BCA0D009B
:1067D00010B5054C204602F00FF82046034A044944
:1067E000BDE8104002F0F2BDB4E5032040E4032010
:1067F00015510D009FED010A704700BF5F42A2CD09
:10680000017570470022011DC0E90221C0E9041290
:106810000271704730B5064D0560C0E901130025CF
:10682000039B057541F28835C0E90332856130BDAF
:1068300004CC0D0010B5054C204602F0F9F92046B5
:10684000034A0449BDE8104002F0C0BDD0E5032072
:1068500040E40320F5500D0010B504464A68024993
:1068600001F088FA204610BD20E60320F0B58FB075
:106870000146064602A81F46FFF7EEFF02A800F0F9
:106880009BFFA0B9337D23B102F000FC274901F042
:1068900026FBF323009337223D23A92108A809AD45
:1068A00000F0AEFF0FCD03AC0FC42B6823700022A5
:1068B00040F2BD211E4802F0EDF9002242F23431CF
:1068C0001B4802F08FF803AD1A4B08930FCD09ACAB
:1068D0000FC42B681648237042F2343208A902F024
:1068E000F5F958B9337D23B102F0D0FB124901F01C
:1068F000F6FA0F4802F0C2F8002014E0002FF1D0A1
:10690000384603F096FE39460246094802F0C4F8BC
:106910000028E7D0064802F01FF90028E2D004481A
:1069200002F0ACF801200FB0F0BD00BF50CB0D005D
:10693000D0E50320FCCC0D00DCCB0D0073B5037259
:1069400004465020CDE900211E4600F0D9FA6060CF
:106950001420FDF7A0FB054620B1DDE900213346F8
:10696000FFF7A4FB256002B070BD000038B500251C
:106970000446134645728572024AFFF7DFFF204640
:1069800038BD00BF14CC0D0038B50446406800F097
:10699000BFFA256835B12846FFF70AF914212846C1
:1069A00002F019FD204638BD0068FFF711B907B5A0
:1069B000002300931A46FFF7F7FF03B05DF804FBCE
:1069C0000068FFF721BB000008B5024B1B685B6C39
:1069D000019308BD4802030008B5024B1B689B6C7D
:1069E000019308BD4802030008B5024B1B685B68B1
:1069F000019308BD1802030008B5024B1B68DB6851
:106A0000019308BD1802030008B5024B1B685B69BF
:106A1000019308BD1802030008B5024B1B681B68F0
:106A2000019308BD2C02030008B5024B1B689B684C
:106A3000019308BD2C02030008B5024B1B68DB68FC
:106A4000019308BD2C02030008B5024B1B681B69AB
:106A5000019308BD2C02030008B5024B1B681B6A9A
:106A6000019308BD2C02030008B5024B1B685B6A4A
:106A7000019308BD2C02030008B5024B1B68DB68BC
:106A8000019308BD2802030008B5024B1B689B69EF
:106A9000019308BD2802030008B5024B1B68DB699F
:106AA000019308BD2802030008B5024B1B681B6A4E
:106AB000019308BD2802030008B5024B1B685B6AFE
:106AC000019308BD2802030008B5024B1B689B6AAE
:106AD000019308BD2802030008B5024B1B68DB6A5E
:106AE000019308BD2802030008B5024B1B681B6B0D
:106AF000019308BD2802030008B5024B1B685B6BBD
:106B0000019308BD2802030008B5024B1B681B6CEB
:106B1000019308BD2802030008B5024B1B685B699E
:106B2000019308BD6C02030008B5024B1B685B694A
:106B3000019308BD6402030008B5024B1B681B6A81
:106B4000019308BD6402030008B5024B1B685B6A31
:106B5000019308BD6402030008B5024B1B689B6AE1
:106B6000019308BD6402030008B5024B1B689B68D3
:106B7000019308BD6802030008B5024B1B68DB687F
:106B8000019308BD6802030008B5024B1B685B68EF
:106B9000019308BD3802030008B5024B1B689B69CE
:106BA000019308BD3802030008B5024B1B68DB697E
:106BB000019308BD3802030008B5024B1B681B6A2D
:106BC000019308BD3802030008B5024B1B689B6A9D
:106BD000019308BD3802030008B5024B1B68DB6A4D
:106BE000019308BD3802030008B5024B1B681B6BFC
:106BF000019308BD3802030008B5024B1B685B6BAC
:106C0000019308BD3802030008B5024B1B689B6B5B
:106C1000019308BD3802030008B5024B1B68DB690D
:106C2000019308BD3002030008B5024B1B681B6AC4
:106C3000019308BD3002030008B5024B1B681B68B6
:106C4000019308BD3C02030008B5024B1B68DB68DA
:106C5000019308BD3C02030008B5024B1B681B6989
:106C6000019308BD3C02030008B5024B1B685B6939
:106C7000019308BD3C02030008B5024B1B689B69E9
:106C8000019308BD3C02030008B5024B1B68DB6999
:106C9000019308BD3C02030008B5024B1B681B6A48
:106CA000019308BD3C02030008B5024B1B689B6AB8
:106CB000019308BD3C02030008B5024B1B681B682A
:106CC000019308BD4C02030008B5024B1B685B68CA
:106CD000019308BD4C02030008B5024B1B681B69F9
:106CE000019308BD4C02030008B5024B1B685B69A9
:106CF000019308BD4C02030008B5024B1B689B6959
:106D0000019308BD4C02030008B5024B1B68DB6908
:106D1000019308BD4C02030008B5024B1B681B6AB7
:106D2000019308BD4C02030008B5024B1B685B6B66
:106D3000019308BD6002030008B5024B1B689B6B02
:106D4000019308BD6002030008B5024B1B68DB6BB2
:106D5000019308BD6002030008B5024B1B681B6D60
:106D6000019308BD6002030008B5024B1B685B6D10
:106D7000019308BD6002030008B5024B1B685B6805
:106D8000019308BD2002030008B5024B1B685B6934
:106D9000019308BD2002030008B5024B1B68DB6CA1
:106DA000019308BD2002030008B5024B1B685B6D10
:106DB000019308BD2002030008B5034B1B68D3F8FC
:106DC0008830019308BD00002002030008B5034B82
:106DD0001B68D3F89430019308BD00002002030023
:106DE00008B5024B1B689B68019308BD4402030071
:106DF00008B5024B1B685B69019308BD44020300A0
:106E000008B5024B1B68DB69019308BD440203000F
:106E100008B5024B1B681B6A019308BD44020300BE
:106E200008B5024B1B685B6A019308BD440203006E
:106E300008B5024B1B68DB6B019308BD44020300DD
:106E400008B5024B1B685B68019308BD4002030054
:106E500008B5024B1B689B68019308BD4002030004
:106E600008B5024B1B68DB68019308BD40020300B4
:106E700008B5024B1B681B69019308BD4002030063
:106E800008B5024B1B685B69019308BD4002030013
:106E900008B5024B1B689B69019308BD40020300C3
:106EA00008B5024B1B68DB69019308BD4002030073
:106EB00008B5024B1B681B6A019308BD4002030022
:106EC00008B5024B1B681B6B019308BD4002030011
:106ED00008B5024B1B685B6B019308BD40020300C1
:106EE00008B5024B1B681B6C019308BD40020300F0
:106EF00008B5024B1B685B6C019308BD40020300A0
:106F000008B5024B1B681B68019308BD1C020300F7
:106F100008B5024B1B685B68019308BD1C020300A7
:106F200008B5024B1B689B68019308BD1C02030057
:106F300008B5024B1B68DB68019308BD1C02030007
:106F400008B5024B1B68DB6A019308BD1C020300F5
:106F500008B5024B1B681B6B019308BD1C020300A4
:106F600008B5024B1B68DB6B019308BD1C020300D4
:106F700008B5024B1B685B6C019308BD1C02030043
:106F80000021FFF701BF10B5836804460BB902F07A
:106F9000DAFAC3689847A3681BB10322214620464A
:106FA000984720461021BDE8104002F014BA10B5F1
:106FB0000446006808B1FFF70FFD204610BD13B569
:106FC0000B460246D0E900016C4684E8030093E8D2
:106FD000030082E8030094E8030083E8030002B0A2
:106FE00010BD000010B5064C002320462360FFF7BB
:106FF000EBFC2046034A0449BDE8104002F0E6B924
:107000001CE6032040E40320AF6F0D00002240681F
:107010001146FFF72DBF002240681146FFF748BF19
:10702000002240681146FFF753BF40680022FFF777
:1070300047BF4068002281F00101FFF731BF002304
:1070400040681A461946FFF723BF002340681A46D6
:107050001946FFF715BF002240681146FFF7F8BE3A
:10706000406800220221FFF7FBBE002340681A4659
:10707000FFF7E6BE084B10B528242246184600212B
:1070800003F05EFA054B04804FF0FF3242600422A9
:107090005A60034A1A6010BD28E6032020E6032048
:1070A00040CC0D0070470020704710B510210446F9
:1070B00002F091F9204610BD08B5FFF7F6FF08BDB4
:1070C00030B500224FF69C74026084808D888C80DD
:1070D0000C68858004600A6030BD10B50446006805
:1070E000FFF716FF204610BD38B5C468F4B1237809
:1070F000022B03D104F10C00FFF7EFFF656835B1F7
:107100002846FEF721F81021284602F064F9A56808
:1071100035B12846FEF718F81021284602F05BF931
:1071200020461421BDE8384002F055B938BD73B58A
:107130000E46044656F8043B00930D4601A831461E
:10714000FDF78EFA019A009B6260236001A800237C
:1071500001930093FDF70CF93046FDF709F9284635
:10716000082102F038F9204602B070BD826810B5DF
:107170000AB902F0E8F9BDE81040C368184708B53D
:10718000006800F11001FFF7F1FF08BD826810B53B
:107190000AB902F0D8F9BDE81040C368184708B52D
:1071A000006800F11001FFF7F1FF08BD38B50023BA
:1071B0000446036010200D46FCF76DFF28B1012343
:1071C000C0E90133024B0360C5602060204638BD32
:1071D0007CCC0D0038B5002383608B6804460D46D7
:1071E0002BB102229847EB68E360AB68A3602046AE
:1071F00038BD0000F0B589B004686846FFF760FF4D
:107200004FF00203D4E84F2F002A03D1C4E8413FD6
:107210000029F7D125D104F10C0569462846FFF76E
:107220004FFFBFF35B8F01236370002004F108035D
:10723000BFF35B8F53E8006F43E80002002AF9D1E7
:10724000BFF35B8F6EB1FFF7A7FD78B129463046DB
:10725000FFF78CFF3046FDF777FF1021304602F034
:10726000BAF86846FFF739FF09B0F0BD314602A809
:10727000FFF7B0FFE068B4F9105008B103F0BCF9B3
:1072800006901020ADF81C50FCF705FF0546E8B14C
:10729000002787601820FCF7FEFE044688B10146EF
:1072A000876002A8FFF78BFE049BA268A360059B82
:1072B000049206A9E268E36004F110000592FFF76A
:1072C000FFFE084BEB60084B2C60AB6006A8FFF795
:1072D00004FF02A8FDF738FF002229460348FFF704
:1072E00063FDB7E77F710D0015740D00876F0D000A
:1072F0002DE9F0478AB005469DF848900C461746A0
:107300009846FFF775FD07AE824638BB4FF62E73E1
:10731000059005A93046ADF81830FFF7D1FE1420CE
:10732000FCF7B9FE044648B1022303700123C0E90B
:1073300001AA437031460C30FFF7C2FE28462146B1
:1073400040F8044BFFF732FF3046FFF7C6FE05A8B2
:10735000FFF7C3FE28460AB0BDE8F0870C234FF0C4
:10736000000A1420CDE908AA0793FCF794FE014611
:1073700028B1C0E901AA80F800A080F801A004A803
:107380000391FFF713FF224B08930820FCF783FEBD
:10739000824628B1039B40F8043B04A9FDF760F93D
:1073A00000965FFA89F3424639462046CDF824A07C
:1073B000FFF72EFDB8B9039B5B7803F0FF0293B98A
:1073C0004FF69C7305A903A80592ADF81830FFF796
:1073D00011FF05A8FFF781FE05A80999FFF7A7FE91
:1073E00006A8FCF7C5FF039B059304A906A8FDF7B3
:1073F00037F9059B069A2B606A60002306A806935E
:107400000593FCF7B5FF04A8FCF7B2FFA2E700BFA5
:10741000D9740D00022AF8B5054607D0032A18D002
:10742000012A01D10B6803600020F8BD18200E6806
:10743000FCF731FE044650B13146FFF7CBFE306910
:10744000B6F9147008B103F0D7F82061A7822C6058
:10745000EAE70468002CE7D004F11000FFF73DFED6
:107460002046FDF771FE1821204601F0B4FFDBE74E
:1074700038B5002383608B6804460D462BB1022289
:107480009847EB68E360AB68A360204638BD022AEA
:1074900070B5044607D0032A12D0012A01D10B6827
:1074A0000360002070BD14200E68FCF7F4FD054653
:1074B00020B13146FFF7DCFF337C2B742560F0E709
:1074C0000468002CEDD02046FDF73EFE1421204636
:1074D00001F081FFE5E70000F0B589B004460D46F4
:1074E00001A81146FFF723FEA4B124B21DB128461E
:1074F00003F082F8054601A803A90395ADF81040F2
:10750000FFF778FE03A8FFF7E8FD02A8FCF730FFBD
:1075100009B0F0BD019D0123D5E84F2F002A03D10A
:10752000C5E8413F0029F7D1EFD12B73BFF35B8F43
:107530006B702B1DBFF35B8F53E8006F43E8004275
:10754000002AF9D1BFF35B8F002EDED02046FFF773
:1075500023FC074660B105F10C013046FFF716FE2B
:107560003046FDF7F1FD1021304601F034FFCCE745
:10757000314603A8FFF77CFF2B7B8DF81C301020D1
:10758000FCF789FD0546D0B187601420FCF783FD28
:10759000044678B18760014603A8FFF710FD059BFC
:1075A000A268A360069B0592E268E3609DF81C3028
:1075B00006922374064BEB60064B2C60AB6003A86D
:1075C000FDF7C2FD002229460348FFF7EDFBC7E7A0
:1075D0009F710D008F740D00876F0D0000224068B1
:1075E0001146FFF765BC002240681146FFF770BCEA
:1075F00040680022FFF764BC4068002281F001016E
:10760000FFF74EBC002340681A461946FFF740BCFE
:10761000002340681A461946FFF732BC0022406832
:107620001146FFF725BC002240681146FFF710BC49
:10763000406800220221FFF713BC002340681A466D
:10764000FFF7FEBB024B03225A60024A1A607047E2
:1076500050E6032098CC0D007047F8B50646154655
:107660000C468F18BC4206D0336814F8011B9B6887
:1076700030469847F6E72846F8BD007C0022FFF721
:1076800013BA007C0021FFF717BA007C0021FFF736
:107690001BBA007C0021FFF71FBA007C0021FFF716
:1076A00023BA10B51421044601F095FE204610BD02
:1076B00010B54FF47A73044608460021C4E901135B
:1076C000034B236020741146FFF71EFA204610BDBD
:1076D000D4CC0D000023007C1A461946FFF7CCB924
:1076E000007C0022FFF7D0B9C9B2FFF7F9BF007CD8
:1076F0000022FFF7D1B90121FFF7F9BFFFF7B4B9B5
:10770000FFF7AAB9704710B51821044601F063FECF
:10771000204610BDF0B5037D062B8DB00E4600F15E
:1077200004074FF0000412D000F1080515F8011D00
:107730000A22304600F0DDFBAF42044419D0002C91
:10774000F4D02E21304600F0BBFB0444EEE72F239B
:107750006A4639460A208DF80040FFF7E5F9684689
:1077600002F067FF33680246DB6869463046984797
:10777000044620460DB0F0BD10B5054B044611225D
:1077800040F8043B002102F0DBFE204610BD00BFA4
:10779000FCCC0D000346074A10B543F8042B01F159
:1077A000100251F8044B43F8044B9142F9D10A7886
:1077B0001A7010BDFCCC0D00037D042B04D1406871
:1077C000003818BF01207047062B07D143683BB92A
:1077D00083682BB9C3681BB90069F1E700207047C3
:1077E0000120704710B59DF8084044EA032343EA9E
:1077F000024242EA016104234160037510BD0000AA
:1078000037B5044D05609DF818500095FFF7EAFF65
:1078100003B030BDFCCC0D0013B5054B0360CB7835
:1078200000938B784A780978FFF7DCFF02B010BD2F
:10783000FCCC0D0000F11003012213F8101C0129EB
:10784000184608D153F8041C02EB4102013A03F137
:107850001003F2D17047022904BF53F8041C5218D8
:10786000F4E770470020704710B51021044601F07E
:10787000B2FD204610BD08B5FFF7F6FF08BD10B5F4
:10788000C4687CB1206808B1FCF70BFC237A1BB1FB
:10789000606808B1FCF705FC20460C21BDE81040EB
:1078A00001F099BD10BD10B5036804469B68984768
:1078B000A368013BA3602BB923682046DB68BDE8C1
:1078C0001040184710BD38B50B6803604D68436819
:1078D0009D4204460CD015B16B6801336B60606843
:1078E00028B14368013B43600BB9FFF7DCFF6560DB
:1078F000204638BD0B461146002210B5C0E90022D3
:10790000044683600BB9204610BDFFF7DCFFFAE7A1
:107910008368EBB11A78032A1AD8DFE802F004175B
:10792000021B0520704702685B685268D05C2D28F6
:1079300012D0A0F13003092B0ED974280ED066287E
:107940000CD0A0F16E035842584170470620704792
:1079500000207047042070470320704702207047C2
:1079600010B50446FFF7D4FF02280DD0C31EDBB2CA
:10797000012B10D82268A36850685B68BDE81040EE
:107980000021184403F0C2BC2268A36852685B68F7
:10799000D35C742B02D09FED040B10BD9FED040B44
:1079A000FBE700BFAFF30080000000000000000014
:1079B000000000000000F03F2DE9F04786B00746C8
:1079C000884602A80021002499461023924602937B
:1079D000FFF7B2F9CDE9004423464246394602A8F2
:1079E000FFF7B2F9061E1EDD1049300101F0F7FC69
:1079F000054690B1214602A8FFF79EF9CDE9006443
:107A00002B464246394602A8FFF79EF9A04207DD01
:107A1000CAF800500120C9F8006006B0BDE8F08740
:107A20002846FCF73EFB2046F7E700BFDCCE0D0002
:107A30002DE9F84F436886680B4488460E44074694
:107A40001C4619464FF00D094FF0090AB44263D0A5
:107A5000254615F8012B5C2A2BD1A14207D0A4EBB7
:107A6000010B18465A4602F051FD03465B44B542ED
:107A700039D06278752A2AD1A21CB21A032A32DDC3
:107A8000A01D04F1050E4FF0000CAE4553D015F8C3
:107A9000011FA1F130025FFA82FBBBF1090F05D98A
:107AA000A1F16102052A07D8A1F1570242EA0C1C94
:107AB000EBE728460446C9E7A1F14102052A12D89E
:107AC000A1F13702F2E703F801CB0146F2E76E2A93
:107AD0001CD00ED8622A13D007D82F2A11D05C2AC6
:107AE0000FD0222A0DD0002023E0662AFBD10C22E1
:107AF00007E0722A0DD0742AF5D183F800A001E0C6
:107B000008221A70A11C01330846D3E74FF00A027D
:107B1000F7E783F80090F5E7A14206D0641A18460B
:107B2000224602F0F3FC03462344A3EB0803BB60A8
:107B30000120BDE8F88FBCF17F0FC4D92146B9E719
:107B4000F8B50446154600EB01160027B44210D0E4
:107B50002378032B08D129462046FFF769FF48B157
:107B6000A368EF541034F1E7002BFBD1A268AB54AB
:107B7000F8E70120F8BD000038B50023C0E9003364
:107B800004460E48C4E90203A9B10B78032B06D0C2
:107B90008BB9136858684B68C35C6E2B07D01368A9
:107BA0004D6858688B6828445B1BA060E3601146F1
:107BB0002046FFF788FE204638BD00BF70C90D0083
:107BC00038B500250B46C0E90055C0E90255C0E9AB
:107BD0000455044611464BB11A78012A06D103F127
:107BE0001002DB6882604361FFF76DFE204638BDFE
:107BF00010B54369044663B18068E060013B103012
:107C0000A0602061636113B1FFF714FEA060012042
:107C100000E0184610BD000038B50023044603609C
:107C200010200D46FCF737FA28B10123C0E90133D3
:107C3000024B0360C5602060204638BD10CD0D00AA
:107C4000F0B5044687B00E460C202749154601F0D2
:107C5000C4FB014618B10023C0E90033037203A836
:107C60000291FFF7D9FF029A42B9C4E90022A2604B
:107C700003A8FCF77DFB204607B0F0BD002301936D
:107C8000294601AB3046FFF797FE18B9C4E900005A
:107C9000A060EDE71449029F681C01F0A0FB029B65
:107CA000786058680028F1D02A46314602F020FC5E
:107CB000029B0199186801221A725A68FFF740FF67
:107CC0000028E3D0029B19680493039B059313B12A
:107CD0005A6801325A6004AA2046FFF70BFE05A835
:107CE000FCF746FBC4E700BFDCCE0D00014B024AA7
:107CF0001A60704758E6032024CD0D000023406829
:107D00001A46FFF79DB8406800220221FFF7A8B885
:107D1000002240681146FFF79BB8002240681146D8
:107D2000FFF7A6B8002340681A461946FFF7A8B81F
:107D3000002340681A461946FFF7AAB84068002198
:107D4000FFF7CEB840680021FFF7D2B840680022A4
:107D500081F00101FFF7A4B840680022FFF7B0B836
:107D6000002240681146FFF7B3B800224068114670
:107D7000FFF79EB82DE9F043002495B016460D4656
:107D80000746FFF7F9FC214618220EA8009402F0DE
:107D9000D7FB4023CDE90C3421466B460CAA304674
:107DA000FEF7EAFE044600284CD10246012168682D
:107DB000FFF75EF80221804622466868FFF758F810
:107DC000009E81462146002E3CD000293AD173689E
:107DD000022B03D00A2B11D0F669F4E7B8F1000F9B
:107DE0000AD0716906A8043107ADFFF715FD0FCD64
:107DF0003C1D0FC42B6823704146EDE7B9F1000F1D
:107E000001D14946E8E77469102201A802F098FB05
:107E100006238DF8143001AD04F1080318341868F6
:107E200059682A4603C20833A3421546F7D101A96F
:107E300006A807ADFFF7AEFC0FCD3C1D0FC42B68A5
:107E40002370DEE70098FEF78FFE384615B0BDE8D8
:107E5000F0830000024B034A1A6000225A60704708
:107E60005CE6032030CD0D00F8B506460D468F18B0
:107E70000024BD420CD0336815F8011B9B683046C6
:107E80009847031E01DB1C44F3E7002C08BF1C4687
:107E90002046F8BD13B50446084659B1019102F0D9
:107EA000C8FB23680199DB680246204602B0BDE8A2
:107EB0001040184702B010BD08B5FFF7EBFF08BD32
:107EC00003689B68184738B50D210546FFF7F8FF92
:107ED0000A2104462846FFF7F3FF204438BD38B591
:107EE0000546FFF7D7FF04462846FFF7ECFF20447E
:107EF00038BD30B58BB000238DF82430012A98BFEF
:107F00000A2209AC0D46B1FBF2F101FB125303F05A
:107F1000FF03092B94BF30333733DBB2AA4204F896
:107F2000013DEFD92146FFF7B5FF0BB030BD000092
:107F30002DE9F74F55EC104B06460F4610EE102A70
:107F400010EE100A2B46294602F070F840B1534952
:107F50003046FFF79FFF8246504603B0BDE8F08FE2
:107F600025F000494E4B4FF0FF322046494602F0C3
:107F70005DF848B94A4B4FF0FF322046494602F0BF
:107F800037F808B94749E3E7474B4FF060422046CE
:107F9000294602F041F808B14449D9E7444B4FF073
:107FA00060422046294602F019F80028F4D1002248
:107FB00000232046294602F011F8D0B12D21304689
:107FC000FFF77EFF05F1004382461D463949DFF881
:107FD000EC904FF0000B00204FF000085FFA8BF39D
:107FE0009F4208D942464B4601F0B0FE0BF1010B0F
:107FF000F4E78246EAE722462B4601F0C7FB0D462E
:10800000044602F051F8804601F0FCFC02460B46A3
:108010002046294601F0B8FB0A2204460D463046A8
:108020004146FFF766FF824427B123493046FFF7F8
:1080300031FF8244DFF884904FF00008013FFFB227
:10804000FF2F89D042464B462046294601F054FD79
:1080500004460D4602F000F8B0F1000B1ADA2D21AB
:108060003046FFF72DFFCBF1000103460A223046D0
:108070000193FFF73EFF019B18448244584601F0EC
:10808000D1FC02460B462046294601F07DFB044602
:108090000D46D3E759460023E8E700BF64CD0D0045
:1080A000FFFFEF7F68CD0D00FFFFEF416CCD0D00AE
:1080B000FFFFEFC10000E03FEBC80D0000002440CF
:1080C00038B5C9B20546FFF733FF04462846FFF727
:1080D000FAFE204438BD10B50446FDF735F82046B9
:1080E00010BD00000348044A04490023836001F0E6
:1080F0006DB900BF64E6032040E40320D7800D0083
:1081000010B5044608462170FEF786FD0023636023
:10811000204610BD2DE9F04757EC106B80460C4609
:1081200010EE100A00220023394601F057FF28B153
:1081300007F100431F462D2304F8013B00234FF0B5
:1081400001090A22D9B2884503D902FB09F9013392
:10815000F8E7484601F066FC32463B4601F0CCFCAD
:1081600006460F4602F028F805468A4601F08EFCC6
:1081700002460B463046394601F006FB134B0022FF
:1081800001F040FF10B101354AF1000A4A46284685
:10819000D317514601F0F8FF0123154621460A2264
:1081A00000F0AFFFB8F1000F0DD0204602F041FA09
:1081B0002E23211823540A22434628460131BDE8C4
:1081C000F04700F09EBFBDE8F08700BF0000E03F31
:1081D00010B504460068FEF79BFE204610BD10B5A2
:1081E0000446006808B1FEF793FE0023C4E901339A
:1081F000236010BD38B504460D4600680131FEF716
:108200008FFE10B1C4E90005012038BD10B5036828
:10821000044623B143688B4201D3012010BD2046A0
:10822000FFF7E8FF0028F9D0A368002BF5D12268FA
:108230001370F2E737B50D46114601920446FFF779
:10824000E5FF019A28B92046FFF7C9FF204603B091
:1082500030BDA2602946206802F04AF92268A3686E
:108260000021D154F2E7884210B5044605D00B68CE
:108270002BB18A681946FFF7DDFF204610BDFFF7D6
:10828000AEFFFAE710B500230446C0E9003383606F
:108290000373FFF7E8FF204610BD13B5044659B13C
:1082A0000846019102F0C5F9019902462046FFF700
:1082B000C1FF204602B010BDFFF791FFF9E710B5EE
:1082C00004468AB000230846C4E90033A360237340
:1082D00001A9C0B2FFF71EFF01A92046FFF7DDFF8D
:1082E00020460AB010BD70B505460E4609B90020FB
:1082F00070BD6AB1846814442146FFF787FF0028E7
:10830000F5D02868AB683146184402F06CF9AC60CF
:108310000120EDE713B5044629B92046FFF75FFFBA
:10832000204602B010BD0846019102F082F9019981
:1083300002462046FFF7D7FF0028EED0F0E710B541
:108340000446006818B1FEF7E3FD0023236010BD6A
:1083500010B50446FFF7F3FF204610BD10B5094BDA
:10836000094C022200201A60084B2060A080A071F6
:10837000A360FEF701FD2046054A0649BDE810400E
:1083800001F024B880E6032074E603200000FFFF1C
:1083900040E4032051830D0013B503688DF80710E6
:1083A000DC6B01224FF0FF330DF10701A04702B053
:1083B00010BD10B40368DC6B4FF0FF33A4465DF8CA
:1083C000044B604713B5134602688DF80710D46B51
:1083D0000DF107010122A04702B010BD704738B56A
:1083E00043691A68002A054610DAB3F88620B3F804
:1083F00084309A420AD103681B699847044628B919
:108400002B682846DB6A9847204638BD0120FCE7E8
:1084100043691868C043C00F70477047064B9942C4
:1084200010B500F10C0405D0084601F08FF80028C3
:1084300008BF0024204610BD30CC0D0010B5AC2183
:10844000044600F0C8FF204610BDFBF728BE2DE90A
:10845000F0414FF0000886B01D46C0F80480044685
:108460000E4617464146102202A802F069F86B1C1E
:1084700009D04FF47A70B5FBF0F3CDE9023800FB78
:10848000135358430490606910230093006802ABB3
:1084900041F2050240F6FF71FEF77EFB002807DA85
:1084A000FEF75EFD03686360002006B0BDE8F08162
:1084B0006069002300683A463146FEF795FB031ECB
:1084C000EEDB1846F1E7000070B54D69054B044638
:1084D0008C3544F8043B06460FCD0FC42B6823703F
:1084E000304670BDFCCC0D0010B54369B3F8862052
:1084F000B3F884309A42044605D06369B3F8842007
:108500001344187910BD03681B6998470028F4D1FB
:108510004FF0FF30F6E710B54369B3F88620B3F8A3
:1085200084309A42044608D06369B3F88420511C11
:10853000A3F884101344187910BD03681B69984789
:108540000028F1D14FF0FF30F6E7F8B54369174640
:10855000B3F88620B3F884309A4205460E4616D00A
:108560006969B1F88430B1F88640E41ABC4228BF8A
:108570003C46043322461944304601F0B9FF6A698B
:10858000B2F884302344A2F884302046F8BD036852
:108590001B6998470028E3D14FF0FF34F5E74269A3
:1085A0000023A2F884304269A2F8863070472DE992
:1085B000F0411F4603680C46DB6A8AB00546164642
:1085C0009847237DD5F81480042B0CBF02200A2085
:1085D00006220121FEF718FBC8F800006B691B6832
:1085E000002B08DA2B682846DB6A002498472046CF
:1085F0000AB0BDE8F0812846FFF7D1FFB7B10023EC
:1086000003A9F8B20393ADF81030FEF785FA0028FD
:10861000E8D1686906230093006803AB41F20B02BE
:1086200040F6FF71FEF7B8FA0028DBD11C220021CA
:1086300003A801F085FF237D042B1DD14FF40773A0
:108640003046ADF80C30FEF787FAADF80E006068E2
:10865000FEF772FA04906B691C22186803A9FEF7F2
:10866000ABFA0028BED104340FCC6D698C350FC530
:1086700023682B700124BAE740F61C233046ADF87E
:108680000C30FEF769FA05AEADF80E00231D04F1BB
:10869000140718685968324603C20833BB421646AD
:1086A000F7D1D8E730B54269B2F886308BB00446CE
:1086B0002BB1B2F884209A4201D1FFF770FF6169B3
:1086C0000868002818DBB1F886507F2D14D80431D3
:1086D0000823C5F180022944FEF776FA002813DD4D
:1086E0006369B3F886200AB9A3F884206369B3F8F4
:1086F00086201044A3F886006369B3F88600B3F8B7
:108700008430C01A0BB030BDFEF72AFC03680B2B77
:10871000F2D0FEF725FC03680B2BEDD020230025BB
:10872000CDE90235FEF71CFC03680193084B0949AB
:10873000009302AA2B463220FEF70EFB63691868ED
:10874000FEF732FA63694FF0FF321A60D4E700BFD8
:1087500077CD0D0070CD0D0010B543690446186843
:10876000002801DBFEF720FA63694FF0FF321A6040
:108770006069112200218C3001F0E2FE2046BDE844
:108780001040FFF70CBF43691868C043C00F704723
:1087900010B5002304460160C0F884308830FEF72D
:1087A000EBFF204610BD000073B500234FF47A7232
:1087B000C0E901320E4A0361026043610446AC2005
:1087C0000191FBF768FC051E05F10C0608D001239A
:1087D000C5E90133074B01992B603046FFF7D8FFFD
:1087E0002046C4E90565FFF7DAFE02B070BD00BFA0
:1087F000ACCD0D0090CD0D0010B54FF0FF3104460B
:10880000FFF7D2FF204610BD10B5044600680028CF
:1088100001DBFEF7C9F9204610BD0C30FFF7F4BFAD
:1088200070B586B0064601AD6846FEF7F5FF0FCD80
:10883000341D0FC42B682370304606B070BD000095
:108840002DE9F0439846036893B00D460024DB6A97
:1088500006461746984728466B462246214600940E
:10886000FEF78AF90546002863D1009B002B4BD008
:108870005B69002B48D006A8FEF77EFF009B5C6971
:108880006378022B04D1211D06A8FFF7C9FF26E05B
:108890000A2B24D11122294601A801F051FEA36818
:1088A000002B38D004F108030DF1040C18341868BB
:1088B0005968624603C20833A3429446F7D106239F
:1088C00001A90CA88DF81430FEF764FF0DF1340CEB
:1088D000BCE80F0007AC0FC4DCF80030237006A81A
:1088E000FEF76AFF80B1336807ADD3F82090124BD2
:1088F0000C930FCD0DAC0FC42B6823703A46434642
:108900000CA93046C84705460098FEF72DF92846C1
:1089100013B0BDE8F083E368002BC3D14FF6FF70BE
:10892000D4F81090FEF708F98145BBD104F1140189
:10893000AAE72546E8E700BFFCCC0D00024B1A6809
:10894000024B1A60704700BF68E2032084E60320F0
:1089500010B40468246BA4465DF8044B60470368B8
:108960009B6C1847808E7047028FC08E101A70471C
:1089700007B503688DF80710DB6801220DF10701C8
:10898000984703B05DF804FB10B503681B69044603
:10899000984728B1E38EE26B591CE186D05C10BD8C
:1089A0004FF0FF30FBE710B503681B69044698479A
:1089B00018B1E38EE26BD05C10BD4FF0FF30FBE7E7
:1089C000704710B403460846DC6BD98E1A8F0368D3
:1089D000521ADB6821445DF8044B1847A0F11000DF
:1089E000FFF7EFBF70B503688CB05B6A04460E46B4
:1089F0001546984701231C22002105A8029301F087
:108A00009FFD40F61C233046ADF81430FEF7A4F865
:108A10001122ADF8160002210A20FEF7F5F8002811
:108A2000606125DB0422009202AB40F6FF71FEF785
:108A3000B3F8E8B995B10390ADF8100003A9E8B216
:108A4000FEF76AF8A0B906230093606903AB41F210
:108A50000B0240F6FF71FEF79FF848B960691C22CF
:108A600005A9FEF791F818B9656401200CB070BD36
:108A7000236820465B6A98470020F7E710B5044654
:108A80004069002801DBFEF78FF84FF0FF33636188
:108A90000023E386238710BD70B50546C06BEE8EBC
:108AA00068B12B6C9C1B944228BF1446224630446C
:108AB00001F01EFDEB8E2344EB86204670BD04467C
:108AC000F1E7D0B503681B6904460F461646984780
:108AD00090B1236820461B699847E38EE16B86427C
:108AE000A8BF064619443246384601F001FDE38E20
:108AF0003344E3863046D0BD4FF0FF36FAE700003E
:108B000070B50446054B44F8043B01F120050646C8
:108B10000FCD0FC42B682370304670BDFCCC0D0008
:108B2000F0B59646026889B0976A0A4A02921C1DFF
:108B30008C4606460FCC03AD0FC523682B70BDF8DD
:108B400038300093724602AB61463046B84709B0F0
:108B5000F0BD00BFFCCC0D00F0B5036889B09F6A82
:108B60000C4B029300F1200604460FCE03AD0FC557
:108B700033682B70A38EE28EE16B0093204602AB2C
:108B8000B84723680546DB6920469847284609B060
:108B9000F0BD00BFFCCC0D0038B5054614462B7D5A
:108BA000062B084610D140F61C231380FDF7D4FF96
:108BB00008342B1D24F8060C143553F8042B44F804
:108BC000042BAB42F9D138BD042BFCD14FF4047314
:108BD0001380FDF7C1FF60806868FDF7ADFF60603E
:108BE000F1E72DE9F0438BB003AF4FF01C09984635
:108BF00004460D46164600214A46384601F0A0FCC0
:108C0000BDF848103A464046FFF7C6FF9DF80D30C4
:108C100053B1CDE900796069002332462946FDF75A
:108C2000EBFF0BB0BDE8F0834FF0FF30F9E7000039
:108C300038B500254FF47A73C0E901530B4B03F1AB
:108C400008026C3303614FF0FF3304460260436156
:108C50001C30FEF791FD4FF40073C4E91035E58632
:108C60002587E56384F84850204638BD0CCE0D00BA
:108C700010B590F84830044623B1C06B10B1012103
:108C800000F0A9FB0023E36384F848302364E38603
:108C9000238710BD70B5044616460D46FFF7E8FF62
:108CA0000023E66323642EB12564206C003818BFCE
:108CB000012070BD002DF8D02846FBF7EEF9012306
:108CC000E06384F848300028EFD0EDE7F8B51746A8
:108CD000C26B05460C461AB9016C09B1FFF7DAFF01
:108CE00004340FCC05F120060FC62368337000232F
:108CF000286CAF86EB862B87F8BD37B5C26B044670
:108D00000B462AB9016C19B10193FFF7C3FF019B10
:108D1000E16B0022E286228741B1226C32B12068E9
:108D2000056B2046A8470028C8BF208723681B6919
:108D3000204603B0BDE830401847F0B54378022B19
:108D40008DB005460C46174604D1011D2046FFF79D
:108D500067FD22E00A2B25D11122002101A801F094
:108D6000EFFBAB6803B305F1080301AE05F1180C86
:108D700018685968324603C2083363451646F7D16E
:108D8000062301A906A807AE8DF81430FEF702FDF0
:108D90000FCE04340FC4336823701FB16888FDF709
:108DA000D3FE38800DB0F0BDEB68002BDBD14FF661
:108DB000FF702E69FDF7C0FE8642D4D105F1140183
:108DC000C4E700002DE9F04117468EB000220646A8
:108DD00001AB084611460192FDF7CEFE041E20DBD2
:108DE000019B2BB35B691BB302A8FEF7C5FC019B7B
:108DF0000022586902A9FFF7A0FF02A8FEF7DCFCD9
:108E0000B0B1336803ADD3F838800B4B08930FCD66
:108E100009AC0FC42B6823703A4608A93046C047F6
:108E200004460198FDF7A0FE20460EB0BDE8F08193
:108E30004FF0FF34F5E700BFFCCC0D002DE9F04703
:108E4000D0F81490B9F1000F90B005460E46904648
:108E50001C463CDB00293AD04FF01C0A09AF5246B1
:108E60000021384601F06CFBCDF80CA0DCB10022EB
:108E70004FF47A70B4FBF0F3CDE9043200FB1343F6
:108E80005843102307920690009341F206026B4468
:108E900040F6FF714846FDF77FFE044620B12046AC
:108EA00010B0BDE8F087082403ABCDE90073686912
:108EB000234642463146FDF78FFE041EEFDB05F1E7
:108EC000340205F11C013846FFF737FFE7E74FF0A2
:108ED000FF34E4E770474174704708B5007CFDF744
:108EE000E3FE20EAE07008BD08B5007CFDF7B4FEA3
:108EF00020EAE07008BD08B5007CFDF7BDFE40EA41
:108F0000E07008BD08B5007CFDF7AEFE40EAE070F9
:108F100008BD007CFDF7B8BE37B5457C04462DB1D1
:108F2000207C03B0BDE83040FDF78EBE007C01918F
:108F3000FDF7BAFE00280199F2DC284603B030BDE7
:108F400010B51421044600F046FA204610BD00007A
:108F500010B54FF0000C0446084611464FF47A72E3
:108F6000C4E901C2044A22600122207462741A46D4
:108F7000FDF762FE204610BD84CE0D0013B50E4CE9
:108F80002178BFF35B8F11F0010112D120460191CE
:108F9000FBF789F8019960B1084A094B0948FFF7C6
:108FA000D7FF2046FBF784F8074A0849054800F038
:108FB0000DFA044802B010BD88E603208CE60320B9
:108FC00010E7032094E7032040E40320D58E0D0032
:108FD00041747047704708B50021007CFDF78CFE96
:108FE00040EAE07008BD08B50121007CFDF784FE71
:108FF00040EAE07008BD08B5007CFDF775FE20EA88
:10900000E07008BD08B5007CFDF766FE20EAE07060
:1090100008BD13B50446007C0191FDF765FE0028EC
:10902000019901DC607C20B1207CFDF76DFE20EA17
:10903000E07002B010BD007CFDF76EBE10B51421CB
:10904000044600F0C8F9204610BD000010B54FF4EA
:109050007A73044608460021C4E90113044B2360D7
:109060000123207463741146FDF726FE204610BDCF
:10907000B4CE0D00007C0022FDF726BE10B51422F0
:109080000446002101F05CFA204610BD10B5104CDA
:1090900088B003A8FFF7F2FF2178BFF35B8F11F0D0
:1090A000010111D120460191FAF7FDFF019958B154
:1090B00003AA0848FFF7CAFF2046FAF7F9FF064A55
:1090C0000649044800F082F9024808B010BD00BF0C
:1090D000A8E70320ACE7032040E40320D58F0D0070
:1090E00010B5044601F0A5FA013823182046834242
:1090F00006D90278197800F8011B03F80129F6E770
:1091000010BD70B50C46911E2229054622D8204676
:109110006DB1B5FBF2F602FB1655E9B2092D94BF0D
:1091200030315731C9B200F8011B3546F0E702462D
:1091300023443021934202D902F8011BFAE71A1A9C
:10914000834238BF0022002383542046FFF7C8FF24
:10915000204670BD0020FCE7014B1860704700BF3F
:109160006CE2032008B50B4B43B1FFF78FFF036898
:109170001B699847002801DDAFF30080064B43B11F
:10918000FFF7FCFE03681B699847002801DDAFF379
:10919000008008BD000000000000000008B5FFF7D7
:1091A000E1FFFDF731FC014B186008BDD4E7032057
:1091B0000248034A0349121A01F09AB900F4032045
:1091C00004F4032088D20D0007B5002300931A464B
:1091D0006FF07701FDF7FAFD03B05DF804FB0000C6
:1091E00007B543880A2B08D0502B0BD1094B1B68BD
:1091F0004BB103B05DF804EB1847FFF7E5FF03B090
:109200005DF804FB002300931A466FF07701FDF729
:10921000DDFDF4E7C4E7032038B5124C1248134DC6
:109220000021FDF7A5FE2368AB42114B0CBF0122C4
:1092300000221A7002D0FFF7BBFF2560FDF7D4FBB8
:10924000044601F095F90B4B13B12046AFF30080B3
:1092500000210848FDF7ECFDBDE838400648002134
:10926000FDF7AABD00F4032059910D001E1C279A9A
:10927000C0E7032000000000E1910D00232813B592
:1092800002D9002002B010BDA0F10B03022B1AD8A6
:10929000174C2178BFF35B8F11F001010BD12046F1
:1092A0000191FAF700FF019928B11248FEF728FF53
:1092B0002046FAF7FDFE0F4B1878FDF7B5FC0028A5
:1092C000DFD10120DEE7012809D800F057F800219E
:1092D000007CFDF711FC80F00100C0B2D2E7093834
:1092E0000128EED8FFF74AFE007CFDF7D5FCF2E737
:1092F000C8E70320CCE70320232838B504460D46F1
:109300000AD8FF2908D0FFF7B9FF28B1294620461F
:10931000BDE83840FDF788BB38BD38B504460D467A
:10932000FDF78AFBFF2810D0062804D84D2323FA26
:1093300000F0C30709D42046FFF7A0FF28B1294653
:109340002046BDE83840FDF77FBB38BD38B5002367
:109350002025438014230446038085600561064967
:10936000284600F03CF804496060284600F037F8D1
:10937000E060204638BD00BFDCCE0D0030B50F4D9B
:109380002978BFF35B8F11F0010487B013D1284611
:10939000FAF789FE78B101A8FFF7D8FF01AA2146A4
:1093A0000748FEF785F92846FAF782FE054A06497E
:1093B000034800F00BF8024807B030BDD8E703209F
:1093C000DCE7032040E4032059760D000B460146FC
:1093D000184601F07FB8FAF762BEFAF75CBEFAF7FA
:1093E0005CBEC3689A68C26010B502B15060426842
:1093F0005A600C68844203D10B609860436010BDD2
:10940000916881420CBF9360D360F6E78368DA68A5
:10941000826010B502B1506042685A600C688442A4
:1094200003D10B60D860436010BDD16881420CBF8E
:10943000D3609360F6E7037833B943685B6883428F
:1094400002D1DB6818467047826822B11346D268A1
:10945000002AFBD1F6E743689A688242F2D11846A7
:109460005B68F9E7C36823B118469B68002BFBD102
:1094700070474368DA68824202D118465B68F9E7B0
:10948000C268934218BF18467047FFF7D4BF2DE952
:10949000F8431E4603F104080023C1E902330C46D9
:1094A0004A600B7000B39642916018D17160F4600D
:1094B00001274FF000097368A3423FD0606802782B
:1094C000002A3CD14568AB68984223D1EB6883B150
:1094D0001A7872B907701F702A702C46EBE7B368D0
:1094E0009342E5D1B160E3E7D160F3689342DFD105
:1094F000DDE7C368A34203D14146FFF772FF04468C
:10950000636841461F70284685F80090FFF77EFF8C
:109510002546E2E713B11A78002ADBD08368A3421C
:1095200003D14146FFF772FF0446636841461F704E
:10953000284685F80090FFF754FFE9E7234601220B
:109540001A70BDE8F88308B5FDF7FAFC014900F090
:10955000F9B800BFF8CE0D007FB500241023CDE987
:109560000234036800949E698DF8044015466B46EA
:109570001268B0479DF8043003F00603062B03BFC2
:10958000009B2B600120204604B070BD00989042E3
:1095900014BF01200620704710B5034B036004463A
:1095A00000F0CDF8204610BD38CF0D0010B50446B0
:1095B000FFF7F2FF20460821FFF70DFF204610BD00
:1095C0002DE9F0411F46DDE90834DDF818809845A3
:1095D0000646154607D1079900F0B4F818B1657131
:1095E0000020BDE8F0813946304600F0ABF8002895
:1095F000F6D00123C4F800802571A371F0E738B5D7
:1096000015461C4600F09EF820B10823E3600623AF
:109610002560237138BD73B505460C4601921E4680
:1096200000F090F850B9032E08D82368019A5B69BE
:109630002946204602B0BDE87040184702B070BD10
:1096400010B5034B03600446FFF7A6FF204610BD8C
:1096500098CF0D0010B50446FFF7F2FF20460C210D
:10966000FFF7B9FE204610BDF7B5089F97420546A3
:109670000E4614460AD0A86802680897156A314653
:109680002246AC4603B0BDE8F0406047194601935E
:1096900000F058F8019B0028EDD0062003B0F0BD83
:1096A0002DE9F14F0D461946DDE90A4BDDE90CA61F
:1096B00081461746984600F045F890B1002D346079
:1096C000377109DB61198A450CBF06210121B1718F
:1096D000002001B0BDE8F08F0235F9D10123B3714C
:1096E000F6E7544506D15946484600F02BF808B134
:1096F0007771EDE7D9F808000368CDE90CA6CDE94C
:109700000A4BDC693A4643462946A44601B0BDE807
:10971000F04F60472DE9F04107460C4615461E46BE
:10972000FFF76DFF48B9B86803689F692A4633465A
:109730002146BC46BDE8F0416047BDE8F081704776
:1097400000207047814208B50ED0406803782A2B6C
:109750000CD049680B782A2B08BF013100F039FF83
:10976000B0FA80F0400908BD0120FCE70020FAE7CC
:109770009FED010B704700BF000000000000F87F64
:1097800081F0004102E000BF83F0004330B54FEAB2
:1097900041044FEA430594EA050F08BF90EA020F1F
:1097A0001FBF54EA000C55EA020C7FEA645C7FEAB2
:1097B000655C00F0E2804FEA5454D4EB5555B8BFD5
:1097C0006D420CDD2C4480EA020281EA030382EA46
:1097D000000083EA010180EA020281EA0303362DD8
:1097E00088BF30BD11F0004F4FEA01314FF4801CAB
:1097F0004CEA113102D0404261EB410113F0004FBD
:109800004FEA03334CEA133302D0524263EB430373
:1098100094EA050F00F0A780A4F10104D5F1200E11
:109820000DDB02FA0EFC22FA05F2801841F100016C
:1098300003FA0EF2801843FA05F359410EE0A5F140
:1098400020050EF1200E012A03FA0EFC28BF4CF071
:10985000020C43FA05F3C01851EBE37101F0004527
:1098600007D54FF0000EDCF1000C7EEB00006EEB34
:109870000101B1F5801F1BD3B1F5001F0CD34908BE
:109880005FEA30004FEA3C0C04F101044FEA445215
:1098900012F5800F80F09A80BCF1004F08BF5FEA9C
:1098A000500C50F1000041EB045141EA050130BD7C
:1098B0005FEA4C0C404141EB0101013C28BFB1F58E
:1098C000801FE9D291F0000F04BF01460020B1FAD9
:1098D00081F308BF2033A3F10B03B3F120020CDAAC
:1098E0000C3208DD02F1140CC2F10C0201FA0CF08A
:1098F00021FA02F10CE002F11402D8BFC2F1200CEF
:1099000001FA02F120FA0CFCDCBF41EA0C019040A4
:10991000E41AA2BF01EB0451294330BD6FEA0404ED
:109920001F3C1CDA0C340EDC04F11404C4F12002D8
:1099300020FA04F001FA02F340EA030021FA04F3EA
:1099400045EA030130BDC4F10C04C4F1200220FA41
:1099500002F001FA04F340EA0300294630BD21FA7F
:1099600004F0294630BD94F0000F83F4801306BF45
:1099700081F480110134013D4EE77FEA645C18BF39
:109980007FEA655C29D094EA050F08BF90EA020FD0
:1099900005D054EA000C04BF1946104630BD91EAC8
:1099A000030F1EBF0021002030BD5FEA545C05D1CB
:1099B0004000494128BF41F0004130BD14F580040A
:1099C0003CBF01F5801130BD01F0004545F0FE417E
:1099D00041F470014FF0000030BD7FEA645C1ABFB3
:1099E000194610467FEA655C1CBF0B46024650EAEA
:1099F000013406BF52EA033591EA030F41F4002116
:109A000030BD00BF90F0000F04BF0021704730B59B
:109A10004FF4806404F132044FF000054FF0000170
:109A200050E700BF90F0000F04BF0021704730B531
:109A30004FF4806404F1320410F0004548BF404206
:109A40004FF000013EE700BF42004FEAE2014FEA5B
:109A500031014FEA02701FBF12F07F4393F07F4F36
:109A600081F06051704732F07F4208BF704793F039
:109A70007F4F04BF41F40021704730B54FF460744C
:109A800001F0004521F000411CE700BF50EA01024F
:109A900008BF704730B54FF000050AE050EA0102F8
:109AA00008BF704730B511F0004502D5404261EB68
:109AB00041014FF4806404F132045FEA915C3FF4A9
:109AC000D8AE4FF003025FEADC0C18BF03325FEA46
:109AD000DC0C18BF033202EBDC02C2F1200300FAF7
