:02000002D0002C
:1040000000400D0014D90D00000006000D00050150
:084010000401BD0B00000000DB
:0440180078C70D0058
:1040200009480A49884208B505D0094A824202D0A7
:10403000121A06F061FC0748074A0021121A06F01E
:1040400083FC014808BD00BF3CE20320FCD60D0004
:104050002CE4032030E40320F4E7032070B5074E7E
:10406000074C05F0DBFAA41BA4080025A54200D1EB
:1040700070BD56F8043B98470135F7E7ACD60D0004
:10408000E4D60D0000F04CB808B500F025FABDE804
:10409000084005F085BA03F0D9B803F0D7B803F0AB
:1040A000DDB803F0DBB80078B0FA80F04009704763
:1040B000012303707047000013B5054B1B788DF882
:1040C00000303C23044603F0C9FA204602B010BD7C
:1040D00048E403200EB403B503AB012153F8042BCD
:1040E000019304F0B0F902B05DF804EB03B070473F
:1040F0000EB410B58DB00FAA016852F8044B0392AC
:1041000000232020CDE90403CDE900421E2004AAAB
:1041100002F0D0FF0DB0BDE8104003B070470000C2
:1041200010B58AB005F0B4F94FF4165105F0A4F9B2
:1041300005F0AEF92C492D4C04F089F82C4800F01C
:104140002BFD2C4801F00CF805F01AFB03F078FC6D
:10415000204601F03BF8204601F09AF8204601F095
:10416000FCF8204601F044F800222046022101F02C
:104170004AF82046204901F0ACF8002220460321ED
:1041800001F041F820461D4901F0A3F80022204625
:10419000042101F038F82046194901F09AF800226C
:1041A0002046052101F02FF81649204601F091F82C
:1041B00002A802F0CBFF02A906A804F04BFA1249AC
:1041C00006A804F0A9FA0023CDE900330F490068DE
:1041D0001A4602F0CBFF06A804F0E2F902A804F0A8
:1041E000DFF90AB010BD00BF8CC70D0084E40320C6
:1041F0004CE4032064E40320A0C70D00A7C70D0012
:10420000DFC80D0098C70D00ACC70D00E1480D00D8
:104210002DE9F8431E4C1F4D204659EC108B57ECEE
:10422000116B01F035F800222046012100F0EBFF70
:104230002046194901F04DF800222046032100F0E4
:10424000E2FF2046154901F044F84946404606F091
:1042500007F90146204601F049F82946204601F0B9
:1042600038F800222046052100F0CDFF20460C49F9
:1042700001F02FF83946304606F0F2F801462046A4
:1042800001F034F829462046BDE8F84301F021B892
:1042900084E40320D8C70D00C1C70D00CEC70D00B0
:1042A000DAC70D00000000002DE9F84F55EC104B67
:1042B0002DED028B10EE102A10EE100A2B46294627
:1042C00057EC116B05F01CFE324682468B463B468E
:1042D0003046394605F014FE47A3D3E9002341ECEC
:1042E000180B2046294605F00BFE45A3D3E9002311
:1042F00005F04EFC44A3D3E90023804689463046AE
:10430000394605F0FDFD02460B464046494605F09C
:1043100041FC3FA3D3E90023804689462046294635
:1043200005F0EEFD32463B4605F0EAFD02460B463F
:104330004046494605F02EFC37A3D3E900238046CA
:1043400089465046594605F0DBFD02460B4640467D
:10435000494605F01FFC32A3D3E900238046894675
:1043600051EC180B05F0CCFD02460B464046494681
:1043700005F010FC2CA3D3E9002380468946504663
:10438000594605F0BDFD32463B4605F0B9FD0246F3
:104390000B464046494605F0FDFB25A3D3E9002323
:1043A00006460F462046294605F0AAFD53EC182B79
:1043B00005F0A6FD02460B463046394605F0EAFBFD
:1043C0001DA3D3E9002304460D465046594605F087
:1043D00097FD53EC182B05F093FD02460B46204643
:1043E000294605F0D7FBBDEC028B41EC100BBDE874
:1043F000F88F00BFAFF30080ECD8CE1862640040A5
:104400008D976E1283304540CD495AB7624924409A
:10441000F847C607C9C4CCBFCC169C03FC017CBFBF
:10442000248CD100FF10ACBFE5DC6087B521543F80
:10443000DA303301F9F14B3F01BDD3117EB1C0BE7B
:1044400038B5046805467CB16368013B63605BB9BD
:10445000236820469B689847A368013BA3601BB96B
:1044600023682046DB689847284638BD00B5144BC2
:10447000D3E90023C7B0CDE90223124BD3E90023CF
:104480004FF48071CDE9002306A80F4A02F0FEFE2A
:1044900004F0FEFF06AA0D49FFF71CFE0C4B0D4968
:1044A0001B788DF8003009683C2306AA04A803F0A5
:1044B000D5F805A8FFF7C4FF47B05DF804FB00BFBF
:1044C00040E4032038E40320E5C70D0012C80D00C6
:1044D00049E403203CE203202DE9F0412DED048B5B
:1044E0004CF2503088B002F001FF224B224CD3ED49
:1044F000009A94ED009A19EE900A05F0A9FC41EC9F
:10450000180B19EE100A05F0A3FCB0EE481AF0EEF5
:10451000681A41EC100BFFF7C7FE184B186857ECF0
:10452000106B05F095FC164B41EC180B186805F064
:104530008FFCB0EE481AF0EE681A41EC100BFFF752
:10454000B3FEF4EE699AF1EE10FAB0EE408AF0EEA6
:10455000608A04D6B4EE499AF1EE10FA14D704F04A
:1045600097FF084903F073FE08B0BDEC048BBDE86B
:10457000F08100BF60E403206CE4032048E20320E4
:1045800050E2032020C80D00BF4D02F0E3FB2B6872
:10459000C01ABE4B98420FD902F0DCFBBC4B28601E
:1045A0001B788DF8003004A8BA493C23002203F0A0
:1045B00055F805A8FFF744FFB74D02F0CBFB2B6879
:1045C000C01A4EF65F23984204D902F0C3FB28605C
:1045D000FFF74CFF53EC182B3046394605F002FF2D
:1045E00038B1FF2300930023AC481A46194600F067
:1045F0006FFD53EC182B3046394605F011FF30B1F2
:104600000023A6480093FF22194600F061FDB0EE9A
:10461000481AF0EE681A47EC106BDFF8B082A04D34
:10462000A04EFFF7F5FD94ED000A9F499F4802F068
:1046300064FB98ED000A9E499C4802F05EFB95EDF4
:10464000000A9C49994802F058FB96ED000A9A49E5
:10465000964802F052FBD8F8000005F0F9FB41EC57
:10466000190B206805F0F4FBB0EE491AF0EE691A58
:1046700041EC100BFFF718FE51EC100B05F038FF62
:104680008E4900EE100A894802F037FB306805F0C9
:10469000DFFB41EC190B286805F0DAFBB0EE491A94
:1046A000F0EE691A41EC100BFFF7FEFD51EC100B18
:1046B00005F01EFF824900EE100A7C4802F01DFB47
:1046C000804B7A481A78804B196802F01FFB94EDF2
:1046D000000A062104A803F0DAFF049A724902A82E
:1046E000FFF7EAFC03A8FFF7ABFE04A803F058FFAE
:1046F00098ED000A062104A803F0C9FF049A6C494A
:1047000002A8FFF7D9FC03A8FFF79AFE04A803F05C
:1047100047FF95ED000A062104A803F0B8FF049AAC
:10472000644902A8FFF7C8FC03A8FFF789FE04A8A4
:1047300003F036FF98ED000A062104A803F0A7FF56
:10474000049A5D4902A8FFF7B7FC03A8FFF778FEBB
:1047500004A803F025FFD8F8000005F079FB41EC30
:10476000190B206805F074FBB0EE491AF0EE691AD7
:1047700041EC100BFFF798FD062104A803F0A1FF00
:10478000049A4E4902A8FFF797FC03A8FFF758FECA
:1047900004A803F005FF306805F05AFB41EC190B43
:1047A000286805F055FBB0EE491AF0EE691A41ECA5
:1047B000100BFFF779FD062104A803F082FF049A8D
:1047C0003F4902A8FFF778FC03A8FFF739FE04A8C9
:1047D00003F0E6FE04F05CFE0746D8F8000005F0A2
:1047E00037FB41EC190B206805F032FBB0EE491A9B
:1047F000F0EE691A41EC100BFFF756FD51EC100B6F
:1048000005F02EFE041E3ADA2D21384603F010FD85
:1048100061420A22384603F024FD384603F00BFDBE
:1048200004F036FE0746306805F012FB41EC190B28
:10483000286805F00DFBB0EE491AF0EE691A41EC5C
:10484000100BFFF731FD51EC100B05F009FE041EB3
:1048500017DA2D21384603F0EBFC61420A22384674
:1048600003F0FFFC384603F0E6FC04F011FEB0EE66
:10487000480AF0EE680A022103F0DAFD74E62146E8
:10488000C7E72146EAE700BF44E203209FBB0D00D3
:1048900049E403203FC80D004CE2032064E40320F8
:1048A00050E2032048E2032052C80D0070E40320C8
:1048B0005EC80D006EC80D007BC80D008CC80D00D1
:1048C0009EC80D0048E4032040E2032060E403207A
:1048D0000B68036013B15A6801325A6070470000D8
:1048E000F0B50A4691B00C4648484949494D4A4EF0
:1048F000FFF7FEFB204606F0A0F82146024603A87B
:1049000003F056FB059C039B069304A907A8FFF739
:10491000DFFF06AA21460AA803F00AFB07A8FFF753
:104920008FFD3E4F0AA803F01BFB002866D00D9CAC
:104930000A9B01930BA902A8FFF7CAFF214601AA0F
:1049400006A803F0D1FA02A8FFF77AFD08982946D5
:1049500006F043F8044607A8FFF772FDCCB90E9C99
:104960000A9B01930BA902A8FFF7B2FF01AA2146F7
:1049700006A803F075F902A8FFF762FD06A803F088
:10498000A7F951EC100B05F0B3FD306007A8FFF755
:1049900057FD0D9C0A9B01930BA902A8FFF798FFF6
:1049A000214601AA06A803F09FFA02A8FFF748FDD6
:1049B0000898394606F011F8044607A8FFF740FDAD
:1049C000002CAFD10E9C0A9B01930BA902A8FFF704
:1049D0007FFF01AA214606A803F042F902A8FFF7CB
:1049E0002FFD06A803F074F951EC100B05F080FDC3
:1049F0000B4B186007A8FFF723FD92E70BA8FFF702
:104A00001FFD04A8FFF71CFD11B0F0BD5CE60320FC
:104A1000B1C80D00C8C80D0050E20320CDC80D007C
:104A200048E20320F8B5304B304C3149314E324D1D
:104A300000222DED028B1A70304B01271F700322CC
:104A4000204602F039F920462D4C2E49324604F01A
:104A5000BFFE06230B221321204600F096F83B46AA
:104A600009220A21284600F0C9FA3246264928467A
:104A700004F0AEFE204600F0BFFA244D204685ED3E
:104A8000000A00F07BFA224B286883ED000A10EE42
:104A9000104A05F0DDF941EC180B204605F0D8F975
:104AA000B0EE481AF0EE681A41EC100BFFF7FCFB71
:104AB000184B83ED000B184B186805F0C9F9174B1C
:104AC00041EC180B186805F0C3F9B0EE481AF0EE87
:104AD000681A41EC100BFFF7E7FB114B83ED000B5D
:104AE000BDEC028BF8BD00BF48E4032070E4032056
:104AF000D1C80D0030E4032064E4032049E403201E
:104B00004CE40320D56C0D0017500D0060E4032029
:104B10006CE4032038E4032048E2032050E2032041
:104B200040E4032010B503682F2B044604D9074A3C
:104B300000210A2002F09EFA23681F2B83BF03F096
:104B40001F03034823604FF0A04010BD456D0D00CA
:104B50000003005007B5019001A8FFF7E3FF019A99
:104B600001239340C0F8083503B05DF804FB07B596
:104B7000019001A8FFF7D6FF019BD0F81005D8409F
:104B800000F0010003B05DF804FB10B503720123CF
:104B90008171C271037410BD2DE9F04105461E4CB0
:104BA0008079DFF87880002104F0A8FDAE792378C1
:104BB000BFF35B8F13F0010F0AD12046FFF773FAA2
:104BC00030B102F0CFF8C8F800002046FFF770FAC5
:104BD000D8F8003036019F5D2378BFF35B8FDB0789
:104BE0004FEA47170AD40C48FFF75DFA30B102F0DC
:104BF000B9F8C8F800000848FFF75AFAD8F80030AA
:104C000033445B7803F01F0343EA0700FFF7A2FF7A
:104C10000023EB60BDE8F0817CE4032080E4032006
:104C20002DE9F04F044685B002F094F8E368834222
:104C300084BF0023E360237C2BB9E368C01AB0F57E
:104C4000FA6FC0F060810025257402F083F8B04E41
:104C500025602571E060A7793378AE4DBFF35B8F97
:104C600013F0010F09D13046FFF71DFA28B102F009
:104C700079F828603046FFF71BFA2B683F0113F8DC
:104C800007803378BFF35B8FD9074FEA481809D400
:104C90009F48FFF708FA28B102F064F828609C48A2
:104CA000FFF706FA2B681F44787800F01F0040EAEF
:104CB0000800FFF74FFFFA2002F018FBA07901214E
:104CC00004F01CFDA7793378BFF35B8FDA0709D4B2
:104CD0008F48FFF7E8F928B102F044F828608C48C3
:104CE000FFF7E6F92B683F01DB5D4FEA43183378A5
:104CF000BFF35B8FDB0709D48548FFF7D4F928B1F0
:104D000002F030F828608248FFF7D2F92B681F4480
:104D100003A87B7803F01F0343EA08030393FFF71C
:104D200001FF039A01239340C0F80C35142002F0D0
:104D3000DDFA02F099FEA7793378BFF35B8FD807CD
:104D400009D47348FFF7AFF928B102F00BF82860D7
:104D50006F48FFF7ADF92B683F0113F807803378F0
:104D6000BFF35B8FD9074FEA481809D46848FFF7AB
:104D70009AF928B101F0F6FF28606548FFF798F925
:104D80002B681F44787800F01F0040EA0800FFF706
:104D9000E1FE282001F0D6FFA079DFF87481002120
:104DA00004F0ACFC00270123BA4600934FF0000941
:104DB00094F806B03378BFF35B8FDA0709D4404626
:104DC000FFF771F928B101F0CDFF28604046FFF7E9
:104DD0006FF92B684FEA0B1B13F80B305B01019343
:104DE0003378BFF35B8FDB0709D44046FFF75BF9ED
:104DF00028B101F0B7FF28604046FFF759F92B684A
:104E00005B4493F801B0019B0BF01F0B4BEA030BC3
:104E10005846FFF7ACFE5846FFF7A9FE009B8342B9
:104E200009D109F101095FFA89F9012001F08AFF2E
:104E3000B9F1FF0FBCD194F806B03378BFF35B8FA4
:104E4000D80709D44046FFF72EF928B101F08AFFB0
:104E500028604046FFF72CF92B684FEA0B1B13F82C
:104E60000B305B0100933378BFF35B8FD90709D414
:104E70004046FFF718F928B101F074FF286040465A
:104E8000FFF716F92B685B4493F801B0009B0BF019
:104E90001F0B4BEA030B5846FFF769FE5846FFF716
:104EA00066FEB9F1FF0FC3B2009318D0032F11D9DA
:104EB000FA070FD44FEADA020AF1010AA35C5B0099
:104EC000DBB2A354217A49453CBF43F00103A3540C
:104ED0005FFA8AFA0137FFB2552F7FF467AF02F00D
:104EE000C5FDBAF1270F10D9637820781844A3784C
:104EF0001844E37818442379C0B2C31A5842584181
:104F000005B0BDE8F08F0120FAE70020F8E700BF08
:104F10007CE4032080E4032010B50446FFF780FE04
:104F200020B3E3790B2B1BD0153B012B1ED8A378A4
:104F3000DFED106A03F07F0207EE102AE27807EE39
:104F4000902AB8EEC77AF8EEE77A1B06E7EE267AE3
:104F5000B2EE047A87EE870A07D5B1EE400A04E084
:104F6000A37800EE103AB8EE400A10BD9FED020A99
:104F7000FBE700BF000080430000C07F08B5FFF7DB
:104F8000CBFFF2EE027A20EE270AF1EE047A80EEF1
:104F9000277A9FED020A37EE000A08BD00000042A2
:104FA00010B50446FFF73CFEF0B1E3790B2B15D0AA
:104FB000153B012B18D82378DFED0D6A07EE103A68
:104FC000637807EE903AB8EE477AF8EEE77AE7EEC4
:104FD000267AB2EE047A87EE870A10BD237800EEB7
:104FE000103AB8EE400AF8E79FED020AF5E700BF75
:104FF000000080430000C07FFFF7D2BF10B5044619
:10500000017042708370012103EB430005F05EFCE8
:105010006060204610BD10B50446406802F01EF9DD
:10502000204610BD10B500210446007804F077FB3F
:10503000142001F087FE2078012104F070FBBDE808
:105040001040142001F07EBE70B506460C460825BF
:1050500023064CBF01210021707804F060FB013D64
:105060003046FFF7DFFF640015F0FF05E4B2EFD133
:1050700070BD73B513F0800F1E460C46154614BF65
:10508000C021E021730658BF41F010012A0658BF25
:1050900041F008016B0658BF41F00401220658BFD9
:1050A00041F00201630658BF41F001010190FFF792
:1050B000CBFF01983146FFF7C7FF01982946FFF75C
:1050C000C3FF0198214602B0BDE87040FFF7BCBFA6
:1050D0002DE9F04704460F460021904699469DF879
:1050E00020A0FFF7B1FF00212046FFF7ADFF002110
:1050F0002046FFF7A9FF00212046FFF7A5FF002665
:10510000A378F5B2AB4219D905EB4500AF4200F1E7
:10511000010200F1020308D1616801F800806168B2
:1051200001F80290616801F803A06168CB5C8A5CB9
:10513000095C2046FFF79DFF0136E1E7204600218C
:10514000FFF782FF20460021FFF77EFF2046002167
:10515000FFF77AFF20460021BDE8F047FFF774BF54
:1051600073B504460121007804F0C8FA6078012183
:1051700004F0C4FA00252E46A378E9B28B4207D981
:10518000002300961A462046FFF7A2FF0135F3E7F9
:1051900002B070BD0368C9B29B68184710B50446D9
:1051A00004F0EEFA3C2102F055FC04F0E9FA80210B
:1051B000FFF7F0FF04F0E4FA036821469B68984784
:1051C00004F0DEFABDE8104002F04BBC08B5AE209A
:1051D000FFF7E4FF052002F089F8AF20FFF7DEFFBC
:1051E000052002F083F8BDE80840A620FFF7D6BFEF
:1051F00008B5012303702020FFF7D0FFBDE8084069
:105200000220FFF7CBBF10B550391446C8B2FFF7E4
:10521000C5FFE00000F00800FFF7C0FFC4F3430043
:105220001030BDE81040FFF7B9BF10B50C4604F0D0
:10523000A7FA3C2102F00EFC04F0A2FA4021FFF78D
:10524000A9FF04F09DFA036821469B68984704F083
:1052500097FABDE8104002F004BC0000A1F1200361
:105260005F2B88BF202170B501F10051074D203917
:10527000064605EBC105082415F8011B3046013C24
:10528000FFF7D3FF14F0FF04F6D170BDF2C80D0094
:1052900070B50546AE20FFF781FF00260022F1B26F
:1052A0002846FFF7B0FF102420212846013CFFF7D5
:1052B000D5FF14F0FF04F7D10136082EEED1AF2050
:1052C000FFF76CFF224621462846BDE87040FFF7F5
:1052D0009ABF70B506460D460024E3B20134E95C7E
:1052E00019B13046FFF7BAFFF7E770BDF0B585B0EA
:1052F00000230C1ECDE901330646ADF80C3024DA4C
:105300002D21FFF7ABFF6442012300250A202A4626
:1053100004A90A440135B4FBF0F100FB114402F882
:105320000C4CEDB20C460029F1D12B44DCB204AB9D
:105330005F190D3F75B117F801193031C9B2304608
:10534000013DFFF78BFFEDB2F4E7DED13021FFF72F
:1053500085FF0124204605B0F0BDA620FFF71EBF43
:1053600003681847012A03D0022A03D0002070479F
:105370000160FBE70B680360F8E7000013B51C2031
:10538000FEF789FE044648B1064B07491B680093A7
:105390000968064B42F2343201F078F8204602B038
:1053A00010BD00BF10E503200CE50320F2CB0D007B
:1053B00013B52020FEF76FFE044640B1054B0649A9
:1053C0001B6800930968054B502200F05FFA2046E5
:1053D00002B010BD10E503200CE50320F2CB0D0058
:1053E00013B51C20FEF757FE044648B1064B07498B
:1053F0001B6800930968064B42F2343201F0B0FB9F
:10540000204602B010BD00BF10E503200CE50320CC
:10541000F2CB0D0013B51420FEF73DFE044640B15B
:10542000054B06491B680093002309681A4600F0E3
:1054300059FD204602B010BD10E503200CE5032005
:1054400010B5064B036064330446036103F018FD96
:10545000204603F00FFE204610BD00BF80D20D0095
:1054600038B584690A4B036005467CB16368013B2B
:1054700063605BB9236820469B689847A368013B3B
:10548000A3601BB923682046DB689847284638BDCF
:1054900018D20D0010B58368044613B103220146EB
:1054A0009847204610BD000010B586B002AB0291AF
:1054B000044693E803006A4682E8030094E8030088
:1054C00083E8030092E80300A2680492064AA260FF
:1054D000E2680592054AE26084E803001846FFF797
:1054E000D9FF204606B010BD65530D0061530D0075
:1054F00010B50446FFF7B4FF20461C2104F06DF9F7
:10550000204610BD10B50446FFF79AFF20464C21F7
:1055100004F063F9204610BD70B500F10801C268BF
:105520000B463AB1157C0478A5422ABF1346D268CF
:105530009268F6E7994204D000781A7C904238BF0E
:105540000B46DA690AB904F000FABDE870401A6A3D
:1055500003F1140010478B6870B5164604460D1D04
:1055600001225BB130781A7C904234BF9868D868C9
:105570001D4634BF012200220346F2E792B1CA68F9
:10558000AA4203D1C4E90035204670BD284604F084
:105590007EF93378027C9A424FF00003F2D3C4E9DB
:1055A0000003F1E72846F4E72DE9F04300F1040891
:1055B000856885B006468946444655B199F800305D
:1055C0002A7C9A4236BFEB68AB6825462C461D46BE
:1055D000F3E7A04504D099F80020237C9A422ED20C
:1055E0002420FEF758FD99F8009080F810900023D1
:1055F000A045074600F11002C36125D173691BB1B4
:1056000031690B7C4B4509D3314602A8FFF7A3FF54
:10561000DDE90241002951D0002C4DD188454BD005
:10562000387C0B7C98422CBF0020012043460A4660
:10563000394604F02EF97369013373613C4604F175
:10564000140005B0BDE8F083237C01924B4518D9C6
:10565000F3689C4209D0204604F019F9037C019AB2
:105660004B4505D2C36853B9044621461C46D1E7D1
:10567000314602A8FFF76FFFDDE90234F5E7234664
:10568000F3E71BD231698C420BD0204604F0ECF8D2
:10569000037C019A4B45054605D9E36853B9214679
:1056A0001D462C46B6E7314602A8FFF754FFDDE958
:1056B0000251F6E70146F4E70120B7E707F11400CD
:1056C000FFF7E8FE3846FEF7EAFC2746B6E700009B
:1056D0002DE9F341051D0026174600F10802C0E937
:1056E0000362C0E9052604468846067203700DF180
:1056F0000701012328468DF80730FFF755FF1649AB
:10570000FFF7D2FE0DF1070128468DF80760FFF77D
:105710004BFF1249FFF7C8FE02230DF1070128468F
:105720008DF80730FFF740FF0D49FFF7BDFE03235B
:105730000DF1070128468DF80730FFF735FF0949BD
:10574000FFF7B2FE084BC3F80080084B20461F60ED
:1057500002B0BDE8F08100BF7D530D00B1530D00D4
:10576000E1530D0015540D000CE5032010E5032056
:1057700010B50E4C204603F041FA20460C4C0D4A61
:105780000D4904F025F8204603F038FA20460B4C6A
:10579000084A094904F01CF8204603F04BFC204657
:1057A000044A0749BDE8104004F012B8F0E40320B1
:1057B00088E4032030E4032061540D00A4E40320B6
:1057C00041540D00017570470022011DC0E90221FE
:1057D000C0E904120271704770B506462DED028BC8
:1057E000142001F033FD0546142001F02FFD04467E
:1057F000304605F022F9324600230238984214DD83
:1058000012F8011B0D293AD111780A2937D15178A4
:105810000D2934D191780A2931D10433F118142299
:10582000284605F024F900232B750A21284605F0A7
:10583000C7F8064628B30A21013005F0C1F800B3C5
:105840003146204605F0D3F8204605F0F6F820440E
:10585000002300F8013C204605F034F851EC100B11
:1058600004F046FE08EE100A204601F0F7FC284638
:1058700001F0F4FCB0EE480ABDEC028B70BD0133C0
:10588000BCE79FED018AF5E75F42A2CD30B5074D39
:1058900005600025C0E901130575039B41F28835B9
:1058A00085610525C0E90332057730BD0CCE0D00BA
:1058B0002DE9F74FDFF88C80DFF88CA0DFF88CB093
:1058C00004460D461746002640465FFA86F902F068
:1058D00088FF88BB237F4B452ED9237DCBB103F0B6
:1058E000D7FD514602F0A0FC03F0D2FD294602F09C
:1058F0009BFC03F0CDFD594602F096FC03F0C8FD79
:105900000A224946019002F0ACFC019B184602F0C5
:1059100092FC0023BAB22946404603F093F9237D56
:1059200023B103F0B5FD064902F091FC4FF47A7003
:1059300001F0DCFC0136C7E703B0BDE8F08F00BF23
:1059400030CC0D0014E5032006CC0D001CCC0D005E
:105950002DE9F0414B1E0C4601F52F720546002142
:1059600003F8011F9342FBD12B7D4BB103F090FD57
:10597000144902F06CFC03F08BFD134902F067FC44
:10598000124F002640F2BB28384603F08DF870B164
:10599000384602F0C2FFA0552B7D2BB103F078FDF5
:1059A0000368A15D9B68984701364645ECD12B7D85
:1059B00033B103F06DFDBDE8F041054902F047BC8D
:1059C000BDE8F08155CC0D0041CC0D0014E503205D
:1059D00054CC0D00F8B50E4F04460026384603F0AF
:1059E00063F8054690B9A369B3420FDD012001F0C9
:1059F0007DFCA3690136B342F0DC207D28B103F0C1
:105A000047FD044902F023FC2846F8BD0120FCE7CD
:105A100014E5032060CC0D00F8B50F46026941681B
:105A200004461D46FFF744FF784802F0DAFE0646BA
:105A3000002800F0E1807649744802F0F5FB394611
:105A4000724802F0F1FB7349704802F0EDFB7249B5
:105A50006E4802F0E9FB61686C4802F0E5FB6F49B3
:105A60006A4802F0E1FB6E49684802F0DDFBA1687C
:105A7000664802F0D9FB6949644802F0D5FB6949E0
:105A8000624802F0D1FBE168604802F0CDFB634957
:105A90005E4802F0C9FB64495C4802F0C5FB6349FB
:105AA0005A4802F0C1FB284604F0C7FF6049064689
:105AB000564802F0B9FB0A223146544802F0D1FBA5
:105AC0005C49524802F0B0FB2946504802F0ACFB5A
:105AD00052494E4802F0A8FB4C4802F081FE237D5B
:105AE000002B69D003F0D4FC534902F0B0FB03F063
:105AF000CFFC474902F098FB03F0CAFC394602F09C
:105B000093FB03F0C5FC434902F08EFB03F0C0FC9D
:105B1000414902F089FB03F0BBFC616802F084FBA1
:105B200003F0B6FC3D4902F07FFB03F0B1FC3C49B9
:105B300002F07AFB03F0ACFCA16802F075FB03F005
:105B4000A7FC364902F070FB03F0A2FC354902F0D5
:105B50006BFB03F09DFCE16802F066FB03F098FC30
:105B60002E4902F061FB03F093FC2F4902F05CFB2D
:105B700003F08EFC2D4902F057FB03F089FC2C4901
:105B800002F052FB03F084FC0A22314602F069FB6A
:105B900003F07EFC274902F047FB03F079FC29461D
:105BA00002F042FB03F074FC1C4902F03DFB03F0E1
:105BB0006FFC224902F04BFB2046FFF70BFF237DD1
:105BC0002BB90124114802F0C9FF2046F8BD03F0AB
:105BD0005FFC1B490D4D02F03AFB284602F064FFC2
:105BE0000028EED0284602F098FE044603F050FC50
:105BF000E1B202F01DFBF0E7247D002CE2D003F0BF
:105C000047FC104902F023FB3446DBE714E5032090
:105C100093CC0D00ABCC0D00B7CC0D00DBCD0D004F
:105C2000BECC0D00CBCC0D00DACC0D00EECC0D00BF
:105C30000FCD0D00D9CD0D0020CD0D003CCD0D00B8
:105C40005ACD0D0076CD0D0070B52DED028B0446BA
:105C500000230E46154641686648502202F0F2FFC6
:105C6000204661685022FFF723FE624802F0B9FD2A
:105C7000002800F0B68060495E4802F0D5FA31464F
:105C80005C4802F0D1FA5D495A4802F0CDFA294643
:105C9000584802F0C9FA5A49564802F0C5FA59491B
:105CA000544802F0C1FA5849524802F0BDFA6168FE
:105CB000504802F0B9FA55494E4802F0B5FA544935
:105CC0004C4802F0B1FAA1684A4802F0ADFA4F49D7
:105CD000484802F0A9FA4F49464802F0A5FAE1689F
:105CE000444802F0A1FA4949424802F09DFA4A4963
:105CF000404802F099FA237D002B4FD003F0C8FBF7
:105D00003D4902F091FA03F0C3FB314602F08CFAF0
:105D100003F0BEFB394902F087FA03F0B9FB2946CC
:105D200002F082FA03F0B4FB354902F07DFA03F089
:105D3000AFFB344902F078FA03F0AAFB324902F0D3
:105D400073FA03F0A5FB616802F06EFA03F0A0FBA2
:105D50002E4902F069FA03F09BFB2D4902F064FA28
:105D600003F096FBA16802F05FFA03F091FB27496C
:105D700002F05AFA03F08CFB264902F055FA03F0C0
:105D800087FBE16802F050FA03F082FB1F4902F042
:105D90004BFA03F07DFB204902F046FA2046FFF75C
:105DA00019FE48B913489FED1D8A02F0D7FEB0EEE8
:105DB000480ABDEC028B70BD4FF42F7001F046FA1B
:105DC000014605462046FFF7C3FD2846FFF704FDC0
:105DD0000848B0EE408A02F0C1FE284601F03EFAC3
:105DE000E5E7237D002BDDD003F052FB0C4902F0E8
:105DF0002EFAD7E714E50320A0CD0D00B5CD0D0098
:105E0000B7CD0D00ABCC0D00B7CC0D00DBCD0D0038
:105E1000BECC0D00CBCC0D00BBCD0D005F42A2CDA2
:105E2000DECD0D0010B5054C204602F0E7FE204601
:105E3000034A0449BDE8104003F0CABC14E503203E
:105E400030E4032061540D009FED010A704700BF4C
:105E50005F42A2CD017470470022011DC0E90221FA
:105E6000C0E904120271704730B585B01A46089B2C
:105E70001B788DF8003002A83C2301F0EFFB0020D6
:105E8000029C01F02FF920B1637813B901F04EF9AB
:105E9000FAE76378BFF35B8F651CABB90025039C01
:105EA0007CB16368013B63605BB9236820469B68F3
:105EB0009847A368013BA3601BB923682046DB68B1
:105EC0009847284605B030BD002001F00BF920B1FD
:105ED0002B7813B901F02AF9FAE72378012BDDD1E9
:105EE000257BDCE710B5044C0460C0E901130024F5
:105EF000029B0474C36010BD24CE0D0010B504468F
:105F0000006808B1FEF7CDF8E06801F0A7F9606815
:105F100010B1042103F061FC204610BD38B50446E1
:105F20000120607494F91000E56800EB800045F8EA
:105F3000201094F91010E06801EB810100EB810161
:105F400081ED020A94F91010E06801EB810100EB89
:105F500081014A6094F91020E16802EB820201EBB2
:105F60008202D36094F91030E26803EB830302EB02
:105F70008303049A1A61237C01335BB20A2B2374D6
:105F800008DDA37C23B103F083FA034902F05FF933
:105F90000A23237438BD00BF34CE0D0010B510EEB7
:105FA000100A86B00C4603F053FF02460B4601A8C8
:105FB0000A4901F063F901A81422002310F8011B1B
:105FC000202906D0E1540133DBB211B9E15406B007
:105FD00010BD013A12F0FF02F0D1F8E773CE0D00C8
:105FE0002DE9F04F0C4689B04C49DFF85481DFF8B9
:105FF0005491DFF854A10546204604F0F8FC002631
:1060000095F910309E426ADAEB6806EB860B03EBDB
:106010008B0393ED020A03A92846FFF7BFFFEB6845
:1060200003A9009153F82B3022464146204601F047
:1060300025F9EB684FEA8B073B44DB6843B3224604
:106040004946204601F01AF9EB683B441B69002BD6
:1060500038D00A2093FBF0F191FBF0FC00FB1C1CF4
:1060600000FB1131C9B2642293FBF2F292FBF0FE05
:1060700000FB1E2200915FFA8CF32949D2B202A8DC
:1060800001F0FCF8274902AB2246204601F0F6F861
:10609000EB681F447B6823B123492246204601F068
:1060A000EDF822462149204601F0E8F8013695F93D
:1060B0001030F6B29E4222460ADA1D49204601F00F
:1060C000DDF89DE722465146204601F0D7F8DFE78C
:1060D0001649204601F0D2F800232B7490E7AB7CE0
:1060E000C3B103F0D5F9134902F0B1F803F0D0F9C8
:1060F000114902F0ACF803F0CBF9214602F0A7F801
:1061000003F0C6F90B4902F0A2F803F0C1F90B49FC
:1061100002F09DF809B0BDE8F08F00BF78CE0D0009
:10612000A0CE0D00A7CE0D00B2CE0D00C1CE0D0049
:10613000C5CE0D0055CC0D00C9CE0D00DDCD0D0036
:106140007ACE0D008DCE0D00ACCE0D002DE9F04FB6
:106150000C46054689B05249DFF87481DFF8749126
:10616000204616461F4604F042FCAB684D4A4E4995
:10617000204601F083F833464C49009722462046DA
:1061800001F07CF84A49494F2246204601F076F852
:10619000002695F910309E4264DAEB6806EB860B18
:1061A00003EB8B0393ED020A03A92846FFF7F6FEE3
:1061B000EB6803A9009153F82B302246394620465C
:1061C00001F05CF8EB684FEA8B0A53445B6823B13B
:1061D00022464146204601F051F8EB685344DB6803
:1061E0003BB322464946204601F048F8EB68534449
:1061F0001B6953B30A2093FBF0F191FBF0FC00FB09
:106200001C1C00FB1131C9B2642293FBF2F292FB19
:10621000F0FE00FB1E2200915FFA8CF32549D2B2FA
:1062200002A801F02BF8244902AB2246204601F0D7
:1062300025F895F910300136F6B29E4222460ADA68
:106240001E49204601F01AF8A3E71D4922462046C0
:1062500001F014F8EDE71B49204601F00FF8002388
:106260002B7496E7AB7CC3B103F012F9164901F029
:10627000EEFF03F00DF9154901F0E9FF03F008F90D
:10628000214601F0E4FF03F003F90F4901F0DFFFBD
:1062900003F0FEF8024901F0DAFF09B0BDE8F08F23
:1062A000DDCD0D00F2CB0D00D2CE0D00DECE0D0007
:1062B000E6CE0D00A0CE0D00A7CE0D00C5CE0D0080
:1062C000ACCE0D00F8CE0D0055CC0D00C9CE0D00A2
:1062D000EBCE0D00F1CE0D002DE9F74304464FF44F
:1062E0002F701E460F46904600F0B0FFE37C013B46
:1062F000012B054626D8014643463A462046FFF77D
:1063000025FFA37C23B103F0C3F8114901F09FFFDF
:10631000606803680096D3F8009039462B464246E1
:10632000C8470746284600F099FF1EB101213046B4
:1063300003F053FA002307B163743846237403B0A3
:10634000BDE8F08301462046FFF74AFED9E700BFCB
:10635000FFCE0D0070B5044601200D461646FDF730
:106360009AFE067003462A4629462046BDE870403C
:10637000FFF7B2BF70B505460C4684B1E168284608
:10638000FFF7F8FFE369A66823B104F114010322C3
:10639000084698472046FDF782FE3446EDE770BD7B
:1063A000F0B58DB0044601A80D4617461E4600F014
:1063B000CDFE03980130FDF770FE0199206004F0D6
:1063C00016FB2A4633463946E67405A8FFF780F9DE
:1063D000C82000F03BFFE06005A8FFF79DF8002310
:1063E000C4E901050899237406A8FFF7C3FF01A8B3
:1063F00002F0D6F80DB0F0BD38B500250446058290
:10640000FFF7CEFF204638BD70B505460C464CB1AF
:10641000E1682846FFF7F8FFA6682046FDF73FFE33
:106420003446F4E770BD000010B5104B104C00224C
:106430001A70204602F0E2FB20460E4C0E4A0F492D
:1064400003F0C6F9204602F0D9FB20460C4C0A4A5C
:106450000A4903F0BDF9204602F0ECFD2046064A49
:106460000849BDE8104003F0B3B900BFB4E503200C
:1064700098E5032030E5032030E4032061540D004B
:106480004CE5032041540D000175704730B5064DB1
:106490000560C0E901130025039B057541F28835AD
:1064A000C0E90332856130BDACCF0D002DE9F84F56
:1064B0000D461746804602F0EBFF1E491E4EDFF8E0
:1064C0007CA0DFF87CB001F0C2FE0024304602F070
:1064D0005CFB60BB052C2AD098F81430C3B102F0E5
:1064E000D7FF514601F0A0FE02F0D2FF294601F08D
:1064F0009BFE02F0CDFF594601F096FE02F0C8FF68
:106500000A228146214601F0ACFE484601F093FE86
:10651000304602F023FB0023BAB22946304602F08F
:1065200091FB4FF47A7000F0E1FE0134CEE7BDE854
:10653000F88F00BF0FCF0D00B8E5032006CC0D008B
:106540001CCC0D0070B504460E4681682E481546D9
:1065500001F06AFE2D492C4801F066FEE1682A48E8
:1065600001F062FE2A49284801F05EFE31462648C5
:1065700001F05AFE2749244801F056FE29462248D8
:1065800001F052FE2449204801F04EFE237D002BED
:1065900038D002F07DFF214901F059FE02F078FF6A
:1065A0001F4901F054FE02F073FFA16801F03CFEA8
:1065B00002F06EFF154901F037FE02F069FFE16855
:1065C00001F032FE02F064FF114901F02DFE02F0ED
:1065D0005FFF314601F028FE02F05AFF0D4901F03D
:1065E00023FE02F055FF294601F01EFE02F050FF87
:1065F000094901F019FE02F04BFFBDE8704009495E
:1066000001F025BE70BD00BFB8E5032027CF0D0007
:106610002ACF0D00D0CE0D00FACE0D0042CF0D00D6
:106620002CCF0D0041CF0D00F8B50E4F04460026CB
:10663000384602F039FA054690B9A369B3420FDD36
:10664000012000F053FEA3690136B342F0DC207D47
:1066500028B102F01DFF044901F0F9FD2846F8BDFC
:106660000120FCE7B8E5032060CC0D002DE9F047E0
:10667000037D0646884614464BB102F009FF2749C0
:1066800001F0E5FD02F004FF254901F0E0FDDFF82F
:10669000A490002540F2BB2A484602F005FA78B1E2
:1066A000484602F03AF9337DC7B22BB102F0F0FE52
:1066B000036839469B689847675501355545EBD1C6
:1066C000337D23B102F0E4FE164901F0C0FD002342
:1066D00063551549404604F080F968B913492046CE
:1066E00004F0D8F99FED120A0028F7EE007A18BFDF
:1066F000B0EE670ABDE8F0877C21204604F060F91F
:1067000048B1013004F0DEF851EC100B03F0F0FE5C
:1067100000EE100AEEE79FED060AEBE755CC0D0000
:1067200041CC0D0054CC0D0047CF0D004CCF0D00D7
:106730005F42A2CDB8E5032070B52DED028B044673
:106740004168224842F234321D46002302F07AFAB0
:106750002046616842F23432FFF7A8FE1B4802F07F
:1067600040F848B32946194801F05EFD2046FFF77E
:106770005BFF054638B9154802F0F0F90025BDEC7D
:10678000028B284670BD642000F060FD104902466F
:1067900006462046FFF76AFF3046B0EE408A00F01A
:1067A0005DFDDFED0C7AB4EE678AF1EE10FAE2D00F
:1067B000064802F0D3F9E2E7237D002BDBD002F09C
:1067C00067FE054901F043FDD5E700BFB8E50320AA
:1067D00047CF0D005F42A2CD4FCF0D0070B52DED1C
:1067E000028B044600230D46164641681E4842F2BD
:1067F000343202F027FA2046616842F23432FFF761
:1068000055FE194801F0EDFF28B3204632462946CF
:10681000FFF798FE2046FFF707FF48B912489FEDA3
:10682000138A02F09BF9B0EE480ABDEC028B70BDF2
:106830004FF42F7000F00AFD0D4902460546204630
:10684000FFF714FF0848B0EE408A02F087F92846A7
:1068500000F004FDE7E7237D002BDFD002F018FEF7
:10686000044901F0F4FCD9E7B8E503205F42A2CD6A
:106870006DCF0D0070CF0D002DE9F04704461820B4
:1068800015460F46FDF707FC07F1040A6B68D5F8BB
:106890000090BA6843610646C0F81090554601233F
:1068A00052B113694B45CCBF9168D1681546CCBF36
:1068B000012300230A46F3E7A3B1FB68AB4223D0D0
:1068C000284602F0E4FF8046D8F810304B451BDB29
:1068D0003046FDF7E4FBC4F8008000232371204616
:1068E000BDE8F087A846EFE728698145ACBF0020E6
:1068F000012053462A46314602F0CBFF7B692660D1
:1069000001337B610123E9E7AA45EDD10120F0E7DE
:106910002DE9FF470D4604464FF42F7000F096FC1A
:106920002B7D07464BB102F0B3FD3A4901F08FFCD5
:1069300002F0AEFD384901F08AFCDFF8F090002645
:1069400040F2BB2A484602F0AFF888B1484601F051
:10695000E4FF2B7D5FFA80F82BB102F099FD03680C
:1069600041469B68984707F8068001365645E9D1AD
:106970002B7D23B102F08CFD284901F068FC002535
:10698000231DC4E90253C4E904352549257138465D
:10699000BD5504F0CBFEDFF89890DFF898A0DFF843
:1069A000808006467EB34946304604F016F800BBA8
:1069B000414604F0BBFE1B49064604F00EF818B928
:1069C000194B0095019308E0304603F07BFF51EC32
:1069D000100B009503F08CFD01906A46214602A839
:1069E000FFF74AFF4146002004F0A0FE01350646AD
:1069F000D8E75146304603F0F0FF0028F2D1414677
:106A000004F094FEDCE7384600F028FC204604B091
:106A1000BDE8F08755CC0D0041CC0D0054CC0D00E5
:106A20002ACF0D0096CF0D005F42A2CDB8E503201E
:106A30004CCF0D009BCF0D002DE9F041071D98466E
:106A40000023C0E90237C0E9047303710D4688B022
:106A50004968044616462E4842F2343202F0F2F8F3
:106A60002846696842F23432FFF720FD284801F0D9
:106A7000B8FE10B3314642462846FFF763FD28466C
:106A8000FFF7D2FD0646C0B92148224F02F066F852
:106A90002149404604F04AFE35461F4E002832D0B8
:106AA000214602A86A4600950197FFF7E5FE3146A8
:106AB0000020013504F03AFEF0E7294602A8FFF76E
:106AC00027FFA1682046FFF79FFC049A0023C4E932
:106AD0000237C4E904737AB19DF80C10217105994D
:106AE000E1600699A26021615760079A626103AA7A
:106AF000CDE905220493079302A80499FFF784FCCB
:106B0000034802F02BF8204608B0BDE8F08100BF32
:106B1000B8E503205F42A2CDC7CE0D0010B5054CED
:106B2000204602F06BF82046034A0449BDE81040B5
:106B300002F04EBEB8E5032030E4032061540D009E
:106B40009FED010A704700BF5F42A2CD01757047FB
:106B50000022011DC0E90221C0E904120271704740
:106B600030B5064D0560C0E901130025039B05758E
:106B700041F28835C0E90332856130BD70D00D0027
:106B800010B5054C204602F055FA2046034A044948
:106B9000BDE8104002F01CBED4E5032030E4032021
:106BA00041540D0010B504464A68024901F09AFAB2
:106BB000204610BD24E60320F0B58FB001460646FE
:106BC00002A81F46FFF7EEFF02A800F0ABFFA0B936
:106BD000337D23B102F05CFC274901F038FBF3233D
:106BE000009337223D23A92108A809AD00F0BEFF7C
:106BF0000FCD03AC0FC42B682370002240F2BD21DF
:106C00001E4802F049FA002242F234311B4802F0D9
:106C1000EBF803AD1A4B08930FCD09AC0FC42B68EA
:106C20001648237042F2343208A902F051FA58B9DA
:106C3000337D23B102F02CFC124901F008FB0F4810
:106C400002F01EF9002014E0002FF1D0384603F0C6
:106C5000F4FE39460246094802F020F90028E7D040
:106C6000064802F07BF90028E2D0044802F008F957
:106C700001200FB0F0BD00BFBCCF0D00D4E5032054
:106C800068D10D0048D00D0073B503720446502042
:106C9000CDE900211E4600F0D9FA60601420FDF70E
:106CA000FAF9054620B1DDE900213346FFF7A4FBE0
:106CB000256002B070BD000038B5002504461346BB
:106CC00045728572024AFFF7DFFF204638BD00BFDC
:106CD00080D00D0038B50446406800F0BFFA256842
:106CE00035B12846FFF70AF91421284602F075FD50
:106CF000204638BD0068FFF711B907B5002300939F
:106D00001A46FFF7F7FF03B05DF804FB0068FFF7D2
:106D100021BB000008B5024B1B685B6C019308BDEA
:106D20004802030008B5024B1B689B6C019308BD29
:106D30004802030008B5024B1B685B68019308BD5D
:106D40001802030008B5024B1B68DB68019308BDFD
:106D50001802030008B5024B1B685B69019308BD6C
:106D60001802030008B5024B1B681B68019308BD9D
:106D70002C02030008B5024B1B689B68019308BDF9
:106D80002C02030008B5024B1B68DB68019308BDA9
:106D90002C02030008B5024B1B681B69019308BD58
:106DA0002C02030008B5024B1B681B6A019308BD47
:106DB0002C02030008B5024B1B685B6A019308BDF7
:106DC0002C02030008B5024B1B68DB68019308BD69
:106DD0002802030008B5024B1B689B69019308BD9C
:106DE0002802030008B5024B1B68DB69019308BD4C
:106DF0002802030008B5024B1B681B6A019308BDFB
:106E00002802030008B5024B1B685B6A019308BDAA
:106E10002802030008B5024B1B689B6A019308BD5A
:106E20002802030008B5024B1B68DB6A019308BD0A
:106E30002802030008B5024B1B681B6B019308BDB9
:106E40002802030008B5024B1B685B6B019308BD69
:106E50002802030008B5024B1B681B6C019308BD98
:106E60002802030008B5024B1B685B69019308BD4B
:106E70006C02030008B5024B1B685B69019308BDF7
:106E80006402030008B5024B1B681B6A019308BD2E
:106E90006402030008B5024B1B685B6A019308BDDE
:106EA0006402030008B5024B1B689B6A019308BD8E
:106EB0006402030008B5024B1B689B68019308BD80
:106EC0006802030008B5024B1B68DB68019308BD2C
:106ED0006802030008B5024B1B685B68019308BD9C
:106EE0003802030008B5024B1B689B69019308BD7B
:106EF0003802030008B5024B1B68DB69019308BD2B
:106F00003802030008B5024B1B681B6A019308BDD9
:106F10003802030008B5024B1B689B6A019308BD49
:106F20003802030008B5024B1B68DB6A019308BDF9
:106F30003802030008B5024B1B681B6B019308BDA8
:106F40003802030008B5024B1B685B6B019308BD58
:106F50003802030008B5024B1B689B6B019308BD08
:106F60003802030008B5024B1B68DB69019308BDBA
:106F70003002030008B5024B1B681B6A019308BD71
:106F80003002030008B5024B1B681B68019308BD63
:106F90003C02030008B5024B1B68DB68019308BD87
:106FA0003C02030008B5024B1B681B69019308BD36
:106FB0003C02030008B5024B1B685B69019308BDE6
:106FC0003C02030008B5024B1B689B69019308BD96
:106FD0003C02030008B5024B1B68DB69019308BD46
:106FE0003C02030008B5024B1B681B6A019308BDF5
:106FF0003C02030008B5024B1B689B6A019308BD65
:107000003C02030008B5024B1B681B68019308BDD6
:107010004C02030008B5024B1B685B68019308BD76
:107020004C02030008B5024B1B681B69019308BDA5
:107030004C02030008B5024B1B685B69019308BD55
:107040004C02030008B5024B1B689B69019308BD05
:107050004C02030008B5024B1B68DB69019308BDB5
:107060004C02030008B5024B1B681B6A019308BD64
:107070004C02030008B5024B1B685B6B019308BD13
:107080006002030008B5024B1B689B6B019308BDAF
:107090006002030008B5024B1B68DB6B019308BD5F
:1070A0006002030008B5024B1B681B6D019308BD0D
:1070B0006002030008B5024B1B685B6D019308BDBD
:1070C0006002030008B5024B1B685B68019308BDB2
:1070D0002002030008B5024B1B685B69019308BDE1
:1070E0002002030008B5024B1B68DB6C019308BD4E
:1070F0002002030008B5024B1B685B6D019308BDBD
:107100002002030008B5034B1B68D3F888300193B5
:1071100008BD00002002030008B5034B1B68D3F82C
:107120009430019308BD00002002030008B5024B13
:107130001B689B68019308BD4402030008B5024B1D
:107140001B685B69019308BD4402030008B5024B4C
:107150001B68DB69019308BD4402030008B5024BBC
:107160001B681B6A019308BD4402030008B5024B6B
:107170001B685B6A019308BD4402030008B5024B1B
:107180001B68DB6B019308BD4402030008B5024B8A
:107190001B685B68019308BD4002030008B5024B01
:1071A0001B689B68019308BD4002030008B5024BB1
:1071B0001B68DB68019308BD4002030008B5024B61
:1071C0001B681B69019308BD4002030008B5024B10
:1071D0001B685B69019308BD4002030008B5024BC0
:1071E0001B689B69019308BD4002030008B5024B70
:1071F0001B68DB69019308BD4002030008B5024B20
:107200001B681B6A019308BD4002030008B5024BCE
:107210001B681B6B019308BD4002030008B5024BBD
:107220001B685B6B019308BD4002030008B5024B6D
:107230001B681B6C019308BD4002030008B5024B9C
:107240001B685B6C019308BD4002030008B5024B4C
:107250001B681B68019308BD1C02030008B5024BA4
:107260001B685B68019308BD1C02030008B5024B54
:107270001B689B68019308BD1C02030008B5024B04
:107280001B68DB68019308BD1C02030008B5024BB4
:107290001B68DB69019308BD1C02030008B5024BA3
:1072A0001B685B6A019308BD1C02030008B5024B12
:1072B0001B68DB6A019308BD1C02030008B5024B82
:1072C0001B681B6B019308BD1C02030008B5024B31
:1072D0001B68DB6B019308BD1C02030008B5024B61
:1072E0001B685B6C019308BD1C0203000021FFF7C3
:1072F000F1BE10B5836804460BB902F026FBC368E3
:107300009847A3681BB10322214620469847204690
:107310001021BDE8104002F060BA10B504460068C4
:1073200008B1FFF7FFFC204610BD13B50B4602461F
:10733000D0E900016C4684E8030093E8030082E88A
:10734000030094E8030083E8030002B010BD0000CE
:1073500010B5064C002320462360FFF7DBFC2046D7
:10736000034A0449BDE8104002F032BA20E6032087
:1073700030E403201B730D00002240681146FFF724
:107380001DBF002240681146FFF738BF0022406849
:107390001146FFF743BF40680022FFF737BF406840
:1073A000002281F00101FFF721BF002340681A4647
:1073B0001946FFF713BF002340681A461946FFF726
:1073C00005BF002240681146FFF7E8BE4068002272
:1073D0000221FFF7EBBE002340681A46FFF7D6BE36
:1073E000084B10B5282422461846002103F0ACFAB9
:1073F000054B04804FF0FF32426004225A60034A7A
:107400001A6010BD2CE6032024E60320ACD00D004A
:1074100070470020704710B51021044602F0DDF9D6
:10742000204610BD08B5FFF7F6FF08BD30B50022B5
:107430004FF69C74026084808D888C800C688580F7
:1074400004600A6030BD10B504460068FFF706FF0F
:10745000204610BD38B5C468F4B12378022B03D19F
:1074600004F10C00FFF7EFFF656835B12846FEF721
:1074700011F81021284602F0B0F9A56835B1284668
:10748000FEF708F81021284602F0A7F9204614213B
:10749000BDE8384002F0A1B938BD73B50E460446C8
:1074A00056F8043B00930D4601A83146FDF710FA4B
:1074B000019A009B6260236001A80023019300935E
:1074C000FCF7BEFF3046FCF7BBFF2846082102F060
:1074D00084F9204602B070BD826810B50AB902F086
:1074E00034FABDE81040C368184708B5006800F1D9
:1074F0001001FFF7F1FF08BD826810B50AB902F06C
:1075000024FABDE81040C368184708B5006800F1C8
:107510001001FFF7F1FF08BD38B5002304460360F2
:1075200010200D46FCF7B7FD28B10123C0E9013357
:10753000024B0360C5602060204638BDE8D00D00D6
:1075400038B5002383608B6804460D462BB10222B8
:107550009847EB68E360AB68A360204638BD000045
:10756000F0B589B004686846FFF760FF4FF002038A
:10757000D4E84F2F002A03D1C4E8413F0029F7D1B6
:1075800025D104F10C0569462846FFF74FFFBFF3EC
:107590005B8F01236370002004F10803BFF35B8F4E
:1075A00053E8006F43E80002002AF9D1BFF35B8F74
:1075B0006EB1FFF797FD78B129463046FFF78CFF93
:1075C0003046FDF767FF1021304602F006F96846A5
:1075D000FFF739FF09B0F0BD314602A8FFF7B0FF51
:1075E000E068B4F9105008B103F00AFA06901020D0
:1075F000ADF81C50FCF74FFD0546E8B10027876049
:107600001820FCF748FD044688B10146876002A8AF
:10761000FFF78BFE049BA268A360059B049206A95A
:10762000E268E36004F110000592FFF7FFFE084BEB
:10763000EB60084B2C60AB6006A8FFF704FF02A8C4
:10764000FDF728FF002229460348FFF753FDB7E75F
:10765000EB740D0081770D00F3720D002DE9F047FA
:107660008AB005469DF848900C4617469846FFF7A5
:1076700065FD07AE824638BB4FF62E73059005A90F
:107680003046ADF81830FFF7D1FE1420FCF703FDAB
:10769000044648B1022303700123C0E901AA4370E4
:1076A00031460C30FFF7C2FE2846214640F8044B15
:1076B000FFF732FF3046FFF7C6FE05A8FFF7C3FE0F
:1076C00028460AB0BDE8F0870C234FF0000A1420CA
:1076D000CDE908AA0793FCF7DEFC014628B1C0E912
:1076E00001AA80F800A080F801A004A80391FFF788
:1076F00013FF224B08930820FCF7CDFC824628B1EB
:10770000039B40F8043B04A9FDF7E2F800965FFAFA
:1077100089F3424639462046CDF824A0FFF71EFDE6
:10772000B8B9039B5B7803F0FF0293B94FF69C73E3
:1077300005A903A80592ADF81830FFF711FF05A8B9
:10774000FFF781FE05A80999FFF7A7FE06A8FCF739
:1077500077FE039B059304A906A8FDF7B9F8059BDE
:10776000069A2B606A60002306A806930593FCF72F
:1077700067FE04A8FCF764FEA2E700BF45780D0091
:10778000022AF8B5054607D0032A18D0012A01D1EC
:107790000B6803600020F8BD18200E68FCF77BFC26
:1077A000044650B13146FFF7CBFE3069B6F914708C
:1077B00008B103F025F92061A7822C60EAE704688C
:1077C000002CE7D004F11000FFF73DFE2046FDF746
:1077D00061FE1821204602F000F8DBE738B50023EF
:1077E00083608B6804460D462BB102229847EB68F4
:1077F000E360AB68A360204638BD022A70B504463A
:1078000007D0032A12D0012A01D10B68036000209F
:1078100070BD14200E68FCF73EFC054620B13146D1
:10782000FFF7DCFF337C2B742560F0E70468002C45
:10783000EDD02046FDF72EFE1421204601F0CDFFAD
:10784000E5E70000F0B589B004460D4601A81146F1
:10785000FFF723FEA4B124B21DB1284603F0D0F8EF
:10786000054601A803A90395ADF81040FFF778FE7F
:1078700003A8FFF7E8FD02A8FCF7E2FD09B0F0BDA0
:10788000019D0123D5E84F2F002A03D1C5E8413FD0
:107890000029F7D1EFD12B73BFF35B8F6B702B1DDA
:1078A000BFF35B8F53E8006F43E80042002AF9D131
:1078B000BFF35B8F002EDED02046FFF713FC074698
:1078C00060B105F10C013046FFF716FE3046FDF7BA
:1078D000E1FD1021304601F080FFCCE7314603A8DE
:1078E000FFF77CFF2B7B8DF81C301020FCF7D3FBBF
:1078F0000546D0B187601420FCF7CDFB044678B173
:107900008760014603A8FFF710FD059BA268A360EE
:10791000069B0592E268E3609DF81C300692237492
:10792000064BEB60064B2C60AB6003A8FDF7B2FD85
:10793000002229460348FFF7DDFBC7E70B750D0062
:10794000FB770D00F3720D00002240681146FFF72F
:1079500055BC002240681146FFF760BC4068002219
:10796000FFF754BC4068002281F00101FFF73EBCE4
:10797000002340681A461946FFF730BC00234068D0
:107980001A461946FFF722BC002240681146FFF74D
:1079900015BC002240681146FFF700BC4068002279
:1079A0000221FFF703BC002340681A46FFF7EEBB35
:1079B000024B03225A60024A1A60704754E60320C1
:1079C00004D10D007047F8B5064615460C468F18D1
:1079D000BC4206D0336814F8011B9B6830469847B8
:1079E000F6E72846F8BD007C0022FFF703BA007CCA
:1079F0000021FFF707BA007C0021FFF70BBA007CDB
:107A00000021FFF70FBA007C0021FFF713BA10B571
:107A10001421044601F0E1FE204610BD10B54FF4DC
:107A20007A73044608460021C4E90113034B23601E
:107A300020741146FFF70EFA204610BD40D10D000C
:107A40000023007C1A461946FFF7BCB9007C0022CF
:107A5000FFF7C0B9C9B2FFF7F9BF007C0022FFF7FA
:107A6000C1B90121FFF7F9BFFFF7A4B9FFF79AB930
:107A7000704710B51821044601F0AFFE204610BD36
:107A8000F0B5037D062B8DB00E4600F104074FF0D4
:107A9000000412D000F1080515F8011D0A22304635
:107AA00000F0DFFBAF42044419D0002CF4D02E21AB
:107AB000304600F0BDFB0444EEE72F236A4639460A
:107AC0000A208DF80040FFF7D5F9684602F0B5FFAF
:107AD00033680246DB6869463046984704462046CC
:107AE0000DB0F0BD10B5054B0446112240F8043B23
:107AF000002102F029FF204610BD00BF68D10D0013
:107B00000346074A10B543F8042B01F1100251F85F
:107B1000044B43F8044B9142F9D10A781A7010BD16
:107B200068D10D00037D042B04D14068003818BFD4
:107B300001207047062B07D143683BB983682BB9F6
:107B4000C3681BB90069F1E7002070470120704746
:107B500010B59DF8084044EA032343EA024242EA92
:107B6000016104234160037510BD000037B5044D69
:107B700005609DF818500095FFF7EAFF03B030BD8F
:107B800068D10D0013B5054B0360CB7800938B785B
:107B90004A780978FFF7DCFF02B010BD68D10D000C
:107BA00000F11003012213F8101C0129184608D116
:107BB00053F8041C02EB4102013A03F11003F2D125
:107BC0007047022904BF53F8041C5218F4E77047A9
:107BD0000020704710B51021044601F0FEFD20463C
:107BE00010BD08B5FFF7F6FF08BD10B5C4687CB13D
:107BF000206808B1FCF755FA237A1BB1606808B118
:107C0000FCF74FFA20460C21BDE8104001F0E5BD1D
:107C100010BD10B5036804469B689847A368013BF4
:107C2000A3602BB923682046DB68BDE810401847E5
:107C300010BD38B50B6803604D6843689D4204462B
:107C40000CD015B16B6801336B60606828B1436874
:107C5000013B43600BB9FFF7DCFF6560204638BD90
:107C60000B461146002210B5C0E90022044683608D
:107C70000BB9204610BDFFF7DCFFFAE78368EBB1D4
:107C80001A78032A1AD8DFE802F00417021B05202D
:107C9000704702685B685268D05C2D2812D0A0F152
:107CA0003003092B0ED974280ED066280CD0A0F111
:107CB0006E035842584170470620704700207047B5
:107CC0000420704703207047022070470000000026
:107CD00010B50446FFF7D2FF02280DD0C31EDBB259
:107CE000012B10D82268A36850685B68BDE810407B
:107CF0000021184403F00EBD2268A36852685B6837
:107D0000D35C742B02D09FED040B10BD9FED040BD0
:107D1000FBE700BFAFF300800000000000000000A0
:107D2000000000000000F03F2DE9F04786B0074654
:107D3000884602A800210024994610239246029307
:107D4000FFF7A0F9CDE9004423464246394602A890
:107D5000FFF7A0F9061E1EDD1049300101F041FDBC
:107D6000054690B1214602A8FFF78CF9CDE90064E1
:107D70002B464246394602A8FFF78CF9A04207DDA0
:107D8000CAF800500120C9F8006006B0BDE8F087CD
:107D90002846FCF786F92046F7E700BF48D30D00D8
:107DA0002DE9F84F436886680B4488460E44074621
:107DB0001C4619464FF00D094FF0090AB44263D032
:107DC000254615F8012B5C2A2BD1A14207D0A4EB44
:107DD000010B18465A4602F09DFD03465B44B5422E
:107DE00039D06278752A2AD1A21CB21A032A32DD50
:107DF000A01D04F1050E4FF0000CAE4553D015F850
:107E0000011FA1F130025FFA82FBBBF1090F05D916
:107E1000A1F16102052A07D8A1F1570242EA0C1C20
:107E2000EBE728460446C9E7A1F14102052A12D82A
:107E3000A1F13702F2E703F801CB0146F2E76E2A1F
:107E40001CD00ED8622A13D007D82F2A11D05C2A52
:107E50000FD0222A0DD0002023E0662AFBD10C226D
:107E600007E0722A0DD0742AF5D183F800A001E052
:107E700008221A70A11C01330846D3E74FF00A020A
:107E8000F7E783F80090F5E7A14206D0641A184698
:107E9000224602F03FFD03462344A3EB0803BB60E8
:107EA0000120BDE8F88FBCF17F0FC4D92146B9E7A6
:107EB000F8B50446154600EB01160027B44210D071
:107EC0002378032B08D129462046FFF769FF48B1E4
:107ED000A368EF541034F1E7002BFBD1A268AB5438
:107EE000F8E70120F8BD000038B50023C0E90033F1
:107EF00004460E48C4E90203A9B10B78032B06D04F
:107F00008BB9136858684B68C35C6E2B07D0136835
:107F10004D6858688B6828445B1BA060E36011467D
:107F20002046FFF786FE204638BD00BFDDCD0D00A0
:107F300038B500250B46C0E90055C0E90255C0E937
:107F40000455044611464BB11A78012A06D103F1B3
:107F50001002DB6882604361FFF76BFE204638BD8C
:107F600010B54369044663B18068E060013B10309E
:107F7000A0602061636113B1FFF712FEA0600120D1
:107F800000E0184610BD000038B500230446036029
:107F900010200D46FCF77FF828B10123C0E901331A
:107FA000024B0360C5602060204638BD7CD10D00C7
:107FB000F0B5044687B00E460C202749154601F05F
:107FC0000EFC014618B10023C0E90033037203A878
:107FD0000291FFF7D9FF029A42B9C4E90022A260D8
:107FE00003A8FCF72DFA204607B0F0BD002301934B
:107FF000294601AB3046FFF797FE18B9C4E90000E7
:10800000A060EDE71449029F681C01F0EAFB029BA7
:10801000786058680028F1D02A46314602F06CFC9E
:10802000029B0199186801221A725A68FFF740FFF3
:108030000028E3D0029B19680493039B059313B1B6
:108040005A6801325A6004AA2046FFF709FE05A8C3
:10805000FCF7F6F9C4E700BF48D30D00014B024A14
:108060001A6070475CE6032090D10D000023406841
:108070001A46FFF78BB8406800220221FFF796B836
:10808000002240681146FFF789B800224068114677
:10809000FFF794B8002340681A461946FFF796B8D0
:1080A000002340681A461946FFF798B84068002137
:1080B000FFF7BCB840680021FFF7C0B84068002255
:1080C00081F00101FFF792B840680022FFF79EB8E7
:1080D000002240681146FFF7A1B80022406811460F
:1080E000FFF78CB82DE9F043002495B016460D46F5
:1080F0000746FFF7F7FC214618220EA8009402F06D
:1081000023FC4023CDE90C3421466B460CAA3046B3
:10811000FEF7D8FE044600284CD1024601216868CB
:10812000FFF74CF80221804622466868FFF746F8C0
:10813000009E81462146002E3CD000293AD173682A
:10814000022B03D00A2B11D0F669F4E7B8F1000F27
:108150000AD0716906A8043107ADFFF713FD0FCDF2
:108160003C1D0FC42B6823704146EDE7B9F1000FA9
:1081700001D14946E8E77469102201A802F0E4FB46
:1081800006238DF8143001AD04F108031834186883
:1081900059682A4603C20833A3421546F7D101A9FC
:1081A00006A807ADFFF7ACFC0FCD3C1D0FC42B6834
:1081B0002370DEE70098FEF77DFE384615B0BDE877
:1081C000F0830000024B034A1A6000225A60704795
:1081D00060E603209CD10D00F8B506460D468F18C9
:1081E0000024BD420CD0336815F8011B9B68304653
:1081F0009847031E01DB1C44F3E7002C08BF1C4614
:108200002046F8BD13B50446084659B1019102F065
:1082100014FC23680199DB680246204602B0BDE8E1
:108220001040184702B010BD08B5FFF7EBFF08BDBE
:1082300003689B68184738B50D210546FFF7F8FF1E
:108240000A2104462846FFF7F3FF204438BD38B51D
:108250000546FFF7D7FF04462846FFF7ECFF20440A
:1082600038BD30B58BB000238DF82430012A98BF7B
:108270000A2209AC0D46B1FBF2F101FB125303F0E7
:10828000FF03092B94BF30333733DBB2AA4204F823
:10829000013DEFD92146FFF7B5FF0BB030BD00001F
:1082A0002DE9F74F55EC104B06460F4610EE102AFD
:1082B00010EE100A2B46294602F0BCF840B1534993
:1082C0003046FFF79FFF8246504603B0BDE8F08F6F
:1082D00025F000494E4B4FF0FF322046494602F050
:1082E000A9F848B94A4B4FF0FF322046494602F000
:1082F00083F808B94749E3E7474B4FF0604220460F
:10830000294602F08DF808B14449D9E7444B4FF0B3
:1083100060422046294602F065F80028F4D1002288
:1083200000232046294602F05DF8D0B12D213046C9
:10833000FFF77EFF05F1004382461D463949DFF80D
:10834000EC904FF0000B00204FF000085FFA8BF329
:108350009F4208D942464B4601F0FCFE0BF1010B4F
:10836000F4E78246EAE722462B4601F013FC0D466D
:10837000044602F09DF8804601F048FD02460B4697
:108380002046294601F004FC0A2204460D463046E8
:108390004146FFF766FF824427B123493046FFF785
:1083A00031FF8244DFF884904FF00008013FFFB2B4
:1083B000FF2F89D042464B462046294601F0A0FDBA
:1083C00004460D4602F04CF8B0F1000B1ADA2D21EC
:1083D0003046FFF72DFFCBF1000103460A2230465D
:1083E0000193FFF73EFF019B18448244584601F079
:1083F0001DFD02460B462046294601F0C9FB0446F6
:108400000D46D3E759460023E8E700BFD0D10D0061
:10841000FFFFEF7FD4D10D00FFFFEF41D8D10D005A
:10842000FFFFEFC10000E03F58CD0D0000002440E9
:1084300038B5C9B20546FFF733FF04462846FFF7B3
:10844000FAFE204438BD2DE9F04186B000AF054664
:108450000E46381D142114463B60FEF71FFF1328FB
:108460000ED8391D2846FFF7CDFE04461EB128461A
:10847000FFF7E1FE044420461837BD46BDE8F08111
:1084800000F1080323F00703E846ADEB030D224695
:10849000411C3B686846FEF701FF69462846FFF726
:1084A000B1FE0446C546E1E710B50446FCF7F2FF0D
:1084B000204610BD0348044A04490023836001F0AC
:1084C00087B900BF68E6032030E40320A9840D00CB
:1084D00010B5044608462170FEF744FD0023636092
:1084E000204610BD2DE9F04757EC106B80460C4636
:1084F00010EE100A00220023394601F073FF28B164
:1085000007F100431F462D2304F8013B00234FF0E1
:1085100001090A22D9B2884503D902FB09F90133BE
:10852000F8E7484601F082FC32463B4601F0E8FCA1
:1085300006460F4602F044F805468A4601F0AAFCBA
:1085400002460B463046394601F022FB134B00220F
:1085500001F05CFF10B101354AF1000A4A46284695
:10856000D317514602F014F80123154621460A227A
:1085700000F0C9FFB8F1000F0DD0204602F05DFAFF
:108580002E23211823540A22434628460131BDE8F0
:10859000F04700F0B8BFBDE8F08700BF0000E03F43
:1085A00010B504460068FEF759FE204610BD10B510
:1085B0000446006808B1FEF751FE0023C4E9013308
:1085C000236010BD38B504460D4600680131FEF742
:1085D0004DFE10B1C4E90005012038BD10B5036897
:1085E000044623B143688B4201D3012010BD2046CD
:1085F000FFF7E8FF0028F9D0A368002BF5D1226827
:108600001370F2E737B50D46114601920446FFF7A5
:10861000E5FF019A28B92046FFF7C9FF204603B0BD
:1086200030BDA2602946206802F066F92268A3687E
:108630000021D154F2E7884210B5044605D00B68FA
:108640002BB18A681946FFF7DDFF204610BDFFF702
:10865000AEFFFAE710B500230446C0E9003383609B
:108660000373FFF7E8FF204610BD13B5044659B168
:108670000846019102F0E1F9019902462046FFF710
:10868000C1FF204602B010BDFFF791FFF9E730B5FA
:10869000044600238BB0C4E90033A360237310EEBB
:1086A000100ACDB201F0D4FB41EC100B01A9284611
:1086B000FFF718FF01A92046FFF7D7FF20460BB0B0
:1086C00030BD10B504468AB000230846C4E9003323
:1086D000A360237301A9C0B2FFF704FF01A92046DC
:1086E000FFF7C3FF20460AB010BD70B505460E4621
:1086F00009B9002070BD6AB1846814442146FFF7AF
:108700006DFF0028F5D02868AB683146184402F0A8
:108710006EF9AC600120EDE713B5044629B9204697
:10872000FFF745FF204602B010BD0846019102F058
:1087300084F9019902462046FFF7D7FF0028EED0C2
:10874000F0E710B50446006818B1FEF787FD002376
:10875000236010BD10B50446FFF7F3FF204610BD9F
:1087600010B5094B094C022200201A60084B20600A
:10877000A080A071A360FEF7A5FC2046054A06492B
:10878000BDE8104001F024B884E6032078E6032019
:108790000000FFFF30E4032055870D0013B5036888
:1087A0008DF80710DC6B01224FF0FF330DF107014C
:1087B000A04702B010BD10B40368DC6B4FF0FF336C
:1087C000A4465DF8044B604713B5134602688DF864
:1087D0000710D46B0DF107010122A04702B010BDB4
:1087E000704738B543691A68002A054610DAB3F8AD
:1087F0008620B3F884309A420AD103681B699847EF
:10880000044628B92B682846DB6A9847204638BDBD
:108810000120FCE743691868C043C00F70477047E8
:10882000064B994210B500F10C0405D0084601F042
:108830008FF8002808BF0024204610BD9CD00D00F2
:1088400010B5AC21044600F0C8FF204610BDFBF770
:1088500026BC2DE9F0414FF0000886B01D46C0F857
:10886000048004460E4617464146102202A802F034
:108870006BF86B1C09D04FF47A70B5FBF0F3CDE9BF
:10888000023800FB1353584304906069102300938F
:10889000006802AB41F2050240F6FF71FEF722FBD1
:1088A000002807DAFEF712FD03686360002006B0B7
:1088B000BDE8F0816069002300683A463146FEF762
:1088C00039FB031EEEDB1846F1E7000070B54D6979
:1088D000054B04468C3544F8043B06460FCD0FC4C7
:1088E0002B682370304670BD68D10D0010B5436908
:1088F000B3F88620B3F884309A42044605D0636901
:10890000B3F884201344187910BD03681B69984795
:108910000028F4D14FF0FF30F6E710B54369B3F803
:108920008620B3F884309A42044608D06369B3F8CD
:108930008420511CA3F884101344187910BD0368D7
:108940001B6998470028F1D14FF0FF30F6E7F8B5E2
:1089500043691746B3F88620B3F884309A42054637
:108960000E4616D06969B1F88430B1F88640E41A31
:10897000BC4228BF3C46043322461944304601F02D
:10898000BBFF6A69B2F884302344A2F884302046E1
:10899000F8BD03681B6998470028E3D14FF0FF3406
:1089A000F5E742690023A2F884304269A2F88630D4
:1089B00070472DE9F0411F4603680C46DB6A8AB018
:1089C000054616469847237DD5F81480042B0CBF26
:1089D00002200A2006220121FEF7BCFAC8F8000096
:1089E0006B691B68002B08DA2B682846DB6A0024B9
:1089F000984720460AB0BDE8F0812846FFF7D1FF2E
:108A0000B7B1002303A9F8B20393ADF81030FEF715
:108A100029FA0028E8D1686906230093006803ABAF
:108A200041F20B0240F6FF71FEF75CFA0028DBD141
:108A30001C22002103A801F087FF237D042B1DD1F8
:108A40004FF407733046ADF80C30FEF72BFAADF853
:108A50000E006068FEF716FA04906B691C22186815
:108A600003A9FEF74FFA0028BED104340FCC6D697C
:108A70008C350FC523682B700124BAE740F61C2300
:108A80003046ADF80C30FEF70DFA05AEADF80E002D
:108A9000231D04F1140718685968324603C20833CD
:108AA000BB421646F7D1D8E730B54269B2F88630F6
:108AB0008BB004462BB1B2F884209A4201D1FFF763
:108AC00070FF61690868002818DBB1F886507F2DB7
:108AD00014D804310823C5F180022944FEF71AFA9C
:108AE000002813DD6369B3F886200AB9A3F884204F
:108AF0006369B3F886201044A3F886006369B3F86D
:108B00008600B3F88430C01A0BB030BDFEF7DEFB30
:108B100003680B2BF2D0FEF7D9FB03680B2BEDD0CB
:108B200020230025CDE90235FEF7D0FB0368019331
:108B3000084B0949009302AA2B463220FEF7B2FAED
:108B400063691868FEF7D6F963694FF0FF321A605F
:108B5000D4E700BFE3D10D00DCD10D0010B54369AF
:108B600004461868002801DBFEF7C4F963694FF07A
:108B7000FF321A606069112200218C3001F0E4FE9E
:108B80002046BDE81040FFF70CBF43691868C0439A
:108B9000C00F704710B5002304460160C0F8843050
:108BA0008830FEF79FFF204610BD000073B50023FC
:108BB0004FF47A72C0E901320E4A036102604361E8
:108BC0000446AC200191FBF766FA051E05F10C0680
:108BD00008D00123C5E90133074B01992B603046CA
:108BE000FFF7D8FF2046C4E90565FFF7DAFE02B0BB
:108BF00070BD00BF18D20D00FCD10D0010B54FF0B4
:108C0000FF310446FFF7D2FF204610BD10B50446E1
:108C10000068002801DBFEF76DF9204610BD0C301E
:108C2000FFF7F4BF70B586B0064601AD6846FEF7A3
:108C3000A9FF0FCD341D0FC42B682370304606B03A
:108C400070BD00002DE9F0439846036893B00D46CF
:108C50000024DB6A06461746984728466B4622469C
:108C600021460094FEF72EF90546002863D1009BAB
:108C7000002B4BD05B69002B48D006A8FEF732FFD3
:108C8000009B5C696378022B04D1211D06A8FFF7C5
:108C9000C9FF26E00A2B24D11122294601A801F0A0
:108CA00053FEA368002B38D004F108030DF1040C27
:108CB000183418685968624603C20833A3429446C0
:108CC000F7D1062301A90CA88DF81430FEF718FF80
:108CD0000DF1340CBCE80F0007AC0FC4DCF8003019
:108CE000237006A8FEF71EFF80B1336807ADD3F8E6
:108CF0002090124B0C930FCD0DAC0FC42B6823703A
:108D00003A4643460CA93046C84705460098FEF748
:108D1000D1F8284613B0BDE8F083E368002BC3D137
:108D20004FF6FF70D4F81090FEF7ACF88145BBD138
:108D300004F11401AAE72546E8E700BF68D10D0059
:108D4000024B1A68024B1A60704700BF54E20320BE
:108D500088E6032010B40468246BA4465DF8044B35
:108D6000604703689B6C1847808E7047028FC08EE7
:108D7000101A704707B503688DF80710DB680122E9
:108D80000DF10701984703B05DF804FB10B50368C7
:108D90001B690446984728B1E38EE26B591CE186B3
:108DA000D05C10BD4FF0FF30FBE710B503681B69C6
:108DB0000446984718B1E38EE26BD05C10BD4FF0CB
:108DC000FF30FBE7704710B403460846DC6BD98ED2
:108DD0001A8F0368521ADB6821445DF8044B184768
:108DE000A0F11000FFF7EFBF70B503688CB05B6AAD
:108DF00004460E461546984701231C22002105A86B
:108E0000029301F0A1FD40F61C233046ADF814306A
:108E1000FEF748F81122ADF8160002210A20FEF7ED
:108E200099F80028606125DB0422009202AB40F62D
:108E3000FF71FEF757F8E8B995B10390ADF810004F
:108E400003A9E8B2FEF70EF8A0B906230093606903
:108E500003AB41F20B0240F6FF71FEF743F848B94D
:108E600060691C2205A9FEF735F818B96564012070
:108E70000CB070BD236820465B6A98470020F7E776
:108E800010B504464069002801DBFEF733F84FF0C7
:108E9000FF3363610023E386238710BD70B5054669
:108EA000C06BEE8E68B12B6C9C1B944228BF14469D
:108EB0002246304401F020FDEB8E2344EB86204611
:108EC00070BD0446F1E7D0B503681B6904460F4640
:108ED0001646984790B1236820461B699847E38E51
:108EE000E16B8642A8BF064619443246384601F077
:108EF00003FDE38E3344E3863046D0BD4FF0FF36AA
:108F0000FAE7000070B50446054B44F8043B01F154
:108F1000200506460FCD0FC42B682370304670BD68
:108F200068D10D00F0B59646026889B0976A0A4A82
:108F300002921C1D8C4606460FCC03AD0FC523685C
:108F40002B70BDF838300093724602AB6146304654
:108F5000B84709B0F0BD00BF68D10D00F0B5036897
:108F600089B09F6A0C4B029300F1200604460FCE95
:108F700003AD0FC533682B70A38EE28EE16B0093B7
:108F8000204602ABB84723680546DB692046984770
:108F9000284609B0F0BD00BF68D10D0038B50546C0
:108FA00014462B7D062B084610D140F61C23138057
:108FB000FDF778FF08342B1D24F8060C143553F800
:108FC000042B44F8042BAB42F9D138BD042BFCD15F
:108FD0004FF404731380FDF765FF60806868FDF748
:108FE00051FF6060F1E72DE9F0438BB003AF4FF024
:108FF0001C09984604460D46164600214A46384646
:1090000001F0A2FCBDF848103A464046FFF7C6FF03
:109010009DF80D3053B1CDE90079606900233246E7
:109020002946FDF78FFF0BB0BDE8F0834FF0FF300E
:10903000F9E7000038B500254FF47A73C0E9015311
:109040000B4B03F108026C3303614FF0FF3304460E
:10905000026043611C30FEF745FD4FF40073C4E924
:109060001035E5862587E56384F84850204638BDED
:1090700078D20D0010B590F84830044623B1C06B8B
:1090800010B1012100F0A9FB0023E36384F848300C
:109090002364E386238710BD70B5044616460D464B
:1090A000FFF7E8FF0023E66323642EB12564206CFC
:1090B000003818BF012070BD002DF8D02846FAF7FF
:1090C000ECFF0123E06384F848300028EFD0EDE79F
:1090D000F8B51746C26B05460C461AB9016C09B1C2
:1090E000FFF7DAFF04340FCC05F120060FC6236822
:1090F00033700023286CAF86EB862B87F8BD37B51D
:10910000C26B04460B462AB9016C19B10193FFF7F3
:10911000C3FF019BE16B0022E286228741B1226CF2
:1091200032B12068056B2046A8470028C8BF2087B9
:1091300023681B69204603B0BDE830401847F0B5EE
:109140004378022B8DB005460C46174604D1011D0D
:109150002046FFF767FD22E00A2B25D111220021CE
:1091600001A801F0F1FBAB6803B305F1080301AE00
:1091700005F1180C18685968324603C20833634574
:109180001646F7D1062301A906A807AE8DF81430BC
:10919000FEF7B6FC0FCE04340FC4336823701FB142
:1091A0006888FDF777FE38800DB0F0BDEB68002BC6
:1091B000DBD14FF6FF702E69FDF764FE8642D4D1F5
:1091C00005F11401C4E700002DE9F04117468EB007
:1091D0000022064601AB084611460192FDF772FED9
:1091E000041E20DB019B2BB35B691BB302A8FEF7B7
:1091F00079FC019B0022586902A9FFF7A0FF02A891
:10920000FEF790FCB0B1336803ADD3F838800B4B58
:1092100008930FCD09AC0FC42B6823703A4608A9F8
:109220003046C04704460198FDF744FE20460EB084
:10923000BDE8F0814FF0FF34F5E700BF68D10D00C5
:109240002DE9F047D0F81490B9F1000F90B0054621
:109250000E4690461C463CDB00293AD04FF01C0AD3
:1092600009AF52460021384601F06EFBCDF80CA044
:10927000DCB100224FF47A70B4FBF0F3CDE9043294
:1092800000FB13435843102307920690009341F2CA
:1092900006026B4440F6FF714846FDF723FE044684
:1092A00020B1204610B0BDE8F087082403ABCDE91B
:1092B00000736869234642463146FDF733FE041EBB
:1092C000EFDB05F1340205F11C013846FFF737FFEB
:1092D000E7E74FF0FF34E4E770474174704708B5A3
:1092E000007CFDF787FE20EAE07008BD08B5007C31
:1092F000FDF758FE20EAE07008BD08B5007CFDF7D8
:1093000061FE40EAE07008BD08B5007CFDF752FE42
:1093100040EAE07008BD007CFDF75CBE37B5457CD7
:1093200004462DB1207C03B0BDE83040FDF732BECD
:10933000007C0191FDF75EFE00280199F2DC2846D1
:1093400003B030BD10B51421044600F046FA2046A3
:1093500010BD000010B54FF0000C04460846114641
:109360004FF47A72C4E901C2044A226001222074D7
:1093700062741A46FDF706FE204610BDF0D20D00BD
:1093800013B50E4C2178BFF35B8F11F0010112D1A0
:1093900020460191FAF787FE019960B1084A094B0E
:1093A0000948FFF7D7FF2046FAF782FE074A084927
:1093B000054800F00DFA044802B010BD8CE6032009
:1093C00090E6032014E7032098E7032030E403200D
:1093D000D9920D0041747047704708B50021007C98
:1093E000FDF730FE40EAE07008BD08B50121007CC1
:1093F000FDF728FE40EAE07008BD08B5007CFDF7E7
:1094000019FE20EAE07008BD08B5007CFDF70AFEF1
:1094100020EAE07008BD13B50446007C0191FDF719
:1094200009FE0028019901DC607C20B1207CFDF759
:1094300011FE20EAE07002B010BD007CFDF712BE04
:1094400010B51421044600F0C8F9204610BD0000F4
:1094500010B54FF47A73044608460021C4E901139D
:10946000044B23600123207463741146FDF7CAFD89
:10947000204610BD20D30D00007C0022FDF7CABDA0
:1094800010B514220446002101F05EFA204610BDFA
:1094900010B5104C88B003A8FFF7F2FF2178BFF396
:1094A0005B8F11F0010111D120460191FAF7FBFD0C
:1094B000019958B103AA0848FFF7CAFF2046FAF7F6
:1094C000F7FD064A0649044800F082F9024808B050
:1094D00010BD00BFACE70320B0E7032030E4032059
:1094E000D9930D0010B5044601F0A7FA01382318EE
:1094F0002046834206D90278197800F8011B03F848
:109500000129F6E710BD70B50C46911E22290546CB
:1095100022D820466DB1B5FBF2F602FB1655E9B232
:10952000092D94BF30315731C9B200F8011B3546BF
:10953000F0E7024623443021934202D902F8011B8E
:10954000FAE71A1A834238BF0022002383542046C8
:10955000FFF7C8FF204670BD0020FCE7014B1860F4
:10956000704700BF58E2032008B50B4B43B1FFF72B
:109570008FFF03681B699847002801DDAFF3008067
:10958000064B43B1FFF7FCFE03681B6998470028B0
:1095900001DDAFF3008008BD000000000000000006
:1095A00008B5FFF7E1FFFDF7D5FB014B186008BDDB
:1095B000D8E703200248034A0349121A01F09CB974
:1095C00000F4032004F40320F8D60D0007B50023AF
:1095D00000931A466FF07701FDF79EFD03B05DF82A
:1095E00004FB000007B543880A2B08D0502B0BD191
:1095F000094B1B684BB103B05DF804EB1847FFF74C
:10960000E5FF03B05DF804FB002300931A466FF0FA
:109610007701FDF781FDF4E7C8E7032038B5124C68
:109620001248134D0021FDF759FE2368AB42114B40
:109630000CBF012200221A7002D0FFF7BBFF256089
:10964000FDF778FB044601F097F90B4B13B1204668
:10965000AFF3008000210848FDF790FDBDE83840D9
:1096600006480021FDF74EBD00F403205D950D0076
:109670001E1C279AC4E7032000000000E5950D009A
:10968000232813B502D9002002B010BDA0F10B03AE
:10969000022B1AD8174C2178BFF35B8F11F0010110
:1096A0000BD120460191FAF7FEFC019928B112482E
:1096B000FEF70EFF2046FAF7FBFC0F4B1878FDF77C
:1096C00059FC0028DFD10120DEE7012809D800F08D
:1096D00057F80021007CFDF7B5FB80F00100C0B217
:1096E000D2E709380128EED8FFF74AFE007CFDF7E3
:1096F00079FCF2E7CCE70320D0E70320232838B534
:1097000004460D460AD8FF2908D0FFF7B9FF28B153
:1097100029462046BDE83840FDF72CBB38BD38B59A
:1097200004460D46FDF72EFBFF2810D0062804D86E
:109730004D2323FA00F0C30709D42046FFF7A0FF0A
:1097400028B129462046BDE83840FDF723BB38BD87
:1097500038B5002320254380142304460380856008
:1097600005610649284600F03CF804496060284637
:1097700000F037F8E060204638BD00BF48D30D0048
:1097800030B50F4D2978BFF35B8F11F0010487B01E
:1097900013D12846FAF787FC78B101A8FFF7D8FF64
:1097A00001AA21460748FEF739F92846FAF780FC56
:1097B000054A0649034800F00BF8024807B030BDDF
:1097C000DCE70320E0E7032030E40320C5790D0047
:1097D0000B460146184601F081B8FAF760BCFAF76B
:1097E0005ABCFAF75ABCC3689A68C26010B502B195
:1097F000506042685A600C68844203D10B609860E4
:10980000436010BD916881420CBF9360D360F6E75E
:109810008368DA68826010B502B1506042685A60AD
:109820000C68844203D10B60D860436010BDD168DE
:1098300081420CBFD3609360F6E7037833B9436885
:109840005B68834202D1DB6818467047826822B1A8
:109850001346D268002AFBD1F6E743689A68824231
:10986000F2D118465B68F9E7C36823B118469B68D4
:10987000002BFBD170474368DA68824202D1184658
:109880005B68F9E7C268934218BF18467047FFF754
:10989000D4BF2DE9F8431E4603F104080023C1E9B3
:1098A00002330C464A600B7000B39642916018D1A7
:1098B0007160F46001274FF000097368A3423FD044
:1098C00060680278002A3CD14568AB68984223D191
:1098D000EB6883B11A7872B907701F702A702C4632
:1098E000EBE7B3689342E5D1B160E3E7D160F36899
:1098F0009342DFD1DDE7C368A34203D14146FFF7BE
:1099000072FF0446636841461F70284685F8009040
:10991000FFF77EFF2546E2E713B11A78002ADBD075
:109920008368A34203D14146FFF772FF0446636890
:1099300041461F70284685F80090FFF754FFE9E77D
:10994000234601221A70BDE8F88308B5FDF7AEFC86
:10995000014900F0F9B800BF64D30D007FB50024C1
:109960001023CDE90234036800949E698DF8044009
:1099700015466B461268B0479DF8043003F00603A5
:10998000062B03BF009B2B600120204604B070BD56
:109990000098904214BF01200620704710B5034B79
:1099A0000360044600F0CDF8204610BDA4D30D009E
:1099B00010B50446FFF7F2FF20460821FFF70DFF20
:1099C000204610BD2DE9F0411F46DDE90834DDF8E1
:1099D000188098450646154607D1079900F0B4F857
:1099E00018B165710020BDE8F0813946304600F0BD
:1099F000ABF80028F6D00123C4F800802571A371CC
:109A0000F0E738B515461C4600F09EF820B1082353
:109A1000E36006232560237138BD73B505460C4607
:109A200001921E4600F090F850B9032E08D8236822
:109A3000019A5B692946204602B0BDE8704018478C
:109A400002B070BD10B5034B03600446FFF7A6FFDC
:109A5000204610BD04D40D0010B50446FFF7F2FFF8
:109A600020460C21FFF7B9FE204610BDF7B5089F30
:109A7000974205460E4614460AD0A8680268089721
:109A8000156A31462246AC4603B0BDE8F040604757
:109A90001946019300F058F8019B0028EDD00620EC
:109AA00003B0F0BD2DE9F14F0D461946DDE90A4B33
:109AB000DDE90CA681461746984600F045F890B1BE
:109AC000002D3460377109DB61198A450CBF06210E
:109AD0000121B171002001B0BDE8F08F0235F9D14C
