:02000004080AE8
:1000000000000A08F4250A080000060006000501A1
:080010000402350800000000A5
:04001800B4230A08FB
:10001C0009480A4908B5884205D0094A824202D0EB
:10002C00121A02F07FF90748074A0021121A02F04F
:10003C0087F9064808BD00BF0000002064250A08A7
:10004C00680000206800002060050020600500208A
:10005C0070B501F017F90025054E064CA41BA40839
:10006C00A54200D170BD56F8043B98470135F7E71F
:10007C003C250A085C250A0800F014B808B500F005
:10008C0027F8BDE8084001F0BFB800F017BC00F03D
:10009C001DBC0078B0FA80F0400970470123037052
:1000AC007047000008B500F0B3FF4FF4165100F094
:1000BC0095FF00F0ADFF044900F075FDBDE8084068
:1000CC00024800F05DB800BFC8230A086C0000208D
:1000DC0070B54FF4FA6000F009FC1E4800F04EFABF
:1000EC0004461C4800F00EFA06461A4800F00CFABA
:1000FC0021460546204602F0CBF848B93146304639
:10010C0002F0C6F820B92946284602F0C1F830B1F1
:10011C0000F07EFFBDE870400F4900F044BD00F0D8
:10012C0077FF0546204602F0C9F860B92B682021FC
:10013C0028469B68984700F06BFF2146BDE870404D
:10014C00022200F017BEC2B20449284600F035FD69
:10015C00F1E700BF6C000020D3230A08203A646941
:10016C0006230B220A21014800F002B86C00002083
:10017C000372012310B58171C271037410BD0000AC
:10018C002DE9F04105461A4C0021807901F0FAF86E
:10019C00AE792378174F13F0010FBFF35B8F09D1A2
:1001AC002046FFF776FF28B100F012FA386020469F
:1001BC00FFF774FF1C235E433B6803EB06082378B0
:1001CC00BFF35B8FDB0709D40948FFF762FF28B147
:1001DC0000F0FEF938600648FFF760FF3B68B8F89E
:1001EC0004209B591A830023EB60BDE8F08100BF0B
:1001FC0080000020840000202DE9F74F044600F019
:10020C00DFF9E368834284BF0023E360237C2BB9CE
:10021C00E368C01AB0F5FA6FC0F03E810025257472
:10022C0000F0CEF99E4E25602571E060A7793378F9
:10023C009C4D13F0010FBFF35B8F09D13046FFF7D4
:10024C0028FF28B100F0C4F928603046FFF726FFDC
:10025C001C235F432B6803EB07083378BFF35B8FDA
:10026C00D90709D48E48FFF714FF28B100F0B0F974
:10027C0028608B48FFF712FF2B68B8F80420DB5975
:10028C00FA201A8300F032FB0121A07901F07AF8F0
:10029C00A7793378BFF35B8FDA0709D48048FFF76F
:1002AC00F8FE28B100F094F928607D48FFF7F6FEBF
:1002BC001C235F432B6803EB07083378BFF35B8F7A
:1002CC00DB0709D47648FFF7E4FE28B100F080F98B
:1002DC0028607348FFF7E2FE2B68B8F80420DB595E
:1002EC0014205A8300F002FB00F04AFBA779337804
:1002FC00BFF35B8FD80709D46948FFF7CAFE28B152
:10030C0000F066F928606648FFF7C8FE1C235F43BF
:10031C002B6803EB07083378BFF35B8FD90709D43D
:10032C005F48FFF7B6FE28B100F052F928605C4830
:10033C00FFF7B4FE2B68B8F80420DB5900271A83AA
:10034C00282000F035F90021A07901F01BF80123D9
:10035C00BA46DFF84C8100934FF0000994F806B0D0
:10036C003378BFF35B8FDA0709D44046FFF791FE71
:10037C0028B100F02DF928604046FFF78FFE1C23B2
:10038C0003FB0BFB2B6853F80B301B690193337881
:10039C00BFF35B8FDB0709D44046FFF77AFE28B129
:1003AC0000F016F928604046FFF778FE2B68019A9A
:1003BC005B449B88134214BF01230023009A934291
:1003CC0009D109F1010901205FFA89F900F0F0F86F
:1003DC00B9F1FF0FC2D194F806B03378BFF35B8F3D
:1003EC00D80709D44046FFF754FE28B100F0F0F8C6
:1003FC0028604046FFF752FE1C2303FB0BFB2B68C7
:10040C0053F80B301B6900933378BFF35B8FD9071C
:10041C0009D44046FFF73DFE28B100F0D9F828601A
:10042C004046FFF73BFE2B68009A5B449B881342C7
:10043C0014BF01230023B9F1FF0F009318D0032F31
:10044C0011D9FA070FD44FEADA02A35C0AF1010AB8
:10045C005B00DBB2A354217A5FFA8AFA49453CBFB0
:10046C0043F00103A3540137FFB2552F7FF474AF4F
:10047C0000F088FABAF1270F10D963782078184465
:10048C00A3781844E37818442379C0B2C31A5842AD
:10049C00584103B0BDE8F08F0120FAE70020F8E7DF
:1004AC00800000208400002070B50446FFF7A4FEF5
:1004BC0008B3E3790B2B1AD0153B012B1BD8A6786C
:1004CC0006F07F0001F040FD4FF0874101F090FDF8
:1004DC000546E07801F038FD294601F081FC07491A
:1004EC0001F03AFE330605D500F1004002E0A07899
:1004FC0001F026FD70BD0248FCE700BF0000204162
:10050C000000C07FFFF7D0BF08B5FFF7CDFF05494E
:10051C0001F06EFD044901F01FFE4FF0844101F023
:10052C005FFC08BD000010410000A04038B5044637
:10053C00FFF762FED8B1E3790B2B14D0153B012BDE
:10054C0015D8207801F0FCFC4FF0874101F050FDEC
:10055C000546607801F0F8FC294601F041FC05499C
:10056C0001F0FAFD38BD207801F0EAFCFAE7024808
:10057C00F8E700BF000020410000C07FFFF7D6BFA6
:10058C0008B5024B1B685B6C019308BDD0010608D3
:10059C0008B5024B1B689B6C019308BDD001060883
:1005AC0008B5024B1B685B68019308BD9C010608EB
:1005BC0008B5024B1B68DB68019308BD9C0106085B
:1005CC0008B5024B1B685B69019308BD9C010608CA
:1005DC0008B5024B1B681B68019308BDB0010608E7
:1005EC0008B5024B1B689B68019308BDB001060857
:1005FC0008B5024B1B681B6A019308BDB0010608C5
:10060C0008B5024B1B685B6A019308BDB001060874
:10061C0008B5024B1B681B6E019308BDAC010608A4
:10062C0008B5024B1B685B6E019308BDAC01060854
:10063C0008B5024B1B689B6E019308BDAC01060804
:10064C0008B5024B1B68DB6E019308BDAC010608B4
:10065C0008B5024B1B681B6F019308BDAC01060863
:10066C0008B5024B1B685B6F019308BDAC01060813
:10067C0008B5034B1B68D3F88030019308BD00000C
:10068C00AC01060808B5024B1B68DB69019308BD79
:10069C00B401060808B5024B1B681B6A019308BD20
:1006AC00B401060808B5024B1B689B69019308BD91
:1006BC00C401060808B5024B1B685B6A019308BDB0
:1006CC00C401060808B5024B1B689B6A019308BD60
:1006DC00C401060808B5024B1B68DB6A019308BD10
:1006EC00C401060808B5024B1B681B6B019308BDBF
:1006FC00C401060808B5024B1B685B6B019308BD6F
:10070C00C401060808B5024B1B689B6B019308BD1E
:10071C00C401060808B5024B1B681B6C019308BD8D
:10072C00C401060808B5024B1B681B68019308BD81
:10073C00D801060808B5024B1B685B68019308BD1D
:10074C00D801060808B5024B1B681B69019308BD4C
:10075C00D801060808B5024B1B685B69019308BDFC
:10076C00D801060808B5024B1B689B69019308BDAC
:10077C00D801060808B5024B1B68DB69019308BD5C
:10078C00D801060808B5024B1B681B6A019308BD0B
:10079C00D801060808B5024B1B689B6C019308BD79
:1007AC00C001060808B5024B1B685B68019308BDC5
:1007BC00A401060808B5024B1B685B69019308BDD0
:1007CC00A401060808B5034B1B68D3F890300193BD
:1007DC0008BD0000A401060808B5034B1B68D3F83C
:1007EC009C30019308BD0000A401060808B5024B1B
:1007FC001B68DB6B019308BDCC01060808B5024BE6
:10080C001B685B68019308BDC801060808B5024B5C
:10081C001B689B68019308BDC801060808B5024B0C
:10082C001B68DB68019308BDC801060808B5024BBC
:10083C001B681B69019308BDC801060808B5024B6B
:10084C001B685B69019308BDC801060808B5024B1B
:10085C001B689B69019308BDC801060808B5024BCB
:10086C001B68DB69019308BDC801060808B5024B7B
:10087C001B681B6A019308BDC801060808B5024B2A
:10088C001B681B6B019308BDC801060808B5024B19
:10089C001B685B6B019308BDC801060808B5024BC9
:1008AC001B681B6C019308BDC801060808B5024BF8
:1008BC001B685B6C019308BDC801060808B5024BA8
:1008CC001B681B68019308BDA001060808B5024B04
:1008DC001B685B68019308BDA001060808B5024BB4
:1008EC001B685B6C019308BDA00106080021FFF793
:1008FC0061BF10B58368044613B1032201469847C3
:10090C00204610BD7047F8B5064615460C468F18A4
:10091C00BC4206D0336830469B6814F8011B9847DC
:10092C00F6E72846F8BD0022007CFFF771BE0021D7
:10093C00007CFFF775BE0021007CFFF779BE00211B
:10094C00007CFFF77DBE0021007CFFF781BE10B557
:10095C000446142100F085FD204610BD10B54FF45F
:10096C007A73044608460021C4E90113034B11466F
:10097C0023602074FFF77CFE204610BDFC230A0880
:10098C00FFF73EBEFFF734BE704710B50446182182
:10099C0000F067FD204610BDF8B50E46002400F1AE
:1009AC000807051D17F8011D0A22304600F005F94D
:1009BC00AF42044401D12046F8BD002CF2D02E21C8
:1009CC00304600F0E1F80444ECE7000010B50446B2
:1009DC00044B1122002140F8043B01F0B1FC2046ED
:1009EC0010BD00BF24240A080346074A10B543F87B
:1009FC00042B01F1100251F8044B914243F8044BC3
:100A0C00F9D10A781A7010BD24240A08024AC0E9E8
:100A1C00002104220275704724240A0810B59DF8A1
:100A2C00084044EA0324042344EA024444EA0164EF
:100A3C004460037510BD000037B5044D05609DF88A
:100A4C0018500095FFF7EAFF03B030BD24240A08C4
:100A5C00014B024A1A6070478800002030240A08B3
:100A6C00002340681A46FFF7C9BE002202214068E5
:100A7C00FFF7D4BE002240681146FFF7C7BE002224
:100A8C0040681146FFF7D2BE002340681A4619464B
:100A9C00FFF7D4BE002340681A461946FFF7D6BEAE
:100AAC0000214068FFF7FABE00214068FFF7FEBE48
:100ABC000022406881F00101FFF7D0BE002240689F
:100ACC00FFF7DCBE002240681146FFF7DFBE0022B4
:100ADC0040681146FFF7CABE70B515468EB0044685
:100AEC0008A8FFF773FF1122002103A801F028FCCE
:100AFC000026284601F050FC0A4B009681B25B6838
:100B0C00284603AAFFF746FE30B131462046FFF7D0
:100B1C007DFF20460EB070BD204603A9FFF764FF91
:100B2C00F7E700BF0C050020024B034A1A600022B5
:100B3C005A6070478C0000203C240A08F8B5064621
:100B4C000D4600248F18BD420CD0336830469B688C
:100B5C0015F8011B9847031E01DB1C44F3E7002C1E
:100B6C0008BF1C462046F8BD70B505460C46084625
:100B7C0049B101F011FC2B68024621462846BDE81C
:100B8C007040DB68184770BD03689B68184738B520
:100B9C000D210546FFF7F8FF0A2104462846FFF70A
:100BAC00F3FF204438BD38B50546FFF7DDFF04469A
:100BBC002846FFF7ECFF204438BD0023012A98BFDC
:100BCC000A2230B58BB00C468DF8243009A9254685
:100BDC00B4FBF2F404FB1253DBB2092B94BF303399
:100BEC003733DBB2AA4201F8013DF0D9FFF7BCFF65
:100BFC000BB030BD2DE9F74F05461946104692460D
:100C0C001F469DF8306001F087F840B150492846E6
:100C1C00FFF7AAFF0446204603B0BDE8F08F27F08B
:100C2C0000444FF0FF32504621464A4B01F074F815
:100C3C0048B94FF0FF3250462146464B01F04EF872
:100C4C0008B94549E3E74FF0604250463946434BFB
:100C5C0001F058F808B14249D9E74FF060425046CC
:100C6C003946404B01F030F80028F4D10022002323
:100C7C005046394601F028F8044630B12D2128465B
:100C8C00FFF782FF044607F100474FF0000B0020EE
:100C9C004FF000083449DFF8D8905FFA8BF39E428E
:100CAC0006D942464B4600F0C7FE0BF1010BF4E7A8
:100CBC003B46524600F0E0FB8946804601F06AF85C
:100CCC00074600F015FD02460B464046494600F02B
:100CDC00D1FB0A228046894628463946FFF76DFF2C
:100CEC00044426B128462149FFF73EFF04444FF047
:100CFC00000ADFF87CB0013EF6B2FF2E8BD05246D4
:100D0C005B464046494600F06DFD8046894601F041
:100D1C0019F8071E19DA2D212846FFF735FF03466F
:100D2C0079420A2228460193FFF747FF019B0344AF
:100D3C0038461C4400F0ECFC02460B464046494643
:100D4C0000F098FB80468946D5E739460023E8E752
:100D5C0070240A08FFFFEF7F74240A08FFFFEF419D
:100D6C0078240A08FFFFEFC10000E03F7C240A084A
:100D7C000000244037B505461446084600F0DAFC5E
:100D8C00E4B202460B4628460094FFF733FF03B04B
:100D9C0030BD10B50446FFF7ACFD204610BD000079
:100DAC0000230348034A0449836000F055BB00BF8D
:100DBC0094000020680000209F0D0A0870B50026E2
:100DCC0004460D4640F8086FFFF7DAFB28462570FD
:100DDC00FFF758FC2046666070BD10B504460068ED
:100DEC0018B1FFF773FD0023236010BD10B5044646
:100DFC00FFF7F3FF204610BD0222002010B5084B70
:100E0C00084C1A60084B2060A080A071A360FFF70B
:100E1C00C9FC2046BDE81040044A054900F01CBB43
:100E2C00B0000020A40000200000FFFF680000209C
:100E3C00F90D0A08024B1A68024B1A60704700BF82
:100E4C0000000020B400002070474174704708B5C2
:100E5C00007CFFF75FFC20EAE07008BD08B5007C61
:100E6C00FFF730FC20EAE07008BD08B5007CFFF706
:100E7C0039FC40EAE07008BD08B5007CFFF72AFC9D
:100E8C0040EAE07008BD007CFFF734BC70B5467CCE
:100E9C0004460D462EB12946207CBDE87040FFF774
:100EAC0009BC007CFFF736FC0028F4DC304670BD32
:100EBC0010B50446142100F0D4FA204610BD0000F1
:100ECC004FF0000C10B50446084611464FF47A72E8
:100EDC00C4E901C2044A20742260012262741A46D9
:100EEC00FFF7E0FB204610BDA4240A0838B50D4DD1
:100EFC002978BFF35B8F11F0010411D12846FFF75D
:100F0C00C8F868B12146084A084B0948FFF7D8FFD2
:100F1C002846FFF7C3F8074A0749054800F09CFA32
:100F2C00034838BDB8000020BC0000204001002060
:100F3C00C401002068000020550E0A084174704757
:100F4C00704708B50021007CFFF70CFC40EAE0700C
:100F5C0008BD08B50121007CFFF704FC40EAE070F5
:100F6C0008BD08B5007CFFF7F5FB20EAE07008BD72
:100F7C0008B5007CFFF7E6FB20EAE07008BD38B549
:100F8C000446007C0D46FFF7E5FB002801DC607C85
:100F9C0028B12946207CFFF7EDFB20EAE07038BD34
:100FAC00007CFFF7EFBB10B50446142100F059FA92
:100FBC00204610BD10B54FF47A7304460846002144
:100FCC00C4E90113044B207423600123114663749C
:100FDC00FFF7A8FB204610BDD4240A080022007C91
:100FEC00FFF7A8BB10B504461422002101F0A8F9A4
:100FFC00054B20466360054BE36040F201132381EF
:10100C008123238210BD00BF0802002009030020A9
:10101C0030B50F4D87B001A8FFF7E4FF2978BFF377
:10102C005B8F11F0010410D12846FFF732F860B144
:10103C00214601AA0748FFF7BDFF2846FFF72EF807
:10104C00054A0649034800F007FA024807B030BDCC
:10105C00D8010020E0010020680000204D0F0A0894
:10106C0010B504461422002101F06AF9054B204604
:10107C006360054BE36040F20113238181232382DB
:10108C0010BD00BF8A0300208B04002010B50F4C4C
:10109C0086B001A8FFF7E4FF2378BFF35B8FDB0773
:1010AC0010D42046FEF7F5FF60B1012101AA0848D3
:1010BC00FFF780FF2046FEF7F1FF064A0649044879
:1010CC0000F0CAF9024806B010BD00BFDC010020D8
:1010DC00F4010020680000204D0F0A08002240682F
:1010EC001146FFF7A3BBF0B5154689B011220E4689
:1010FC000446002103A801F023F9284601F04CF91D
:10110C00002781B273682846009703AAFFF742FBB9
:10111C0030B139462046FFF779FC204609B0F0BDC6
:10112C00204603A9FFF760FCF7E700224068114650
:10113C00FFF79CBB002240681146FFF7A7BB0022BB
:10114C004068FFF79BBB0022406881F00101FFF76C
:10115C0085BB002340681A461946FFF777BB00236E
:10116C0040681A461946FFF769BB002240681146D1
:10117C00FFF74CBB002202214068FFF74FBB002356
:10118C0040681A46FFF73ABB0422024B5A60024AE7
:10119C001A6070470C05002004250A08014B1860E2
:1011AC00704700BF0400002008B5134B43B1FFF794
:1011BC002FFF03681B699847002801DDAFF30080FF
:1011CC000E4B43B1FFF792FE03681B69984700284A
:1011DC0001DDAFF300800A4B0BB1AFF30080094B7C
:1011EC0043B1FFF753FF03681B699847002801DDE3
:1011FC00AFF3008008BD00BF00000000000000003D
:10120C00000000000000000008B5FFF7CDFFFFF75D
:10121C00D7F9014B186008BD2C0500200248034A81
:10122C000349121A01F07EB800400240044002400B
:10123C0060250A08002307B51A466FF07701009362
:10124C00FFF7CAFA03B05DF804FB000007B543884A
:10125C000A2B08D0502B0BD1094B1B684BB103B098
:10126C005DF804EB1847FFF7E5FF03B05DF804FBEE
:10127C0000231A466FF077010093FFF7ADFAF4E7FD
:10128C001805002038B5124C00211248FFF726FB38
:10129C00114D2368AB420CBF012200220F4B1A7078
:1012AC0002D0FFF7BBFF2560FFF77AF9044601F087
:1012BC004FF80B4B13B12046AFF3008000210848C8
:1012CC00FFF794FABDE8384000210648FFF77ABAD8
:1012DC0000400240A9110A081E1C279A1405002080
:1012EC000000000059120A0810B50446806808B1C5
:1012FC00FFF74EF9204610BD172870B5044601D9EA
:10130C00002070BDA0F10D03022B0BD9012826D8AB
:10131C0000F062F80021007CFFF7A2F980F00100D8
:10132C00C0B2EEE7134E3178BFF35B8F11F00105BD
:10133C000FD13046FEF7ADFE58B129460E48FFF7E7
:10134C003DFD3046FEF7AAFE0C4A0D490A4800F056
:10135C0083F8094B1878FFF79DF90028D0D1123C7F
:10136C00012C05D8FFF7C2FD007CFFF7CBF9D5E7C0
:10137C000120C6E71C050020200500206800002085
:10138C00F5120A08172838B504460D460AD8FF2965
:10139C0008D0FFF7B1FF28B129462046BDE83840F8
:1013AC00FFF71EB938BD0000002370B5202543801F
:1013BC001423084E04460380314685600561284697
:1013CC0000F051F831466060284600F04CF8E060BF
:1013DC00204670BD38250A0830B50F4D87B02978E6
:1013EC00BFF35B8F11F0010413D12846FEF751FEB9
:1013FC0078B101A8FFF7D8FF214601AA0748FFF7EB
:10140C00ADFA2846FEF74AFE054A0649034800F0A5
:10141C0023F8024807B030BD300500203405002009
:10142C006800002011090A08002313B5074C1A465E
:10143C00194620460093FFF7FFFA2046044A054957
:10144C0002B0BDE8104000F007B800BF480500200E
:10145C006800002095090A080B460146184600F062
:10146C0053BFFEF714BEFEF710BE000081F0004122
:10147C0002E000BF83F0004330B54FEA41044FEA6D
:10148C00430594EA050F08BF90EA020F1FBF54EA08
:10149C00000C55EA020C7FEA645C7FEA655C00F0A4
:1014AC00E2804FEA5454D4EB5555B8BF6D420CDD75
:1014BC002C4480EA020281EA030382EA000083EAF8
:1014CC00010180EA020281EA0303362D88BF30BD98
:1014DC0011F0004F4FEA01314FF4801C4CEA1131EE
:1014EC0002D0404261EB410113F0004F4FEA03334D
:1014FC004CEA133302D0524263EB430394EA050FD8
:10150C0000F0A780A4F10104D5F1200E0DDB02FA46
:10151C000EFC22FA05F2801841F1000103FA0EF2DA
:10152C00801843FA05F359410EE0A5F120050EF1A0
:10153C00200E012A03FA0EFC28BF4CF0020C43FAD1
:10154C0005F3C01851EBE37101F0004507D54FF0DE
:10155C00000EDCF1000C7EEB00006EEB0101B1F52E
:10156C00801F1BD3B1F5001F0CD349085FEA300074
:10157C004FEA3C0C04F101044FEA445212F5800F7F
:10158C0080F09A80BCF1004F08BF5FEA500C50F11C
:10159C00000041EB045141EA050130BD5FEA4C0CFF
:1015AC00404141EB0101013C28BFB1F5801FE9D25C
:1015BC0091F0000F04BF01460020B1FA81F308BF7F
:1015CC002033A3F10B03B3F120020CDA0C3208DD4B
:1015DC0002F1140CC2F10C0201FA0CF021FA02F126
:1015EC000CE002F11402D8BFC2F1200C01FA02F196
:1015FC0020FA0CFCDCBF41EA0C019040E41AA2BFBB
:10160C0001EB0451294330BD6FEA04041F3C1CDA82
:10161C000C340EDC04F11404C4F1200220FA04F0A2
:10162C0001FA02F340EA030021FA04F345EA03014C
:10163C0030BDC4F10C04C4F1200220FA02F001FA0E
:10164C0004F340EA0300294630BD21FA04F0294690
:10165C0030BD94F0000F83F4801306BF81F4801129
:10166C000134013D4EE77FEA645C18BF7FEA655C9C
:10167C0029D094EA050F08BF90EA020F05D054EA6E
:10168C00000C04BF1946104630BD91EA030F1EBF73
:10169C000021002030BD5FEA545C05D14000494177
:1016AC0028BF41F0004130BD14F580043CBF01F56A
:1016BC00801130BD01F0004545F0FE4141F4700150
:1016CC004FF0000030BD7FEA645C1ABF194610462B
:1016DC007FEA655C1CBF0B46024650EA013406BF2C
:1016EC0052EA033591EA030F41F4002130BD00BFEB
:1016FC0090F0000F04BF0021704730B54FF48064A8
:10170C0004F132044FF000054FF0000150E700BF28
:10171C0090F0000F04BF0021704730B54FF4806487
:10172C0004F1320410F0004548BF40424FF0000174
:10173C003EE700BF42004FEAE2014FEA31014FEAB7
:10174C0002701FBF12F07F4393F07F4F81F0605106
:10175C00704732F07F4208BF704793F07F4F04BF51
:10176C0041F40021704730B54FF4607401F000452E
:10177C0021F000411CE700BF50EA010208BF70478E
:10178C0030B54FF000050AE050EA010208BF70477F
:10179C0030B511F0004502D5404261EB41014FF4E8
:1017AC00806404F132045FEA915C3FF4D8AE4FF0F0
:1017BC0003025FEADC0C18BF03325FEADC0C18BFD3
:1017CC00033202EBDC02C2F1200300FA03FC20FA24
:1017DC0002F001FA03FE40EA0E0021FA02F1144471
:1017EC00BDE600BF70B54FF0FF0C4CF4E06C1CEA8A
:1017FC0011541DBF1CEA135594EA0C0F95EA0C0FFB
:10180C0000F0DEF82C4481EA030621EA4C5123EA6D
:10181C004C5350EA013518BF52EA033541F480119C
:10182C0043F4801338D0A0FB02CE4FF00005E1FB4F
:10183C0002E506F00042E0FB03E54FF00006E1FB99
:10184C0003569CF0000F18BF4EF0010EA4F1FF04DC
:10185C00B6F5007F64F5407404D25FEA4E0E6D411C
:10186C0046EB060642EAC62141EA55514FEAC5202D
:10187C0040EA5E504FEACE2EB4F1FD0C88BFBCF5A9
:10188C00E06F1ED8BEF1004F08BF5FEA500E50F15A
:10189C00000041EB045170BD06F0004646EA010120
:1018AC0040EA020081EA0301B4EB5C04C2BFD4EB52
:1018BC000C0541EA045170BD41F480114FF0000E4B
:1018CC00013C00F3AB8014F1360FDEBF002001F0B9
:1018DC00004170BDC4F10004203C35DA0C341BDC33
:1018EC0004F11404C4F1200500FA05F320FA04F005
:1018FC0001FA05F240EA020001F0004221F0004139
:10190C0010EBD37021FA04F642EB06015EEA430EAB
:10191C0008BF20EAD37070BDC4F10C04C4F12005DB
:10192C0000FA04F320FA05F001FA04F240EA02008E
:10193C0001F0004110EBD37041F100015EEA430E5F
:10194C0008BF20EAD37070BDC4F1200500FA05F27F
:10195C004EEA020E20FA04F301FA05F243EA0203FE
:10196C0021FA04F001F0004121FA04F220EA02000D
:10197C0000EBD3705EEA430E08BF20EAD37070BD53
:10198C0094F0000F0FD101F00046400041EB010133
:10199C0011F4801F08BF013CF7D041EA060195F015
:1019AC00000F18BF704703F00046520043EB0303CF
:1019BC0013F4801F08BF013DF7D043EA06037047BC
:1019CC0094EA0C0F0CEA135518BF95EA0C0F0CD0C7
:1019DC0050EA410618BF52EA4306D1D181EA03010D
:1019EC0001F000414FF0000070BD50EA410606BF07
:1019FC001046194652EA430619D094EA0C0F02D14C
:101A0C0050EA013613D195EA0C0F05D152EA033690
:101A1C001CBF104619460AD181EA030101F00041AE
:101A2C0041F0FE4141F470014FF0000070BD41F0F7
:101A3C00FE4141F4780170BD70B54FF0FF0C4CF4D1
:101A4C00E06C1CEA11541DBF1CEA135594EA0C0FF0
:101A5C0095EA0C0F00F0A7F8A4EB050481EA030E3D
:101A6C0052EA03354FEA013100F088804FEA033324
:101A7C004FF0805545EA131343EA12634FEA0222F2
:101A8C0045EA111545EA10654FEA00260EF00041B3
:101A9C009D4208BF964244F1FD0404F5407402D205
:101AAC005B084FEA3202B61A65EB03055B084FEA96
:101ABC0032024FF480104FF4002CB6EB020E75EB93
:101ACC00030E22BFB61A754640EA0C005B084FEABB
:101ADC003202B6EB020E75EB030E22BFB61A754638
:101AEC0040EA5C005B084FEA3202B6EB020E75EB83
:101AFC00030E22BFB61A754640EA9C005B084FEAFB
:101B0C003202B6EB020E75EB030E22BFB61A754607
:101B1C0040EADC0055EA060E18D04FEA051545EAF6
:101B2C0016754FEA06164FEAC30343EA52734FEA9F
:101B3C00C2025FEA1C1CC0D111F4801F0BD141EA18
:101B4C0000014FF000004FF0004CB6E711F4801F7D
:101B5C0004BF01430020B4F1FD0C88BFBCF5E06F5D
:101B6C003FF6AFAEB5EB030C04BFB6EB020C5FEA6D
:101B7C00500C50F1000041EB045170BD0EF0004EC2
:101B8C004EEA113114EB5C04C2BFD4EB0C0541EAF4
:101B9C00045170BD41F480114FF0000E013C90E6F1
:101BAC0045EA060E8DE60CEA135594EA0C0F08BFB5
:101BBC0095EA0C0F3FF43BAF94EA0C0F0AD150EAB4
:101BCC0001347FF434AF95EA0C0F7FF425AF104647
:101BDC0019462CE795EA0C0F06D152EA03353FF46F
:101BEC00FDAE1046194622E750EA410618BF52EAEC
:101BFC0043067FF4C5AE50EA41047FF40DAF52EAC0
:101C0C0043057FF4EBAE12E74FF0FF3C06E000BF5C
:101C1C004FF0010C02E000BF4FF0010C4DF804CD69
:101C2C004FEA410C7FEA6C5C4FEA430C18BF7FEA29
:101C3C006C5C1BD001B050EA410C0CBF52EA430C57
:101C4C0091EA030F02BF90EA020F0020704710F1D7
:101C5C00000F91EA030F58BF994208BF90422CBF66
:101C6C00D8176FEAE37040F0010070474FEA410C5F
:101C7C007FEA6C5C02D150EA013C07D14FEA430C7D
:101C8C007FEA6C5CD6D152EA033CD3D05DF8040BEE
:101C9C00704700BF8446104662468C461946634620
:101CAC0000E000BF01B5FFF7B7FF002848BF10F1F7
:101CBC00000F01BD4DF808EDFFF7F4FF0CBF01203C
:101CCC0000205DF808FB00BF4DF808EDFFF7EAFFB8
:101CDC0034BF012000205DF808FB00BF4DF808ED73
:101CEC00FFF7E0FF94BF012000205DF808FB00BF68
:101CFC004DF808EDFFF7CEFF94BF012000205DF8F2
:101D0C0008FB00BF4DF808EDFFF7C4FF34BF0120FE
:101D1C0000205DF808FB00BF4FEA410C7FEA6C5CC9
:101D2C0002D150EA013C0AD14FEA430C7FEA6C5CC9
:101D3C0002D152EA033C02D14FF0000070474FF041
:101D4C00010070474FEA410212F5001215D211D56D
:101D5C006FF47873B3EB625212D94FEAC12343F09C
:101D6C00004343EA505311F0004F23FA02F018BF1E
:101D7C00404270474FF00000704750EA013005D1E7
:101D8C0011F0004008BF6FF0004070474FF00000AA
:101D9C00704700BF4A0011D212F5001211D20DD5B6
:101DAC006FF47873B3EB62520ED44FEAC12343F055
:101DBC00004343EA505323FA02F070474FF00000FF
:101DCC00704750EA013002D14FF0FF3070474FF0AE
:101DDC000000704780F0004002E000BF81F000413D
:101DEC0042001FBF5FEA410392EA030F7FEA226CB5
:101DFC007FEA236C6AD04FEA1262D2EB1363C1BF45
:101E0C00D218414048404140B8BF5B42192B88BFB3
:101E1C00704710F0004F40F4000020F07F4018BFD6
:101E2C00404211F0004F41F4000121F07F4118BFF6
:101E3C00494292EA030F3FD0A2F1010241FA03FC9E
:101E4C0010EB0C00C3F1200301FA03F100F0004386
:101E5C0002D5494260EB4000B0F5000F13D3B0F14E
:101E6C00807F06D340084FEA310102F10102FE2ABD
:101E7C0051D2B1F1004F40EBC25008BF20F001002D
:101E8C0040EA03007047490040EB0000013A28BFCC
:101E9C00B0F5000FEDD2B0FA80FCACF1080CB2EB4F
:101EAC000C0200FA0CF0AABF00EBC25052421843CD
:101EBC00BCBFD0401843704792F0000F81F4000172
:101ECC0006BF80F400000132013BB5E74FEA410345
:101EDC007FEA226C18BF7FEA236C21D092EA030FB1
:101EEC0004D092F0000F08BF0846704790EA010F2B
:101EFC001CBF0020704712F07F4F04D1400028BF58
:101F0C0040F00040704712F100723CBF00F5000039
:101F1C00704700F0004343F0FE4040F4000070476F
:101F2C007FEA226216BF08467FEA2363014642021B
:101F3C0006BF5FEA412390EA010F40F4800070472E
:101F4C004FF0000304E000BF10F0004348BF4042D4
:101F5C005FEA000C08BF704743F0964301464FF010
:101F6C0000001CE050EA010208BF70474FF000036C
:101F7C000AE000BF50EA010208BF704711F00043AD
:101F8C0002D5404261EB41015FEA010C02BF84467D
:101F9C000146002043F0B64308BFA3F18053A3F5DC
:101FAC000003BCFA8CF2083AA3EBC25310DB01FA23
:101FBC0002FC634400FA02FCC2F12002BCF1004FA7
:101FCC0020FA02F243EB020008BF20F00100704738
:101FDC0002F1200201FA02FCC2F1200250EA4C008C
:101FEC0021FA02F243EB020008BF20EADC707047D2
:101FFC004FF0FF0C1CEAD0521EBF1CEAD15392EAE0
:10200C000C0F93EA0C0F6FD01A4480EA010C4002BB
:10201C0018BF5FEA41211ED04FF0006343EA501015
:10202C0043EA5111A0FB01310CF00040B1F5000F57
:10203C003EBF490041EAD3715B0040EA010062F106
:10204C007F02FD2A1DD8B3F1004F40EBC25008BFF0
:10205C0020F00100704790F0000F0CF0004C08BF0E
:10206C0049024CEA502040EA51207F3AC2BFD2F1DB
:10207C00FF0340EAC250704740F400004FF00003E9
:10208C00013A5DDC12F1190FDCBF00F00040704723
:10209C00C2F10002410021FA02F1C2F1200200FA61
:1020AC0002FC5FEA310040F1000053EA4C0308BF28
:1020BC0020EADC70704792F0000F00F0004C02BF79
:1020CC00400010F4000F013AF9D040EA0C0093F0F4
:1020DC00000F01F0004C02BF490011F4000F013B4E
:1020EC00F9D041EA0C018FE70CEAD15392EA0C0FBC
:1020FC0018BF93EA0C0F0AD030F0004C18BF31F027
:10210C00004CD8D180EA010000F00040704790F0FC
:10211C00000F17BF90F0004F084691F0000F91F0A0
:10212C00004F14D092EA0C0F01D142020FD193EA66
:10213C000C0F03D14B0218BF084608D180EA0100EE
:10214C0000F0004040F0FE4040F40000704740F0CA
:10215C00FE4040F4400070474FF0FF0C1CEAD05298
:10216C001EBF1CEAD15392EA0C0F93EA0C0F69D0F4
:10217C00A2EB030280EA010C49024FEA402037D05F
:10218C004FF0805343EA111143EA10130CF0004056
:10219C008B4238BF5B0042F17D024FF4000C8B4246
:1021AC0024BF5B1A40EA0C00B3EB510F24BFA3EB26
:1021BC00510340EA5C00B3EB910F24BFA3EB9103F6
:1021CC0040EA9C00B3EBD10F24BFA3EBD10340EA50
:1021DC00DC001B0118BF5FEA1C1CE0D1FD2A3FF696
:1021EC0050AF8B4240EBC25008BF20F0010070474B
:1021FC000CF0004C4CEA50207F32C2BFD2F1FF03EE
:10220C0040EAC250704740F400004FF00003013A1E
:10221C0037E792F0000F00F0004C02BF400010F4C2
:10222C00000F013AF9D040EA0C0093F0000F01F0D6
:10223C00004C02BF490011F4000F013BF9D041EAF8
:10224C000C0195E70CEAD15392EA0C0F08D142022B
:10225C007FF47DAF93EA0C0F7FF470AF084676E7FE
:10226C0093EA0C0F04D14B023FF44CAF08466EE7D7
:10227C0030F0004C18BF31F0004CCAD130F00042A5
:10228C007FF45CAF31F000437FF43CAF5FE700BFFD
:10229C004FEA40024FEA41037FEA226C02D15FEA27
:1022AC00402C08D17FEA236C02D15FEA412C02D189
:1022BC004FF0000070474FF0010070474FEA4002AA
:1022CC00B2F1FE4F0FD34FF09E03B3EB12620DD958
:1022DC004FEA002343F0004310F0004F23FA02F0C2
:1022EC0018BF404270474FF00000704712F1610F69
:1022FC0001D1420205D110F0004008BF6FF0004040
:10230C0070474FF00000704710B504460448134660
:10231C0020B10A4602202146AFF3008010BD00BF59
:10232C00000000000A44914200F1FF3300D17047D5
:10233C0010B511F8014B914203F8014FF9D110BDC2
:10234C0003460244934200D1704703F8011BF9E79E
:10235C0038B50D4B04461D68AB6B7BB91820FEF7E6
:10236C00ADFA0A4A0A4BA863C0E90023094B0122C3
:10237C0083600B2383810023C0E904230022AB6B11
:10238C001C615A6138BD00BF040000200E33CDAB78
:10239C0034126DE6ECDE0500034613F8012B002A1F
:1023AC00FBD1181A013870471D000A085D000A0895
:1023BC0085000A0889000A080000000044485431CE
:1023CC00312074657374004661696C656420746FA8
:1023DC0020726561642066726F6D204448542073CE
:1023EC00656E736F720000000000000000000000BA
:1023FC0011090A085B090A0833090A0813090A08B3
:10240C003B090A0843090A084B090A0853090A0838
:10241C000000000000000000A5090A0895090A0840
:10242C0097090A08617070000000000000000000AD
:10243C006D0A0A08770A0A08810A0A088B0A0A0830
:10244C00950A0A08A10A0A08AD0A0A08B50A0A0878
:10245C00BD0A0A08C90A0A08D10A0A08DB0A0A08CE
:10246C00E50A0A086E616E00696E66006F7666009A
:10247C002E0025592D256D2D25645425483A254DC2
:10248C003A2553257A0061736374696D6500000009
:10249C000000000000000000550E0A08BD0E0A08DE
:1024AC00990E0A08490B0A08690E0A08850E0A08D3
:1024BC00770E0A08930E0A08570E0A085B0E0A08D4
:1024CC0000000000000000004D0F0A08B30F0A08BE
:1024DC008B0F0A08490B0A087D0F0A084F0F0A08D0
:1024EC005F0F0A08AD0F0A086F0F0A08490F0A0898
:1024FC0000000000000000008B110A0881110A087E
:10250C0077110A08E9100A086B110A085F110A080A
:10251C00AD0A0A08B50A0A0853110A084B110A0831
:10252C0041110A0837110A08F3100A0800000000CC
:10253C006D010A085D0A0A08350B0A08AD0D0A0878
:10254C00050E0A08410E0A0895110A0835140A08E6
:04255C00000000007B
:042560000000000077
:1025640092240A0808000020000000000000000077
:102574000000000000000000000000000000000057
:102584000000000000000000000000000000000047
:102594000000000000000000000000000000000037
:1025A4000000000000000000000000000000000027
:1025B4000000000000000000000000000000000017
:0825C40000000000000000000F
:1025CC00FFFFFFFF00000102030405060708090ACC
:1025DC000B0C0D0E0F101112131415161718191AC7
:0825EC001B1C1D1E1F2028000E
:0425F40078563412CF
:04000005080A001CC9
:00000001FF
